:100000000C9400010C9431010C9431010C943101D9
:100010000C9431010C9431010C9431010C94310198
:100020000C9431010C9431010C9431010C94310188
:100030000C9431010C9431010C9431010C94310178
:100040000C9431010C9431010C9431010C94310168
:100050000C9431010C9431010C9431010C9438084A
:100060000C9431010C9402080C94D8070C943101C3
:100070000C9431010C9431010C9431010C94310138
:100080000C9431010C9431010C9431010C94310128
:100090000C9431010C9431010C9431010C94310118
:1000A0000C9431010C9431010C9431010C94310108
:1000B0000C9431010C9431010C9431010C943101F8
:1000C0000C9431010C9431010C9431010C943101E8
:1000D0000C9431010C9431010C9431010C943101D8
:1000E0000C9431010C94D8030C94F1020C94820806
:1000F0000C94E2020C9453030C949C020C940503A0
:100100000C948B0300407A10F35A00A0724E180929
:100110000010A5D4E80000E87648170000E40B546E
:10012000020000CA9A3B000000E1F505000080963D
:100130009800000040420F000000A086010000006F
:10014000102700000000E803000000006400000029
:1001500000000A00000000000100000000002C76F2
:10016000D888DC674F0823DFC1DFAE59E1B1B7960D
:10017000E5E3E453C63AE651997696E8E6C284266A
:10018000EB898C9B62ED407C6FFCEFBC9C9F40F246
:10019000BAA56FA5F490055A2AF75C936B6CF967C2
:1001A0006DC11BFCE0E40D47FEF520E6B500D0ED87
:1001B000902E0300943577050080841E08000020EF
:1001C0004E0A000000C80C333333330F986E12838D
:1001D0001141EF8D2114893BE65516CFFEE6DB1861
:1001E000D1844B381BF77C1D901DA4BBE424203226
:1001F00084725E228100C9F124ECA1E53D278208CA
:1002000011241FBECFEFD1E2DEBFCDBF00E00CBF97
:1002100022E0AEE1B2E001C01D92AA3FB207E1F7D1
:1002200012E0A0E0B2E0E6EFF1E400E00BBF02C0B4
:1002300007900D92AE31B107D9F710E0C0E0D1E0E0
:1002400000E006C021970109802FFE010E94DB1EFD
:10025000CF3FD10780E00807A9F70E94D30A0C948A
:10026000F9200C9400004F925F926F927F928F92D0
:100270009F92AF92BF92CF92DF92EF92FF920F9335
:100280001F93CF93DF93CDB7DEB76C970FB6F8947B
:10029000DEBF0FBECDBF6D877E878F87988B298B82
:1002A0003A8B4B8B5C8B2CA93DA94EA95FA96CADF9
:1002B0007DAD8EAD9FAD0E94F71D6D8B7E8B8F8BBC
:1002C000988F2D853E854F855889C801B7010E94BA
:1002D000F71D6D837E838F83988728A939A94AA942
:1002E0005BA968AD79AD8AAD9BAD0E94F71D698FA2
:1002F0007A8F8B8F9C8F29893A894B895C89C601BB
:10030000B5010E94F71D69877A878B879C872D81AD
:100310003E814F8158856D897E898F89988D0E9495
:100320001F1D4B015C0129853A854B855C85698DD4
:100330007A8D8B8D9C8D0E941F1D9B01AC01C50188
:10034000B4010E94F71D2B013C0120E030E0A9011F
:100350000E94B91C87FF04C077FA709477F87094F4
:100360002FE632E143E85AE3C301B2010E94B91C0F
:1003700087FDE0C02CA93DA94EA95FA969897A89AA
:100380008B899C890E94F71D4B015C0128A939A922
:100390004AA95BA96D857E858F8598890E94F71D86
:1003A00069837A838B839C83A5019401698D7A8DFF
:1003B0008B8D9C8D0E941F1D6B017C0129813A81D0
:1003C0004B815C816D897E898F89988D0E941F1D6C
:1003D0009B01AC01C701B6010E94F71D6B017C01B6
:1003E00020E030E0A9010E94B91C87FF04C0F7FAA1
:1003F000F094F7F8F094A50194016D817E818F81CE
:1004000098850E941F1D4B015C0129813A814B8117
:100410005C8169857A858B859C850E941F1D9B0167
:10042000AC01C501B4010E94F71D4B015C0120E045
:1004300030E0A9010E94B91C87FF04C0B7FAB0944C
:10044000B7F8B094A3019201C701B6010E94641EDF
:100450006B017C0120E030E0A9010E94B91C87FDFE
:1004600069C020E030E040E85FE3C701B6010E94C8
:10047000D61E18160CF45EC0A3019201C501B4018A
:100480000E94641E4B015C0120E030E0A9010E9443
:10049000B91C87FD4FC020E030E040E85FE3C501B4
:1004A000B4010E94D61E18160CF444C0A701960190
:1004B0006D817E818F8198850E941F1D2D853E85CF
:1004C0004F8558890E94F81D2296EEADFFAD229708
:1004D0006083718382839383A701960169857A85FE
:1004E0008B859C850E941F1D29893A894B895C89CF
:1004F0000E94F81D2496EEADFFAD249760837183B2
:100500008283938381E06C960FB6F894DEBF0FBEB2
:10051000CDBFDF91CF911F910F91FF90EF90DF90B2
:10052000CF90BF90AF909F908F907F906F905F9093
:100530004F90089580E0E7CFAF92BF92CF92DF92C5
:10054000EF92FF920F931F93CF93DF936C017B0188
:100550008B01040F151FEB015E01AE18BF08C01719
:10056000D10759F06991D601ED91FC910190F0818C
:10057000E02DC6011995892B79F7C501DF91CF913F
:100580001F910F91FF90EF90DF90CF90BF90AF90B1
:100590000895CF93DF93FC0144815581608171817F
:1005A00089E392E00E949C02EC0142E050E068E1A5
:1005B00072E089E392E00E949C028C0F9D1FDF9104
:1005C000CF910895FC01538D448D252F30E0842F69
:1005D00090E0821B930B541710F0CF96089501976B
:1005E0000895FC01918D828D981761F0A28DAE0F58
:1005F000BF2FB11D5D968C91928D9F5F9F73928FDF
:1006000090E008958FEF9FEF0895FC01918D828D0A
:10061000981731F0828DE80FF11D858D90E00895D7
:100620008FEF9FEF08952FB7F89480913502909146
:100630003602A0913702B09138022FBF8093410259
:1006400090934202A0934302B093440289E392E064
:100650000E94050397FF26C02FB7F89480913502BA
:1006600090913602A0913702B09138022FBF40918D
:100670004102509142026091430270914402841BF6
:10068000950BA60BB70B40913D0250913E02609135
:100690003F027091400284179507A607B707B0F292
:1006A0008FEF9FEF0895FC01918D228D892F90E0AF
:1006B000805C9F4F821B91098F739927089589E36E
:1006C00092E00E94530321E0892B09F420E0822F5D
:1006D0000895FC01A48DA80FB92FB11DA35ABF4FD7
:1006E0002C91848D90E001968F739927848FA68931
:1006F000B7892C93A089B1898C91837080648C9385
:10070000938D848D981306C00288F389E02D808133
:100710008F7D80830895EF92FF920F931F93CF9365
:10072000DF93EC0181E0888F9B8D8C8D98131AC02C
:10073000E889F989808185FF15C09FB7F894EE8913
:10074000FF896083E889F989808183708064808370
:100750009FBF81E090E0DF91CF911F910F91FF90BB
:10076000EF900895F62E0B8D10E00F5F1F4F0F7363
:100770001127E02E8C8D8E110CC00FB607FCFACF1E
:10078000E889F989808185FFF5CFCE010E94690350
:10079000F1CFEB8DEC0FFD2FF11DE35AFF4FF082EF
:1007A0009FB7F8940B8FEA89FB8980818062CFCF55
:1007B000CF93DF93EC01888D8823B9F0AA89BB8998
:1007C000E889F9898C9185FD03C0808186FD0DC083
:1007D0000FB607FCF7CF8C9185FFF2CF808185FFA4
:1007E000EDCFCE010E946903E9CFDF91CF9108954B
:1007F00080E090E0892B29F00E945F0381110E9424
:10080000000080E090E0892B49F080E090E0892BA7
:1008100029F00E94000081110E94000080E090E019
:10082000892B49F080E090E0892B29F00E9400009C
:1008300081110E94000080E090E0892B49F080E067
:1008400090E0892B29F00E94000081110C94000097
:1008500008953FB7F89480911F0290912002A091D3
:100860002102B091220226B5A89B05C02F3F19F0A6
:100870000196A11DB11D3FBFBA2FA92F982F882720
:10088000BC01CD01620F711D811D911D42E0660FFB
:10089000771F881F991F4A95D1F708958F929F92CD
:1008A000AF92BF92CF92DF92EF92FF920F931F937E
:1008B000CF93DF93EC018A819B818230910509F40B
:1008C00053C03CF40197D9F1E12CF12C00E010E089
:1008D0003CC08330910509F49EC00497A9F7888134
:1008E00099818130910509F4EFC0029769F7088575
:1008F0001985C8010E944E046B017C010A84DB85C6
:10090000C02D20E030E0A9010E94D61E181654F038
:10091000CE010E944E0420E030E0A9010E94D61EC4
:10092000181694F6CE010E944E049B01AC01C7013B
:10093000B6010E94D61E18160CF0BDCFECC0EC819B
:10094000FD81E088F18802891389B701C801DF9130
:10095000CF911F910F91FF90EF90DF90CF90BF90BC
:10096000AF909F908F9008958881998181309105F3
:1009700039F1029709F0A8CFEC81FD81A088B188F8
:10098000C288D388EE81FF81E088F18802891389CB
:1009900020E030E0A901B501C6010E94D61E18165C
:1009A00054F020E030E0A901B701C8010E94D61E32
:1009B00018160CF089CF9501A601B701C80124C013
:1009C000EC81FD81A088B188C288D38820E030E026
:1009D000A901B501C6010E94D61E18160CF074CFED
:1009E000EE81FF81E088F1880289138920E030E000
:1009F000A901B701C8010E94D61E18160CF064CFD9
:100A00009701A801B501C6010E94B91C87FF9DCFBF
:100A1000750186019ACF888199818130910551F1C4
:100A2000029709F051CFEC81FD81E088F1880289BD
:100A300013890884D985C02D20E030E0A901B701D1
:100A4000C8010E94D61E18165CF0CE010E944E040A
:100A500020E030E0A9010E94D61E18160CF034CF19
:100A6000CE010E944E049701A8010E94B91C87FF85
:100A700022CF6BCFEC81FD81E088F1880289138958
:100A800020E030E0A901B701C8010E94D61E181667
:100A90000CF01ACF0884D985C02DCE010E944E04D7
:100AA0004B015C0120E030E0A9010E94D61E18161F
:100AB0000CF00ACF9701A801C501B4010E94D61E0F
:100AC00018160CF0F8CE41CF08851985C8010E9490
:100AD0004E046B017C0120E030E0A9010E94D61E8B
:100AE00018160CF0F1CE0A84DB85C02DCE010E94D1
:100AF0004E044B015C0120E030E0A9010E94D61EAB
:100B000018160CF0E1CEA5019401C701B6010E94B0
:100B1000B91C87FFD0CEE801CECEFC01611571056E
:100B200089F04115510571F081E090E09183808357
:100B300082E090E093838283758364835783468346
:100B400081E0089580E00895FC01118210821382F3
:100B500012821582148217821682118610861386DD
:100B6000128608950F931F93CF93DF93EC018B01AF
:100B700084E090E00E94E31E0097D1F0FC01118315
:100B8000008313821282E881F981309749F49983B6
:100B9000888381E0DF91CF911F910F910895F90132
:100BA0002281338121153105D1F793838283F1CFDF
:100BB00080E0F0CF0F931F93CF93DF93EC018B0175
:100BC00084E090E00E94E31E0097D1F0FC011183C5
:100BD000008313821282EE81FF81309749F49F8354
:100BE0008E8381E0DF91CF911F910F910895F901DC
:100BF0002281338121153105D1F793838283F1CF8F
:100C000080E0F0CF8F929F92AF92BF92CF92DF920F
:100C1000EF92FF920F931F93CF93DF93EC014A0162
:100C20005B01680179018CE090E00E94E31EFC0109
:100C300080E0309799F01182108282829382A482A0
:100C4000B582C682D782E086F18613861286A88195
:100C5000B981109789F4F983E88381E0DF91CF911E
:100C60001F910F91FF90EF90DF90CF90BF90AF90CA
:100C70009F908F900895DC011A968D919C911B97FF
:100C80000097C9F7B183A0831B96FC93EE931A9744
:100C9000E4CF0F931F93CF93DF93EC018B0184E09C
:100CA00090E00E94E31E0097D1F0FC0111830083C5
:100CB00013821282EC81FD81309749F49D838C83ED
:100CC00081E0DF91CF911F910F910895F901228169
:100CD000338121153105D1F793838283F1CF80E0F1
:100CE000F0CF0F931F93CF93DF93EC018B0184E040
:100CF00090E00E94E31E0097D1F0FC011183008375
:100D000013821282E881F981309749F499838883AC
:100D100081E0DF91CF911F910F910895F901228118
:100D2000338121153105D1F793838283F1CF80E0A0
:100D3000F0CFCF93DF93EC0188819981009711F078
:100D40000E947F1F198218821D821C821B821A82B8
:100D5000DF91CF910895FC0180819181009711F07E
:100D60000C947F1F0895CF93DF93EB016A857B85F9
:100D70006115710511F00E94B306CE01DF91CF918C
:100D80000C947F1F0F931F93CF93DF93EC01888107
:100D90009981009759F02A813B812617370730F057
:100DA00081E0DF91CF911F910F9108958B016F5FCB
:100DB0007F4F0E940820009759F0998388831B83F6
:100DC0000A832C813D81232B59F7FC011082E8CF47
:100DD00080E0E7CF0F931F93CF93DF93EC010C815B
:100DE0001D810F5F1F4FB8010E94C206882391F03A
:100DF000288139818C819D816BE172E0820F931F84
:100E00000E94F2201D830C83CE01DF91CF911F91B0
:100E10000F910895CE010E949906F6CFEF92FF92AE
:100E20000F931F93CF93DF93EC01FB01E080F180E0
:100E3000E114F10411F10481158101151105A9F0E6
:100E40008C819D81080F191FB801CE010E94C20636
:100E5000882399F0288139818C819D81B701820F87
:100E6000931F0E94F2201D830C83CE01DF91CF914E
:100E70001F910F91FF90EF900895CE010E94990667
:100E8000F4CFEF92FF920F931F93CF93DF93EC0178
:100E90007B018A01BA010E94C20681110BC0CE01FA
:100EA0000E949906CE01DF91CF911F910F91FF9083
:100EB000EF9008951D830C83B701888199810E946A
:100EC000F220F0CFEF92FF920F931F93CF93DF9317
:100ED000CDB7DEB7A1970FB6F894DEBF0FBECDBF7A
:100EE0007C01CB01BA01F7011182108213821282B8
:100EF000158214828E010F5F1F4F22E044E00E9492
:100F0000151A0097C9F0FC0101900020E9F731970C
:100F1000AF01481B590BBC01C7010E944107A196B4
:100F20000FB6F894DEBF0FBECDBFDF91CF911F91FA
:100F30000F91FF90EF900895C7010E949906EFCF9F
:100F4000EF92FF920F931F93CF93DF93CDB7DEB74E
:100F500062970FB6F894DEBF0FBECDBF8C01CB01F8
:100F6000F8011182108213821282158214824AE0E3
:100F70009E012F5F3F4F7901B9010E94331AF7019B
:100F800001900020E9F73197AF014E195F09B701D1
:100F9000C8010E94410762960FB6F894DEBF0FBEEB
:100FA000CDBFDF91CF911F910F91FF90EF900895EA
:100FB0001F920F920FB60F9211240BB60F922F9320
:100FC0003F934F935F936F937F938F939F93AF93D1
:100FD000BF93EF93FF9389E392E00E946903FF912F
:100FE000EF91BF91AF919F918F917F916F915F91A1
:100FF0004F913F912F910F900BBE0F900FBE0F900E
:101000001F9018951F920F920FB60F9211240BB6D6
:101010000F922F938F939F93EF93FF93E091490249
:10102000F0914A028081E0914F02F091500282FDDE
:101030001DC09081809152028F5F8F732091530267
:10104000821741F0E0915202F0E0E75CFD4F958F8E
:1010500080935202FF91EF919F918F912F910F906A
:101060000BBE0F900FBE0F901F9018958081F2CF8E
:101070001F920F920FB60F9211242F933F938F93CD
:101080009F93AF93BF938091350290913602A091C8
:101090003702B091380230911E0223E0230F2D3722
:1010A00058F50196A11DB11D20931E0280933502B3
:1010B00090933602A0933702B093380280911F02BA
:1010C00090912002A0912102B09122020196A11DCF
:1010D000B11D80931F0290932002A0932102B09330
:1010E0002202BF91AF919F918F913F912F910F90CD
:1010F0000FBE0F901F90189526E8230F0296A11D92
:10110000B11DD2CF4F925F926F927F928F929F923A
:10111000AF92BF92CF92DF92EF92FF92E9E3F2E0BB
:101120001382128288EE93E0A0E0B0E0848395837E
:10113000A683B7838AE092E09183808385EC90E078
:101140009587848784EC90E09787868780EC90E091
:10115000918B808B81EC90E0938B828B82EC90E082
:10116000958B848B86EC90E0978B868B118E128EFC
:10117000138E148E86E090E00E94E31EFC01118223
:10118000108213821282158214829093F50280934A
:10119000F40284E190E00E94E31EFC0180E090E014
:1011A000A0EAB1EC80839183A283B3838483958387
:1011B000A683B783812C912CA12C80ECB82E80863D
:1011C0009186A286B386C12CD12C90E8E92E9FEBA4
:1011D000F92EC486D586E686F786108A118A128A89
:1011E000138AF093F302E093F20284E190E00E940C
:1011F000E31EFC0180829182A282B382C482D582E6
:10120000E682F782C086D186E286F386148615864A
:1012100016861786108A118A128A138A9093F10211
:101220008093F00284E190E00E94E31EFC01C08202
:10123000D182E282F382148215821682178210868E
:10124000118612861386412C512C20E8622E2FE342
:10125000722E4486558666867786108A118A128A8F
:10126000138A9093EF028093EE0284E190E00E9453
:10127000E31EFC0110821182128213824482558285
:10128000668277824086518662867386C12CD12C15
:10129000E12C30E4F32EC486D586E686F786108AE4
:1012A000118A128A138A9093ED028093EC0284E1F2
:1012B00090E00E94E31EFC014082518262827382B0
:1012C000C482D582E682F78280E090E0A0EAB1E4B1
:1012D00080879187A287B38784879587A687B787FA
:1012E000108A118A128A138AF093EB02E093EA02C1
:1012F00084E190E00E94E31EFC0180E090E0A0E227
:10130000B2EC80839183A283B38384839583A68385
:10131000B783412C512C40E8642E40EC742E40865B
:1013200051866286738684869586A686B786108ADD
:10133000118A128A138AF093E902E093E80284E1A9
:1013400090E00E94E31EFC0140825182628273821F
:1013500084829582A682B78280869186A286B38691
:101360001486158616861786108A118A128A138AA1
:101370009093E7028093E60284E190E00E94E31EEE
:10138000FC0180829182A282B3821482158216822D
:1013900017821086118612861386C486D586E68645
:1013A000F786108A118A128A138A9093E502809335
:1013B000E40284E190E00E94E31EFC0110821182AD
:1013C00012821382C482D582E682F782C086D186D9
:1013D000E286F386812C912C50E8A52E50E4B52EA0
:1013E00084869586A686B786108A118A128A138A01
:1013F0009093E3028093E20284E190E00E94E31E76
:10140000FC01C082D182E282F38284829582A6822C
:10141000B78280E090E0A8E4B3E480879187A28758
:10142000B38784879587A687B787108A118A128A1F
:10143000138AF093E102E093E00284E190E00E94DD
:10144000E31EFC0110821182128213821482158223
:10145000168217821086118612861386812C912C93
:1014600068ECA62E61E4B62E84869586A686B7869D
:10147000108A118A128A138A9093DF028093DE0207
:1014800084E190E00E94E31EFC011082118212822E
:10149000138284829582A682B78280869186A286F4
:1014A000B386C12CD12C78E4E72E72E4F72EC486E3
:1014B000D586E686F786108A118A128A138A909357
:1014C000DD028093DC0284E190E00E94E31EFC01D7
:1014D00080829182A282B382C482D582E682F78220
:1014E000C086D186E286F386812C912CA6E9AA2EAD
:1014F000A2E4BA2E84869586A686B786108A118ABB
:10150000128A138A9093DB028093DA0284E190E0DE
:101510000E94E31EFC01C082D182E282F3828482B7
:101520009582A682B78280869186A286B386C12CD8
:10153000D12CB8ECEB2EB2E4FB2EC486D586E68621
:10154000F786108A118A128A138A9093D90280939F
:10155000D80284E190E00E94E31EFC018082918227
:10156000A282B382C482D582E682F782C086D18607
:10157000E286F386C486D586E686F786108A118AC7
:10158000128A138A9093D7028093D602FF90EF902D
:10159000DF90CF90BF90AF909F908F907F906F9093
:1015A0005F904F900895CF93DF93CDB7DEB7C655C8
:1015B000D1090FB6F894DEBF0FBECDBF789484B5C5
:1015C000826084BD84B5816084BD85B5826085BD3F
:1015D00085B5816085BD80916E00816080936E00CD
:1015E00010928100809181008260809381008091BF
:1015F0008100816080938100809180008160809370
:1016000080008091B10084608093B1008091B0002F
:1016100081608093B00080919100826080939100FE
:101620008091910081608093910080919000816011
:10163000809390008091A10082608093A1008091AE
:10164000A10081608093A1008091A00081608093BF
:10165000A00080912101826080932101809121016D
:10166000816080932101809120018160809320011D
:1016700080917A00846080937A0080917A00826001
:1016800080937A0080917A00816080937A008091C3
:101690007A00806880937A001092C100E09149023C
:1016A000F0914A0282E08083E0914502F091460287
:1016B0001082E0914702F09148028FEC80831092F3
:1016C0005102E0914D02F0914E0286E08083E0915C
:1016D0004B02F0914C02808180618083E0914B024B
:1016E000F0914C02808188608083E0914B02F09100
:1016F0004C02808180688083E0914B02F0914C0223
:1017000080818F7D808388E090E00E94E31E8C01C1
:10171000EE24E394F12CDC01ED92FC92FC011282A8
:10172000138214821582178216822091F202309160
:10173000F3023EA32DA3B9010E94DA058091F002C5
:101740009091F1029AA789A7BC01C8010E94DA050D
:10175000A091EE02B091EF02B8AFAFABBD01C801EE
:101760000E94DA05E091EC02F091ED02FEA7EDA7F0
:10177000BF01C8010E94DA052091EA023091EB0214
:101780003AAB29ABB901C8010E94DA054090F402D6
:101790005090F502B801C2010E94710688E090E005
:1017A0000E94E31E8C0182E090E0D8018D939C930F
:1017B000F8011282138214821582178216822091F8
:1017C000E8023091E9023EAB2DABB901C8010E949D
:1017D000DA058091E6029091E7029AAF89AFBC01E9
:1017E000C8010E94DA05A091E402B091E502BEAF03
:1017F000ADAFBD01C8010E94DA05E091E202F091AF
:10180000E3022396FFAFEEAF2397BF01C8010E940A
:10181000DA052091E0023091E10227963FAF2EAF2A
:101820002797B901C8010E94DA05B801C2010E94D8
:1018300071068AE090E00E94E31E8C01DC01ED92CB
:10184000FC92FC0112821382148215821782168286
:1018500082E090E00E94E31EDC011D921C92F801E0
:10186000918780872091DE023091DF022B963FAF77
:101870002EAF2B97B901C8010E94DA05A090DC02B7
:10188000B090DD02B501C8010E94DA052090DA02AD
:101890003090DB02B101C8010E94DA058091D802C4
:1018A0009091D9022F969FAF8EAF2F97BC01C801A0
:1018B0000E94DA05A091D602B091D7026196BFAF1F
:1018C000AEAF6197BD01C8010E94DA0584E090E0E7
:1018D0000E94E31E3C01009709F459C0FC011183EA
:1018E000008313821282D8011696BC916696BFAF10
:1018F0006697F801F7816796FFAF6797EB2EFF2E8B
:10190000E114F104C1F166960FAD669767961FADBD
:1019100067970115110551F1D8011296CD90DC9011
:101920001397C114D10411F1ED91FC916596FFAFAD
:10193000EEAF6597D6018D909C90208131814281D8
:101940005381F40160817181828193810E94B91C6D
:1019500087FF0AC0D8018D929C9265962EAD3FAD4F
:101960006597F601318320838601D3CFD701129684
:10197000ED90FC90C5CFD2011296ED91FC9113979A
:10198000309709F0FDC413967C926E92129782E014
:1019900090E00E94E31E3C01FC011182108282E073
:1019A00090E00E94E31E4C01DC011D921C9282E03B
:1019B00090E00E94E31E8C01FC011182108282E003
:1019C00090E00E94E31E65969FAF8EAF6597DC01A5
:1019D0001D921C9282E090E00E94E31E6C01FC01CB
:1019E000118210828CE090E00E94E31E7C010E9434
:1019F000A4054DA95EA96DA17EA1C7010E948D0518
:101A000061966EAD7FAD6197C6010E94B20587E019
:101A100090E00E94E31EFC0181E090E091838083CE
:101A20001282F482E382D682C582BF01C2010E9483
:101A300049068CE090E00E94E31E6C010E94A40520
:101A40004DA95EA969A57AA5C6010E948D052F96AC
:101A50006EAD7FAD2F9765968EAD9FAD65970E9459
:101A6000B20587E090E00E94E31EFC0182E090E076
:101A7000918380831282D482C38265962EAD3FAD5E
:101A8000659736832583BF01C2010E9449068CE019
:101A900090E00E94E31E7C010E94A4054DA95EA96E
:101AA0006FA978ADC7010E948D05B101C8010E94E0
:101AB000B20587E090E00E94E31EFC0183E090E025
:101AC000918380831282F482E38216830583BF01AF
:101AD000C2010E9449068CE090E00E94E31E7C0156
:101AE0000E94A4054DA95EA96DA57EA5C7010E940F
:101AF0008D05B101C8010E94B20587E090E00E9407
:101B0000E31EFC0184E090E0918380831282F482E2
:101B1000E38216830583BF01C2010E9449068CE05F
:101B200090E00E94E31E7C010E94A4054DA95EA9DD
:101B300069A97AA9C7010E948D05B501C4010E9457
:101B4000B20587E090E00E94E31EFC0185E090E092
:101B5000918380831282F482E38296828582BF0120
:101B6000C2010E9449068CE090E00E94E31E7C01C5
:101B70000E94A40549AD5AAD6DA17EA1C7010E9486
:101B80008D0561966EAD7FAD6197C8010E94B2056B
:101B900087E090E00E94E31EFC0186E090E09183E4
:101BA00080831282F482E38216830583BF01C2011F
:101BB0000E9449068CE090E00E94E31E7C010E9496
:101BC000A40549AD5AAD69A57AA5C7010E948D0546
:101BD0002F966EAD7FAD2F97C8010E94B20587E0AA
:101BE00090E00E94E31EFC0187E090E091838083F7
:101BF0001282F482E38216830583BF01C2010E9430
:101C000049068CE090E00E94E31E7C010E94A4053E
:101C100049AD5AAD6FA978ADC7010E948D05B101DC
:101C2000C8010E94B20587E090E00E94E31EFC011B
:101C300088E090E0918380831282F482E3821683AD
:101C40000583BF01C2010E9449068CE090E00E941A
:101C5000E31E7C010E94A40549AD5AAD6DA57EA589
:101C6000C7010E948D05B501C8010E94B20587E039
:101C700090E00E94E31EFC0189E090E09183808364
:101C80001282F482E38216830583BF01C2010E949F
:101C900049068CE090E00E94E31E7C010E94A405AE
:101CA00049AD5AAD69A97AA9C7010E948D05B50150
:101CB000C8010E94B20587E090E00E94E31EFC018B
:101CC0008AE090E0918380831282F482E38216831B
:101CD0000583BF01C2010E9449068CE090E00E948A
:101CE000E31E7C010E94A4054DAD5EAD6DA17EA1F9
:101CF000C7010E948D05B101C8010E94B20587E0AD
:101D000090E00E94E31EFC018BE090E091838083D1
:101D10001282F482E38216830583BF01C2010E940E
:101D200049068CE090E00E94E31E7C010E94A4051D
:101D30004DAD5EAD69A57AA5C7010E948D05B101C3
:101D4000C8010E94B20587E090E00E94E31EFC01FA
:101D50008CE090E0918380831282F482E382168388
:101D60000583BF01C2010E9449068CE090E00E94F9
:101D7000E31E7C010E94A4054DAD5EAD6FA978AD58
:101D8000C7010E948D05B101C8010E94B20587E01C
:101D900090E00E94E31EFC018DE090E0918380833F
:101DA0001282F482E38216830583BF01C2010E947E
:101DB00049068CE090E00E94E31E7C010E94A4058D
:101DC0004DAD5EAD6DA57EA5C7010E948D05B1012B
:101DD000C8010E94B20587E090E00E94E31EFC016A
:101DE0008EE090E0918380831282F482E3821683F6
:101DF0000583BF01C2010E9449068CE090E00E9469
:101E0000E31E7C010E94A4054DAD5EAD69A97AA9CF
:101E1000C7010E948D05B101C8010E94B20587E08B
:101E200090E00E94E31EFC018FE090E091838083AC
:101E30001282F482E38216830583BF01C2010E94ED
:101E400049068CE090E00E94E31E7C010E94A405FC
:101E500023964EAD5FAD23976DA17EA1C7010E9471
:101E60008D05B101C8010E94B20587E090E00E9493
:101E7000E31EFC0180E190E0918380831282F48272
:101E8000E38216830583BF01C2010E9449068CE0EC
:101E900090E00E94E31E7C010E94A40523964EADB3
:101EA0005FAD239769A57AA5C7010E948D05B10191
:101EB000C8010E94B20587E090E00E94E31EFC0189
:101EC00081E190E0918380831282F482E382168321
:101ED0000583BF01C2010E9449068CE090E00E9488
:101EE000E31E7C010E94A40523964EAD5FAD2397AF
:101EF0006FA978ADC7010E948D05B501C4010E948C
:101F0000B20587E090E00E94E31EFC0182E190E0D0
:101F1000918380831282F482E38296828582BF015C
:101F2000C2010E9449068CE090E00E94E31E7C0101
:101F30000E94A40523964EAD5FAD23976DA57EA5A7
:101F4000C7010E948D052B966EAD7FAD2B97C30107
:101F50000E94B20587E090E00E94E31EFC0183E14D
:101F600090E0918380831282F482E382768265829C
:101F7000BF01C2010E9449068CE090E00E94E31E6E
:101F80007C010E94A40523964EAD5FAD239769A9FD
:101F90007AA9C7010E948D052B966EAD7FAD2B9758
:101FA000C3010E94B20587E090E00E94E31EFC019D
:101FB00084E190E0918380831282F482E3827682CE
:101FC0006582BF01C2010E9449068CE090E00E9438
:101FD000E31E7C010E94A40527964EAD5FAD2797B6
:101FE0006DA17EA1C7010E948D05B101C8010E94AB
:101FF000B20587E090E00E94E31EFC0185E190E0DD
:10200000918380831282F482E38216830583BF0169
:10201000C2010E9449068CE090E00E94E31E8C0100
:102020000E94A40527964EAD5FAD279769A57AA5B6
:10203000C8010E948D05B501C4010E94B20587E068
:1020400090E00E94E31EFC0186E190E09183808392
:1020500012821483038396828582BF01C2010E948B
:1020600049068CE090E00E94E31E8C010E94A405CA
:1020700027964EAD5FAD27976FA978ADC8010E9436
:102080008D05B501C4010E94B20587E090E00E9471
:10209000E31EFC0187E190E0918380831282148328
:1020A000038396828582BF01C2010E9449068CE0AB
:1020B00090E00E94E31E8C010E94A40527964EAD7D
:1020C0005FAD27976DA57EA5C8010E948D052B9653
:1020D0006EAD7FAD2B97C3010E94B20587E090E003
:1020E0000E94E31EFC0188E190E0918380831282CC
:1020F0001483038376826582BF01C2010E94490670
:102100008CE090E00E94E31E8C010E94A4052796BB
:102110004EAD5FAD279769A97AA9C8010E948D05C8
:102120002B966EAD7FAD2B97C3010E94B20587E061
:1021300090E00E94E31EFC0189E190E0918380839E
:1021400012821483038376826582BF01C2010E94DA
:102150004906CE010D9698A38F8FDE015396BAA340
:10216000A9A3FE013796FCA3EBA389E392E00E94AA
:102170005303181619060CF050C00E941303FC01FB
:1021800097FD0CC18D32910521F0C0970A9708F098
:10219000FEC0C12CD12C760110E0E130F105D9F060
:1021A000ED32F10509F4F8C0CF01C0970A9798F411
:1021B000AAE0B0E0A70196010E94DD1D6F01FF0FAC
:1021C000EE08FF08C60ED71EE81EF91EF0E3CF1A70
:1021D000D108E108F10889E392E00E94F1020E942F
:1021E0001303FC01C0970A97C0F2E130F105A9F290
:1021F000112341F0F094E094D094C094C11CD11C00
:10220000E11CF11C80913302909134028C159D05E4
:1022100021F0D0923402C092330260913302709167
:1022200034026115710509F0BDC010922F021092A1
:102230003002109231021092320210922B02109250
:102240002C0210922D0210922E0210922702109250
:1022500028021092290210922A0270E060E0CE015A
:1022600001960E94A00740912F0250913002609188
:10227000310270913202CE0107960E9462074091AE
:102280002702509128026091290270912A02CE0102
:102290000D960E94620740912B0250912C02609192
:1022A0002D0270912E02CE0149960E9462071C8A6F
:1022B0001B8A1E8A1D8A188E1F8A698D7A8D611568
:1022C000710531F04D8D5E8DCE0143960E94410720
:1022D000CE0143960E94EA06BE01635F7F4F0E94D3
:1022E0000E070E94EA06BE01695F7F4F0E940E073B
:1022F0000E94EA06BE016F5F7F4F0E940E070E9498
:10230000EA060E94C902CE0143960E94AB06CE01A6
:1023100049960E94AB06CE010D960E94AB06CE01F7
:1023200007960E94AB06CE0101960E94AB060E9462
:1023300029046B017C018CE2882E99249394A12CB2
:10234000B12C0E9429046C197D098E099F09683EF1
:10235000734081059105A8F3E1E08E1A9108A10868
:10236000B108F8EECF0EF3E0DF1EE11CF11C811482
:102370009104A104B10429F70E94F803F6CEFC01F0
:10238000828193810097D9F77382628200CB89E3BF
:1023900092E00E94F102F1CE11E01DCFC12CD12CB0
:1023A000760130CF072E000C880B990B0E94C01CC1
:1023B0009B01AC0160912B0270912C0280912D0247
:1023C00090912E020E94F71D6093270270932802BD
:1023D0008093290290932A022091F4023091F50211
:1023E0003AAB29ABD9012D903C90F101309771F0B7
:1023F000A081B1812D913C91119721303105C1F51A
:1024000012966D937D938D939C931597F101309760
:10241000A9F0A081B1818D919C911197029761F5EE
:10242000409123025091240260912502709126026E
:1024300012964D935D936D937C93159791012115A1
:10244000310519F1F901A081B18116960D90BC9169
:10245000A02D1097A9F08D919C911197FC01108AE5
:10246000118A128A138A12960D90BC91A02DF1CF79
:102470000280F381E02DBACF0280F381E02DC7CF37
:10248000D90112962D913C91DACFE9A9FAA90280DF
:10249000F381E02DF8AFEFAB9F012115310509F471
:1024A000DEC0F901A081B18116960D90BC91A02DDE
:1024B000109769F08D919C911197FC01108A118AF7
:1024C000128A138A12960D90BC91A02DF1CFD901DA
:1024D00012962D913C91E1CFC701B6010E94D61E04
:1024E00087FD39C0A7019601C301B2010E94D61E23
:1024F00018168CF52DA13EA14FA158A5C301B2011C
:102500000E94F71D9B01AC0160E070E080E89FE352
:102510000E94641E4B015C01A3019201C701B60138
:102520000E94F71D9B01AC01C501B4010E941F1D53
:1025300020E030E040E85FE30E94F81DF801608B86
:10254000718B828B938BE9A5FAA50280F381E02D34
:10255000FAA7E9A792C0D80118968D909D90AD90EA
:10256000BC901B97A7019601C301B2010E94B91C40
:10257000181694F0A7019601C501B4010E94D61E59
:1025800087FD0AC080E090E0A0E8BFE3F801808BFF
:10259000918BA28BB38BD7CFD8011C968D919D9137
:1025A0000D90BC91A02D8DA79EA7AFA7B8ABA7019A
:1025B0009601C501B4010E94B91C87FF27C02DA553
:1025C0003EA54FA558A9C701B6010E94B91C18160F
:1025D000ECF02DA53EA54FA558A9C501B4010E9458
:1025E000F71D9B01AC0160E070E080E89FE30E9472
:1025F000641E2B013C01A5019401C701B6010E9494
:10260000F71D9B01AC01C301B20190CF2DA53EA5E2
:102610004FA558A9C701B6010E94D61E18160CF086
:1026200092CF2DA53EA54FA558A9C501B4010E9482
:10263000B91C81116AC0A3019201C501B4010E94B5
:10264000B91C882309F461C02DA13EA14FA158A552
:10265000C301B20156C0D10112962D903C902114B5
:10266000310409F45AC0F1010190F081E02DFEAB74
:10267000EDAB268137813AA729A789A59AA50097AE
:1026800051F3DC010D911C91EDA9FEA9C280D3800C
:10269000E480F580D8018D919D910D90BC91A02D85
:1026A0008DA39EA3AFA3B8A7F80144805580668090
:1026B00077809C01AD01C701B6010E94B91C2DA114
:1026C0003EA14FA158A587FF07CFC301B2010E94C9
:1026D000B91C81111AC0D8011896CD90DD90ED90EB
:1026E000FC901B97A7019601C301B2010E94B91C7F
:1026F000882359F0F8012485358546855785C7011B
:10270000B6010E94B91C81113DCFD80150961D928F
:102710001D921D921C92539716CFE9A9FAA9048124
:102720001581772473940115110509F4A1C3D8010B
:10273000ED90FC90F701838194810097B1F1C58001
:10274000D680C114D10489F10E944E044B015C0172
:1027500020E030E0A9010E94D61E18161CF5D70112
:1027600012967C92D601ED90FC90E114F104E9F010
:10277000F701C080D180D60150962D913D914D91A9
:102780005C915397C501B4010E94D61E18162CF413
:10279000F601808A918AA28AB38AD7011296ED90B7
:1027A000FC90E3CFF7011282DDCFF80102811381A3
:1027B000BACF2B8A3C8A4D8A5E8A9601A701C9014D
:1027C000DA018D879E87AF87B88BF8A1FF938F8D35
:1027D0008F939AA19F93A9A1AF935F934F933F9338
:1027E0002F931F93AF92BF92BDA9BF935F934F9357
:1027F0003F932F93E9A9EF93FDA5FF9329A52F936D
:102800003DA13F93A12CB12C30E8C32E3FE3D32E42
:102810008201710120E030E0A901BDA1A9A5FDA5BB
:10282000E9A96B2F7A2F8F2F9E2F0E9433010D85E0
:102830001E852F8538894B895C896D897E89D401F5
:1028400018968D919C910E940206D301ED91FC9106
:1028500060857185828593856F83788789879A875C
:102860000089118932892389A801A32FB22F9D01E4
:1028700009831A832B833C83E484F58406851785BA
:1028800021E030E02C0F3D1F3F932F933CA13F935D
:102890002BA12F93BF93AF935F934F931F930F93EE
:1028A000FF92EF92BF93AF935F934F9323812F9348
:1028B00022812F9321812F9320812F93A12CB12C42
:1028C000650120E030E040E85FE30E9433010FB68D
:1028D000F894DEBF0FBECDBF09811A812B813C81E8
:1028E0004F81588569857A85D40118968D919C9180
:1028F0000E940206D301ED91FC91C484D584E68444
:10290000F7842085318542855385C701B6010E9431
:10291000B91C882351F000E010E09801B701A6012E
:10292000F401808591850E940206D30112966D9074
:102930007C90BAC220E030E040E85FE36C2D7D2D52
:102940008E2D9F2D0E94B91C81111AC000E010E04D
:1029500020E83FE3B201A101F401808591850E9446
:102960000206D301ED91FC910089118922893389F6
:102970004085518562857385F40180859185B8CF46
:102980002B8A3C8A4D8A5E8A9601A701C901DA0129
:102990008D879E87AF87B88BD8017C9111966C91FB
:1029A000119712969C91129713968C91B8A1BF9390
:1029B000EF8DEF93FAA1FF93A9A1AF935F934F938C
:1029C0003F932F93D8011F96EC911F97EF931E967C
:1029D000EC911E97EF931D96EC911D97EF931C962B
:1029E000EC91EF935F934F933F932F938F939F932C
:1029F0006F937F93A12CB12C20E8C22E2FE3D22E0F
:102A00008201710120E030E0A901DB01FC016B2FA4
:102A10007A2F8F2F9E2F0E9433010D851E852F85C3
:102A200038894B895C896D897E89F401808591851F
:102A30000ACF0C2D1D2D2E2D3F2DC4C2F401008474
:102A4000F185E02D2F96FFAFEEAF2F9720803180DC
:102A50002114310409F404C28101D801ED90FC90E5
:102A60001197E114F10409F4F5C112968D919D912D
:102A70000D90BC91A02D89AB9AABABABBCABF70171
:102A80002281338144815581BC01CD010E94B91C52
:102A900087FFE4C11EA30DA3ADA1BEA10D90BC9103
:102AA000A02DBEA3ADA3109709F4D4C1ED91FC9164
:102AB000FEA7EDA7309781F3D8011A960D90BC912F
:102AC000A02DBEABADABD80116968D919D910D900A
:102AD000BC91A02D89AF9AAFABAFBCAFADA1BEA1E9
:102AE00012968D919D910D90BC91A02D21968CAF49
:102AF0009DAFAEAFBFAF2197ADA1BEA116968D9190
:102B00009D910D90BC91A02D25968CAF9DAFAEAF41
:102B1000BFAF25979C01AD01668177818085918546
:102B20000E94F71D63966CAF7DAF8EAF9FAF63972A
:102B300029A93AA94BA95CA9EDA9FEA962817381D3
:102B4000848195810E94F71D29966CAF7DAF8EAF71
:102B50009FAF299721962CAD3DAD4EAD5FAD21972E
:102B6000ADA5BEA512966D917D918D919C91159705
:102B70000E94F71D2B013C0129AD3AAD4BAD5CAD78
:102B8000EDA9FEA966817781808591850E94F71D58
:102B90002D966CAF7DAF8EAF9FAF2D9729962CAD44
:102BA0003DAD4EAD5FAD299763966CAD7DAD8EADFD
:102BB0009FAD63970E941F1D6B017C012D962CAD6C
:102BC0003DAD4EAD5FAD2D97C301B2010E941F1DFB
:102BD0009B01AC01C701B6010E94F71D69A77AA746
:102BE0008BA79CA720E030E0A9010E94B91C87FFB9
:102BF00009C089A59AA5ABA5BCA5B05889A79AA775
:102C0000ABA7BCA72FE632E143E85AE369A57AA552
:102C10008BA59CA50E94B91C87FD3ECF25962CADA7
:102C20003DAD4EAD5FAD259769AD7AAD8BAD9CAD39
:102C30000E94F71D4B015C0121962CAD3DAD4EADC0
:102C40005FAD219769A97AA98BA99CA90E94F71D5C
:102C50006B017C01A5019401C301B2010E941F1DFB
:102C60002B013C01A701960163966CAD7DAD8EAD45
:102C70009FAD63970E941F1D9B01AC01C301B20170
:102C80000E94F71D2B013C0120E030E0A9010E94C9
:102C9000B91C87FF04C077FA709477F87094A50187
:102CA000940129966CAD7DAD8EAD9FAD29970E94A4
:102CB0001F1D4B015C01A70196012D966CAD7DADEA
:102CC0008EAD9FAD2D970E941F1D9B01AC01C501CC
:102CD000B4010E94F71D6B017C0120E030E0A901E6
:102CE0000E94B91C87FF04C0F7FAF094F7F8F0943B
:102CF00029A53AA54BA55CA5C301B2010E94641E9B
:102D00004B015C0120E030E0A9010E94B91C87FD65
:102D1000C3CE20E030E040E85FE3C501B4010E948B
:102D2000D61E18160CF4B8CE29A53AA54BA55CA55D
:102D3000C701B6010E94641E6B017C0120E030E0F7
:102D4000A9010E94B91C87FDA7CE20E030E040E831
:102D50005FE3C701B6010E94D61E18160CF49CCE84
:102D60008CE090E00E94E31E7C01009709F494CE71
:102D7000EDA5FEA5DC01ED93FC93A5019401299638
:102D80006CAD7DAD8EAD9FAD29970E941F1D29A909
:102D90003AA94BA95CA90E94F81DD70112966D9320
:102DA0007D938D939C931597A50194012D966CAD01
:102DB0007DAD8EAD9FAD2D970E941F1D29AD3AAD03
:102DC0004BAD5CAD0E94F81DF70166837783808769
:102DD00091872DA93EA933872287ADA5BEA51B9655
:102DE000FC92EE921A97F901F182E082D8011296D4
:102DF0008D909D90AD90BC90159716964D905D90DE
:102E00006D907C901997EC901196FC90C8010E94EF
:102E10007F1FA501940121966CAD7DAD8EAD9FAD58
:102E200021970E94B91C81110CC0A3019201259623
:102E30006CAD7DAD8EAD9FAD25970E94B91C8823EA
:102E400019F08701EF2891F62F96AEADBFAD2F9701
:102E50002D903C90F10122843384FACD8701FDCD81
:102E6000AFA9B8AD12960D90BC91A02DB8AFAFAB85
:102E70002FA938AD2115310509F4A7C0D9018D90CE
:102E80009C90F40100851185D8016D917C916115AC
:102E9000710519F0C8010E94B306F8011182108271
:102EA000D40116966D907C906114710409F4C6CD1E
:102EB000F3010081118120E030E0A901D801509692
:102EC0006D917D918D919C9153970E94D61E1816FD
:102ED0000CF02BCDF801C080D180E280F380A701F7
:102EE000960164817581868197810E94B91C88232F
:102EF00059F000E010E09801B701A601D40118963E
:102F00008D919C910E940206F30100811181D801EC
:102F100014962D903D904D905C9017975096CC90C4
:102F200050975196DC9051975296EC905297539649
:102F3000FC905397A201910118966D917D918D910E
:102F40009C911B970E94B91C8111F4CCF801F0816F
:102F5000FDA3D8011196BC91B9A7F801F281FDA794
:102F6000D8011396BC91B9ABF801F485FDABD8013B
:102F70001D96BC901D971E96AC901E971F961C9197
:102F80007DA169A59DA589A9272F362F492F582FE7
:102F9000BF2F6B2F7B2D8A2D912F0E94B91C882368
:102FA00009F447CD20E030E040E85FE36C2D7D2D53
:102FB0008E2D9F2D0E94B91C8111FBCB00E010E0EB
:102FC00020E83FE3B201A101D7CCE091F402F091F7
:102FD000F5020280F381E02D309709F422C2A0812E
:102FE000B1818D919C911197019799F71896ED9168
:102FF000FC910190F081E02D19AE1AAE1BAE1CAE13
:1030000021961CAE1DAE1EAE1FAE2197309709F45F
:1030100040C1028513850115110509F43AC1C2802A
:10302000D380E480F580D80112968D909D90AD906C
:10303000BC901597B681BDA3278129A72084318430
:10304000A5019401C701B6010E94B91C882309F4A7
:1030500014C1D8011696BC91BFABF801F781FDA74A
:10306000D8011896BC91B9ABF801F185FDAB20E011
:1030700030E0A9016DA179A5C1010E94B91C882386
:1030800059F020E030E0A9016FA97DA589A99DA98B
:103090000E94B91C811168C020E030E0A9016DA137
:1030A00079A5C1010E94D61E18160CF04CC02DA1A6
:1030B00022962FAF229739A526963FAF26972A96BC
:1030C0002FAE2A972E963FAE2E97A7019601C501E7
:1030D000B4010E94F71D2B013C0122962FAD2297CF
:1030E00026963FAD26972A964FAD2A972E965FAD2E
:1030F0002E970E941F1D20E030E040E05FE30E9419
:103100001F1D4B015C012DA139A5A1016FA97DA552
:1031100089A99DA90E94D61E20E030E040EC5FE323
:10312000181624F020E030E040E450E4C301B2017E
:103130000E94641E9B01AC01C701B6010E94F81DEC
:103140006B017C0152C08FA922968FAF22979DA55B
:1031500026969FAF2697A9A92A96AFAF2A97BDA911
:103160002E96BFAF2E97B1CF20E030E0A9016DA120
:1031700079A5C1010E94D61E18160CF082C020E06D
:1031800030E0A9016FA97DA589A99DA90E94D61E3D
:1031900018160CF076C02DA139A5A1016FA97DA547
:1031A00089A99DA90E94B91CA7019601811141C05E
:1031B000C501B4010E94F71D4B015C0120E030E025
:1031C00040E05FE30E941F1D9B01AC01C701B601F7
:1031D0000E94F81D6B017C01A50194016DA179A5E8
:1031E000C1010E941F1D4B015C01A7019601B401A2
:1031F000C5010E941F1D9B01AC0121966CAD7DADE8
:103200008EAD9FAD21970E94F81D21966CAF7DAFCA
:103210008EAF9FAF21979401A50169AD7AAD8BADBB
:103220009CAD0E94F81D69AF7AAF8BAF9CAFF801DF
:10323000EDCEC501B4010E94F71D2B013C012DA16B
:1032400039A5A1016FA97DA589A99DA90E94F81D95
:1032500020E030E040E05FE30E941F1DA3019201E7
:103260000E941F1D4B015C0120E030E040E05FE365
:10327000C301B2010E941F1D5DCF8DA099A4510111
:10328000B4CFC12CD12C7601812C912CA12CB12C46
:10329000ACCF20E030E0A90169AD7AAD8BAD9CAD3B
:1032A0000E94B91C882309F4BCC029AD3AAD4BADCE
:1032B0005CAD21966CAD7DAD8EAD9FAD21970E942A
:1032C000641E60932F0270933002809331029093BA
:1032D00032026091330270913402CE0101960E9455
:1032E000A00740912F0250913002609131027091FD
:1032F0003202CE0107960E94620740912702509148
:1033000028026091290270912A02CE010D960E9436
:10331000620740912B0250912C0260912D02709116
:103320002E02CE0149960E9462071C8A1B8A1E8AC1
:103330001D8A188E1F8A698D7A8D6115710531F08D
:103340004D8D5E8DCE0143960E944107CE0143967E
:103350000E94EA06BE01635F7F4F0E940E070E9433
:10336000EA06BE01695F7F4F0E940E070E94EA06CF
:10337000BE016F5F7F4F0E940E070E94EA060E9407
:10338000C902CE0143960E94AB06CE0149960E9427
:10339000AB06CE010D960E94AB06CE0107960E94A9
:1033A000AB06CE0101960E94AB06C0902B02D090D6
:1033B0002C02E0902D02F0902E0223E733E145E34A
:1033C0005BE360912F027091300280913102909105
:1033D00032020E941F1D4B015C0129E832ED4EE7CD
:1033E0005FE3C701B6010E941F1D9B01AC01C5012F
:1033F000B4010E94F81D60932B0270932C028093FD
:103400002D0290932E02A70196010E94F71D609352
:1034100023027093240280932502909326020C9439
:10342000971160E070E0CB014CCFEF920F931F93A8
:10343000CF93DF93E80134E047FD34E1042E000C24
:10344000550B57FF03C0519541955109E32E022FAB
:10345000242FAE010E94581ACE01DF91CF911F9107
:103460000F91EF900895BB274A3031F4992322F44D
:10347000BDE2909581959F4F0C943F1ABB27FB01AD
:103480005527AA27880F991FAA1FA41710F0A41B5D
:1034900083955051B9F7A05DAA3308F0A95DA193B7
:1034A000009779F7B111B1931192CB010C94A91C3B
:1034B0008F929F92AF92BF92CF92DF92EF92FF9244
:1034C0000F931F93CF93DF9300D000D000D0CDB7E0
:1034D000DEB76A01F22EB02E102FFBE3AF2EA0163E
:1034E00008F41BE31F5F012F27E0AE014F5F5F4F22
:1034F0000E94D11BBC018981982F9970913009F4E9
:103500004EC09BE2E1FC04C09E2D9170E0FC49C0DE
:103510005E2D5071E82FE87083FF55C084E0911153
:1035200001C083E0EF2DE81B8F1508F0E0E0D60125
:103530008E2F20E25523C9F1992329F0D6019C93BF
:10354000C60101966C0196012D5F3F4FE2FE33C02C
:103550008EE4D6018C9391E411969C931197129668
:103560008C93D9018E2F90E281112AC0E20FF32FA4
:10357000F11D10828EEF9FEF29960FB6F894DEBFF3
:103580000FBECDBFDF91CF911F910F91FF90EF90B4
:10359000DF90CF90BF90AF909F908F9008959DE265
:1035A000B7CF90E2B5CF2D9381508111FCCFCE0ED5
:1035B000D11CE0E0C1CF8EE6D6018C9391E6CCCF52
:1035C0009D938150D1CF482F447082FF3DC084E04D
:1035D000911101C083E08F1510F4EF2DE81BD60187
:1035E0008E2F20E2552309F1992329F0D6019C93CF
:1035F000C60101966C0196012D5F3F4FE2FE1BC094
:1036000089E4D6018C938EE411968C93119786E40D
:1036100012968C93D9018E2F90E2882309F4A6CFBD
:103620009D938150FACF2D9381508111FCCFCE0E06
:10363000D11CE0E0D9CF89E6D6018C938EE61196B5
:103640008C93119786E6E4CF9B0177FF02C030E0B0
:1036500020E0A1E0B0E0911102C0B0E0A0E0F901EB
:103660003196AE0FBF1F8B2C912CBB2009F461C08B
:103670005401EFEFAE1ABE0AAA0DBB1DFA161B06C7
:1036800019F014F04F2D4A1B511188C0E3FC59C0AA
:103690007601A42FB0E2A1114FC0C40ED11C992312
:1036A00009F45BC040E0D6011196F60190836D01EC
:1036B000552309F448C0012F060F9A81582F5071E5
:1036C00084FF03C0913309F4015010160CF047C079
:1036D000093008F008E0EEE2FE2E5B01A01AB10806
:1036E00085019194819491082F3F320729F4D601E6
:1036F000FC92F60131966F016217730794F102177D
:1037000013077CF5DB01A21BB30BAA24A394B12CF5
:10371000AC0EBD1EAA0DBB1D11968C912150310916
:10372000D601119628153905F4F0F60180836D0154
:10373000DBCFB12CA12CA0CFF701B1937F01A15019
:10374000AACF9111B0CFD601942F50E302C05D9360
:1037500091509111FCCFC40ED11C40E0ACCF01E0E0
:10376000BACF80E3DBCF6217730731F4963388F466
:10377000953311F4552369F0F6018083FD01842F00
:1037800090E2811108C0A40FB11D1C9290E080E06E
:10379000F3CE81E3F1CF91938150F3CF911183CF99
:1037A0008ACF283008F027E03327DA01990F311D3E
:1037B00087FD916000966105710539F432602E5FD6
:1037C0003D9330E32A95E1F708959F3F30F080382C
:1037D0007105610509F03C5F3C5F3D93913008F055
:1037E0008068911DDF93CF931F930F93FF92EF9209
:1037F000192F987F9695E92F96959695E90FFF27B3
:10380000E25AFE4F99273327EE24FF24A701E70150
:1038100005900894079428F4360FE71EF81E491FF8
:10382000511D660F771F881F991F0694A1F70590F9
:10383000079428F4E70EF81E491F561FC11D770F85
:10384000881F991F661F0694A1F70590079428F416
:10385000F80E491F561FC71FD11D880F991F661FDD
:10386000771F0694A1F70590079420F4490F561F7F
:10387000C71FD81F990F661F771F881F0694A9F7C7
:1038800084911095177041F0D695C7955795479537
:10389000F794E7941A95C1F7E4E0F1E06894159085
:1038A000159135916591959105907FE27395E11899
:1038B000F10A430B560BC90BD009C0F7E10CF11EFE
:1038C000431F561FC91FD01D7EF4703311F48A9513
:1038D000E6CFE894015030F0080F0AF400270217F1
:1038E00008F4202F2395022F7A3328F079E37D9373
:1038F0002A95E9F710C07D932A9589F60694979545
:103900006795379517951794E118F10A430B560BF5
:10391000C90BD00998F023957E9173957A3308F0FE
:1039200070E37C932013B8F77E9170617D9330F043
:10393000839571E37D9370E32A95E1F71124EF906D
:10394000FF900F911F91CF91DF91992787FD90955F
:103950000895DC01FC01672F71917723E1F732971D
:1039600004C07C916D9370836291AE17BF07C8F35A
:1039700008950E94FB1C08F481E00895E89409C0B2
:1039800097FB3EF490958095709561957F4F8F4F92
:103990009F4F9923A9F0F92F96E9BB279395F695A8
:1039A000879577956795B795F111F8CFFAF4BB0F26
:1039B00011F460FF1BC06F5F7F4F8F4F9F4F16C08A
:1039C000882311F096E911C0772321F09EE8872F14
:1039D000762F05C0662371F096E8862F70E060E0D0
:1039E0002AF09A95660F771F881FDAF7880F969549
:1039F000879597F90895990F0008550FAA0BE0E8ED
:103A0000FEEF16161706E807F907C0F012161306A0
:103A1000E407F50798F0621B730B840B950B39F4E0
:103A20000A2661F0232B242B252B21F408950A2646
:103A300009F4A140A6958FEF811D811D08950E9474
:103A4000321D0C94A31D0E94951D38F00E949C1DF0
:103A500020F0952311F00C948C1D0C94921D1124D0
:103A60000C94D71D0E94B41D70F3959FC1F3950F60
:103A700050E0551F629FF001729FBB27F00DB11DF2
:103A8000639FAA27F00DB11DAA1F649F6627B00D82
:103A9000A11D661F829F2227B00DA11D621F739F6B
:103AA000B00DA11D621F839FA00D611D221F749F79
:103AB0003327A00D611D231F849F600D211D822FC0
:103AC000762F6A2F11249F5750409AF0F1F08823E7
:103AD0004AF0EE0FFF1FBB1F661F771F881F915014
:103AE0005040A9F79E3F510580F00C948C1D0C941A
:103AF000D71D5F3FE4F3983ED4F38695779567959D
:103B0000B795F795E7959F5FC1F7FE2B880F911D3D
:103B10009695879597F9089597F99F6780E870E0E3
:103B200060E008959FEF80EC089500240A94161633
:103B3000170618060906089500240A94121613069B
:103B4000140605060895092E0394000C11F4882329
:103B500052F0BB0F40F4BF2B11F460FF04C06F5F45
:103B60007F4F8F4F9F4F089557FD9058440F551F1B
:103B700059F05F3F71F04795880F97FB991F61F0EF
:103B80009F3F79F087950895121613061406551F66
:103B9000F2CF4695F1DF08C0161617061806991FD2
:103BA000F1CF86957105610508940895E894BB27C7
:103BB00066277727CB0197F908950E94E81DA59FF6
:103BC000900DB49F900DA49F800D911D1124089518
:103BD000A29FB001B39FC001A39F700D811D11244E
:103BE000911DB29F700D811D1124911D0895505893
:103BF000BB27AA270E940F1E0C94A31D0E94951D8F
:103C000038F00E949C1D20F039F49F3F19F426F4EF
:103C10000C94921D0EF4E095E7FB0C948C1DE92F9B
:103C20000E94B41D58F3BA176207730784079507FB
:103C300020F079F4A6F50C94D61D0EF4E0950B2E29
:103C4000BA2FA02D0B01B90190010C01CA01A001EE
:103C50001124FF27591B99F0593F50F4503E68F149
:103C60001A16F040A22F232F342F4427585FF3CF8A
:103C7000469537952795A795F0405395C9F77EF45B
:103C80001F16BA0B620B730B840BBAF09150A1F0A4
:103C9000FF0FBB1F661F771F881FC2F70EC0BA0F2A
:103CA000621F731F841F48F4879577956795B795B2
:103CB000F7959E3F08F0B0CF9395880F08F09927AD
:103CC000EE0F9795879508950E94781E0C94A31D7A
:103CD0000E949C1D58F00E94951D40F029F45F3F02
:103CE00029F00C948C1D51110C94D71D0C94921D2D
:103CF0000E94B41D68F39923B1F3552391F3951BEA
:103D0000550BBB27AA2762177307840738F09F5FFC
:103D10005F4F220F331F441FAA1FA9F335D00E2E69
:103D20003AF0E0E832D091505040E695001CCAF7D6
:103D30002BD0FE2F29D0660F771F881FBB1F261799
:103D400037074807AB07B0E809F0BB0B802DBF0170
:103D5000FF2793585F4F3AF09E3F510578F00C943F
:103D60008C1D0C94D71D5F3FE4F3983ED4F38695E9
:103D700077956795B795F7959F5FC9F7880F911D60
:103D80009695879597F90895E1E0660F771F881F4C
:103D9000BB1F621773078407BA0720F0621B730BFF
:103DA000840BBA0BEE1F88F7E09508950E94FB1C68
:103DB00008F48FEF0895EE0FFF1F881F8BBF079049
:103DC000F691E02D19940F931F93CF93DF938230D8
:103DD000910510F482E090E0E091F802F091F90290
:103DE00030E020E0B0E0A0E0309799F421153105F3
:103DF00009F44AC0281B390B24303105D8F58A81D3
:103E00009B816115710589F1FB0193838283FE011A
:103E100011C0408151810281138148175907E0F098
:103E20004817590799F4109761F012960C9312975E
:103E300013961C933296CF01DF91CF911F910F9172
:103E400008950093F8021093F902F4CF211531057B
:103E500051F04217530738F0A901DB019A01BD0167
:103E6000DF01F801C1CFEF01F9CF9093F902809300
:103E7000F802CDCFFE01E20FF31F81939193225000
:103E8000310939832883D7CF2091F6023091F70288
:103E9000232B41F420910202309103023093F70268
:103EA0002093F60220910002309101022115310584
:103EB00041F42DB73EB74091040250910502241BF6
:103EC000350BE091F602F091F702E217F307A0F448
:103ED0002E1B3F0B2817390778F0AC014E5F5F4F60
:103EE0002417350748F04E0F5F1F5093F702409399
:103EF000F602819391939FCFF0E0E0E09CCFCF93C7
:103F0000DF930097E9F0FC01329713821282A091AF
:103F1000F802B091F902ED0130E020E01097A1F431
:103F200020813181820F931F2091F6023091F70298
:103F30002817390709F061C0F093F702E093F60201
:103F4000DF91CF910895EA01CE17DF07E8F54A81A6
:103F50005B819E0141155105B1F7E901FB83EA83BD
:103F600049915991C40FD51FEC17FD0761F4808169
:103F700091810296840F951FE9019983888382813C
:103F800093819B838A83F0E0E0E012968D919C916F
:103F900013970097B9F52D913C911197CD01029699
:103FA000820F931F2091F6023091F70228173907EC
:103FB00039F6309751F51092F9021092F802B09349
:103FC000F702A093F602BCCFD383C2834081518114
:103FD000840F951FC817D90761F44E5F5F4F888122
:103FE0009981480F591F518340838A819B81938314
:103FF00082832115310509F0B0CFF093F902E093E7
:10400000F8029ECFFD01DC01C0CF13821282D7CF10
:104010004F925F926F927F928F929F92AF92BF92D8
:10402000CF92DF92EF92FF920F931F93CF93DF9384
:104030008C01009799F4CB01DF91CF911F910F91E3
:10404000FF90EF90DF90CF90BF90AF909F908F90B8
:104050007F906F905F904F900C94E31EFC01E60FF1
:10406000F71F9C0122503109E217F30708F4AEC094
:10407000D901CD91DC911197C617D70720F1C53032
:10408000D10578F0CE0104978617970750F0C61B2C
:10409000D70B2297C193D1936D937C93CF010E944C
:1040A0007F1FC801DF91CF911F910F91FF90EF907B
:1040B000DF90CF90BF90AF909F908F907F906F9048
:1040C0005F904F9008955B01AC1ABD0A4C018C0EB5
:1040D0009D1EA091F802B091F902512C412CF12CB7
:1040E000E12C109731F58091F6029091F702881536
:1040F000990509F05CC04616570608F058C0809133
:10410000000290910102009741F48DB79EB7409153
:10411000040250910502841B950BE817F90708F07B
:1041200055C0F093F702E093F602F90171836083C2
:10413000B8CF8D919C91119712966C90129713960F
:104140007C901397A815B90559F56C0142E0C40E8F
:10415000D11CCA14DB0420F1AC014A195B09DA0155
:104160001296159780F06282738251834083D90141
:104170006D937C93E114F10471F0D7011396FC93D5
:10418000EE9312978ECF22968C0F9D1FF90191838B
:104190008083F301EFCFF093F902E093F80281CF2F
:1041A0004816590608F42C017D01D3019ACFCB01A2
:1041B0000E94E31E7C01009749F0AE01B8010E9405
:1041C000E920C8010E947F1F87016BCF10E000E04B
:1041D00068CFFB01DC0102C001900D9241505040BC
:1041E000D8F70895FB01DC0101900D920020E1F762
:0641F0000895F894FFCFD2
:1041F6000000FA028000000000008B039C02E2022D
:0E420600D8035303F10205030D0A003B00002C
:00000001FF
