:020000040000FA
:100000000C94B2000C94DA000C94DA000C94DA0030
:100010000C94DA000C94DA000C94DA000C94DA00F8
:100020000C94DA000C94DA000C94DA000C94DA00E8
:100030000C94DA000C94DA000C94DA000C94DA00D8
:100040000C94A2070C94DA000C9470070C944A07E5
:100050000C94DA000C94DA000C94DA000C94DA00B8
:100060000C94DA000C94DA0000407A10F35A00A0E5
:10007000724E18090010A5D4E80000E87648170071
:1000800000E40B54020000CA9A3B000000E1F505B1
:10009000000080969800000040420F000000A086FB
:1000A00001000000102700000000E803000000002D
:1000B0006400000000000A000000000001000000D1
:1000C00000002C76D888DC674F0823DFC1DFAE59EB
:1000D000E1B1B796E5E3E453C63AE651997696E87E
:1000E000E6C28426EB898C9B62ED407C6FFCEFBC02
:1000F0009C9F40F2BAA56FA5F490055A2AF75C932D
:100100006B6CF9676DC11BFCE0E40D47FEF520E662
:10011000B500D0ED902E0300943577050080841E45
:10012000080000204E0A000000C80C333333330FA0
:10013000986E12831141EF8D2114893BE65516CF3D
:10014000FEE6DB18D1844B381BF77C1D901DA4BB49
:10015000E424203284725E228100C9F124ECA1E5FE
:100160003D27EC0711241FBECFEFD8E0DEBFCDBF87
:1001700021E0AEE1B1E001C01D92AC3FB207E1F772
:1001800011E0A0E0B1E0E0E1F0E402C005900D92E2
:10019000AE31B107D9F710E0C2EBD0E004C021972F
:1001A000FE010E940E1EC13BD107C9F70E94410A01
:1001B0000C9406200C9400004F925F926F927F92F5
:1001C0008F929F92AF92BF92CF92DF92EF92FF9267
:1001D0000F931F93CF93DF93CDB7DEB76C970FB616
:1001E000F894DEBF0FBECDBF6D877E878F87988B5B
:1001F000298B3A8B4B8B5C8B2BA93CA94DA95EA913
:100200006BAD7CAD8DAD9EAD0E942A1D6D8B7E8B3E
:100210008F8B988F2D853E854F855889C801B701F2
:100220000E942A1D6D837E838F8398872FA538A90E
:1002300049A95AA96FA978AD89AD9AAD0E942A1D26
:10024000698F7A8F8B8F9C8F29893A894B895C893A
:10025000C601B5010E942A1D69877A878B879C8712
:100260002D813E814F8158856D897E898F89988D3A
:100270000E941B1C4B015C0129853A854B855C85DE
:10028000698D7A8D8B8D9C8D0E941B1C9B01AC010E
:10029000C501B4010E942A1D2B013C0120E030E081
:1002A000A9010E94B51B87FF04C077FA709477F804
:1002B00070942FE632E143E85AE3C301B2010E9491
:1002C000B51B87FDE0C02BA93CA94DA95EA9698992
:1002D0007A898B899C890E942A1D4B015C012FA57C
:1002E00038A949A95AA96D857E858F8598890E946C
:1002F0002A1D69837A838B839C83A5019401698D70
:100300007A8D8B8D9C8D0E941B1C6B017C01298139
:100310003A814B815C816D897E898F89988D0E949D
:100320001B1C9B01AC01C701B6010E942A1D6B0179
:100330007C0120E030E0A9010E94B51B87FF04C0CA
:10034000F7FAF094F7F8F094A50194016D817E819D
:100350008F8198850E941B1C4B015C0129813A8189
:100360004B815C8169857A858B859C850E941B1CED
:100370009B01AC01C501B4010E942A1D4B015C0127
:1003800020E030E0A9010E94B51B87FF04C0B7FA46
:10039000B094B7F8B094A3019201C701B6010E94CE
:1003A000971D6B017C0120E030E0A9010E94B51B84
:1003B00087FD69C020E030E040E85FE3C701B60197
:1003C0000E94091E18160CF45EC0A3019201C5011B
:1003D000B4010E94971D4B015C0120E030E0A901AF
:1003E0000E94B51B87FD4FC020E030E040E85FE38E
:1003F000C501B4010E94091E18160CF444C0A701DF
:1004000096016D817E818F8198850E941B1C2D85B0
:100410003E854F8558890E942B1D2196EEADFFAD7C
:1004200021976083718382839383A70196016985F5
:100430007A858B859C850E941B1C29893A894B896A
:100440005C890E942B1D2396EEADFFAD2397608340
:1004500071838283938381E06C960FB6F894DEBF3C
:100460000FBECDBFDF91CF911F910F91FF90EF9005
:10047000DF90CF90BF90AF909F908F907F906F90C4
:100480005F904F90089580E0E7CFAF92BF92CF92F8
:10049000DF92EF92FF920F931F93CF93DF936C0144
:1004A0007B018B01040F151FEB015E01AE18BF0825
:1004B000C017D10759F06991D601ED91FC910190D7
:1004C000F081E02DC6010995892B79F7C501DF91EF
:1004D000CF911F910F91FF90EF90DF90CF90BF9041
:1004E000AF900895CF93DF93FC01448155816081E3
:1004F00071818BE391E00E944502EC0142E050E003
:1005000068E171E08BE391E00E9445028C0F9D1F32
:10051000DF91CF910895FC01538D448D252F30E05C
:10052000842F90E0821B930B541710F0CF96089500
:1005300001970895FC01918D828D981761F0A28D2D
:10054000AE0FBF2FB11D5D968C91928D9F5F9F73F3
:10055000928F90E008958FEF9FEF0895FC01918DA9
:10056000828D981731F0828DE80FF11D858D90E016
:1005700008958FEF9FEF08952FB7F894809137017A
:1005800090913801A0913901B0913A012FBF809329
:10059000430190934401A0934501B09346018BE33E
:1005A00091E00E94AE0297FF26C02FB7F894809189
:1005B000370190913801A0913901B0913A012FBFD4
:1005C0004091430150914401609145017091460171
:1005D000841B950BA60BB70B40913F015091400136
:1005E000609141017091420184179507A607B707F2
:1005F000B0F28FEF9FEF0895FC01918D228D892F2E
:1006000090E0805C9F4F821B91098F73992708951A
:100610008BE391E00E94FC0221E0892B09F420E0A9
:10062000822F089580E090E0892B29F00E94080332
:1006300081110C9400000895FC01A48DA80FB92F1E
:10064000B11DA35ABF4F2C91848D90E001968F73FA
:100650009927848FA689B7892C93A089B1898C9119
:10066000837080648C93938D848D981306C0028868
:10067000F389E02D80818F7D80830895EF92FF9232
:100680000F931F93CF93DF93EC0181E0888F9B8DB5
:100690008C8D98131AC0E889F989808185FF15C06F
:1006A0009FB7F894EE89FF896083E889F989808192
:1006B0008370806480839FBF81E090E0DF91CF9161
:1006C0001F910F91FF90EF900895F62E0B8D10E083
:1006D0000F5F1F4F0F731127E02E8C8D8E110CC0F2
:1006E0000FB607FCFACFE889F989808185FFF5CF3D
:1006F000CE010E941C03F1CFEB8DEC0FFD2FF11DFD
:10070000E35AFF4FF0829FB7F8940B8FEA89FB8979
:1007100080818062CFCFCF93DF93EC01888D8823D7
:10072000B9F0AA89BB89E889F9898C9185FD03C054
:10073000808186FD0DC00FB607FCF7CF8C9185FF39
:10074000F2CF808185FFEDCFCE010E941C03E9CF5F
:10075000DF91CF9108953FB7F89480911F01909158
:100760002001A0912101B091220126B5A89B05C0CE
:100770002F3F19F00196A11DB11D3FBFBA2FA92F20
:10078000982F8827BC01CD01620F711D811D911D1D
:1007900042E0660F771F881F991F4A95D1F7089589
:1007A0008F929F92AF92BF92CF92DF92EF92FF9281
:1007B0000F931F93CF93DF93EC018A819B8182304B
:1007C000910509F453C03CF40197D9F1E12CF12CC7
:1007D00000E010E03CC08330910509F49EC004970E
:1007E000A9F7888199818130910509F4EFC00297BA
:1007F00069F708851985C8010E94D0036B017C0147
:100800000A84DB85C02D20E030E0A9010E94091E8A
:10081000181654F0CE010E94D00320E030E0A90168
:100820000E94091E181694F6CE010E94D0039B0167
:10083000AC01C701B6010E94091E18160CF0BDCF0D
:10084000ECC0EC81FD81E088F18802891389B70151
:10085000C801DF91CF911F910F91FF90EF90DF9032
:10086000CF90BF90AF909F908F900895888199818D
:100870008130910539F1029709F0A8CFEC81FD8113
:10088000A088B188C288D388EE81FF81E088F18892
:100890000289138920E030E0A901B501C6010E9458
:1008A000091E181654F020E030E0A901B701C80174
:1008B0000E94091E18160CF089CF9501A601B701F8
:1008C000C80124C0EC81FD81A088B188C288D3888A
:1008D00020E030E0A901B501C6010E94091E1816EA
:1008E0000CF074CFEE81FF81E088F18802891389D2
:1008F00020E030E0A901B701C8010E94091E1816C6
:100900000CF064CF9701A801B501C6010E94B51B88
:1009100087FF9DCF750186019ACF888199818130AB
:10092000910551F1029709F051CFEC81FD81E088EA
:10093000F188028913890884D985C02D20E030E030
:10094000A901B701C8010E94091E18165CF0CE016A
:100950000E94D00320E030E0A9010E94091E181671
:100960000CF034CFCE010E94D0039701A8010E9461
:10097000B51B87FF22CF6BCFEC81FD81E088F1882A
:100980000289138920E030E0A901B701C8010E9463
:10099000091E18160CF01ACF0884D985C02DCE0177
:1009A0000E94D0034B015C0120E030E0A9010E94CD
:1009B000091E18160CF00ACF9701A801C501B40151
:1009C0000E94091E18160CF0F8CE41CF0885198533
:1009D000C8010E94D0036B017C0120E030E0A90136
:1009E0000E94091E18160CF0F1CE0A84DB85C02D7A
:1009F000CE010E94D0034B015C0120E030E0A90150
:100A00000E94091E18160CF0E1CEA5019401C70141
:100A1000B6010E94B51B87FFD0CEE801CECEFC0107
:100A20006115710589F04115510571F081E090E083
:100A30009183808382E090E09383828375836483D3
:100A40005783468381E0089580E00895FC01118278
:100A500010821382128215821482178216821186E6
:100A600010861386128608950F931F93CF93DF93FA
:100A7000EC018B0184E090E00E94141E0097D1F0FD
:100A8000FC011183008313821282E881F98130977F
:100A900049F49983888381E0DF91CF911F910F9171
:100AA0000895F9012281338121153105D1F793830E
:100AB0008283F1CF80E0F0CF0F931F93CF93DF932A
:100AC000EC018B0184E090E00E94141E0097D1F0AD
:100AD000FC011183008313821282EE81FF81309723
:100AE00049F49F838E8381E0DF91CF911F910F9115
:100AF0000895F9012281338121153105D1F79383BE
:100B00008283F1CF80E0F0CF8F929F92AF92BF921D
:100B1000CF92DF92EF92FF920F931F93CF93DF93C9
:100B2000EC014A015B01680179018CE090E00E94D0
:100B3000141EFC0180E0309799F0118210828282AD
:100B40009382A482B582C682D782E086F18613861C
:100B50001286A881B981109789F4F983E88381E02E
:100B6000DF91CF911F910F91FF90EF90DF90CF9089
:100B7000BF90AF909F908F900895DC011A968D9151
:100B80009C911B970097C9F7B183A0831B96FC9398
:100B9000EE931A97E4CF0F931F93CF93DF93EC015B
:100BA0008B0184E090E00E94141E0097D1F0FC01BC
:100BB0001183008313821282EC81FD81309749F406
:100BC0009D838C8381E0DF91CF911F910F910895D8
:100BD000F9012281338121153105D1F79383828375
:100BE000F1CF80E0F0CF0F931F93CF93DF93EC0111
:100BF0008B0184E090E00E94141E0097D1F0FC016C
:100C00001183008313821282E881F981309749F4BD
:100C10009983888381E0DF91CF911F910F9108958F
:100C2000F9012281338121153105D1F79383828324
:100C3000F1CF80E0F0CFCF93DF93EC0188819981F1
:100C4000009711F00E94B01E198218821D821C822A
:100C50001B821A82DF91CF910895FC0180819181DE
:100C6000009711F00C94B01E0895CF93DF93EB0121
:100C70006A857B856115710511F00E943506CE01EC
:100C8000DF91CF910C94B01E0F931F93CF93DF93FE
:100C9000EC0188819981009759F02A813B812617C0
:100CA000370730F081E0DF91CF911F910F910895C8
:100CB0008B016F5F7F4F0E94391F009759F0998316
:100CC00088831B830A832C813D81232B59F7FC01E8
:100CD0001082E8CF80E0E7CF0F931F93CF93DF938D
:100CE000EC010C811D810F5F1F4FB8010E9444066B
:100CF000882391F0288139818C819D816BE171E09D
:100D0000820F931F0E94FF1F1D830C83CE01DF9172
:100D1000CF911F910F910895CE010E941B06F6CF2F
:100D2000CF92DF92EF92FF920F931F93CF93DF93B7
:100D3000CDB7DEB7A1970FB6F894DEBF0FBECDBF1B
:100D40007C01CB01BA01F701118210821382128259
:100D5000158214828E010F5F1F4F22E044E00E9433
:100D600060196C01009771F0FC0101900020E9F717
:100D700031978F01081B190BB801C7010E94440667
:100D8000811112C0C7010E941B06A1960FB6F894EC
:100D9000DEBF0FBECDBFDF91CF911F910F91FF90AE
:100DA000EF90DF90CF900895F70115830483B6018B
:100DB000808191810E94FF1FE8CFEF92FF920F93F5
:100DC0001F93CF93DF93EC01FB01E080F180E114EE
:100DD000F10411F10481158101151105A9F08C812F
:100DE0009D81080F191FB801CE010E944406882377
:100DF00099F0288139818C819D81B701820F931FE1
:100E00000E94FF1F1D830C83CE01DF91CF911F91A4
:100E10000F91FF90EF900895CE010E941B06F4CF32
:100E2000EF92FF920F931F93CF93DF93EC01198200
:100E300018821B821A821D821C828617970719F15D
:100E4000FB010081118101151105E9F0E480F580B5
:100E5000B7010E944406811109C0CE01DF91CF91F4
:100E60001F910F91FF90EF900C941B06FD82EC8276
:100E7000B80188819981DF91CF911F910F91FF90E7
:100E8000EF900C94FF1FDF91CF911F910F91FF9076
:100E9000EF9008951F920F920FB60F9211242F9387
:100EA0003F934F935F936F937F938F939F93AF93F2
:100EB000BF93EF93FF938BE391E00E941C03FF919C
:100EC000EF91BF91AF919F918F917F916F915F91C2
:100ED0004F913F912F910F900FBE0F901F9018953B
:100EE0001F920F920FB60F9211242F938F939F93FF
:100EF000EF93FF93E0914B01F0914C018081E091E1
:100F00005101F091520182FD1BC0908180915401EA
:100F10008F5F8F7320915501821741F0E09154014A
:100F2000F0E0E55CFE4F958F80935401FF91EF91C7
:100F30009F918F912F910F900FBE0F901F9018953A
:100F40008081F4CF1F920F920FB60F9211242F932E
:100F50003F938F939F93AF93BF938091370190916D
:100F60003801A0913901B0913A0130911E0123E07E
:100F7000230F2D3758F50196A11DB11D20931E0199
:100F80008093370190933801A0933901B0933A01CF
:100F900080911F0190912001A0912101B091220127
:100FA0000196A11DB11D80931F0190932001A09374
:100FB0002101B0932201BF91AF919F918F913F91F9
:100FC0002F910F900FBE0F901F90189526E8230FBA
:100FD0000296A11DB11DD2CF8F929F92AF92BF9268
:100FE000CF92DF92EF92FF92EBE3F1E01382128255
:100FF00088EE93E0A0E0B0E084839583A683B78376
:101000008AE091E09183808385EC90E095878487E6
:1010100084EC90E09787868780EC90E0918B808BC2
:1010200081EC90E0938B828B82EC90E0958B848BAB
:1010300086EC90E0978B868B118E128E138E148E19
:1010400086E090E00E94141EFC011182108213823F
:101050001282158214829093F7018093F60184E145
:1010600090E00E94141EFC0180E090E0A8E4B3EC44
:1010700080839183A283B38384839583A683B7837C
:10108000812C912CA12C80ECB82E80869186A28692
:10109000B386C12CD12C90E8E92E9FEBF92EC486A3
:1010A000D586E686F786108A118A128A138AF0930B
:1010B000F501E093F40184E190E00E94141EFC012C
:1010C00080829182A282B382C482D582E682F78234
:1010D000C086D186E286F386148615861686178624
:1010E000108A118A128A138A9093F3018093F20175
:1010F00084E190E00E94141EFC01C082D182E28251
:10110000F382148215821682178210861186128647
:101110001386C12CD12C20E8E22E2FE3F22EC486B8
:10112000D586E686F786108A118A128A138A9093EA
:10113000F1018093F00184E190E00E94141EFC0113
:101140001082118212821382C482D582E682F782D3
:10115000C086D186E286F386812C912CA12C30E4C6
:10116000B32E84869586A686B786108A118A128A3F
:10117000138A9093EF018093EE0184E190E00E9446
:10118000141EFC01C082D182E282F38284829582A5
:10119000A682B78280E090E0A8E4B3E480879187DC
:1011A000A287B38784879587A687B787108A118A15
:1011B000128A138AF093ED01E093EC0184E190E050
:1011C0000E94141EFC0180E090E0A8ECB3EC808348
:1011D0009183A283B38384839583A683B783812C71
:1011E000912C40EAA42E41ECB42E80869186A286F2
:1011F000B386C12CD12C50E2E52E51ECF52EC486DD
:10120000D586E686F786108A118A128A138AF093A9
:10121000EB01E093EA0184E190E00E94141EFC01DE
:1012200080829182A282B382C482D582E682F782D2
:10123000C086D186E286F3861486158616861786C2
:10124000108A118A128A138A9093E9018093E80127
:1012500084E190E00E94141EFC01C082D182E282EF
:10126000F3821482158216821782108611861286E6
:101270001386C12CD12C60E2E62E61E4F62EC486E2
:10128000D586E686F786108A118A128A138A909389
:10129000E7018093E60184E190E00E94141EFC01C6
:1012A0001082118212821382C482D582E682F78272
:1012B000C086D186E286F386812C912C70EAA72E17
:1012C00071E4B72E84869586A686B786108A118A21
:1012D000128A138A9093E5018093E40184E190E0FF
:1012E0000E94141EFC01C082D182E282F3828482B9
:1012F0009582A682B78280E090E0A8ECB3E4808774
:101300009187A287B38784879587A687B787108A36
:10131000118A128A138AF093E301E093E20184E1D7
:1013200090E00E94141EFC0110821182128213822E
:1013300014821582168217821086118612861386F1
:10134000812C912CA8ECAA2EA1E4BA2E8486958635
:10135000A686B786108A118A128A138A9093E101B1
:101360008093E00184E190E00E94141EFC01108251
:1013700011821282138284829582A682B78280862D
:101380009186A286B386C12CD12CB8E4EB2EB2E4B0
:10139000FB2EC486D586E686F786108A118A128AC5
:1013A000138A9093DF018093DE0184E190E00E9434
:1013B000141EFC0180829182A282B382C482D582F3
:1013C000E682F782C086D186E286F386812C912C54
:1013D00086E9A82E82E4B82E84869586A686B786EE
:1013E000108A118A128A138AF093DD01E093DC01DE
:1013F00084E190E00E94141EFC01C082D182E2824E
:10140000F38284829582A682B78280869186A286A4
:10141000B386C12CD12C98ECE92E92E4F92EC48627
:10142000D586E686F786108A118A128A138AF09387
:10143000DB01E093DA0184E190E00E94141EFC01DC
:1014400080829182A282B382C482D582E682F782B0
:10145000C086D186E286F386C486D586E686F78680
:10146000108A118A128A138A9093D9018093D80125
:10147000FF90EF90DF90CF90BF90AF909F908F90B4
:101480000895CF93DF93CDB7DEB7C455D1090FB61A
:10149000F894DEBF0FBECDBF789484B5826084BD62
:1014A00084B5816084BD85B5826085BD85B5816068
:1014B00085BD80916E00816080936E0010928100E6
:1014C00080918100826080938100809181008160A1
:1014D0008093810080918000816080938000809162
:1014E000B10084608093B1008091B00081608093EE
:1014F000B00080917A00846080937A0080917A00B5
:10150000826080937A0080917A00816080937A0073
:1015100080917A00806880937A001092C100E091F7
:101520004B01F0914C0182E08083E0914701F09102
:1015300048011082E0914901F0914A018FEC8083CB
:1015400010925301E0914F01F091500186E08083A9
:10155000E0914D01F0914E01808180618083E091A6
:101560004D01F0914E01808188608083E0914D01B2
:10157000F0914E01808180688083E0914D01F0916F
:101580004E0180818F7D808388E090E00E94141E50
:101590008C01EE24E394F12CDC01ED92FC92FC0131
:1015A0001282138214821582178216822091F4010E
:1015B0003091F5013EA32DA3B9010E945C058091F5
:1015C000F2019091F3019AA789A7BC01C8010E947A
:1015D0005C05A091F001B091F101BEABADABBD01D6
:1015E000C8010E945C05E091EE01F091EF01FEA7B9
:1015F000EDA7BF01C8010E945C052091EC0130916C
:10160000ED0138AB2FA7B901C8010E945C054090DD
:10161000F6015090F701B801C2010E94F30588E07D
:1016200090E00E94141E8C0182E090E0D8018D931E
:101630009C93F801128213821482158217821682FB
:101640002091EA013091EB013CAB2BABB901C80111
:101650000E945C058091E8019091E90198AF8FAB01
:10166000BC01C8010E945C05A091E601B091E701B0
:10167000BCAFABAFBD01C8010E945C05E091E401C5
:10168000F091E5012196FFAFEEAF2197BF01C801B0
:101690000E945C052091E2013091E30125963FAF65
:1016A0002EAF2597B901C8010E945C05B801C2019F
:1016B0000E94F3058AE090E00E94141E8C01DC0178
:1016C000ED92FC92FC011282138214821582178221
:1016D000168282E090E00E94141EDC011D921C9292
:1016E000F801918780872090E0013090E101B101FD
:1016F000C8010E945C05A090DE01B090DF01B50139
:10170000C8010E945C052091DC013091DD01299621
:101710003FAF2EAF2997B901C8010E945C058091A7
:10172000DA019091DB012D969FAF8EAF2D97BC0112
:10173000C8010E945C05A091D801B091D9016396BF
:10174000BFAFAEAF6397BD01C8010E945C0584E0E6
:1017500090E00E94141E3C01009709F459C0FC015E
:101760001183008313821282D8011696BC9164966D
:10177000BFAF6497F801F7816596FFAF6597EB2ED1
:10178000FF2EE114F104C1F164960FAD64976596E4
:101790001FAD65970115110551F1D8011296CD9035
:1017A000DC901397C114D10411F1ED91FC912F96A7
:1017B000FFAFEEAF2F97D6018D909C9020813181A5
:1017C00042815381F40160817181828193810E9401
:1017D000B51B87FF0AC0D8018D929C922F962EAD23
:1017E0003FAD2F97F601318320838601D3CFD701F8
:1017F0001296ED90FC90C5CFD2011296ED91FC911E
:101800001397309709F02AC513967C926E9212971F
:1018100082E090E00E94141E8C01FC011182108273
:1018200082E090E00E94141E4C01DC011D921C928B
:1018300082E090E00E94141E3C01FC0111821082A3
:1018400082E090E00E94141E7C01DC011D921C923B
:1018500082E090E00E94141E2F969FAF8EAF2F97CC
:10186000FC01118210828CE090E00E94141E6C0139
:101870000E9426054BA95CA96DA17EA1C6010E940C
:101880000F0563966EAD7FAD63972F968EAD9FADBE
:101890002F970E94340587E090E00E94141EFC01FF
:1018A00081E090E0918380831282D482C3822F965C
:1018B0002EAD3FAD2F9736832583BF01C2010E9415
:1018C000CB058CE090E00E94141E6C010E9426055E
:1018D0004BA95CA969A57AA5C6010E940F052D96A2
:1018E0006EAD7FAD2D97C7010E94340587E090E073
:1018F0000E94141EFC0182E090E09183808312829A
:10190000D482C382F682E582BF01C2010E94CB0568
:101910008CE090E00E94141E6C010E9426054BA9E9
:101920005CA96DA97EA9C6010E940F0529966EAD1E
:101930007FAD2997C3010E94340587E090E00E94A3
:10194000141EFC0183E090E0918380831282D48294
:10195000C38276826582BF01C2010E94CB058CE002
:1019600090E00E94141E6C010E9426054BA95CA900
:101970006DA57EA5C6010E940F0529966EAD7FADAF
:101980002997C3010E94340587E090E00E94141E4D
:10199000FC0184E090E0918380831282D482C38230
:1019A00076826582BF01C2010E94CB058CE090E087
:1019B0000E94141E6C010E9426054BA95CA96FA50C
:1019C00078A9C6010E940F05B501C4010E94340523
:1019D00087E090E00E94141EFC0185E090E0918376
:1019E00080831282D482C38296828582BF01C20123
:1019F0000E94CB058CE090E00E94141E6C010E94B6
:101A000026054FA958AD6DA17EA1C6010E940F0504
:101A10002D966EAD7FAD2D97C7010E94340587E0EE
:101A200090E00E94141EFC0186E090E09183808388
:101A30001282D482C382F682E582BF01C2010E9473
:101A4000CB058CE090E00E94141E6C010E942605DC
:101A50004FA958AD69A57AA5C6010E940F052D961C
:101A60006EAD7FAD2D97C7010E94340587E090E0F1
:101A70000E94141EFC0187E090E091838083128213
:101A8000D482C382F682E582BF01C2010E94CB05E7
:101A90008CE090E00E94141E7C010E9426054FA954
:101AA00058AD6DA97EA9C7010E940F05B501C401FB
:101AB0000E94340587E090E00E94141EFC0188E03B
:101AC00090E0918380831282F482E3829682858201
:101AD000BF01C2010E94CB058CE090E00E94141E61
:101AE0007C010E9426054FA958AD6DA57EA5C701B2
:101AF0000E940F05B501C4010E94340587E090E003
:101B00000E94141EFC0189E090E091838083128280
:101B1000F482E38296828582BF01C2010E94CB05D6
:101B20008CE090E00E94141E7C010E9426054FA9C3
:101B300058AD6FA578A9C7010E940F05B101C80172
:101B40000E94340587E090E00E94141EFC018AE0A8
:101B500090E0918380831282F482E382168305836E
:101B6000BF01C2010E94CB058CE090E00E94141ED0
:101B70007C010E9426054BAD5CAD6DA17EA1C70125
:101B80000E940F0529966EAD7FAD2997C3010E9473
:101B9000340587E090E00E94141EFC018BE090E089
:101BA000918380831282F482E38276826582BF0110
:101BB000C2010E94CB058CE090E00E94141E7C01C3
:101BC0000E9426054BAD5CAD69A57AA5C7010E94B0
:101BD0000F05B501C4010E94340587E090E00E9422
:101BE000141EFC018CE090E0918380831282F482C9
:101BF000E38296828582BF01C2010E94CB058CE000
:101C000090E00E94141E7C010E9426054BAD5CAD45
:101C10006DA97EA9C7010E940F05B101C8010E94EC
:101C2000340587E090E00E94141EFC018DE090E0F6
:101C3000918380831282F482E38216830583BF013D
:101C4000C2010E94CB058CE090E00E94141E7C0132
:101C50000E9426054BAD5CAD6DA57EA5C7010E9417
:101C60000F05B101C8010E94340587E090E00E9491
:101C7000141EFC018EE090E0918380831282F48236
:101C8000E38216830583BF01C2010E94CB058CE06D
:101C900090E00E94141E7C010E9426054BAD5CADB5
:101CA0006FA578A9C7010E940F05B101C8010E9464
:101CB000340587E090E00E94141EFC018FE090E064
:101CC000918380831282F482E38216830583BF01AD
:101CD000C2010E94CB058CE090E00E94141E7C01A2
:101CE0000E94260521964EAD5FAD21976DA17EA184
:101CF000C7010E940F0529966EAD7FAD2997C301DC
:101D00000E94340587E090E00E94141EFC0180E1EF
:101D100090E0918380831282F482E38276826582EE
:101D2000BF01C2010E94CB058CE090E00E94141E0E
:101D30007C010E94260521964EAD5FAD219769A5D5
:101D40007AA5C7010E940F05B501C4010E943405A0
:101D500087E090E00E94141EFC0181E190E09183F5
:101D600080831282F482E38296828582BF01C2015F
:101D70000E94CB058CE090E00E94141E7C010E9422
:101D8000260521964EAD5FAD21976DA97EA9C701AD
:101D90000E940F05B101C8010E94340587E090E060
:101DA0000E94141EFC0182E190E0918380831282E4
:101DB000F482E38216830583BF01C2010E94CB0532
:101DC0008CE090E00E94141E7C010E942605219662
:101DD0004EAD5FAD21976DA57EA5C7010E940F0591
:101DE000B101C8010E94340587E090E00E94141EF2
:101DF000FC0183E190E0918380831282F482E3828C
:101E000016830583BF01C2010E94CB058CE090E0E0
:101E10000E94141E7C010E94260521964EAD5FADE6
:101E200021976FA578A9C7010E940F05B101C801CC
:101E30000E94340587E090E00E94141EFC0184E1BA
:101E400090E0918380831282F482E382168305837B
:101E5000BF01C2010E94CB058CE090E00E94141EDD
:101E60007C010E94260525964EAD5FAD25976DA19C
:101E70007EA1C7010E940F0529966EAD7FAD2997FF
:101E8000C3010E94340587E090E00E94141EFC010B
:101E900085E190E0918380831282F482E3827682EE
:101EA0006582BF01C2010E94CB058CE090E00E94D8
:101EB000141E7C010E94260525964EAD5FAD259728
:101EC00069A57AA5C7010E940F05B501C4010E944A
:101ED000340587E090E00E94141EFC0186E190E04A
:101EE000918380831282F482E38296828582BF018D
:101EF000C2010E94CB058CE090E00E94141E7C0180
:101F00000E94260525964EAD5FAD25976DA97EA949
:101F1000C7010E940F05B501C8010E94340587E082
:101F200090E00E94141EFC0187E190E09183808381
:101F30001282F482E38216830583BF01C2010E94EC
:101F4000CB058CE090E00E94141E7C010E942605C7
:101F500025964EAD5FAD25976DA57EA5C7010E9464
:101F60000F05B101C8010E94340587E090E00E948E
:101F7000141EFC0188E190E0918380831282F48238
:101F8000E38216830583BF01C2010E94CB058CE06A
:101F900090E00E94141E7C010E94260525964EADFD
:101FA0005FAD25976FA578A9C7010E940F05B10104
:101FB000C8010E94340587E090E00E94141EFC01D5
:101FC00089E190E0918380831282F482E382168318
:101FD0000583BF01C2010E94CB05CE010D9698A3D7
:101FE0008F8FDE015396BAA3A9A3FE013796FCA3F7
:101FF000EBA38BE391E00E94FC02181619060CF08B
:1020000061C00E94BC02FC0197FD36C18D32910572
:1020100021F0C0970A9708F028C1C12CD12C760175
:1020200010E0E130F105D9F0ED32F10509F422C1FB
:10203000CF01C0970A9798F4AAE0B0E0A7019601F3
:102040000E94D91C6F01FF0FEE08FF08C60ED71EB5
:10205000E81EF91EF0E3CF1AD108E108F1088BE37E
:1020600091E00E949A020E94BC02FC01C0970A976C
:10207000C0F2E130F105A9F2112341F0F094E094AF
:10208000D094C094C11CD11CE11CF11CB601DD0C24
:10209000880B990B0E94BC1B6B017C0120913301C2
:1020A0003091340140913501509136010E94B51BA9
:1020B000882341F0C0923301D0923401E09235017F
:1020C000F0923601C0903301D0903401E090350198
:1020D000F090360120E030E0A901C701B6010E946E
:1020E000B51B8111CDC010922F01109230011092BA
:1020F00031011092320110922B0110922C0110929A
:102100002D0110922E011092330110923401109281
:102110003501109236011092270110922801109279
:10212000290110922A011092230110922401109289
:1021300025011092260140E050E0BA01CE0101963F
:102140000E94900640912701509128016091290139
:1021500070912A01CE0107960E94900640912F01AE
:10216000509130016091310170913201CE010D9694
:102170000E94900640912B0150912C0160912D01FD
:1021800070912E01CE0149960E949006BE01675EB5
:102190007F4FCE0143960E941007CE0143960E94C6
:1021A0006C06BE01635F7F4F0E94DD060E946C06D5
:1021B000BE01695F7F4F0E94DD060E946C06BE0172
:1021C0006F5F7F4F0E94DD060E946C060E947202C4
:1021D000CE0143960E942D06CE0149960E942D06FF
:1021E000CE010D960E942D06CE0107960E942D0667
:1021F000CE0101960E942D060E94AB036B017C016B
:1022000088EC882E912CA12CB12C0E94AB036C1968
:102210007D098E099F09683E734081059105A8F3E9
:10222000E1E08E1A9108A108B108F8EECF0EF3E0B4
:10223000DF1EE11CF11C81149104A104B10429F7F3
:1022400080E090E0892B09F4D4CE0E940803882313
:1022500009F4CBCE0E940000C8CEFC01828193819C
:102260000097D9F773826282D3CA8BE391E00E9410
:102270009A02C7CE11E0F3CEC12CD12C760106CF45
:10228000A701960160912B0170912C0180912D0185
:1022900090912E010E942A1D6093270170932801BE
:1022A0008093290190932A012091F6013091F70142
:1022B00038AB2FA7D9012D903C90F101309771F0E8
:1022C000A081B1812D913C91119721303105C1F54B
:1022D00012966D937D938D939C931597F101309792
:1022E000A9F0A081B1818D919C911197029761F520
:1022F00040912301509124016091250170912601A4
:1023000012964D935D936D937C93159791012115D2
:10231000310519F1F901A081B18116960D90BC919A
:10232000A02D1097A9F08D919C911197FC01108A16
:10233000118A128A138A12960D90BC91A02DF1CFAA
:102340000280F381E02DBACF0280F381E02DC7CF68
:10235000D90112962D913C91DACFEFA5F8A9028010
:10236000F381E02DFEABEDAB9F012115310509F4A2
:10237000DDC0F901A081B18116960D90BC91A02D10
:10238000109769F08D919C911197FC01108A118A28
:10239000128A138A12960D90BC91A02DF1CFD9010B
:1023A00012962D913C91E1CFC701B6010E94091E02
:1023B00087FD39C0A7019601C301B2010E94091E21
:1023C00018168CF52DA13EA14FA158A5C301B2014D
:1023D0000E942A1D9B01AC0160E070E080E89FE351
:1023E0000E94971D4B015C01A3019201C701B60138
:1023F0000E942A1D9B01AC01C501B4010E941B1C57
:1024000020E030E040E85FE30E942B1DF801608B84
:10241000718B828B938BEDA5FEA50280F381E02D5D
:10242000FEA7EDA791C0D80118968D909D90AD9014
:10243000BC901B97A7019601C301B2010E94B51B76
:10244000181694F0A5019401C701B6010E94B51BAE
:10245000181654F080E090E0A0E8BFE3F801808B0C
:10246000918BA28BB38BD7CFD8011C968D919D9168
:102470000D90BC91A02D89A79AA7ABA7BCA7A501D9
:102480009401C701B6010E94091E18163CF5A70168
:10249000960169A57AA58BA59CA50E94091E87FDBA
:1024A0001DC029A53AA54BA55CA5C501B4010E9494
:1024B0002A1D9B01AC0160E070E080E89FE30E9470
:1024C000971D2B013C01A5019401C701B6010E9493
:1024D0002A1D9B01AC01C301B20190CFA701960157
:1024E00069A57AA58BA59CA50E94B51B87FF93CFF4
:1024F000A501940169A57AA58BA59CA50E94B51B91
:1025000081116AC0A5019401C301B2010E94B51BEB
:10251000882309F461C02DA13EA14FA158A5C30194
:10252000B20156C0D10112962D903C902114310475
:1025300009F45AC0F1010190F081E02DFCABEBAB46
:10254000268137813EA72DA78DA59EA5009751F323
:10255000DC010D911C91EBA9FCA9C280D380E48021
:10256000F580D8018D919D910D90BC91A02D8DA3EA
:102570009EA3AFA3B8A7F8014480558066807780FA
:102580009C01AD01C701B6010E94B51B2DA13EA162
:102590004FA158A587FF08CFC301B2010E94B51B08
:1025A00081111AC0D8011896CD90DD90ED90FC9065
:1025B0001B97A7019601C301B2010E94B51B882396
:1025C00059F0F8012485358546855785C701B60140
:1025D0000E94B51B81113ECFD80150961D921D92CD
:1025E0001D921C92539717CFEFA5F8A9048115816E
:1025F000772473940115110509F499C3D801ED905E
:10260000FC90F701838194810097B1F1C580D68059
:10261000C114D10489F10E94D0034B015C0120E078
:1026200030E0A9010E94091E18161CF5D701129668
:102630007C92D601ED90FC90E114F104E9F0F701F1
:10264000C080D180D60150962D913D914D915C91E5
:102650005397C501B4010E94091E18162CF4F60107
:10266000808A918AA28AB38AD7011296ED90FC9053
:10267000E3CFF7011282DDCFF80102811381BACFD7
:102680002B8A3C8A4D8A5E8A9601A701C901DA012C
:102690008D879E87AF87B88BF8A1FF938F8D8F931F
:1026A0009AA19F93A9A1AF935F934F933F932F93C9
:1026B0001F93AF92BF92BBA9BF935F934F933F937A
:1026C0002F93EFA5EF93FDA5FF9329A52F933DA190
:1026D0003F93A12CB12C30E8C32E3FE3D32E8201CF
:1026E000710120E030E0A901BDA1A9A5FDA5EFA5DC
:1026F0006B2F7A2F8F2F9E2F0E94DC000D851E8559
:102700002F8538894B895C896D897E89D40118961B
:102710008D919C910E948405D301ED91FC9160857F
:102720007185828593856F83788789879A870089E9
:10273000118932892389A801A32FB22F9D01098312
:102740001A832B833C83E484F5840685178521E076
:1027500030E02C0F3D1F3F932F933CA13F932BA1C3
:102760002F93BF93AF935F934F931F930F93FF925A
:10277000EF92BF93AF935F934F9323812F93228167
:102780002F9321812F9320812F93A12CB12C6501B0
:1027900020E030E040E85FE30E94DC000FB6F894F0
:1027A000DEBF0FBECDBF09811A812B813C814F81D5
:1027B000588569857A85D40118968D919C910E94DF
:1027C0008405D301ED91FC91C484D584E684F7841B
:1027D0002085318542855385C701B6010E94B51B0E
:1027E000882351F000E010E09801B701A601F40140
:1027F000808591850E948405D30112966D907C900E
:10280000B2C220E030E040E85FE36C2D7D2D8E2DDC
:102810009F2D0E94B51B81111AC000E010E020E836
:102820003FE3B201A101F401808591850E948405F6
:10283000D301ED91FC91008911892289338940856A
:10284000518562857385F40180859185B8CF2B8A87
:102850003C8A4D8A5E8A9601A701C901DA018D87FB
:102860009E87AF87B88BD8017C9111966C91119798
:1028700012969C91129713968C91B8A1BF93EF8DED
:10288000EF93FAA1FF93A9A1AF935F934F933F9367
:102890002F93D8011F96EC911F97EF931E96EC9102
:1028A0001E97EF931D96EC911D97EF931C96EC915C
:1028B000EF935F934F933F932F938F939F936F93D8
:1028C0007F93A12CB12C20E8C22E2FE3D22E8201BF
:1028D000710120E030E0A901DB01FC016B2F7A2FB0
:1028E0008F2F9E2F0E94DC000D851E852F85388935
:1028F0004B895C896D897E89F401808591850ACF39
:102900000C2D1D2D2E2D3F2DBCC2F4010084F18510
:10291000E02D2D96FFAFEEAF2D9720803180211452
:10292000310409F4FCC18101D801ED90FC901197AC
:10293000E114F10409F4EDC112968D919D910D9071
:10294000BC91A02D8FA798ABA9ABBAABF7012281A0
:10295000338144815581BC01CD010E94B51B87FFA5
:10296000DCC11EA30DA3ADA1BEA10D90BC91A02DF5
:10297000BEA3ADA3109709F4CCC1ED91FC91FEA7C5
:10298000EDA7309781F3D8011A960D90BC91A02D38
:10299000BCABABABD80116968D919D910D90BC91BF
:1029A000A02D8FAB98AFA9AFBAAFADA1BEA11296C3
:1029B0008D919D910D90BC91A02D8BAF9CAFADAF33
:1029C000BEAFADA1BEA116968D919D910D90BC910B
:1029D000A02D23968CAF9DAFAEAFBFAF23979C01C8
:1029E000AD0166817781808591850E942A1D61965F
:1029F0006CAF7DAF8EAF9FAF61972FA538A949A966
:102A00005AA9EBA9FCA962817381848195810E94F6
:102A10002A1D27966CAF7DAF8EAF9FAF27972BAD4A
:102A20003CAD4DAD5EADADA5BEA512966D917D914F
:102A30008D919C9115970E942A1D2B013C012FA975
:102A400038AD49AD5AADEBA9FCA966817781808587
:102A500091850E942A1D2B966CAF7DAF8EAF9FAFE4
:102A60002B9727962CAD3DAD4EAD5FAD2797619668
:102A70006CAD7DAD8EAD9FAD61970E941B1C6B014F
:102A80007C012B962CAD3DAD4EAD5FAD2B97C301B8
:102A9000B2010E941B1C9B01AC01C701B6010E9440
:102AA0002A1D69A77AA78BA79CA720E030E0A9017F
:102AB0000E94B51B87FF09C089A59AA5ABA5BCA537
:102AC000B05889A79AA7ABA7BCA72FE632E143E885
:102AD0005AE369A57AA58BA59CA50E94B51B87FD25
:102AE00042CF23962CAD3DAD4EAD5FAD23976FA980
:102AF00078AD89AD9AAD0E942A1D4B015C012BADCA
:102B00003CAD4DAD5EAD6FA578A989A99AA90E948B
:102B10002A1D6B017C01A5019401C301B2010E9431
:102B20001B1C2B013C01A701960161966CAD7DAD8C
:102B30008EAD9FAD61970E941B1C9B01AC01C30130
:102B4000B2010E942A1D2B013C0120E030E0A901C6
:102B50000E94B51B87FF04C077FA709477F87094D1
:102B6000A501940127966CAD7DAD8EAD9FAD2797E5
:102B70000E941B1C4B015C01A70196012B966CADBA
:102B80007DAD8EAD9FAD2B970E941B1C9B01AC01B0
:102B9000C501B4010E942A1D6B017C0120E030E0D8
:102BA000A9010E94B51B87FF04C0F7FAF094F7F85B
:102BB000F09429A53AA54BA55CA5C301B2010E94DA
:102BC000971D4B015C0120E030E0A9010E94B51B7C
:102BD00087FDC9CE20E030E040E85FE3C501B401E5
:102BE0000E94091E18160CF4BECE29A53AA54BA5C5
:102BF0005CA5C701B6010E94971D6B017C0120E016
:102C000030E0A9010E94B51B87FDADCE20E030E089
:102C100040E85FE3C701B6010E94091E18160CF4D4
:102C2000A2CE8CE090E00E94141E7C01009709F473
:102C30009ACEEDA5FEA5DC01ED93FC93A5019401D0
:102C400027966CAD7DAD8EAD9FAD27970E941B1C66
:102C50002FA538A949A95AA90E942B1DD701129660
:102C60006D937D938D939C931597A50194012B965D
:102C70006CAD7DAD8EAD9FAD2B970E941B1C2FA917
:102C800038AD49AD5AAD0E942B1DF701668377839D
:102C9000808791872BA93CA933872287ADA5BEA544
:102CA0001B96FC92EE921A97F901F182E082D8010C
:102CB00012968D909D90AD90BC90159716964D9064
:102CC0005D906D907C901997EC901196FC90C801E6
:102CD0000E94B01EA50194016BAD7CAD8DAD9EAD83
:102CE0000E94B51B81110CC0A301920123966CAD0B
:102CF0007DAD8EAD9FAD23970E94B51B882319F043
:102D00008701EF28A1F62D96AEADBFAD2D972D9082
:102D10003C90F1012284338402CE870105CEADA917
:102D2000BEA912960D90BC91A02DBEABADAB2DA946
:102D30003EA92115310509F4A7C0D9018D909C90B9
:102D4000F40100851185D8016D917C9161157105A3
:102D500019F0C8010E943506F80111821082D401D1
:102D600016966D907C906114710409F4CECDF30138
:102D70000081118120E030E0A901D80150966D91C9
:102D80007D918D919C9153970E94091E18160CF00D
:102D900033CDF801C080D180E280F380A701960195
:102DA00064817581868197810E94B51B882359F0C3
:102DB00000E010E09801B701A601D40118968D91AA
:102DC0009C910E948405F30100811181D801149621
:102DD0002D903D904D905C9017975096CC905097C9
:102DE0005196DC9051975296EC9052975396FC90E6
:102DF0005397A201910118966D917D918D919C91AF
:102E00001B970E94B51B8111FCCCF801F081FDA33A
:102E1000D8011196BC91B9A7F801F281FDA7D8019C
:102E20001396BC91BFA7F801F485FBABD8011D96A2
:102E3000BC901D971E96AC901E971F961C917DA16D
:102E400069A59DA58FA5272F362F492F582FBF2F56
:102E50006B2F7B2D8A2D912F0E94B51B882309F49F
:102E60004FCD20E030E040E85FE36C2D7D2D8E2DCE
:102E70009F2D0E94B51B811103CC00E010E020E8DB
:102E80003FE3B201A101DFCCE091F601F091F7013F
:102E90000280F381E02D309709F40EC2A081B18148
:102EA0008D919C911197019799F71896ED91FC914E
:102EB0000190F081E02D1FAA18AE19AE1AAE1BAE1C
:102EC0001CAE1DAE1EAE309709F436C102851385C7
:102ED0000115110509F430C1C280D380E480F5806A
:102EE000D80112968D909D90AD90BC901597B681AB
:102EF000BDA3278129A720843184A5019401C7019E
:102F0000B6010E94B51B882309F40AC1D8011696A0
:102F1000BC91BDABF801F781FDA7D8011896BC9113
:102F2000BFA7F801F185FBAB20E030E0A9016DA15E
:102F300079A5C1010E94B51B882359F020E030E03B
:102F4000A9016DA97DA58FA59BA90E94B51B811123
:102F500062C020E030E0A9016DA179A5C1010E9405
:102F6000091E18160CF048C02DA12FAF39A52496C4
:102F70003FAF249728962FAE28972C963FAE2C97DC
:102F8000A7019601C501B4010E942A1D2B013C0135
:102F90002FAD24963FAD249728964FAD28972C96B9
:102FA0005FAD2C970E941B1C20E030E040E05FE307
:102FB0000E941B1C4B015C012DA139A5A1016DA92B
:102FC0007DA58FA59BA90E94091E20E030E040EC62
:102FD0005FE3181624F020E030E040E450E4C30141
:102FE000B2010E94971D9B01AC01C701B6010E946E
:102FF0002B1D6B017C0150C08DA98FAF9DA5249620
:103000009FAF2497AFA52896AFAF2897BBA92C9662
:10301000BFAF2C97B5CF20E030E0A9016DA179A515
:10302000C1010E94091E18160CF07EC020E030E09D
:10303000A9016DA97DA58FA59BA90E94091E18163F
:103040000CF072C02DA139A5A1016DA97DA58FA598
:103050009BA90E94B51BA701960181113DC0C50126
:10306000B4010E942A1D4B015C0120E030E040E0E9
:103070005FE30E941B1C9B01AC01C701B6010E94CB
:103080002B1D6B017C012DA139A5A101C501B40146
:103090000E941B1C4B015C01A7019601B401C501F4
:1030A0000E941B1C9B01AC016BAD7CAD8DAD9EAD38
:1030B0000E942B1D6BAF7CAF8DAF9EAF9401A5011D
:1030C0006FA978AD89AD9AAD0E942B1D6FAB78AF1B
:1030D00089AF9AAFF801F7CEC501B4010E942A1D4D
:1030E0002B013C012DA139A5A1016DA97DA58FA5BD
:1030F0009BA90E942B1D20E030E040E05FE30E948E
:103100001B1CA30192010E941B1C4B015C0120E0CF
:1031100030E040E05FE3C301B2010E941B1C63CFBB
:103120008DA099A45101B8CFC12CD12C7601812C4E
:10313000912CA12CB12CB0CF20E030E0A9016FA9D7
:1031400078AD89AD9AAD0E94B51B882309F4B4C04F
:103150002FA938AD49AD5AAD6BAD7CAD8DAD9EADEF
:103160000E94971D60932F0170933001809331016D
:1031700090933201409123015091240160912501E7
:1031800070912601CE0101960E9490064091270180
:10319000509128016091290170912A01CE01079672
:1031A0000E94900640912F015091300160913101B1
:1031B00070913201CE010D960E94900640912B0134
:1031C00050912C0160912D0170912E01CE014996F4
:1031D0000E949006BE01675E7F4FCE0143960E941B
:1031E0001007CE0143960E946C06BE01635F7F4FBD
:1031F0000E94DD060E946C06BE01695F7F4F0E943F
:10320000DD060E946C06BE016F5F7F4F0E94DD06E7
:103210000E946C060E947202CE0143960E942D0607
:10322000CE0149960E942D06CE010D960E942D06D4
:10323000CE0107960E942D06CE0101960E942D0612
:10324000C0902B01D0902C01E0902D01F0902E0128
:1032500023E733E145E35BE360912F017091300197
:1032600080913101909132010E941B1C4B015C0145
:1032700029E832ED4EE75FE3C701B6010E941B1C4F
:103280009B01AC01C501B4010E942B1D60932B0171
:1032900070932C0180932D0190932E01A70196012C
:1032A0000E942A1D609323017093240180932501BD
:1032B000909326010C94FC1060E070E0CB0152CF9B
:1032C000EF920F931F93CF93DF93E80134E047FD14
:1032D00034E1042E000C550B57FF03C05195419566
:1032E0005109E32E022F242FAE010E947E19CE0138
:1032F000DF91CF911F910F91EF900895A9E0B0E079
:10330000E4E8F9E10C94EA1C6A01F22EB02E102FC9
:10331000FBE3AF2EA01608F41BE31F5F012F27E08D
:10332000AE014F5F5F4F0E94DD1ABC018981982F6B
:103330009970913009F43FC09BE2E1FC04C09E2DDE
:103340009170E0FC3AC05E2D5071E82FE87083FF69
:1033500046C084E0911101C083E0EF2DE81B8F157A
:1033600008F0E0E0D6018E2F20E2552351F1992399
:1033700029F0D6019C93C60101966C0196012D5F40
:103380003F4FE2FE24C08EE4D6018C9391E4119667
:103390009C93119712968C93D9018E2F90E28111F4
:1033A0001BC0E20FF32FF11D10828EEF9FEF2996C5
:1033B000ECE00C94061D9DE2C6CF90E2C4CF2D93A5
:1033C00081508111FCCFCE0ED11CE0E0D0CF8EE633
:1033D000D6018C9391E6DBCF9D938150E0CF482FAF
:1033E000447082FF3DC084E0911101C083E08F15DD
:1033F00010F4EF2DE81BD6018E2F20E2552309F1A2
:10340000992329F0D6019C93C60101966C0196017F
:103410002D5F3F4FE2FE1BC089E4D6018C938EE402
:1034200011968C93119786E412968C93D9018E2F66
:1034300090E2882309F4B5CF9D938150FACF2D9364
:1034400081508111FCCFCE0ED11CE0E0D9CF89E6AE
:10345000D6018C938EE611968C93119786E6E4CF75
:103460009B0177FF02C030E020E0A1E0B0E09111C5
:1034700002C0B0E0A0E0F9013196AE0FBF1F8B2C67
:10348000912CBB2009F461C05401EFEFAE1ABE0AC3
:10349000AA0DBB1DFA161B0619F014F04F2D4A1B7E
:1034A000511188C0E3FC59C07601A42FB0E2A111EC
:1034B0004FC0C40ED11C992309F45BC040E0D60173
:1034C0001196F60190836D01552309F448C0012F30
:1034D000060F9A81582F507184FF03C0913309F46D
:1034E000015010160CF047C0093008F008E0EEE279
:1034F000FE2E5B01A01AB108850191948194910878
:103500002F3F320729F4D601FC92F60131966F0164
:103510006217730794F1021713077CF5DB01A21BF6
:10352000B30BAA24A394B12CAC0EBD1EAA0DBB1DD7
:1035300011968C9121503109D60111962815390523
:10354000F4F0F60180836D01DBCFB12CA12CA0CF6C
:10355000F701B1937F01A150AACF9111B0CFD6014D
:10356000942F50E302C05D9391509111FCCFC40E93
:10357000D11C40E0ACCF01E0BACF80E3DBCF6217D3
:10358000730731F4963388F4953311F4552369F0B9
:10359000F6018083FD01842F90E2811108C0A40F01
:1035A000B11D1C9290E080E002CF81E3F1CF9193B6
:1035B0008150F3CF911183CF8ACF283008F027E0D4
:1035C0003327DA01990F311D87FD9160009661055F
:1035D000710539F432602E5F3D9330E32A95E1F7AF
:1035E00008959F3F30F080387105610509F03C5F18
:1035F0003C5F3D93913008F08068911DDF93CF933D
:103600001F930F93FF92EF92192F987F9695E92FB2
:1036100096959695E90FFF27EE53FF4F992733278D
:10362000EE24FF24A701E70105900894079428F4ED
:10363000360FE71EF81E491F511D660F771F881FA2
:10364000991F0694A1F70590079428F4E70EF81E39
:10365000491F561FC11D770F881F991F661F0694AB
:10366000A1F70590079428F4F80E491F561FC71FAD
:10367000D11D880F991F661F771F0694A1F705902B
:10368000079420F4490F561FC71FD81F990F661FB4
:10369000771F881F0694A9F784911095177041F041
:1036A000D695C79557954795F794E7941A95C1F71E
:1036B000E8E6F0E068941590159135916591959143
:1036C00005907FE27395E118F10A430B560BC90B85
:1036D000D009C0F7E10CF11E431F561FC91FD01DB2
:1036E0007EF4703311F48A95E6CFE894015030F0FF
:1036F000080F0AF40027021708F4202F2395022F41
:103700007A3328F079E37D932A95E9F710C07D9309
:103710002A9589F606949795679537951795179486
:10372000E118F10A430B560BC90BD00998F0239509
:103730007E9173957A3308F070E37C932013B8F789
:103740007E9170617D9330F0839571E37D9370E39A
:103750002A95E1F71124EF90FF900F911F91CF91DF
:10376000DF91992787FD909508950E94F71B08F433
:1037700081E00895E89409C097FB3EF49095809508
:10378000709561957F4F8F4F9F4F9923A9F0F92F27
:1037900096E9BB279395F695879577956795B795A5
:1037A000F111F8CFFAF4BB0F11F460FF1BC06F5F8B
:1037B0007F4F8F4F9F4F16C0882311F096E911C09D
:1037C000772321F09EE8872F762F05C0662371F0BE
:1037D00096E8862F70E060E02AF09A95660F771FD2
:1037E000881FDAF7880F9695879597F90895990FAE
:1037F0000008550FAA0BE0E8FEEF16161706E807BB
:10380000F907C0F012161306E407F50798F0621BDB
:10381000730B840B950B39F40A2661F0232B242BB0
:10382000252B21F408950A2609F4A140A6958FEFCF
:10383000811D811D08950E942E1C0C949F1C0E94C6
:10384000911C38F00E94981C20F0952311F00C94E4
:10385000881C0C948E1C11240C94D31C0E94B01C48
:1038600070F3959FC1F3950F50E0551F629FF001D3
:10387000729FBB27F00DB11D639FAA27F00DB11DEC
:10388000AA1F649F6627B00DA11D661F829F222775
:10389000B00DA11D621F739FB00DA11D621F839FFC
:1038A000A00D611D221F749F3327A00D611D231FD2
:1038B000849F600D211D822F762F6A2F11249F5720
:1038C00050409AF0F1F088234AF0EE0FFF1FBB1F23
:1038D000661F771F881F91505040A9F79E3F5105E2
:1038E00080F00C94881C0C94D31C5F3FE4F3983E4A
:1038F000D4F3869577956795B795F795E7959F5F8C
:10390000C1F7FE2B880F911D9695879597F908951D
:1039100097F99F6780E870E060E008959FEF80EC82
:10392000089500240A941616170618060906089525
:1039300000240A9412161306140605060895092E8B
:103940000394000C11F4882352F0BB0F40F4BF2BFA
:1039500011F460FF04C06F5F7F4F8F4F9F4F08953A
:1039600057FD9058440F551F59F05F3F71F0479530
:10397000880F97FB991F61F09F3F79F08795089515
:10398000121613061406551FF2CF4695F1DF08C034
:10399000161617061806991FF1CF86957105610551
:1039A00008940895E894BB2766277727CB0197F9F9
:1039B00008950E941B1DA59F900DB49F900DA49F7C
:1039C000800D911D112408952F923F924F925F9286
:1039D0006F927F928F929F92AF92BF92CF92DF921F
:1039E000EF92FF920F931F93CF93DF93CDB7DEB784
:1039F000CA1BDB0B0FB6F894DEBF0FBECDBF099418
:103A00002A88398848885F846E847D848C849B846E
:103A1000AA84B984C884DF80EE80FD800C811B817C
:103A2000AA81B981CE0FD11D0FB6F894DEBF0FBEAB
:103A3000CDBFED010895A29FB001B39FC001A39F28
:103A4000700D811D1124911DB29F700D811D1124D7
:103A5000911D08955058BB27AA270E94421D0C941F
:103A60009F1C0E94911C38F00E94981C20F039F491
:103A70009F3F19F426F40C948E1C0EF4E095E7FB9E
:103A80000C94881CE92F0E94B01C58F3BA176207E7
:103A900073078407950720F079F4A6F50C94D21CDF
:103AA0000EF4E0950B2EBA2FA02D0B01B901900159
:103AB0000C01CA01A0011124FF27591B99F0593F9D
:103AC00050F4503E68F11A16F040A22F232F342FE5
:103AD0004427585FF3CF469537952795A795F04033
:103AE0005395C9F77EF41F16BA0B620B730B840B48
:103AF000BAF09150A1F0FF0FBB1F661F771F881F00
:103B0000C2F70EC0BA0F621F731F841F48F4879557
:103B100077956795B795F7959E3F08F0B0CF939549
:103B2000880F08F09927EE0F9795879508950E94C2
:103B3000AB1D0C949F1C0E94981C58F00E94911C75
:103B400040F029F45F3F29F00C94881C51110C942B
:103B5000D31C0C948E1C0E94B01C68F39923B1F303
:103B6000552391F3951B550BBB27AA2762177307A3
:103B7000840738F09F5F5F4F220F331F441FAA1F37
:103B8000A9F335D00E2E3AF0E0E832D091505040F3
:103B9000E695001CCAF72BD0FE2F29D0660F771FA1
:103BA000881FBB1F261737074807AB07B0E809F087
:103BB000BB0B802DBF01FF2793585F4F3AF09E3F0C
:103BC000510578F00C94881C0C94D31C5F3FE4F3EF
:103BD000983ED4F3869577956795B795F7959F5F4F
:103BE000C9F7880F911D9695879597F90895E1E09B
:103BF000660F771F881FBB1F621773078407BA07FA
:103C000020F0621B730B840BBA0BEE1F88F7E09554
:103C100008950E94F71B08F48FEF0895EE0FFF1F21
:103C20000590F491E02D09940F931F93CF93DF93A8
:103C30008230910510F482E090E0E091FA01F09179
:103C4000FB0130E020E0B0E0A0E0309799F42115CE
:103C5000310509F44AC0281B390B24303105D8F549
:103C60008A819B816115710589F1FB0193838283B0
:103C7000FE0111C04081518102811381481759070B
:103C8000E0F04817590799F4109761F012960C93D9
:103C9000129713961C933296CF01DF91CF911F910B
:103CA0000F9108950093FA011093FB01F4CF2115B1
:103CB000310551F04217530738F0A901DB019A0191
:103CC000BD01DF01F801C1CFEF01F9CF9093FB01F6
:103CD0008093FA01CDCFFE01E20FF31F8193919300
:103CE0002250310939832883D7CF2091F8013091B0
:103CF000F901232B41F4209102013091030130930B
:103D0000F9012093F8012091000130910101211562
:103D1000310541F42DB73EB74091040150910501A2
:103D2000241B350BE091F801F091F901E217F3073C
:103D3000A0F42E1B3F0B2817390778F0AC014E5F1B
:103D40005F4F2417350748F04E0F5F1F5093F9015E
:103D50004093F801819391939FCFF0E0E0E09CCFF6
:103D6000CF93DF930097E9F0FC0132971382128220
:103D7000A091FA01B091FB01ED0130E020E0109735
:103D8000A1F420813181820F931F2091F80130919D
:103D9000F9012817390709F061C0F093F901E093A0
:103DA000F801DF91CF910895EA01CE17DF07E8F51A
:103DB0004A815B819E0141155105B1F7E901FB8301
:103DC000EA8349915991C40FD51FEC17FD0761F49F
:103DD000808191810296840F951FE90199838883E0
:103DE000828193819B838A83F0E0E0E012968D913B
:103DF0009C9113970097B9F52D913C911197CD01A6
:103E00000296820F931F2091F8013091F901281733
:103E1000390739F6309751F51092FB011092FA01EB
:103E2000B093F901A093F801BCCFD383C283408142
:103E30005181840F951FC817D90761F44E5F5F4FFA
:103E400088819981480F591F518340838A819B81C2
:103E5000938382832115310509F0B0CFF093FB01E4
:103E6000E093FA019ECFFD01DC01C0CF13821282E4
:103E7000D7CFB0E0A0E0EFE3FFE10C94E61C8C01AB
:103E8000009751F4CB010E94141E8C01C801CDB7DC
:103E9000DEB7E0E10C94021DFC01E60FF71F9C0168
:103EA00022503109E217F30708F49DC0D901CD91E2
:103EB000DC911197C617D70798F0C530D10530F3BC
:103EC000CE0104978617970708F3C61BD70B2297D6
:103ED000C193D1936D937C93CF010E94B01ED6CF36
:103EE0005B01AC1ABD0A4C018C0E9D1EA091FA011B
:103EF000B091FB01512C412CF12CE12C109731F5A4
:103F00008091F8019091F9018815990509F05CC03C
:103F10004616570608F058C08091000190910101A3
:103F2000009741F48DB79EB740910401509105016F
:103F3000841B950BE817F90708F055C0F093F901B9
:103F4000E093F801F90171836083A0CF8D919C917A
:103F5000119712966C90129713967C901397A81550
:103F6000B90559F56C0142E0C40ED11CCA14DB043A
:103F700020F1AC014A195B09DA011296159780F01D
:103F80006282738251834083D9016D937C93E114E3
:103F9000F10471F0D7011396FC93EE93129776CF4C
:103FA00022968C0F9D1FF90191838083F301EFCF3F
:103FB000F093FB01E093FA0169CF4816590608F423
:103FC0002C017D01D3019ACFCB010E94141E7C01EC
:103FD000009749F0AE01B8010E94F61FC8010E9487
:103FE000B01E870153CF10E000E050CFFB01DC0191
:103FF00002C001900D9241505040D8F70895FB0146
:10400000DC0101900D920020E1F70895F894FFCFB4
:104010000000FC018000000000003E0345028B020E
:0E4020008B03FC029A02AE020D0A003B000068
:107E0000112484B714BE81FFF0D085E080938100F7
:107E100082E08093C00088E18093C10086E0809377
:107E2000C20080E18093C4008EE0C9D0259A86E02C
:107E300020E33CEF91E0309385002093840096BBD3
:107E4000B09BFECF1D9AA8958150A9F7CC24DD24C4
:107E500088248394B5E0AB2EA1E19A2EF3E0BF2EE7
:107E6000A2D0813461F49FD0082FAFD0023811F036
:107E7000013811F484E001C083E08DD089C08234E0
:107E800011F484E103C0853419F485E0A6D080C0E4
:107E9000853579F488D0E82EFF2485D0082F10E0AE
:107EA000102F00270E291F29000F111F8ED06801E7
:107EB0006FC0863521F484E090D080E0DECF843638
:107EC00009F040C070D06FD0082F6DD080E0C81688
:107ED00080E7D80618F4F601B7BEE895C0E0D1E017
:107EE00062D089930C17E1F7F0E0CF16F0E7DF06D8
:107EF00018F0F601B7BEE89568D007B600FCFDCFD4
:107F0000A601A0E0B1E02C9130E011968C91119780
:107F100090E0982F8827822B932B1296FA010C0160
:107F200087BEE89511244E5F5F4FF1E0A038BF0790
:107F300051F7F601A7BEE89507B600FCFDCF97BE46
:107F4000E89526C08437B1F42ED02DD0F82E2BD052
:107F50003CD0F601EF2C8F010F5F1F4F84911BD097
:107F6000EA94F801C1F70894C11CD11CFA94CF0C13
:107F7000D11C0EC0853739F428D08EE10CD085E9AC
:107F80000AD08FE07ACF813511F488E018D01DD067
:107F900080E101D065CF982F8091C00085FFFCCF94
:107FA0009093C60008958091C00087FFFCCF809118
:107FB000C00084FD01C0A8958091C6000895E0E648
:107FC000F0E098E1908380830895EDDF803219F02E
:107FD00088E0F5DFFFCF84E1DECF1F93182FE3DFCA
:107FE0001150E9F7F2DF1F91089580E0E8DFEE27F6
:047FF000FF270994CA
:027FFE00040479
:00000001FF
