:020000040000FA
:100000000C9400010C9431010C9431010C943101D9
:100010000C9431010C9431010C9431010C94310198
:100020000C9431010C9431010C9431010C94310188
:100030000C9431010C9431010C9431010C94310178
:100040000C9431010C9431010C9431010C94310168
:100050000C9431010C9431010C9431010C94E8079B
:100060000C9431010C94B2070C9488070C94310164
:100070000C9431010C9431010C9431010C94310138
:100080000C9431010C9431010C9431010C94310128
:100090000C9431010C9431010C9431010C94310118
:1000A0000C9431010C9431010C9431010C94310108
:1000B0000C9431010C9431010C9431010C943101F8
:1000C0000C9431010C9431010C9431010C943101E8
:1000D0000C9431010C9431010C9431010C943101D8
:1000E0000C9431010C9413030C94F1020C949803BA
:1000F0000C9405030C949C020C9432080C944B0352
:100100000C94E20200407A10F35A00A0724E1809D3
:100110000010A5D4E80000E87648170000E40B546E
:10012000020000CA9A3B000000E1F505000080963D
:100130009800000040420F000000A086010000006F
:10014000102700000000E803000000006400000029
:1001500000000A00000000000100000000002C76F2
:10016000D888DC674F0823DFC1DFAE59E1B1B7960D
:10017000E5E3E453C63AE651997696E8E6C284266A
:10018000EB898C9B62ED407C6FFCEFBC9C9F40F246
:10019000BAA56FA5F490055A2AF75C936B6CF967C2
:1001A0006DC11BFCE0E40D47FEF520E6B500D0ED87
:1001B000902E0300943577050080841E08000020EF
:1001C0004E0A000000C80C333333330F986E12838D
:1001D0001141EF8D2114893BE65516CFFEE6DB1861
:1001E000D1844B381BF77C1D901DA4BBE424203226
:1001F00084725E228100C9F124ECA1E53D2732081A
:1002000011241FBECFEFD1E2DEBFCDBF00E00CBF97
:1002100022E0A0E2B2E001C01D92AA3FB207E1F7DE
:1002200012E0A0E0B2E0EEE0FFE300E00BBF02C0AE
:1002300007900D92A032B107D9F710E0C0E0D1E0ED
:1002400000E006C021970109802FFE010E94671D72
:10025000CF3FD10780E00807A9F70E94830A0C94DA
:10026000851F0C9400004F925F926F927F928F9245
:100270009F92AF92BF92CF92DF92EF92FF920F9335
:100280001F93CF93DF93CDB7DEB76C970FB6F8947B
:10029000DEBF0FBECDBF6D877E878F87988B298B82
:1002A0003A8B4B8B5C8B2CA93DA94EA95FA96CADF9
:1002B0007DAD8EAD9FAD0E94831C6D8B7E8B8F8B31
:1002C000988F2D853E854F855889C801B7010E94BA
:1002D000831C6D837E838F83988728A939A94AA9B7
:1002E0005BA968AD79AD8AAD9BAD0E94831C698F17
:1002F0007A8F8B8F9C8F29893A894B895C89C601BB
:10030000B5010E94831C69877A878B879C872D8122
:100310003E814F8158856D897E898F89988D0E9495
:10032000C51B4B015C0129853A854B855C85698D30
:100330007A8D8B8D9C8D0E94C51B9B01AC01C501E4
:10034000B4010E94831C2B013C0120E030E0A90194
:100350000E945F1B87FF04C077FA709477F870944F
:100360002FE632E143E85AE3C301B2010E945F1B6A
:1003700087FDE0C02CA93DA94EA95FA969897A89AA
:100380008B899C890E94831C4B015C0128A939A997
:100390004AA95BA96D857E858F8598890E94831CFB
:1003A00069837A838B839C83A5019401698D7A8DFF
:1003B0008B8D9C8D0E94C51B6B017C0129813A812C
:1003C0004B815C816D897E898F89988D0E94C51BC8
:1003D0009B01AC01C701B6010E94831C6B017C012B
:1003E00020E030E0A9010E945F1B87FF04C0F7FAFC
:1003F000F094F7F8F094A50194016D817E818F81CE
:1004000098850E94C51B4B015C0129813A814B8173
:100410005C8169857A858B859C850E94C51B9B01C3
:10042000AC01C501B4010E94831C4B015C0120E0BA
:1004300030E0A9010E945F1B87FF04C0B7FAB094A7
:10044000B7F8B094A3019201C701B6010E94F01C55
:100450006B017C0120E030E0A9010E945F1B87FD59
:1004600069C020E030E040E85FE3C701B6010E94C8
:10047000621D18160CF45EC0A3019201C501B401FF
:100480000E94F01C4B015C0120E030E0A9010E94B9
:100490005F1B87FD4FC020E030E040E85FE3C5010F
:1004A000B4010E94621D18160CF444C0A701960105
:1004B0006D817E818F8198850E94C51B2D853E852B
:1004C0004F8558890E94841C2296EEADFFAD22977D
:1004D0006083718382839383A701960169857A85FE
:1004E0008B859C850E94C51B29893A894B895C892B
:1004F0000E94841C2496EEADFFAD24976083718327
:100500008283938381E06C960FB6F894DEBF0FBEB2
:10051000CDBFDF91CF911F910F91FF90EF90DF90B2
:10052000CF90BF90AF909F908F907F906F905F9093
:100530004F90089580E0E7CFAF92BF92CF92DF92C5
:10054000EF92FF920F931F93CF93DF936C017B0188
:100550008B01040F151FEB015E01AE18BF08C01719
:10056000D10759F06991D601ED91FC910190F0818C
:10057000E02DC6011995892B79F7C501DF91CF913F
:100580001F910F91FF90EF90DF90CF90BF90AF90B1
:100590000895CF93DF93FC0144815581608171817F
:1005A00089E392E00E949C02EC0142E050E06AE1A3
:1005B00072E089E392E00E949C028C0F9D1FDF9104
:1005C000CF910895FC01538D448D252F30E0842F69
:1005D00090E0821B930B541710F0CF96089501976B
:1005E0000895FC01918D828D981761F0A28DAE0F58
:1005F000BF2FB11D5D968C91928D9F5F9F73928FDF
:1006000090E008958FEF9FEF0895FC01918D828D0A
:10061000981731F0828DE80FF11D858D90E00895D7
:100620008FEF9FEF0895FC01918D228D892F90E02F
:10063000805C9F4F821B91098F739927089589E3EE
:1006400092E00E94130321E0892B09F420E0822F1D
:100650000895FC01A48DA80FB92FB11DA35ABF4F57
:100660002C91848D90E001968F739927848FA689B1
:10067000B7892C93A089B1898C91837080648C9305
:10068000938D848D981306C00288F389E02D8081B4
:100690008F7D80830895EF92FF920F931F93CF93E6
:1006A000DF93EC0181E0888F9B8D8C8D98131AC0AD
:1006B000E889F989808185FF15C09FB7F894EE8994
:1006C000FF896083E889F9898081837080648083F1
:1006D0009FBF81E090E0DF91CF911F910F91FF903C
:1006E000EF900895F62E0B8D10E00F5F1F4F0F73E4
:1006F0001127E02E8C8D8E110CC00FB607FCFACF9F
:10070000E889F989808185FFF5CFCE010E94290310
:10071000F1CFEB8DEC0FFD2FF11DE35AFF4FF0826F
:100720009FB7F8940B8FEA89FB8980818062CFCFD5
:10073000CF93DF93EC01888D8823B9F0AA89BB8918
:10074000E889F9898C9185FD03C0808186FD0DC003
:100750000FB607FCF7CF8C9185FFF2CF808185FF24
:10076000EDCFCE010E942903E9CFDF91CF9108950B
:1007700080E090E0892B29F00E941F0381110E94E4
:10078000000080E090E0892B49F080E090E0892B28
:1007900029F00E94000081110E94000080E090E09A
:1007A000892B49F080E090E0892B29F00E9400001D
:1007B00081110E94000080E090E0892B49F080E0E8
:1007C00090E0892B29F00E94000081110C94000018
:1007D00008953FB7F8948091250290912602A09148
:1007E0002702B091280226B5A89B05C02F3F19F01B
:1007F0000196A11DB11D3FBFBA2FA92F982F8827A1
:10080000BC01CD01620F711D811D911D42E0660F7B
:10081000771F881F991F4A95D1F708958F929F924D
:10082000AF92BF92CF92DF92EF92FF920F931F93FE
:10083000CF93DF93EC018A819B818230910509F48B
:1008400053C03CF40197D9F1E12CF12C00E010E009
:100850003CC08330910509F49EC00497A9F78881B4
:1008600099818130910509F4EFC0029769F70885F5
:100870001985C8010E940E046B017C010A84DB8586
:10088000C02D20E030E0A9010E94621D181654F02E
:10089000CE010E940E0420E030E0A9010E94621DFA
:1008A000181694F6CE010E940E049B01AC01C701FC
:1008B000B6010E94621D18160CF0BDCFECC0EC8191
:1008C000FD81E088F18802891389B701C801DF91B1
:1008D000CF911F910F91FF90EF90DF90CF90BF903D
:1008E000AF909F908F900895888199818130910574
:1008F00039F1029709F0A8CFEC81FD81A088B18879
:10090000C288D388EE81FF81E088F188028913894B
:1009100020E030E0A901B501C6010E94621D181651
:1009200054F020E030E0A901B701C8010E94621D27
:1009300018160CF089CF9501A601B701C80124C093
:10094000EC81FD81A088B188C288D38820E030E0A6
:10095000A901B501C6010E94621D18160CF074CFE2
:10096000EE81FF81E088F1880289138920E030E080
:10097000A901B701C8010E94621D18160CF064CFCE
:100980009701A801B501C6010E945F1B87FF9DCF9B
:10099000750186019ACF888199818130910551F145
:1009A000029709F051CFEC81FD81E088F18802893E
:1009B00013890884D985C02D20E030E0A901B70152
:1009C000C8010E94621D18165CF0CE010E940E0440
:1009D00020E030E0A9010E94621D18160CF034CF0F
:1009E000CE010E940E049701A8010E945F1B87FFA1
:1009F00022CF6BCFEC81FD81E088F18802891389D9
:100A000020E030E0A901B701C8010E94621D18165C
:100A10000CF01ACF0884D985C02DCE010E940E0497
:100A20004B015C0120E030E0A9010E94621D181614
:100A30000CF00ACF9701A801C501B4010E94621D04
:100A400018160CF0F8CE41CF08851985C8010E9410
:100A50000E046B017C0120E030E0A9010E94621DC0
:100A600018160CF0F1CE0A84DB85C02DCE010E9451
:100A70000E044B015C0120E030E0A9010E94621DE0
:100A800018160CF0E1CEA5019401C701B6010E9431
:100A90005F1B87FFD0CEE801CECEFC01611571054A
:100AA00089F04115510571F081E090E091838083D8
:100AB00082E090E0938382837583648357834683C7
:100AC00081E0089580E00895FC0111821082138274
:100AD000128215821482178216821186108613865E
:100AE000128608950F931F93CF93DF93EC018B0130
:100AF00084E090E00E946F1D0097D1F0FC0111830B
:100B0000008313821282E881F981309749F4998336
:100B1000888381E0DF91CF911F910F910895F901B2
:100B20002281338121153105D1F793838283F1CF5F
:100B300080E0F0CF0F931F93CF93DF93EC018B01F5
:100B400084E090E00E946F1D0097D1F0FC011183BA
:100B5000008313821282EE81FF81309749F49F83D4
:100B60008E8381E0DF91CF911F910F910895F9015C
:100B70002281338121153105D1F793838283F1CF0F
:100B800080E0F0CF8F929F92AF92BF92CF92DF9290
:100B9000EF92FF920F931F93CF93DF93EC014A01E3
:100BA0005B01680179018CE090E00E946F1DFC01FF
:100BB00080E0309799F01182108282829382A48221
:100BC000B582C682D782E086F18613861286A88116
:100BD000B981109789F4F983E88381E0DF91CF919F
:100BE0001F910F91FF90EF90DF90CF90BF90AF904B
:100BF0009F908F900895DC011A968D919C911B9780
:100C00000097C9F7B183A0831B96FC93EE931A97C4
:100C1000E4CF0F931F93CF93DF93EC018B0184E01C
:100C200090E00E946F1D0097D1F0FC0111830083BA
:100C300013821282EC81FD81309749F49D838C836D
:100C400081E0DF91CF911F910F910895F9012281E9
:100C5000338121153105D1F793838283F1CF80E071
:100C6000F0CF0F931F93CF93DF93EC018B0184E0C0
:100C700090E00E946F1D0097D1F0FC01118300836A
:100C800013821282E881F981309749F4998388832D
:100C900081E0DF91CF911F910F910895F901228199
:100CA000338121153105D1F793838283F1CF80E021
:100CB000F0CFCF93DF93EC0188819981009711F0F9
:100CC0000E940B1E198218821D821C821B821A82AE
:100CD000DF91CF910895FC0180819181009711F0FF
:100CE0000C940B1E0895CF93DF93EB016A857B85EF
:100CF0006115710511F00E947306CE01DF91CF914D
:100D00000C940B1E0F931F93CF93DF93EC018881FC
:100D10009981009759F02A813B812617370730F0D7
:100D200081E0DF91CF911F910F9108958B016F5F4B
:100D30007F4F0E94941E009759F0998388831B83EC
:100D40000A832C813D81232B59F7FC011082E8CFC7
:100D500080E0E7CF0F931F93CF93DF93EC010C81DB
:100D60001D810F5F1F4FB8010E948206882391F0FA
:100D7000288139818C819D816DE172E0820F931F02
:100D80000E947E1F1D830C83CE01DF91CF911F91A6
:100D90000F910895CE010E945906F6CFCF92DF92AF
:100DA000EF92FF920F931F93CF93DF93CDB7DEB7F0
:100DB000A1970FB6F894DEBF0FBECDBF7C01CB016B
:100DC000BA01F701118210821382128215821482F5
:100DD0008E010F5F1F4F22E044E00E94F0186C016B
:100DE000009771F0FC0101900020E9F731978F0125
:100DF000081B190BB801C7010E948206811112C09D
:100E0000C7010E945906A1960FB6F894DEBF0FBE27
:100E1000CDBFDF91CF911F910F91FF90EF90DF90A9
:100E2000CF900895F70115830483B60180819181E5
:100E30000E947E1FE8CFEF92FF920F931F93CF93F4
:100E4000DF93EC01FB01E080F180E114F10411F18A
:100E50000481158101151105A9F08C819D81080F70
:100E6000191FB801CE010E948206882399F02881BB
:100E700039818C819D81B701820F931F0E947E1F53
:100E80001D830C83CE01DF91CF911F910F91FF90B5
:100E9000EF900895CE010E945906F4CFEF92FF9291
:100EA0000F931F93CF93DF93EC01198218821B825B
:100EB0001A821D821C828617970719F1FB01008197
:100EC000118101151105E9F0E480F580B7010E9458
:100ED0008206811109C0CE01DF91CF911F910F9140
:100EE000FF90EF900C945906FD82EC82B801888146
:100EF0009981DF91CF911F910F91FF90EF900C940A
:100F00007E1FDF91CF911F910F91FF90EF90089579
:100F10001F920F920FB60F9211240BB60F922F93C0
:100F20003F934F935F936F937F938F939F93AF9371
:100F3000BF93EF93FF9389E392E00E942903FF910F
:100F4000EF91BF91AF919F918F917F916F915F9141
:100F50004F913F912F910F900BBE0F900FBE0F90AE
:100F60001F9018951F920F920FB60F9211240BB677
:100F70000F922F938F939F93EF93FF93E0914902EA
:100F8000F0914A028081E0914F02F091500282FD7F
:100F90001DC09081809152028F5F8F732091530208
:100FA000821741F0E0915202F0E0E75CFD4F958F2F
:100FB00080935202FF91EF919F918F912F910F900B
:100FC0000BBE0F900FBE0F901F9018958081F2CF2F
:100FD0001F920F920FB60F9211242F933F938F936E
:100FE0009F93AF93BF938091210290912202A09191
:100FF0002302B09124023091200223E0230F2D37E9
:1010000058F50196A11DB11D209320028093210265
:1010100090932202A0932302B09324028091250290
:1010200090912602A0912702B09128020196A11D5D
:10103000B11D8093250290932602A0932702B093BE
:101040002802BF91AF919F918F913F912F910F9067
:101050000FBE0F901F90189526E8230F0296A11D32
:10106000B11DD2CF4F925F926F927F928F929F92DB
:10107000AF92BF92CF92DF92EF92FF92E9E3F2E05C
:101080001382128288EE93E0A0E0B0E0848395831F
:10109000A683B7838CE092E09183808385EC90E017
:1010A0009587848784EC90E09787868780EC90E032
:1010B000918B808B81EC90E0938B828B82EC90E023
:1010C000958B848B86EC90E0978B868B118E128E9D
:1010D000138E148E86E090E00E946F1DFC01118239
:1010E000108213821282158214829093F5028093EB
:1010F000F40284E190E00E946F1DFC0180E090E02A
:10110000A0EAB1EC80839183A283B3838483958327
:10111000A683B783812C912CA12C80ECB82E8086DD
:101120009186A286B386C12CD12C90E8E92E9FEB44
:10113000F92EC486D586E686F786108A118A128A29
:10114000138AF093F302E093F20284E190E00E94AC
:101150006F1DFC0180829182A282B382C482D582FB
:10116000E682F782C086D186E286F38614861586EB
:1011700016861786108A118A128A138A9093F102B2
:101180008093F00284E190E00E946F1DFC01C08218
:10119000D182E282F382148215821682178210862F
:1011A000118612861386412C512C20E8622E2FE3E3
:1011B000722E4486558666867786108A118A128A30
:1011C000138A9093EF028093EE0284E190E00E94F4
:1011D0006F1DFC011082118212821382448255829B
:1011E000668277824086518662867386C12CD12CB6
:1011F000E12C30E4F32EC486D586E686F786108A85
:10120000118A128A138A9093ED028093EC0284E192
:1012100090E00E946F1DFC014082518262827382C5
:10122000C482D582E682F78280E090E0A0EAB1E451
:1012300080879187A287B38784879587A687B7879A
:10124000108A118A128A138AF093EB02E093EA0261
:1012500084E190E00E946F1DFC0180E090E0A0E23C
:10126000B2EC80839183A283B38384839583A68326
:10127000B783412C512C40E8642E40EC742E4086FC
:1012800051866286738684869586A686B786108A7E
:10129000118A128A138AF093E902E093E80284E14A
:1012A00090E00E946F1DFC01408251826282738235
:1012B00084829582A682B78280869186A286B38632
:1012C0001486158616861786108A118A128A138A42
:1012D0009093E7028093E60284E190E00E946F1D04
:1012E000FC0180829182A282B382148215821682CE
:1012F00017821086118612861386C486D586E686E6
:10130000F786108A118A128A138A9093E5028093D5
:10131000E40284E190E00E946F1DFC0110821182C2
:1013200012821382C482D582E682F782C086D18679
:10133000E286F386812C912C50E8A52E50E4B52E40
:1013400084869586A686B786108A118A128A138AA1
:101350009093E3028093E20284E190E00E946F1D8B
:10136000FC01C082D182E282F38284829582A682CD
:10137000B78280E090E0A8E4B3E480879187A287F9
:10138000B38784879587A687B787108A118A128AC0
:10139000138AF093E102E093E00284E190E00E947E
:1013A0006F1DFC0110821182128213821482158239
:1013B000168217821086118612861386812C912C34
:1013C00068ECA62E61E4B62E84869586A686B7863E
:1013D000108A118A128A138A9093DF028093DE02A8
:1013E00084E190E00E946F1DFC0110821182128244
:1013F000138284829582A682B78280869186A28695
:10140000B386C12CD12C78E4E72E72E4F72EC48683
:10141000D586E686F786108A118A128A138A9093F7
:10142000DD028093DC0284E190E00E946F1DFC01EC
:1014300080829182A282B382C482D582E682F782C0
:10144000C086D186E286F386812C912CA6E9AA2E4D
:10145000A2E4BA2E84869586A686B786108A118A5B
:10146000128A138A9093DB028093DA0284E190E07F
:101470000E946F1DFC01C082D182E282F3828482CD
:101480009582A682B78280869186A286B386C12C79
:10149000D12CB8ECEB2EB2E4FB2EC486D586E686C2
:1014A000F786108A118A128A138A9093D902809340
:1014B000D80284E190E00E946F1DFC01808291823D
:1014C000A282B382C482D582E682F782C086D186A8
:1014D000E286F386C486D586E686F786108A118A68
:1014E000128A138A9093D7028093D602FF90EF90CE
:1014F000DF90CF90BF90AF909F908F907F906F9034
:101500005F904F900895CF93DF93CDB7DEB7C0556E
:10151000D1090FB6F894DEBF0FBECDBF789484B565
:10152000826084BD84B5816084BD85B5826085BDDF
:1015300085B5816085BD80916E00816080936E006D
:10154000109281008091810082608093810080915F
:101550008100816080938100809180008160809310
:1015600080008091B10084608093B1008091B000D0
:1015700081608093B000809191008260809391009F
:1015800080919100816080939100809190008160B2
:10159000809390008091A10082608093A10080914F
:1015A000A10081608093A1008091A0008160809360
:1015B000A00080912101826080932101809121010E
:1015C00081608093210180912001816080932001BE
:1015D00080917A00846080937A0080917A008260A2
:1015E00080937A0080917A00816080937A00809164
:1015F0007A00806880937A001092C100E0914902DD
:10160000F0914A0282E08083E0914502F091460227
:101610001082E0914702F09148028FEC8083109293
:101620005102E0914D02F0914E0286E08083E091FC
:101630004B02F0914C02808180618083E0914B02EB
:10164000F0914C02808188608083E0914B02F091A0
:101650004C02808180688083E0914B02F0914C02C3
:1016600080818F7D808388E090E00E946F1D8C01D7
:10167000EE24E394F12CDC01ED92FC92FC01128249
:10168000138214821582178216822091F202309101
:10169000F30238A32F8FB9010E949A058091F002BE
:1016A0009091F1029CA38BA3BC01C8010E949A05F2
:1016B000A091EE02B091EF02BAABA9ABBD01C80197
:1016C0000E949A05E091EC02F091ED02F8A7EFA3D9
:1016D000BF01C8010E949A052091EA023091EB02F5
:1016E0003CA72BA7B901C8010E949A054090F402BB
:1016F0005090F502B801C2010E94310688E090E0E6
:101700000E946F1D8C0182E090E0D8018D939C9324
:10171000F801128213821482158217821682209198
:10172000E8023091E90238AB2FA7B901C8010E9445
:101730009A058091E6029091E7029CAB8BABBC01CD
:10174000C8010E949A05A091E402B091E502B8AFE9
:10175000AFABBD01C8010E949A05E091E202F09191
:10176000E302FCAFEBAFBF01C8010E949A052091D4
:10177000E0023091E10221963FAF2EAF2197B901EF
:10178000C8010E949A05B801C2010E9431068AE090
:1017900090E00E946F1D8C01DC01ED92FC92FC0137
:1017A00012821382148215821782168282E090E0E0
:1017B0000E946F1DDC011D921C92F80191878087A9
:1017C0002091DE023091DF0225963FAF2EAF2597A4
:1017D000B901C8010E949A05A090DC02B090DD0218
:1017E000B501C8010E949A052090DA023090DB0210
:1017F000B101C8010E949A058091D8029091D90246
:1018000029969FAF8EAF2997BC01C8010E949A0507
:10181000A091D602B091D7022B96BFAFAEAF2B9757
:10182000BD01C8010E949A0584E090E00E946F1DEE
:101830003C01009709F459C0FC0111830083138215
:101840001282D8011696BC916096BFAF6097F801DE
:10185000F7816196FFAF6197EB2EFF2EE114F10443
:10186000C1F160960FAD609761961FAD619701154C
:10187000110551F1D8011296CD90DC901397C11447
:10188000D10411F1ED91FC912F96FFAFEEAF2F97A0
:10189000D6018D909C902081318142815381F40149
:1018A00060817181828193810E945F1B87FF0AC0E2
:1018B000D8018D929C922F962EAD3FAD2F97F601B9
:1018C000318320838601D3CFD7011296ED90FC900F
:1018D000C5CFD2011296ED91FC911397309709F084
:1018E0007AC413967C926E92129782E090E00E94E6
:1018F0006F1D3C01FC011182108282E090E00E9489
:101900006F1D4C01DC011D921C9282E090E00E9450
:101910006F1D8C01FC011182108282E090E00E9418
:101920006F1D2F969FAF8EAF2F97DC011D921C92DB
:1019300082E090E00E946F1D6C01FC011182108218
:101940008CE090E00E946F1D7C010E9464054FA511
:1019500058A96F8D78A1C7010E944D052B966EADD9
:101960007FAD2B97C6010E94720587E090E00E9430
:101970006F1DFC0181E090E0918380831282F482EC
:10198000E382D682C582BF01C2010E9409068CE0B3
:1019900090E00E946F1D6C010E9464054FA558A93C
:1019A0006BA17CA1C6010E944D0529966EAD7FAD4D
:1019B00029972F968EAD9FAD2F970E94720587E0D5
:1019C00090E00E946F1DFC0182E090E09183808393
:1019D0001282D482C3822F962EAD3FAD2F973683CD
:1019E0002583BF01C2010E9409068CE090E00E949D
:1019F0006F1D7C010E9464054FA558A969A97AA9A9
:101A0000C7010E944D05B101C8010E94720587E01F
:101A100090E00E946F1DFC0183E090E09183808341
:101A20001282F482E38216830583BF01C2010E9401
:101A300009068CE090E00E946F1D7C010E94640505
:101A40004FA558A96FA178A5C7010E944D05B10106
:101A5000C8010E94720587E090E00E946F1DFC01A2
:101A600084E090E0918380831282F482E382168383
:101A70000583BF01C2010E9409068CE090E00E942C
:101A80006F1D7C010E9464054FA558A96BA57CA51C
:101A9000C7010E944D05B501C4010E94720587E08F
:101AA00090E00E946F1DFC0185E090E091838083AF
:101AB0001282F482E38296828582BF01C2010E9473
:101AC00009068CE090E00E946F1D7C010E94640575
:101AD0004BA95CA96F8D78A1C7010E944D052B967B
:101AE0006EAD7FAD2B97C8010E94720587E090E034
:101AF0000E946F1DFC0186E090E09183808312823A
:101B0000F482E38216830583BF01C2010E940906A5
:101B10008CE090E00E946F1D7C010E9464054BA93F
:101B20005CA96BA17CA1C7010E944D0529966EADF1
:101B30007FAD2997C8010E94720587E090E00E945E
:101B40006F1DFC0187E090E0918380831282F48214
:101B5000E38216830583BF01C2010E9409068CE05F
:101B600090E00E946F1D7C010E9464054BA95CA956
:101B700069A97AA9C7010E944D05B101C8010E9457
:101B8000720587E090E00E946F1DFC0188E090E004
:101B9000918380831282F482E38216830583BF01DE
:101BA000C2010E9409068CE090E00E946F1D7C013A
:101BB0000E9464054BA95CA96FA178A5C7010E948A
:101BC0004D05B501C8010E94720587E090E00E94B2
:101BD0006F1DFC0189E090E0918380831282F48282
:101BE000E38216830583BF01C2010E9409068CE0CF
:101BF00090E00E946F1D7C010E9464054BA95CA9C6
:101C00006BA57CA5C7010E944D05B501C8010E94C6
:101C1000720587E090E00E946F1DFC018AE090E071
:101C2000918380831282F482E38216830583BF014D
:101C3000C2010E9409068CE090E00E946F1D7C01A9
:101C40000E9464054FA958AD6F8D78A1C7010E940D
:101C50004D05B101C8010E94720587E090E00E9425
:101C60006F1DFC018BE090E0918380831282F482EF
:101C7000E38216830583BF01C2010E9409068CE03E
:101C800090E00E946F1D7C010E9464054FA958AD31
:101C90006BA17CA1C7010E944D05B101C8010E9442
:101CA000720587E090E00E946F1DFC018CE090E0DF
:101CB000918380831282F482E38216830583BF01BD
:101CC000C2010E9409068CE090E00E946F1D7C0119
:101CD0000E9464054FA958AD69A97AA9C7010E945D
:101CE0004D05B101C8010E94720587E090E00E9495
:101CF0006F1DFC018DE090E0918380831282F4825D
:101D0000E38216830583BF01C2010E9409068CE0AD
:101D100090E00E946F1D7C010E9464054FA958ADA0
:101D20006FA178A5C7010E944D05B101C8010E94AD
:101D3000720587E090E00E946F1DFC018EE090E04C
:101D4000918380831282F482E38216830583BF012C
:101D5000C2010E9409068CE090E00E946F1D7C0188
:101D60000E9464054FA958AD6BA57CA5C7010E94D0
:101D70004D05B101C8010E94720587E090E00E9404
:101D80006F1DFC018FE090E0918380831282F482CA
:101D9000E38216830583BF01C2010E9409068CE01D
:101DA00090E00E946F1D7C010E9464054BAD5CAD0C
:101DB0006F8D78A1C7010E944D05B101C8010E9435
:101DC000720587E090E00E946F1DFC0180E190E0C9
:101DD000918380831282F482E38216830583BF019C
:101DE000C2010E9409068CE090E00E946F1D7C01F8
:101DF0000E9464054BAD5CAD6BA17CA1C7010E9444
:101E00004D05B101C8010E94720587E090E00E9473
:101E10006F1DFC0181E190E0918380831282F48246
:101E2000E38216830583BF01C2010E9409068CE08C
:101E300090E00E946F1D7C010E9464054BAD5CAD7B
:101E400069A97AA9C7010E944D05B501C4010E9484
:101E5000720587E090E00E946F1DFC0182E190E036
:101E6000918380831282F482E38296828582BF010D
:101E7000C2010E9409068CE090E00E946F1D7C0167
:101E80000E9464054BAD5CAD6FA178A5C7010E94AF
:101E90004D0525966EAD7FAD2597C3010E94720555
:101EA00087E090E00E946F1DFC0183E190E0918348
:101EB00080831282F482E38276826582BF01C2014E
:101EC0000E9409068CE090E00E946F1D7C010E9438
:101ED00064054BAD5CAD6BA57CA5C7010E944D05AB
:101EE00025966EAD7FAD2597C3010E94720587E0F0
:101EF00090E00E946F1DFC0184E190E0918380835B
:101F00001282F482E38276826582BF01C2010E945E
:101F100009068CE090E00E946F1D7C010E94640520
:101F200021964EAD5FAD21976F8D78A1C7010E94BC
:101F30004D05B101C8010E94720587E090E00E9442
:101F40006F1DFC0185E190E0918380831282F48211
:101F5000E38216830583BF01C2010E9409068CE05B
:101F600090E00E946F1D8C010E94640521964EAD89
:101F70005FAD21976BA17CA1C8010E944D05B50101
:101F8000C4010E94720587E090E00E946F1DFC0171
:101F900086E190E09183808312821483038396828A
:101FA0008582BF01C2010E9409068CE090E00E9478
:101FB0006F1D8C010E94640521964EAD5FAD219787
:101FC00069A97AA9C8010E944D05B501C4010E9402
:101FD000720587E090E00E946F1DFC0187E190E0B0
:101FE0009183808312821483038396828582BF014A
:101FF000C2010E9409068CE090E00E946F1D8C01D6
:102000000E94640521964EAD5FAD21976FA178A522
:10201000C8010E944D0525966EAD7FAD2597C30181
:102020000E94720587E090E00E946F1DFC0188E12C
:1020300090E0918380831282148303837682658289
:10204000BF01C2010E9409068CE090E00E946F1D52
:102050008C010E94640521964EAD5FAD21976BA562
:102060007CA5C8010E944D0525966EAD7FAD2597D4
:10207000C3010E94720587E090E00E946F1DFC0181
:1020800089E190E0918380831282148303837682B6
:102090006582BF01C2010E940906CE010D969A8F8A
:1020A000898FDE015396BC8FAB8FFE013796FE8F72
:1020B000ED8F60910002709101026115710509F0C8
:1020C00091C010923502109236021092370210928F
:1020D00038021092310210923202109233021092A2
:1020E000340210922D0210922E0210922F021092A2
:1020F000300240E050E0BA01CE0101960E94CE06C7
:1021000040912D0250912E0260912F027091300269
:10211000CE0107960E94CE064091310250913202C4
:102120006091330270913402CE0143960E94CE0634
:10213000BE016D5E7F4FCE010D960E944E07CE010F
:102140000D960E94AA06BE01695F7F4F0E941B0781
:102150000E94AA06BE016F5F7F4F0E941B070E946C
:10216000AA060E94C902CE010D960E946B06CE01FE
:1021700043960E946B06CE0107960E946B06CE0125
:1021800001960E946B060E94E9034B015C0184E109
:10219000C82ED12CE12CF12C0E94E9036819790991
:1021A0008A099B09683E734081059105A8F3E1E027
:1021B000CE1AD108E108F108F8EE8F0EF3E09F1E69
:1021C000A11CB11CC114D104E104F10429F70E943F
:1021D000B8036FCFFC01828193810097D9F7738296
:1021E000628283CB072E000C880B990B0E94661B22
:1021F0009B01AC01609131027091320280913302F7
:10220000909134020E94831C60932D0270932E02E1
:1022100080932F02909330022091F4023091F502C6
:102220003CA72BA7D9012D903C90F101309771F07C
:10223000A081B1812D913C91119721303105C1F5DB
:1022400012966D937D938D939C931597F101309722
:10225000A9F0A081B1818D919C911197029761F5B0
:102260004091290250912A0260912B0270912C0218
:1022700012964D935D936D937C9315979101211563
:10228000310519F1F901A081B18116960D90BC912B
:10229000A02D1097A9F08D919C911197FC01108AA7
:1022A000118A128A138A12960D90BC91A02DF1CF3B
:1022B0000280F381E02DBACF0280F381E02DC7CFF9
:1022C000D90112962D913C91DACFEBA5FCA50280A5
:1022D000F381E02DFAABE9AB9F012115310509F43B
:1022E000DEC0F901A081B18116960D90BC91A02DA0
:1022F000109769F08D919C911197FC01108A118AB9
:10230000128A138A12960D90BC91A02DF1CFD9019B
:1023100012962D913C91E1CFC701B6010E94621D3A
:1023200087FD39C0A7019601C301B2010E94621D59
:1023300018168CF52F8D38A149A15AA1C301B201FD
:102340000E94831C9B01AC0160E070E080E89FE389
:102350000E94F01C4B015C01A3019201C701B60170
:102360000E94831C9B01AC01C501B4010E94C51BE6
:1023700020E030E040E85FE30E94841CF801608BBD
:10238000718B828B938BEBA1FCA10280F381E02DFA
:10239000FCA3EBA392C0D80118968D909D90AD90B0
:1023A000BC901B97A7019601C301B2010E945F1B5D
:1023B000181694F0A7019601C501B4010E94621D90
:1023C00087FD0AC080E090E0A0E8BFE3F801808BC1
:1023D000918BA28BB38BD7CFD8011C968D919D91F9
:1023E0000D90BC91A02D8FA398A7A9A7BAA7A7016C
:1023F0009601C501B4010E945F1B87FF27C02FA172
:1024000038A549A55AA5C701B6010E945F1B181639
:10241000ECF02FA138A549A55AA5C501B4010E9429
:10242000831C9B01AC0160E070E080E89FE30E94A8
:10243000F01C2B013C01A5019401C701B6010E94CB
:10244000831C9B01AC01C301B20190CF2FA138A521
:1024500049A55AA5C701B6010E94621D18160CF0C5
:1024600092CF2FA138A549A55AA5C501B4010E9454
:102470005F1B81116AC0A3019201C501B4010E94D2
:102480005F1B882309F461C02F8D38A149A15AA18F
:10249000C301B20156C0D10112962D903C90211477
:1024A000310409F45AC0F1010190F081E02DF8AB3C
:1024B000EFA7268137813CA32BA38BA19CA100977A
:1024C00051F3DC010D911C91EFA5F8A9C280D380D6
:1024D000E480F580D8018D919D910D90BC91A02D47
:1024E0008F8F98A3A9A3BAA3F80144805580668072
:1024F00077809C01AD01C701B6010E945F1B2F8D43
:1025000038A149A15AA187FF07CFC301B2010E9498
:102510005F1B81111AC0D8011896CD90DD90ED9007
:10252000FC901B97A7019601C301B2010E945F1B9B
:10253000882359F0F8012485358546855785C701DC
:10254000B6010E945F1B81113DCFD80150961D92AC
:102550001D921D921C92539716CFEBA5FCA50481EA
:102560001581772473940115110509F493C3D801DB
:10257000ED90FC90F701838194810097B1F1C580C3
:10258000D680C114D10489F10E940E044B015C0174
:1025900020E030E0A9010E94621D18161CF5D70149
:1025A00012967C92D601ED90FC90E114F104E9F0D2
:1025B000F701C080D180D60150962D913D914D916B
:1025C0005C915397C501B4010E94621D18162CF44A
:1025D000F601808A918AA28AB38AD7011296ED9079
:1025E000FC90E3CFF7011282DDCFF8010281138165
:1025F000BACF2B8A3C8A4D8A5E8A9601A701C9010F
:10260000DA018D879E87AF87B88BFA8DFF93898D0E
:102610008F939C8D9F93AB8DAF935F934F933F931D
:102620002F931F93AF92BF92BFA5BF935F934F931A
:102630003F932F93EBA5EF93FFA1FF932BA12F9334
:102640003F8D3F93A12CB12C30E8C32E3FE3D32E16
:102650008201710120E030E0A901BF8DABA1FFA193
:10266000EBA56B2F7A2F8F2F9E2F0E9433010D85A4
:102670001E852F8538894B895C896D897E89D401B7
:1026800018968D919C910E94C205D301ED91FC9109
:1026900060857185828593856F83788789879A871E
:1026A0000089118932892389A801A32FB22F9D01A6
:1026B00009831A832B833C83E484F584068517857C
:1026C00021E030E02C0F3D1F3F932F933E8D3F9331
:1026D0002D8D2F93BF93AF935F934F931F930F93C2
:1026E000FF92EF92BF93AF935F934F9323812F930A
:1026F00022812F9321812F9320812F93A12CB12C04
:10270000650120E030E040E85FE30E9433010FB64E
:10271000F894DEBF0FBECDBF09811A812B813C81A9
:102720004F81588569857A85D40118968D919C9141
:102730000E94C205D301ED91FC91C484D584E68446
:10274000F7842085318542855385C701B6010E94F3
:102750005F1B882351F000E010E09801B701A6014B
:10276000F401808591850E94C205D30112966D9077
:102770007C90ACC220E030E040E85FE36C2D7D2D22
:102780008E2D9F2D0E945F1B81111AC000E010E06A
:1027900020E83FE3B201A101F401808591850E9408
:1027A000C205D301ED91FC910089118922893389F9
:1027B0004085518562857385F40180859185B8CF08
:1027C0002B8A3C8A4D8A5E8A9601A701C901DA01EB
:1027D0008D879E87AF87B88BD8017C9111966C91BD
:1027E000119712969C91129713968C91BA8DBF9364
:1027F000E98DEF93FC8DFF93AB8DAF935F934F9378
:102800003F932F93D8011F96EC911F97EF931E963D
:10281000EC911E97EF931D96EC911D97EF931C96EC
:10282000EC91EF935F934F933F932F938F939F93ED
:102830006F937F93A12CB12C20E8C22E2FE3D22ED0
:102840008201710120E030E0A901DB01FC016B2F66
:102850007A2F8F2F9E2F0E9433010D851E852F8585
:1028600038894B895C896D897E89F40180859185E1
:102870000ACF0C2D1D2D2E2D3F2DB6C2F401008444
:10288000F185E02D2996FFAFEEAF299720803180AA
:102890002114310409F4F6C18101D801ED90FC90B6
:1028A0001197E114F10409F4E7C112968D919D91FD
:1028B0000D90BC91A02D8BA79CA7ADA7BEA7F7013B
:1028C0002281338144815581BC01CD010E945F1B6F
:1028D00087FFD6C118A30F8FAF8DB8A10D90BC9103
:1028E000A02DB8A3AF8F109709F4C6C1ED91FC914C
:1028F000F8A7EFA3309781F3D8011A960D90BC91F9
:10290000A02DB8ABAFA7D80116968D919D910D90D3
:10291000BC91A02D8BAB9CABADABBEABAF8DB8A1CA
:1029200012968D919D910D90BC91A02D8FAB98AF7B
:10293000A9AFBAAFAF8DB8A116968D919D910D90AC
:10294000BC91A02D8BAF9CAFADAFBEAF9C01AD01D4
:1029500066817781808591850E94831C2D966CAF5E
:102960007DAF8EAF9FAF2D972BA53CA54DA55EA546
:10297000EFA5F8A962817381848195810E94831CEF
:1029800023966CAF7DAF8EAF9FAF23972FA938AD45
:1029900049AD5AADAFA1B8A512966D917D918D91BB
:1029A0009C9115970E94831C2B013C012BA93CA9EB
:1029B0004DA95EA9EFA5F8A96681778180859185EB
:1029C0000E94831C27966CAF7DAF8EAF9FAF279779
:1029D00023962CAD3DAD4EAD5FAD23972D966CADDE
:1029E0007DAD8EAD9FAD2D970E94C51B6B017C0107
:1029F00027962CAD3DAD4EAD5FAD2797C301B2011B
:102A00000E94C51B9B01AC01C701B6010E94831C3B
:102A10006BA37CA38DA39EA320E030E0A9010E94BC
:102A20005F1B87FF09C08BA19CA1ADA1BEA1B058BF
:102A30008BA39CA3ADA3BEA32FE632E143E85AE3E8
:102A40006BA17CA18DA19EA10E945F1B87FD44CF3D
:102A50002BAD3CAD4DAD5EAD6BA97CA98DA99EA9FA
:102A60000E94831C4B015C012FA938AD49AD5AADC2
:102A70006BA57CA58DA59EA50E94831C6B017C0186
:102A8000A5019401C301B2010E94C51B2B013C01A9
:102A9000A70196012D966CAD7DAD8EAD9FAD2D97A6
:102AA0000E94C51B9B01AC01C301B2010E94831CA3
:102AB0002B013C0120E030E0A9010E945F1B87FF51
:102AC00004C077FA709477F87094A5019401239666
:102AD0006CAD7DAD8EAD9FAD23970E94C51B4B01A4
:102AE0005C01A701960127966CAD7DAD8EAD9FADC3
:102AF00027970E94C51B9B01AC01C501B4010E9430
:102B0000831C6B017C0120E030E0A9010E945F1B67
:102B100087FF04C0F7FAF094F7F8F0942BA13CA1DA
:102B20004DA15EA1C301B2010E94F01C4B015C01EA
:102B300020E030E0A9010E945F1B87FDCDCE20E0A0
:102B400030E040E85FE3C501B4010E94621D181641
:102B50000CF4C2CE2BA13CA14DA15EA1C701B601D0
:102B60000E94F01C6B017C0120E030E0A9010E9472
:102B70005F1B87FDB1CE20E030E040E85FE3C70196
:102B8000B6010E94621D18160CF4A6CE8CE090E0EF
:102B90000E946F1D7C01009709F49ECEEFA1F8A55D
:102BA000DC01ED93FC93A501940123966CAD7DAD02
:102BB0008EAD9FAD23970E94C51B2BA53CA54DA5AF
:102BC0005EA50E94841CD70112966D937D938D9310
:102BD0009C931597A501940127966CAD7DAD8EADA4
:102BE0009FAD27970E94C51B2BA93CA94DA95EA9A3
:102BF0000E94841CF70166837783808791872FA5C5
:102C000038A933872287AFA1B8A51B96FC92EE9214
:102C10001A97F901F182E082D80112968D909D9069
:102C2000AD90BC90159716964D905D906D907C90F0
:102C30001997EC901196FC90C8010E940B1EA501FB
:102C400094016FA978AD89AD9AAD0E945F1B811187
:102C50000AC0A30192016BAD7CAD8DAD9EAD0E940B
:102C60005F1B882319F08701EF28B1F62996AEADD6
:102C7000BFAD29972D903C90F1012284338408CE7A
:102C800087010BCEA9A9BAA912960D90BC91A02DCF
:102C9000BAABA9AB29A93AA92115310509F4A7C0F6
:102CA000D9018D909C90F40100851185D8016D911A
:102CB0007C916115710519F0C8010E947306F80135
:102CC00011821082D40116966D907C90611471046B
:102CD00009F4D4CDF3010081118120E030E0A90195
:102CE000D80150966D917D918D919C9153970E9442
:102CF000621D18160CF039CDF801C080D180E28039
:102D0000F380A701960164817581868197810E9475
:102D10005F1B882359F000E010E09801B701A6017D
:102D2000D40118968D919C910E94C205F3010081F7
:102D30001181D80114962D903D904D905C9017977D
:102D40005096CC9050975196DC9051975296EC90BB
:102D500052975396FC905397A201910118966D914A
:102D60007D918D919C911B970E945F1B811102CDDB
:102D7000F801F081FF8FD8011196BC91BBA3F80137
:102D8000F281FFA3D8011396BC91BBA7F801F4858B
:102D9000FFA7D8011D96BC901D971E96AC901E975C
:102DA0001F961C917F8D6BA19FA18BA5272F362F7E
:102DB000492F582FBF2F6B2F7B2D8A2D912F0E94CB
:102DC0005F1B882309F455CD20E030E040E85FE345
:102DD0006C2D7D2D8E2D9F2D0E945F1B811109CCA6
:102DE00000E010E020E83FE3B201A101E5CCE09172
:102DF000F402F091F5020280F381E02D309709F49E
:102E0000EBC1A081B1818D919C911197019799F7A8
:102E10001896ED91FC910190F081E02D1BAA1CAA5F
:102E20001DAA1EAA1FAA18AE19AE1AAE309709F431
:102E300030C1028513850115110509F42AC1C2802C
:102E4000D380E480F580D80112968D909D90AD904E
:102E5000BC901597B681BF8F27812BA32084318426
:102E6000A5019401C701B6010E945F1B882309F4E4
:102E700004C1D8011696BC91B9ABF801F781FFA344
:102E8000D8011896BC91BBA7F801F185FFA720E0F7
:102E900030E0A9016F8D7BA1C1010E945F1B8823D7
:102EA00059F020E030E0A90169A97FA18BA59FA579
:102EB0000E945F1B81115CC020E030E0A9016F8D92
:102EC0007BA1C1010E94621D18160CF044C02F8D19
:102ED0002BAF3BA13FAF24962FAE249728963FAE51
:102EE0002897A7019601C501B4010E94831C2B01FC
:102EF0003C012BAD3FAD24964FAD249728965FAD96
:102F000028970E94C51B20E030E040E05FE30E946C
:102F1000C51B4B015C012F8D3BA1A10169A97FA1BC
:102F20008BA59FA50E94621D20E030E040EC5FE38E
:102F3000181624F020E030E040E450E4C301B20170
:102F40000E94F01C9B01AC01C701B6010E94841CC9
:102F50006B017C014EC089A98BAF9FA19FAFABA530
:102F60002496AFAF2497BFA52896BFAF2897B9CFB7
:102F700020E030E0A9016F8D7BA1C1010E94621D9C
:102F800018160CF07EC020E030E0A90169A97FA1ED
:102F90008BA59FA50E94621D18160CF072C02F8D84
:102FA0003BA1A10169A97FA18BA59FA50E945F1BE1
:102FB000A701960181113DC0C501B4010E94831C87
:102FC0004B015C0120E030E040E05FE30E94C51B64
:102FD0009B01AC01C701B6010E94841C6B017C01FE
:102FE0002F8D3BA1A101C501B4010E94C51B4B015E
:102FF0005C01A7019601B401C5010E94C51B9B019C
:10300000AC016FA978AD89AD9AAD0E94841C6FABFD
:1030100078AF89AF9AAF9401A5016BA97CA98DA95E
:103020009EA90E94841C6BAB7CAB8DAB9EABF80160
:10303000FDCEC501B4010E94831C2B013C012F8DE4
:103040003BA1A10169A97FA18BA59FA50E94841C1A
:1030500020E030E040E05FE30E94C51BA301920145
:103060000E94C51B4B015C0120E030E040E05FE3C3
:10307000C301B2010E94C51B65CF8F8C9BA051017B
:10308000B8CFC12CD12C7601812C912CA12CB12C44
:10309000B0CF20E030E0A9016BA97CA98DA99EA941
:1030A0000E945F1B882309F497C02BA93CA94DA956
:1030B0005EA96FA978AD89AD9AAD0E94F01CAB01F5
:1030C000BC014093350250933602609337027093EF
:1030D0003802CE0101960E94CE0640912D025091F9
:1030E0002E0260912F0270913002CE0107960E944D
:1030F000CE064091310250913202609133027091BC
:103100003402CE0143960E94CE06BE016D5E7F4F13
:10311000CE010D960E944E07CE010D960E94AA0682
:10312000BE01695F7F4F0E941B070E94AA06BE0175
:103130006F5F7F4F0E941B070E94AA060E94C90270
:10314000CE010D960E946B06CE0143960E946B063F
:10315000CE0107960E946B06CE0101960E946B0677
:10316000C0903102D0903202E0903302F0903402ED
:1031700023E733E145E35BE360913502709136026A
:1031800080913702909138020E94C51B4B015C016F
:1031900029E832ED4EE75FE3C701B6010E94C51B87
:1031A0009B01AC01C501B4010E94841C60933102F3
:1031B000709332028093330290933402A7019601F8
:1031C0000E94831C6093290270932A0280932B0231
:1031D00090932C020C94C31040E050E0BA0171CFE0
:1031E000EF920F931F93CF93DF93E80134E047FDF5
:1031F00034E1042E000C550B57FF03C05195419547
:103200005109E32E022F242FAE010E940E19CE0188
:10321000DF91CF911F910F91EF9008958F929F9220
:10322000AF92BF92CF92DF92EF92FF920F931F93D4
:10323000CF93DF9300D000D000D0CDB7DEB76A01C6
:10324000F22EB02E102FFBE3AF2EA01608F41BE3D6
:103250001F5F012F27E0AE014F5F5F4F0E94871A6B
:10326000BC018981982F9970913009F44EC09BE27E
:10327000E1FC04C09E2D9170E0FC49C05E2D5071B0
:10328000E82FE87083FF55C084E0911101C083E00E
:10329000EF2DE81B8F1508F0E0E0D6018E2F20E21D
:1032A0005523C9F1992329F0D6019C93C6010196B3
:1032B0006C0196012D5F3F4FE2FE33C08EE4D601D4
:1032C0008C9391E411969C93119712968C93D9014B
:1032D0008E2F90E281112AC0E20FF32FF11D108290
:1032E0008EEF9FEF29960FB6F894DEBF0FBECDBFCD
:1032F000DF91CF911F910F91FF90EF90DF90CF90D2
:10330000BF90AF909F908F9008959DE2B7CF90E2CD
:10331000B5CF2D9381508111FCCFCE0ED11CE0E0B2
:10332000C1CF8EE6D6018C9391E6CCCF9D93815090
:10333000D1CF482F447082FF3DC084E0911101C07D
:1033400083E08F1510F4EF2DE81BD6018E2F20E2BD
:10335000552309F1992329F0D6019C93C6010196C2
:103360006C0196012D5F3F4FE2FE1BC089E4D60140
:103370008C938EE411968C93119786E412968C931D
:10338000D9018E2F90E2882309F4A6CF9D93815016
:10339000FACF2D9381508111FCCFCE0ED11CE0E0ED
:1033A000D9CF89E6D6018C938EE611968C9311972E
:1033B00086E6E4CF9B0177FF02C030E020E0A1E089
:1033C000B0E0911102C0B0E0A0E0F9013196AE0F7B
:1033D000BF1F8B2C912CBB2009F461C05401EFEF6F
:1033E000AE1ABE0AAA0DBB1DFA161B0619F014F080
:1033F0004F2D4A1B511188C0E3FC59C07601A42F00
:10340000B0E2A1114FC0C40ED11C992309F45BC0D6
:1034100040E0D6011196F60190836D01552309F421
:1034200048C0012F060F9A81582F507184FF03C0A6
:10343000913309F4015010160CF047C0093008F020
:1034400008E0EEE2FE2E5B01A01AB108850191941E
:10345000819491082F3F320729F4D601FC92F6019E
:1034600031966F016217730794F1021713077CF509
:10347000DB01A21BB30BAA24A394B12CAC0EBD1E7E
:10348000AA0DBB1D11968C9121503109D6011196C0
:1034900028153905F4F0F60180836D01DBCFB12CDE
:1034A000A12CA0CFF701B1937F01A150AACF911118
:1034B000B0CFD601942F50E302C05D93915091118B
:1034C000FCCFC40ED11C40E0ACCF01E0BACF80E30A
:1034D000DBCF6217730731F4963388F4953311F418
:1034E000552369F0F6018083FD01842F90E281115C
:1034F00008C0A40FB11D1C9290E080E0F3CE81E3E0
:10350000F1CF91938150F3CF911183CF8ACF28309F
:1035100008F027E03327DA01990F311D87FD91600C
:1035200000966105710539F432602E5F3D9330E3FA
:103530002A95E1F708959F3F30F0803871056105C5
:1035400009F03C5F3C5F3D93913008F08068911D2D
:10355000DF93CF931F930F93FF92EF92192F987FD2
:103560009695E92F96959695E90FFF27E25AFE4F1B
:1035700099273327EE24FF24A701E701059008943B
:10358000079428F4360FE71EF81E491F511D660FD9
:10359000771F881F991F0694A1F70590079428F4B8
:1035A000E70EF81E491F561FC11D770F881F991F70
:1035B000661F0694A1F70590079428F4F80E491F9A
:1035C000561FC71FD11D880F991F661F771F0694AE
:1035D000A1F70590079420F4490F561FC71FD81F65
:1035E000990F661F771F881F0694A9F7849110957D
:1035F000177041F0D695C79557954795F794E7947E
:103600001A95C1F7E4E0F1E06894159015913591B1
:103610006591959105907FE27395E118F10A430B4E
:10362000560BC90BD009C0F7E10CF11E431F561F02
:10363000C91FD01D7EF4703311F48A95E6CFE8944B
:10364000015030F0080F0AF40027021708F4202F69
:103650002395022F7A3328F079E37D932A95E9F7B1
:1036600010C07D932A9589F60694979567953795AE
:1036700017951794E118F10A430B560BC90BD009A3
:1036800098F023957E9173957A3308F070E37C93DC
:103690002013B8F77E9170617D9330F0839571E3CC
:1036A0007D9370E32A95E1F71124EF90FF900F913D
:1036B0001F91CF91DF91992787FD909508950E94E2
:1036C000A11B08F481E00895E89409C097FB3EF43B
:1036D00090958095709561957F4F8F4F9F4F99235F
:1036E000A9F0F92F96E9BB279395F69587957795DD
:1036F0006795B795F111F8CFFAF4BB0F11F460FF9D
:103700001BC06F5F7F4F8F4F9F4F16C0882311F0F4
:1037100096E911C0772321F09EE8872F762F05C008
:10372000662371F096E8862F70E060E02AF09A95A3
:10373000660F771F881FDAF7880F9695879597F998
:103740000895990F0008550FAA0BE0E8FEEF161632
:103750001706E807F907C0F012161306E407F50785
:1037600098F0621B730B840B950B39F40A2661F0F9
:10377000232B242B252B21F408950A2609F4A1409C
:10378000A6958FEF811D811D08950E94D81B0C9472
:10379000491C0E943B1C38F00E94421C20F09523DB
:1037A00011F00C94321C0C94381C11240C947D1CC8
:1037B0000E945A1C70F3959FC1F3950F50E0551F5E
:1037C000629FF001729FBB27F00DB11D639FAA2776
:1037D000F00DB11DAA1F649F6627B00DA11D661FC5
:1037E000829F2227B00DA11D621F739FB00DA11DE6
:1037F000621F839FA00D611D221F749F3327A00DA0
:10380000611D231F849F600D211D822F762F6A2F3B
:1038100011249F5750409AF0F1F088234AF0EE0FA0
:10382000FF1FBB1F661F771F881F91505040A9F7CD
:103830009E3F510580F00C94321C0C947D1C5F3F20
:10384000E4F3983ED4F3869577956795B795F79509
:10385000E7959F5FC1F7FE2B880F911D9695879581
:1038600097F9089597F99F6780E870E060E0089500
:103870009FEF80EC089500240A9416161706180688
:103880000906089500240A94121613061406050664
:103890000895092E0394000C11F4882352F0BB0FF5
:1038A00040F4BF2B11F460FF04C06F5F7F4F8F4F58
:1038B0009F4F089557FD9058440F551F59F05F3F93
:1038C00071F04795880F97FB991F61F09F3F79F042
:1038D00087950895121613061406551FF2CF4695C4
:1038E000F1DF08C0161617061806991FF1CF869546
:1038F0007105610508940895E894BB27662777272A
:10390000CB0197F908955058BB27AA270E949B1C0A
:103910000C94491C0E943B1C38F00E94421C20F071
:1039200039F49F3F19F426F40C94381C0EF4E095FA
:10393000E7FB0C94321CE92F0E945A1C58F3BA176B
:10394000620773078407950720F079F4A6F50C94B5
:103950007C1C0EF4E0950B2EBA2FA02D0B01B901A3
:1039600090010C01CA01A0011124FF27591B99F0F5
:10397000593F50F4503E68F11A16F040A22F232F01
:10398000342F4427585FF3CF469537952795A79551
:10399000F0405395C9F77EF41F16BA0B620B730BF8
:1039A000840BBAF09150A1F0FF0FBB1F661F771F69
:1039B000881FC2F70EC0BA0F621F731F841F48F41E
:1039C000879577956795B795F7959E3F08F0B0CFA7
:1039D0009395880F08F09927EE0F9795879508958E
:1039E0000E94041D0C94491C0E94421C58F00E9425
:1039F0003B1C40F029F45F3F29F00C94321C51111C
:103A00000C947D1C0C94381C0E945A1C68F399235A
:103A1000B1F3552391F3951B550BBB27AA276217CA
:103A20007307840738F09F5F5F4F220F331F441FD7
:103A3000AA1FA9F335D00E2E3AF0E0E832D091500B
:103A40005040E695001CCAF72BD0FE2F29D0660FF8
:103A5000771F881FBB1F261737074807AB07B0E83B
:103A600009F0BB0B802DBF01FF2793585F4F3AF041
:103A70009E3F510578F00C94321C0C947D1C5F3FE6
:103A8000E4F3983ED4F3869577956795B795F795C7
:103A90009F5FC9F7880F911D9695879597F90895AF
:103AA000E1E0660F771F881FBB1F6217730784074B
:103AB000BA0720F0621B730B840BBA0BEE1F88F75A
:103AC000E09508950E94A11B08F48FEF0895EE0F72
:103AD000FF1F881F8BBF0790F691E02D19940F935D
:103AE0001F93CF93DF938230910510F482E090E032
:103AF000E091F802F091F90230E020E0B0E0A0E0BF
:103B0000309799F42115310509F44AC0281B390B67
:103B100024303105D8F58A819B816115710589F1C1
:103B2000FB0193838283FE0111C040815181028198
:103B3000138148175907E0F04817590799F410976F
:103B400061F012960C93129713961C933296CF0144
:103B5000DF91CF911F910F9108950093F802109378
:103B6000F902F4CF2115310551F04217530738F00F
:103B7000A901DB019A01BD01DF01F801C1CFEF010D
:103B8000F9CF9093F9028093F802CDCFFE01E20FB6
:103B9000F31F819391932250310939832883D7CF22
:103BA0002091F6023091F702232B41F42091040278
:103BB000309105023093F7022093F6022091020221
:103BC000309103022115310541F42DB73EB74091E4
:103BD000060250910702241B350BE091F602F0918A
:103BE000F702E217F307A0F42E1B3F0B2817390743
:103BF00078F0AC014E5F5F4F2417350748F04E0F49
:103C00005F1F5093F7024093F602819391939FCFE9
:103C1000F0E0E0E09CCFCF93DF930097E9F0FC0168
:103C2000329713821282A091F802B091F902ED014D
:103C300030E020E01097A1F420813181820F931FA2
:103C40002091F6023091F7022817390709F061C078
:103C5000F093F702E093F602DF91CF910895EA0125
:103C6000CE17DF07E8F54A815B819E0141155105BA
:103C7000B1F7E901FB83EA8349915991C40FD51F3C
:103C8000EC17FD0761F4808191810296840F951FE6
:103C9000E90199838883828193819B838A83F0E001
:103CA000E0E012968D919C9113970097B9F52D91B4
:103CB0003C911197CD010296820F931F2091F6023D
:103CC0003091F7022817390739F6309751F51092DD
:103CD000F9021092F802B093F702A093F602BCCF5B
:103CE000D383C28340815181840F951FC817D907A0
:103CF00061F44E5F5F4F88819981480F591F51834E
:103D000040838A819B81938382832115310509F049
:103D1000B0CFF093F902E093F8029ECFFD01DC01F1
:103D2000C0CF13821282D7CF4F925F926F927F9251
:103D30008F929F92AF92BF92CF92DF92EF92FF92BB
:103D40000F931F93CF93DF938C01009799F4CB01CE
:103D5000DF91CF911F910F91FF90EF90DF90CF9067
:103D6000BF90AF909F908F907F906F905F904F909B
:103D70000C946F1DFC01E60FF71F9C0122503109C6
:103D8000E217F30708F4AEC0D901CD91DC91119789
:103D9000C617D70720F1C530D10578F0CE010497BA
:103DA0008617970750F0C61BD70B2297C193D19364
:103DB0006D937C93CF010E940B1EC801DF91CF91C0
:103DC0001F910F91FF90EF90DF90CF90BF90AF9039
:103DD0009F908F907F906F905F904F9008955B01C0
:103DE000AC1ABD0A4C018C0E9D1EA091F802B09138
:103DF000F902512C412CF12CE12C109731F58091D6
:103E0000F6029091F7028815990509F05CC04616F4
:103E1000570608F058C08091020290910302009763
:103E200041F48DB79EB74091060250910702841B62
:103E3000950BE817F90708F055C0F093F702E093E7
:103E4000F602F90171836083B8CF8D919C9111972F
:103E500012966C90129713967C901397A815B9053B
:103E600059F56C0142E0C40ED11CCA14DB0420F1E8
:103E7000AC014A195B09DA011296159780F062824B
:103E8000738251834083D9016D937C93E114F104D3
:103E900071F0D7011396FC93EE9312978ECF229672
:103EA0008C0F9D1FF90191838083F301EFCFF09375
:103EB000F902E093F80281CF4816590608F42C0164
:103EC0007D01D3019ACFCB010E946F1D7C01009729
:103ED00049F0AE01B8010E94751FC8010E940B1E77
:103EE00087016BCF10E000E068CFFB01DC0102C06E
:103EF00001900D9241505040D8F70895FB01DC012C
:103F000001900D920020E1F70895F894FFCF0A0088
:103F10000000FA028000000000004B039C02E20255
:0E3F200098031303F10205030D0A003B000095
:10E000000D9489F10D94B2F10D94B2F10D94B2F129
:10E010000D94B2F10D94B2F10D94B2F10D94B2F1F0
:10E020000D94B2F10D94B2F10D94B2F10D94B2F1E0
:10E030000D94B2F10D94B2F10D94B2F10D94B2F1D0
:10E040000D94B2F10D94B2F10D94B2F10D94B2F1C0
:10E050000D94B2F10D94B2F10D94B2F10D94B2F1B0
:10E060000D94B2F10D94B2F10D94B2F10D94B2F1A0
:10E070000D94B2F10D94B2F10D94B2F10D94B2F190
:10E080000D94B2F10D94B2F10D94B2F10D94B2F180
:10E090000D94B2F10D94B2F10D94B2F10D94B2F170
:10E0A0000D94B2F10D94B2F10D94B2F10D94B2F160
:10E0B0000D94B2F10D94B2F10D94B2F10D94B2F150
:10E0C0000D94B2F10D94B2F10D94B2F10D94B2F140
:10E0D0000D94B2F10D94B2F10D94B2F10D94B2F130
:10E0E0000D94B2F141546D656761323536300041AF
:10E0F000726475696E6F206578706C6F72657220DE
:10E1000073746B3530305632206279204D4C530099
:10E11000426F6F746C6F616465723E004875683F52
:10E1200000436F6D70696C6564206F6E203D200048
:10E130004350552054797065202020203D20005FF9
:10E140005F4156525F415243485F5F3D2000415658
:10E1500052204C696243205665723D20004743437C
:10E160002056657273696F6E203D20004350552024
:10E1700049442020202020203D20004C6F7720663D
:10E18000757365202020203D20004869676820665F
:10E190007573652020203D200045787420667573D6
:10E1A00065202020203D20004C6F636B2066757336
:10E1B000652020203D20004D617220203720323024
:10E1C000313300312E362E3800342E332E350056A2
:10E1D00023202020414444522020206F7020636F70
:10E1E00064652020202020696E73747275637469E1
:10E1F0006F6E2061646472202020496E74657272B3
:10E20000757074006E6F20766563746F7200726A49
:10E210006D702020006A6D70200057686174207056
:10E220006F72743A00506F7274206E6F7420737541
:10E2300070706F72746564004D7573742062652030
:10E2400061206C6574746572002000577269747483
:10E25000696E672045450052656164696E672045B7
:10E26000450045452065727220636E743D00504F35
:10E27000525400303D5A65726F2061646472003FF1
:10E280003D43505520737461747300403D454550C3
:10E29000524F4D207465737400423D426C696E6B41
:10E2A000204C454400453D44756D70204545505215
:10E2B0004F4D00463D44756D7020464C415348001B
:10E2C000483D48656C70004C3D4C69737420492F83
:10E2D0004F20506F72747300513D51756974005234
:10E2E0003D44756D702052414D00563D73686F7707
:10E2F00020696E7465727275707420566563746FF0
:10E30000727300593D506F727420626C696E6B00BD
:10E310002A0011241FBECFEFD1E2DEBFCDBF01E046
:10E320000CBF12E0A0E0B2E0EEE1FDEF03E00BBFB6
:10E3300002C007900D92A030B107D9F712E0A0E01B
:10E34000B2E001C01D92AE30B107E1F70F9460F367
:10E350000D948DFE01E20EBF0FEF0DBF11241FBE05
:10E360000D9460F30D9400F020E030E040ED57E0B4
:10E3700005C0FA013197F1F72F5F3F4F2817390792
:10E38000C0F308959C01260F311DC901A0E0B0E043
:10E390002F5F3F4FABBFFC018791882361F08093D3
:10E3A000C6008091C00086FFFCCF8091C0008064D1
:10E3B0008093C000EACF08958DE08093C6008091DD
:10E3C000C00086FFFCCF8091C00080648093C000B5
:10E3D0008AE08093C6008091C00086FFFCCF8091C8
:10E3E000C00080648093C00008950F94C2F10F9420
:10E3F000DCF10895FC019081992359F09093C600B7
:10E400008091C00086FFFCCF8091C0008064809323
:10E41000C0003196992379F70895282F982F929567
:10E420009F70892F805D8A3308F0895F8093C600D2
:10E430008091C00086FFFCCF8091C00080648093F3
:10E44000C000822F8F70982F905D9A3308F0995FEB
:10E450009093C6008091C00086FFFCCF8091C000E1
:10E4600080648093C00008959C01FB01853691056E
:10E470001CF46330710594F0C90164E670E00F94F8
:10E480002EFE605D7F4F6093C6008091C00086FFC6
:10E49000FCCF8091C00080648093C0002B30310598
:10E4A00014F43297B4F0C90164E670E00F942EFEC4
:10E4B0006AE070E00F942EFE605D7F4F6093C600AF
:10E4C0008091C00086FFFCCF8091C0008064809363
:10E4D000C000C9016AE070E00F942EFEC0968093E0
:10E4E000C6008091C00086FFFCCF8091C000806490
:10E4F0008093C00008951F93182F8EE692EE60E07F
:10E500000F94C2F11093C6008091C00086FFFCCF2B
:10E510008091C00080648093C0000F94DCF11F9153
:10E5200008952F923F924F925F926F927F928F92B7
:10E530009F92AF92BF92CF92DF92EF92FF920F9392
:10E540001F93DF93CF93CDB7DEB762970FB6F894E2
:10E55000DEBF0FBECDBF382E622ECA01DB015C01CB
:10E560006D01772420E2222E2E010894411C511CBB
:10E570008BC081E0A81680E0B80681E0C80680E084
:10E58000D80628F0C601AA27BB270F940DF2BB2797
:10E59000AD2D9C2D8B2D0F940DF28A2D0F940DF225
:10E5A0002092C6008091C00086FFFCCF8091C00001
:10E5B00080648093C0009DE29093C6008091C0006B
:10E5C00086FFFCCF8091C00080648093C0002092C1
:10E5D000C6008091C00086FFFCCF8091C00080649F
:10E5E0008093C00019828601750188249924A1E0D6
:10E5F0003A1651F03A1620F0B2E03B1661F409C029
:10E600000BBFF701779007C0C7010F9477FE782EF4
:10E6100002C0F7017080872D0F940DF22092C60082
:10E620008091C00086FFFCCF8091C0008064809301
:10E63000C000872D8052F401EF70F0708F3520F408
:10E64000E40DF51D708204C0E40DF51D8EE280839B
:10E650000894E11CF11C011D111D0894811C911CE2
:10E6600090E18916910409F0C2CF80E190E0A0E02A
:10E67000B0E0A80EB91ECA1EDB1E198AC2010F9493
:10E68000FAF10F94DCF16A94662009F072CF629679
:10E690000FB6F894DEBF0FBECDBFCF91DF911F91B3
:10E6A0000F91FF90EF90DF90CF90BF90AF909F9031
:10E6B0008F907F906F905F904F903F902F90089534
:10E6C0002F923F924F925F926F927F928F929F9282
:10E6D000AF92BF92CF92DF92EF92FF920F931F9370
:10E6E000DF93CF93CDB7DEB7CD53D1400FB6F894BB
:10E6F000DEBF0FBECDBF01E20EBF0FEF0DBF94B75F
:10E70000F894A89514BE80916000886180936000A1
:10E7100010926000789493FF05C0E0910002F091A0
:10E7200001021995279A2F9A8091C00082608093E8
:10E73000C00080E18093C40088E18093C1000000A4
:10E74000EE24FF24870144E0A42EB12CCC24DD2448
:10E7500024C0C5010197F1F70894E11CF11C011DCB
:10E76000111D21E2E2162EE4F20620E0020720E06D
:10E77000120718F031E0C32ED12CC801B70127ECE5
:10E780003BE140E050E00F9441FE611571058105C9
:10E79000910519F485B1805885B98091C00087FD35
:10E7A00003C0C114D104A9F2A6014F5F5F4FC25E3E
:10E7B000DE4F59834883CE51D140C25EDE4F8881FF
:10E7C0009981CE51D140019711F00D9410FEC05D9A
:10E7D000DE4F19821882C053D14060E0C15DDE4F28
:10E7E0001882CF52D14088249924C35DDE4F19820C
:10E7F0001882CD52D140C05EDE4F188219821A8233
:10E800001B82C052D140CE5CDE4F188219821A8220
:10E810001B82C253D140EE24FF2487010BBFF701B6
:10E8200007911691C45CDE4F19830883CC53D14005
:10E830000D940BFEC25EDE4F28813981CE51D1404E
:10E840002130310509F52091C600C25EDE4F1982E4
:10E850001882CE51D14022C02F5F3F4F4F4F5F4FA4
:10E86000213082E138078AE7480780E0580780F0C6
:10E87000C45CDE4FE881F981CC53D140EF5FFF4F9C
:10E8800019F0EE27FF27099420E030E040E050E047
:10E890008091C00087FFE0CF2091C600C35DDE4FAE
:10E8A00048815981CD52D1404F5F5F4FC35DDE4FEC
:10E8B00059834883CD52D140213209F063C64A3092
:10E8C000510508F05FC60894811C911C53E0851621
:10E8D000910409F059C600E010E018C081E280936D
:10E8E000C6008091C00086FFFCCF8091C00080648C
:10E8F0008093C0002F5F3F4F2931310579F70F9486
:10E90000DCF10F5F1F4F0530110519F020E030E0FA
:10E91000E5CF10920A0210920B0210920C02109294
:10E920000D02109206021092070210920802109235
:10E930000902109202021092030210920402109235
:10E9400005028FEE90EE60E00F94F5F180E191EE1C
:10E9500060E00F94C2F18091C00087FFFCCF9091DE
:10E96000C600903608F09F759032B8F09093C600BC
:10E970008091C00086FFFCCF8091C00080648093AE
:10E98000C000A0E2A093C6008091C00086FFFCCF2B
:10E990008091C00080648093C000983409F4D7C18E
:10E9A0009934B8F4923409F459C1933458F490333B
:10E9B00019F1903308F4E3C59F33A1F1903409F0C5
:10E9C000DEC5BDC0953409F470C1963409F0D7C5D1
:10E9D00098C1923509F42BC2933538F49C3409F46C
:10E9E000F5C1913509F0CBC518C2963509F445C279
:10E9F000993509F0C4C567C483E792EE62E00F94CD
:10EA0000F5F110920602109207021092080210927D
:10EA1000090210920A0210920B0210920C0210923C
:10EA20000D0213C18FE792EE62E00F94F5F18FEEC5
:10EA300090EE60E00F94F5F181E291EE60E00F94CA
:10EA4000C2F187EB91EE60E00F94F5F180E391EE77
:10EA500060E00F94C2F184EE90EE60E00F94F5F167
:10EA60008FE391EE60E00F94C2F186E090E061E008
:10EA700070E00F9434F20F94DCF18DE591EE60E0DC
:10EA80000F94C2F189EC91EE60E00F94F5F18EE401
:10EA900091EE60E00F94C2F183EC91EE60E00F9490
:10EAA000F5F18CE691EE60E00F94C2F18EE10F94E7
:10EAB0000DF288E90F940DF281E00F940DF20F949E
:10EAC000DCF18BE791EE60E00F94C2F119E0E0E039
:10EAD000F0E010935700E4918E2F0F940DF20F94F5
:10EAE000DCF18AE891EE60E00F94C2F1E3E0F0E03F
:10EAF00010935700E4918E2F0F940DF20F94DCF1D8
:10EB000089E991EE60E00F94C2F1E2E0F0E0109349
:10EB10005700E4918E2F0F940DF20F94DCF188EAE8
:10EB200091EE60E00F94C2F1E1E0F0E01093570045
:10EB30001491812F0F940DF20F94DCF107CF8BE825
:10EB400092EE62E00F94F5F18BE492EE60E00F94A8
:10EB5000F5F10F94DCF100E010E019C0C8016F2D51
:10EB60000F947FFEFF2031F489E492EE60E00F9471
:10EB7000C2F10BC0F092C6008091C00086FFFCCFAE
:10EB80008091C00080648093C0000F5F1F4FC80158
:10EB900081519F41A0E0B0E0ABBFFC01F790BAE229
:10EBA000FB1621F0E2E000301E07C1F60F94DCF105
:10EBB0000F94DCF187E592EE60E00F94F5F10F948D
:10EBC000DCF1CC24DD2400E010E01EC0C8010F946D
:10EBD00077FEF82E882331F489E492EE60E00F94FA
:10EBE000C2F10BC08093C6008091C00086FFFCCFAD
:10EBF0008091C00080648093C000FE1419F00894D6
:10EC0000C11CD11C0F5F1F4FC80181519F41A0E063
:10EC1000B0E0ABBFFC01E790FAE2EF1621F022E092
:10EC20000030120799F60F94DCF10F94DCF182E6C4
:10EC300092EE60E00F94C2F1C60161E070E00F94C3
:10EC400034F20F94DCF10F94DCF110920202109276
:10EC50000302109204021092050278CE89E992EE26
:10EC600062E00F94F5F1279A2F9A16C02F9880E052
:10EC700090E0E0EDF7E03197F1F7019684369105E9
:10EC8000C1F72F9A80E090E0E0EDF7E03197F1F7DF
:10EC9000019684369105C1F78091C00087FFE6CFC9
:10ECA0008091C00087FFFCCF64C485EA92EE62E0E9
:10ECB0000F94F5F140910202509103026091040219
:10ECC0007091050281E020E10F9491F2809102029F
:10ECD00090910302A0910402B091050280509F4FD1
:10ECE000AF4FBF4F8093020290930302A0930402A0
:10ECF000B093050280509041A040B04008F426CE69
:10ED0000A4CF83EB92EE62E00F94F5F140910602FE
:10ED100050910702609108027091090280E020E1A1
:10ED20000F9491F28091060290910702A09108023F
:10ED3000B091090280509F4FAF4FBF4F80930602A2
:10ED400090930702A0930802B0930902FFCD80ECD4
:10ED500092EE62E00F94F5F183E792EE60E00F949B
:10ED6000F5F18FE792EE60E00F94F5F18BE892EE0B
:10ED700060E00F94F5F189E992EE60E00F94F5F10F
:10ED800085EA92EE60E00F94F5F183EB92EE60E09D
:10ED90000F94F5F180EC92EE60E00F94F5F187ECC2
:10EDA00092EE60E00F94F5F188ED92EE60E00F9442
:10EDB000F5F18FED92EE60E00F94F5F18AEE92EEB0
:10EDC00060E00F94F5F183E093EEBDCD87EC92EE19
:10EDD00062E00F94F5F181E40F947BF282E40F94EA
:10EDE0007BF283E40F947BF284E40F947BF285E45E
:10EDF0000F947BF286E40F947BF287E40F947BF20E
:10EE000088E40F947BF28AE40F947BF28BE40F94F6
:10EE10007BF28CE40F947BF299CD88ED92EE62E068
:10EE20000F94F5F1772473948824992409C48FED05
:10EE300092EE62E00F94F5F140910A0250910B02BC
:10EE400060910C0270910D0282E020E10F9491F22A
:10EE500080910A0290910B02A0910C02B0910D02D8
:10EE600080509F4FAF4FBF4F80930A0290930B0289
:10EE7000A0930C02B0930D0269CD8AEE92EE62E08F
:10EE80000F94F5F184EE90EE60E00F94F5F18FECC5
:10EE900091EE60E00F94F5F1662477244301CC5D98
:10EEA000DE4F19821882C452D140D401C301B695F5
:10EEB000A79597958795CA5DDE4F88839983AA8326
:10EEC000BB83C652D140CC5DDE4FA881B981C4520C
:10EED000D1401196CC5DDE4FB983A883C452D14096
:10EEE000CD0162E070E00F9434F2B0E2B093C6005E
:10EEF0008091C00086FFFCCF8091C0008064809329
:10EF0000C000EDE2E093C6008091C00086FFFCCF18
:10EF10008091C00080648093C000F0E2F093C6004E
:10EF20008091C00086FFFCCF8091C00080648093F8
:10EF3000C000CA5DDE4FE880F9800A811B81C6529D
:10EF4000D140BB27A12F902F8F2D0F940DF2CA5DBA
:10EF5000DE4F8881C652D1400F940DF2B0E2FB2EF5
:10EF6000F092C6008091C00086FFFCCF8091C00067
:10EF700080648093C0000DE30093C6008091C000C0
:10EF800086FFFCCF8091C00080648093C00010E2B7
:10EF90001093C6008091C00086FFFCCF8091C00016
:10EFA00080648093C0008BBEF3012791C65DDE4F65
:10EFB0002883CA52D140A22EBB24CC24DD2408943D
:10EFC000611C711C811C911C8BBEF3018791282E42
:10EFD0003324442455240894611C711C811C911C09
:10EFE0008BBEF3013791C55DDE4F3883CB52D140E4
:10EFF0000894611C711C811C911C8BBEF30147910C
:10F00000C45DDE4F4883CC52D140ADEFEA2EAFEF66
:10F01000FA2EAFEF0A2FAFEF1A2F6E0C7F1C801E57
:10F02000911E142D032DF22CEE24EA0CFB1C0C1D5A
:10F030001D1D0F940DF220E22093C6008091C000A8
:10F0400086FFFCCF8091C00080648093C000C65DC5
:10F05000DE4F8881CA52D1400F940DF230E23093D6
:10F06000C6008091C00086FFFCCF8091C000806404
:10F070008093C000C45DDE4F8881CC52D1400F9494
:10F080000DF240E24093C6008091C00086FFFCCFA5
:10F090008091C00080648093C000C55DDE4F888190
:10F0A000CB52D1400F940DF250E25093C6008091A4
:10F0B000C00086FFFCCF8091C00080648093C000B8
:10F0C0008FEFE8168FEFF80680E0080780E018075A
:10F0D00031F484E092EE60E00F94C2F1DFC0D80119
:10F0E000C7018070907CA070B0708050904CA040A0
:10F0F000B040D1F52FEF3FE340E050E0E222F322B1
:10F1000004231523CA5DDE4FA880B980CA80DB8046
:10F11000C652D140AE0CBF1CC01ED11EAA0CBB1CD7
:10F12000CC1CDD1C8EE092EE60E00F94C2F1BB2798
:10F13000A12F902F8F2D0F940DF28E2D0F940DF285
:10F1400030E23093C6008091C00086FFFCCF8091F2
:10F15000C00080648093C0004EE34093C60080915D
:10F16000C00086FFFCCF87C08EE09EEFA0E0B0E03D
:10F17000E822F9220A231B239CE0E91694E9F90608
:10F1800090E0090790E0190709F088C0C45DDE4FE0
:10F19000A881CC52D140EA2EFF2400E010E0102FCD
:10F1A0000F2DFE2CEE24C55DDE4FB881CB52D14031
:10F1B000EB0EF11C011D111DD601C501817090706F
:10F1C000A070B070DC0199278827E80EF91E0A1F8D
:10F1D0001B1F20EF30E040E050E0A222B322C42207
:10F1E000D52241E1AA0CBB1CCC1CDD1C4A95D1F7F1
:10F1F000EA0CFB1C0C1D1D1D81E090E0A0E0B0E0BE
:10F20000282239224A225B2235E1220C331C441C7D
:10F21000551C3A95D1F7E20CF31C041D151D57013E
:10F220006801AA0CBB1CCC1CDD1C85E192EE60E0E1
:10F230000F94C2F1C801AA27BB270F940DF2BB2778
:10F24000A12F902F8F2D0F940DF28E2D0F940DF274
:10F2500090E29093C6008091C00086FFFCCF809121
:10F26000C00080648093C000AEE3A093C60080918C
:10F27000C00086FFFCCF8091C00080648093C000F6
:10F28000C601AA27BB270F940DF2BB27AD2D9C2DDD
:10F290008B2D0F940DF28A2D0F940DF20F94DCF14B
:10F2A000CC5DDE4FE881F981C452D140F99709F471
:10F2B0004DCBF4E0EF2EF12C012D112D6E0C7F1CA7
:10F2C000801E911EF2CD83E093EE62E00F94F5F183
:10F2D0008AE192EE60E00F94C2F18091C00087FF56
:10F2E000FCCF1091C6001F751093C6008091C0001E
:10F2F00086FFFCCF8091C00080648093C0000F9493
:10F30000DCF1812F81548A3108F036C1163409F4BA
:10F3100095C0173490F4133409F44EC0143430F40B
:10F320001134F1F0123409F01DC130C0143409F465
:10F3300059C0153409F016C16BC01A3409F4C4C0A1
:10F340001B3438F4173409F48FC0183409F00AC19B
:10F35000A1C01B3409F4D2C01C3409F003C1E8C0B9
:10F360008FEF81B90DC082B1809582B980E090E0C5
:10F37000E0EDF7E03197F1F70196883C9105C1F790
:10F380008091C00087FFEFCF12B8EFC08FEF84B934
:10F390000DC085B1809585B980E090E0E0EDF7E0A3
:10F3A0003197F1F70196883C9105C1F78091C00033
:10F3B00087FFEFCF15B8D9C08FEF87B90DC088B1DF
:10F3C000809588B980E090E0E0EDF7E03197F1F7C3
:10F3D0000196883C9105C1F78091C00087FFEFCF6F
:10F3E00018B8C3C08FEF8AB90DC08BB180958BB9A7
:10F3F00080E090E0E0EDF7E03197F1F70196883C8E
:10F400009105C1F78091C00087FFEFCF1BB8ADC059
:10F410008FEF8DB90DC08EB180958EB980E090E0F0
:10F42000E0EDF7E03197F1F70196883C9105C1F7DF
:10F430008091C00087FFEFCF1EB897C08FEF80BBD1
:10F440000DC081B3809581BB80E090E0E0EDF7E0F6
:10F450003197F1F70196883C9105C1F78091C00082
:10F4600087FFEFCF11BA81C08FEF83BB0DC084B38C
:10F47000809584BB80E090E0E0EDF7E03197F1F714
:10F480000196883C9105C1F78091C00087FFEFCFBE
:10F4900014BA6BC08FEF809301010FC080910201FD
:10F4A00080958093020180E090E0E0EDF7E03197F5
:10F4B000F1F70196883C9105C1F78091C00087FF64
:10F4C000EDCF1092020151C08FEF809304010FC065
:10F4D0008091050180958093050180E090E0E0ED4A
:10F4E000F7E03197F1F70196883C9105C1F78091DB
:10F4F000C00087FFEDCF1092050137C08FEF8093DA
:10F5000007010FC08091080180958093080180E079
:10F5100090E0E0EDF7E03197F1F70196883C910536
:10F52000C1F78091C00087FFEDCF109208011DC088
:10F530008FEF80930A010FC080910B01809580931B
:10F540000B0180E090E0E0EDF7E03197F1F70196F4
:10F55000883C9105C1F78091C00087FFEDCF1092E4
:10F560000B0103C085E292EEEEC98091C00087FFD7
:10F57000FCCF8091C600EAC988E392EEE4C98CE131
:10F5800091EEE1C988249924933011F1943028F444
:10F59000913089F09230B8F408C0953061F195301F
:10F5A000F0F0963009F048C043C02B3109F042C951
:10F5B00091E06BE13FC96227C15DDE4F2883CF52E6
:10F5C000D14092E037C9B22FA0E0622793E032C960
:10F5D000822F90E0A82BB92B622794E02BC92E3004
:10F5E00009F039C3622795E0C05DDE4F19821882A9
:10F5F000C053D1401FC9E1E0F0E0EC0FFD1FC05D3A
:10F60000DE4F08811981C053D140E00FF11F2083E4
:10F610000F5F1F4FC05DDE4F19830883C053D14079
:10F6200062270A171B0709F005C9D80196E002C92D
:10F63000261709F010C303C0973009F0FBC87724E0
:10F640009981933109F412C19431C8F4963009F4C8
:10F65000D8C0973050F4923009F406C1933009F4C1
:10F660006DC0913009F059C253C0913109F477C08F
:10F67000923108F0BBC0903109F04FC2F5C098310B
:10F6800009F487C0993150F4953109F4EFC09531F0
:10F6900008F4C6C1963109F040C2C2C19A3109F4DA
:10F6A0006CC09A3108F491C09B3109F45BC09D3164
:10F6B00009F033C29D81903359F48F81882311F46E
:10F6C0009EE11CC0813011F091E018C098E916C08D
:10F6D000892F807591F0903539F4E0E0F0E089E011
:10F6E0008093570094910AC0983539F4E3E0F0E034
:10F6F00089E080935700949101C090E01A821B82A8
:10F700008D818C831D829E831F8227E030E009C299
:10F710001A8288E08B8381E48C8386E58D8382E581
:10F720008E8389E48F8383E5888780E589878FE5E9
:10F730008A8782E38B872BE030E0F3C18A818139AD
:10F7400041F0823941F0803911F48FE005C080E04A
:10F7500003C082E001C08AE01A828B8344C0772410
:10F76000739482C08D81882311F48EE12CC0813086
:10F7700011F081E028C088E926C01A82E1E0F0E0BB
:10F7800089E08093570084918B831C8224E030E0D1
:10F79000C8C18B81803589F48C81883039F4E2E0EE
:10F7A000F0E089E08093570084910DC0E0E0F0E044
:10F7B00089E080935700849106C0E3E0F0E089E09F
:10F7C0008093570084911A82DFCF8D81836C99E0FA
:10F7D000E1E0F0E0082E90935700E89507B600FCB2
:10F7E000FDCF1A821B8223E030E09BC180EC8A832C
:10F7F000CE5CDE4F188219821A821B82C253D1401E
:10F800008EC18A8190E0A0E0B0E0582F44273327D2
:10F8100022278B8190E0A0E0B0E0DC0199278827C7
:10F82000282B392B4A2B5B2B8D8190E0A0E0B0E098
:10F83000282B392B4A2B5B2B8C8190E0A0E0B0E089
:10F84000BA2FA92F982F8827282B392B4A2B5B2BCF
:10F85000220F331F441F551FC05EDE4F288339839C
:10F860004A835B83C052D1401A8259C13A81C95C34
:10F87000DE4F3883C753D140CA5CDE4F1882C6536F
:10F88000D1408B81C82EDD24CA5CDE4F488159816E
:10F89000C653D140C42AD52A933109F082C0CE5C28
:10F8A000DE4F88819981AA81BB81C253D1408050AB
:10F8B000904CA340B04030F583E0CE5CDE4FE88052
:10F8C000F9800A811B81C253D140F70100935B008C
:10F8D00080935700E89507B600FCFDCFCE5CDE4F65
:10F8E000088119812A813B81C253D14000501F4FAA
:10F8F0002F4F3F4FCE5CDE4F088319832A833B8313
:10F90000C253D140C05EDE4F488159816A817B81FC
:10F91000C052D140DE011B9631E08C9111962C91A2
:10F9200011971296C75CDE4F2883C953D140C85C3B
:10F93000DE4F1882C853D14090E0C85CDE4FE881AA
:10F94000F981C853D1408E2B9F2B0C01FA01609393
:10F950005B0030935700E89511244E5F5F4F6F4F67
:10F960007F4F0EEFE02E0FEFF02ECE0CDF1CC114F8
:10F97000D10499F685E0C05EDE4F088119812A81A5
:10F980003B81C052D140F80120935B008093570027
:10F99000E89507B600FCFDCF81E180935700E8951C
:10F9A00035C0C05EDE4F88819981AA81BB81C0527B
:10F9B000D140B695A795979587957C018601ABE0D8
:10F9C000AA2EB12CAC0EBD1E0BC0D5016D915D01F0
:10F9D000C7010F947FFE0894E11CF11C01501040F8
:10F9E0000115110591F7A60160E070E0440F551F65
:10F9F000661F771FC05EDE4FE880F9800A811B8199
:10FA0000C052D1404E0D5F1D601F711F1A82C05E33
:10FA1000DE4F488359836A837B83C052D1407FC0C5
:10FA2000FA80C55CDE4FF882CB53D140C65CDE4F16
:10FA30001882CA53D1408B81C82EDD24C65CDE4FAC
:10FA400008811981CA53D140C02AD12A1A828981DA
:10FA5000BE016D5F7F4F843121F59601C05EDE4FA0
:10FA6000E880F9800A811B81C052D1400BBFF701A9
:10FA700087919691DB018C9311969C936E5F7F4FDB
:10FA8000D801C7010296A11DB11DC05EDE4F88835B
:10FA90009983AA83BB83C052D14022503040F1F6F3
:10FAA00036C0C05EDE4F288139814A815B81C052F9
:10FAB000D1400894C108D108760100E010E0089414
:10FAC000C11CD11C0894E11CF11C011D111DE20E8A
:10FAD000F31E041F151F21BDBB27A52F942F832FB5
:10FAE00082BD2F5F3F4F4F4F5F4FF89A80B5DB01CC
:10FAF0008D93BD012E153F054007510761F7C05E8C
:10FB0000DE4F288339834A835B83C052D1409601FC
:10FB10002D5F3F4FFB01108204C080EC8A8322E0FE
:10FB200030E08BE18093C6008091C00086FFFCCF5F
:10FB30008091C00080648093C000C15DDE4FF88179
:10FB4000CF52D140F093C6008091C00086FFFCCF19
:10FB50008091C00080648093C000432F3093C60022
:10FB60008091C00086FFFCCF8091C00080648093AC
:10FB7000C000922F2093C6008091C00086FFFCCF6A
:10FB80008091C00080648093C0008EE08093C600A6
:10FB90008091C00086FFFCCF8091C000806480937C
:10FBA000C00065E1C15DDE4FE880CF52D1406E25D7
