:100000000C94B2000C94DA000C94DA000C94DA0030
:100010000C94DA000C94DA000C94DA000C94DA00F8
:100020000C94DA000C94DA000C94DA000C94DA00E8
:100030000C94DA000C94DA000C94DA000C94DA00D8
:100040000C9462070C94DA000C9430070C940A07A5
:100050000C94DA000C94DA000C94DA000C94DA00B8
:100060000C94DA000C94DA0000407A10F35A00A0E5
:10007000724E18090010A5D4E80000E87648170071
:1000800000E40B54020000CA9A3B000000E1F505B1
:10009000000080969800000040420F000000A086FB
:1000A00001000000102700000000E803000000002D
:1000B0006400000000000A000000000001000000D1
:1000C00000002C76D888DC674F0823DFC1DFAE59EB
:1000D000E1B1B796E5E3E453C63AE651997696E87E
:1000E000E6C28426EB898C9B62ED407C6FFCEFBC02
:1000F0009C9F40F2BAA56FA5F490055A2AF75C932D
:100100006B6CF9676DC11BFCE0E40D47FEF520E662
:10011000B500D0ED902E0300943577050080841E45
:10012000080000204E0A000000C80C333333330FA0
:10013000986E12831141EF8D2114893BE65516CF3D
:10014000FEE6DB18D1844B381BF77C1D901DA4BB49
:10015000E424203284725E228100C9F124ECA1E5FE
:100160003D27AC0711241FBECFEFD8E0DEBFCDBFC7
:1001700021E0A2E2B1E001C01D92AC3FB207E1F77D
:1001800011E0A0E0B1E0E4E3FEE302C005900D92CF
:10019000A232B107D9F710E0C2EBD0E004C021973A
:1001A000FE010E94201DC13BD107C9F70E94070A2A
:1001B0000C94181F0C9400004F925F926F927F92E4
:1001C0008F929F92AF92BF92CF92DF92EF92FF9267
:1001D0000F931F93CF93DF93CDB7DEB76C970FB616
:1001E000F894DEBF0FBECDBF6D877E878F87988B5B
:1001F000298B3A8B4B8B5C8B2BA93CA94DA95EA913
:100200006BAD7CAD8DAD9EAD0E943C1C6D8B7E8B2D
:100210008F8B988F2D853E854F855889C801B701F2
:100220000E943C1C6D837E838F8398872FA538A9FD
:1002300049A95AA96FA978AD89AD9AAD0E943C1C15
:10024000698F7A8F8B8F9C8F29893A894B895C893A
:10025000C601B5010E943C1C69877A878B879C8701
:100260002D813E814F8158856D897E898F89988D3A
:100270000E94471B4B015C0129853A854B855C85B3
:10028000698D7A8D8B8D9C8D0E94471B9B01AC01E3
:10029000C501B4010E943C1C2B013C0120E030E070
:1002A000A9010E941E1B87FF04C077FA709477F89B
:1002B00070942FE632E143E85AE3C301B2010E9491
:1002C0001E1B87FDE0C02BA93CA94DA95EA9698929
:1002D0007A898B899C890E943C1C4B015C012FA56B
:1002E00038A949A95AA96D857E858F8598890E946C
:1002F0003C1C69837A838B839C83A5019401698D5F
:100300007A8D8B8D9C8D0E94471B6B017C0129810E
:100310003A814B815C816D897E898F89988D0E949D
:10032000471B9B01AC01C701B6010E943C1C6B013D
:100330007C0120E030E0A9010E941E1B87FF04C061
:10034000F7FAF094F7F8F094A50194016D817E819D
:100350008F8198850E94471B4B015C0129813A815E
:100360004B815C8169857A858B859C850E94471BC2
:100370009B01AC01C501B4010E943C1C4B015C0116
:1003800020E030E0A9010E941E1B87FF04C0B7FADD
:10039000B094B7F8B094A3019201C701B6010E94CE
:1003A000A91C6B017C0120E030E0A9010E941E1B0A
:1003B00087FD69C020E030E040E85FE3C701B60197
:1003C0000E941B1D18160CF45EC0A3019201C5010A
:1003D000B4010E94A91C4B015C0120E030E0A9019E
:1003E0000E941E1B87FD4FC020E030E040E85FE325
:1003F000C501B4010E941B1D18160CF444C0A701CE
:1004000096016D817E818F8198850E94471B2D8585
:100410003E854F8558890E943D1C2196EEADFFAD6B
:1004200021976083718382839383A70196016985F5
:100430007A858B859C850E94471B29893A894B893F
:100440005C890E943D1C2396EEADFFAD239760832F
:1004500071838283938381E06C960FB6F894DEBF3C
:100460000FBECDBFDF91CF911F910F91FF90EF9005
:10047000DF90CF90BF90AF909F908F907F906F90C4
:100480005F904F90089580E0E7CFAF92BF92CF92F8
:10049000DF92EF92FF920F931F93CF93DF936C0144
:1004A0007B018B01040F151FEB015E01AE18BF0825
:1004B000C017D10759F06991D601ED91FC910190D7
:1004C000F081E02DC6010995892B79F7C501DF91EF
:1004D000CF911F910F91FF90EF90DF90CF90BF9041
:1004E000AF900895CF93DF93FC01448155816081E3
:1004F00071818BE391E00E944502EC0142E050E003
:100500006CE171E08BE391E00E9445028C0F9D1F2E
:10051000DF91CF910895FC01538D448D252F30E05C
:10052000842F90E0821B930B541710F0CF96089500
:1005300001970895FC01918D828D981761F0A28D2D
:10054000AE0FBF2FB11D5D968C91928D9F5F9F73F3
:10055000928F90E008958FEF9FEF0895FC01918DA9
:10056000828D981731F0828DE80FF11D858D90E016
:1005700008958FEF9FEF0895FC01918D228D892FB3
:1005800090E0805C9F4F821B91098F73992708959B
:100590008BE391E00E94BC0221E0892B09F420E06A
:1005A000822F089580E090E0892B29F00E94C802F4
:1005B00081110C9400000895FC01A48DA80FB92F9F
:1005C000B11DA35ABF4F2C91848D90E001968F737B
:1005D0009927848FA689B7892C93A089B1898C919A
:1005E000837080648C93938D848D981306C00288E9
:1005F000F389E02D80818F7D80830895EF92FF92B3
:100600000F931F93CF93DF93EC0181E0888F9B8D35
:100610008C8D98131AC0E889F989808185FF15C0EF
:100620009FB7F894EE89FF896083E889F989808112
:100630008370806480839FBF81E090E0DF91CF91E1
:100640001F910F91FF90EF900895F62E0B8D10E003
:100650000F5F1F4F0F731127E02E8C8D8E110CC072
:100660000FB607FCFACFE889F989808185FFF5CFBD
:10067000CE010E94DC02F1CFEB8DEC0FFD2FF11DBE
:10068000E35AFF4FF0829FB7F8940B8FEA89FB89FA
:1006900080818062CFCFCF93DF93EC01888D882358
:1006A000B9F0AA89BB89E889F9898C9185FD03C0D5
:1006B000808186FD0DC00FB607FCF7CF8C9185FFBA
:1006C000F2CF808185FFEDCFCE010E94DC02E9CF21
:1006D000DF91CF9108953FB7F894809127019091D1
:1006E0002801A0912901B0912A0126B5A89B05C037
:1006F0002F3F19F00196A11DB11D3FBFBA2FA92FA1
:10070000982F8827BC01CD01620F711D811D911D9D
:1007100042E0660F771F881F991F4A95D1F7089509
:100720008F929F92AF92BF92CF92DF92EF92FF9201
:100730000F931F93CF93DF93EC018A819B818230CB
:10074000910509F453C03CF40197D9F1E12CF12C47
:1007500000E010E03CC08330910509F49EC004978E
:10076000A9F7888199818130910509F4EFC002973A
:1007700069F708851985C8010E9490036B017C0107
:100780000A84DB85C02D20E030E0A9010E941B1DFA
:10079000181654F0CE010E94900320E030E0A90129
:1007A0000E941B1D181694F6CE010E9490039B0117
:1007B000AC01C701B6010E941B1D18160CF0BDCF7D
:1007C000ECC0EC81FD81E088F18802891389B701D2
:1007D000C801DF91CF911F910F91FF90EF90DF90B3
:1007E000CF90BF90AF909F908F900895888199810E
:1007F0008130910539F1029709F0A8CFEC81FD8194
:10080000A088B188C288D388EE81FF81E088F18812
:100810000289138920E030E0A901B501C6010E94D8
:100820001B1D181654F020E030E0A901B701C801E3
:100830000E941B1D18160CF089CF9501A601B70167
:10084000C80124C0EC81FD81A088B188C288D3880A
:1008500020E030E0A901B501C6010E941B1D181659
:100860000CF074CFEE81FF81E088F1880289138952
:1008700020E030E0A901B701C8010E941B1D181635
:100880000CF064CF9701A801B501C6010E941E1BA0
:1008900087FF9DCF750186019ACF8881998181302C
:1008A000910551F1029709F051CFEC81FD81E0886B
:1008B000F188028913890884D985C02D20E030E0B1
:1008C000A901B701C8010E941B1D18165CF0CE01DA
:1008D0000E94900320E030E0A9010E941B1D181621
:1008E0000CF034CFCE010E9490039701A8010E9422
:1008F0001E1B87FF22CF6BCFEC81FD81E088F18842
:100900000289138920E030E0A901B701C8010E94E3
:100910001B1D18160CF01ACF0884D985C02DCE01E6
:100920000E9490034B015C0120E030E0A9010E948D
:100930001B1D18160CF00ACF9701A801C501B401C0
:100940000E941B1D18160CF0F8CE41CF08851985A2
:10095000C8010E9490036B017C0120E030E0A901F6
:100960000E941B1D18160CF0F1CE0A84DB85C02DE9
:10097000CE010E9490034B015C0120E030E0A90110
:100980000E941B1D18160CF0E1CEA5019401C701B1
:10099000B6010E941E1B87FFD0CEE801CECEFC011F
:1009A0006115710589F04115510571F081E090E004
:1009B0009183808382E090E0938382837583648354
:1009C0005783468381E0089580E00895FC011182F9
:1009D0001082138212821582148217821682118667
:1009E00010861386128608950F931F93CF93DF937B
:1009F000EC018B0184E090E00E94261D0097D1F06D
:100A0000FC011183008313821282E881F9813097FF
:100A100049F49983888381E0DF91CF911F910F91F1
:100A20000895F9012281338121153105D1F793838E
:100A30008283F1CF80E0F0CF0F931F93CF93DF93AA
:100A4000EC018B0184E090E00E94261D0097D1F01C
:100A5000FC011183008313821282EE81FF813097A3
:100A600049F49F838E8381E0DF91CF911F910F9195
:100A70000895F9012281338121153105D1F793833E
:100A80008283F1CF80E0F0CF8F929F92AF92BF929E
:100A9000CF92DF92EF92FF920F931F93CF93DF934A
:100AA000EC014A015B01680179018CE090E00E9451
:100AB000261DFC0180E0309799F01182108282821D
:100AC0009382A482B582C682D782E086F18613869D
:100AD0001286A881B981109789F4F983E88381E0AF
:100AE000DF91CF911F910F91FF90EF90DF90CF900A
:100AF000BF90AF909F908F900895DC011A968D91D2
:100B00009C911B970097C9F7B183A0831B96FC9318
:100B1000EE931A97E4CF0F931F93CF93DF93EC01DB
:100B20008B0184E090E00E94261D0097D1F0FC012B
:100B30001183008313821282EC81FD81309749F486
:100B40009D838C8381E0DF91CF911F910F91089558
:100B5000F9012281338121153105D1F793838283F5
:100B6000F1CF80E0F0CF0F931F93CF93DF93EC0191
:100B70008B0184E090E00E94261D0097D1F0FC01DB
:100B80001183008313821282E881F981309749F43E
:100B90009983888381E0DF91CF911F910F91089510
:100BA000F9012281338121153105D1F793838283A5
:100BB000F1CF80E0F0CFCF93DF93EC018881998172
:100BC000009711F00E94C21D198218821D821C829A
:100BD0001B821A82DF91CF910895FC01808191815F
:100BE000009711F00C94C21D0895CF93DF93EB0191
:100BF0006A857B856115710511F00E94F505CE01AE
:100C0000DF91CF910C94C21D0F931F93CF93DF936D
:100C1000EC0188819981009759F02A813B81261740
:100C2000370730F081E0DF91CF911F910F91089548
:100C30008B016F5F7F4F0E944B1E009759F0998385
:100C400088831B830A832C813D81232B59F7FC0168
:100C50001082E8CF80E0E7CF0F931F93CF93DF930D
:100C6000EC010C811D810F5F1F4FB8010E9404062B
:100C7000882391F0288139818C819D816FE171E019
:100C8000820F931F0E94111F1D830C83CE01DF91E1
:100C9000CF911F910F910895CE010E94DB05F6CFF1
:100CA000CF92DF92EF92FF920F931F93CF93DF9338
:100CB000CDB7DEB7A1970FB6F894DEBF0FBECDBF9C
:100CC0007C01CB01BA01F7011182108213821282DA
:100CD000158214828E010F5F1F4F22E044E00E94B4
:100CE000C9186C01009771F0FC0101900020E9F730
:100CF00031978F01081B190BB801C7010E94040628
:100D0000811112C0C7010E94DB05A1960FB6F894AD
:100D1000DEBF0FBECDBFDF91CF911F910F91FF902E
:100D2000EF90DF90CF900895F70115830483B6010B
:100D3000808191810E94111FE8CFEF92FF920F9363
:100D40001F93CF93DF93EC01FB01E080F180E1146E
:100D5000F10411F10481158101151105A9F08C81AF
:100D60009D81080F191FB801CE010E940406882337
:100D700099F0288139818C819D81B701820F931F61
:100D80000E94111F1D830C83CE01DF91CF911F9113
:100D90000F91FF90EF900895CE010E94DB05F4CFF4
:100DA000EF92FF920F931F93CF93DF93EC01198281
:100DB00018821B821A821D821C828617970719F1DE
:100DC000FB010081118101151105E9F0E480F58036
:100DD000B7010E940406811109C0CE01DF91CF91B5
:100DE0001F910F91FF90EF900C94DB05FD82EC8238
:100DF000B80188819981DF91CF911F910F91FF9068
:100E0000EF900C94111FDF91CF911F910F91FF90E4
:100E1000EF9008951F920F920FB60F9211242F9307
:100E20003F934F935F936F937F938F939F93AF9372
:100E3000BF93EF93FF938BE391E00E94DC02FF915D
:100E4000EF91BF91AF919F918F917F916F915F9142
:100E50004F913F912F910F900FBE0F901F901895BB
:100E60001F920F920FB60F9211242F938F939F937F
:100E7000EF93FF93E0914B01F0914C018081E09161
:100E80005101F091520182FD1BC09081809154016B
:100E90008F5F8F7320915501821741F0E0915401CB
:100EA000F0E0E55CFE4F958F80935401FF91EF9148
:100EB0009F918F912F910F900FBE0F901F901895BB
:100EC0008081F4CF1F920F920FB60F9211242F93AF
:100ED0003F938F939F93AF93BF9380912301909102
:100EE0002401A0912501B09126013091220123E037
:100EF000230F2D3758F50196A11DB11D2093220116
:100F00008093230190932401A0932501B09326019F
:100F10008091270190912801A0912901B0912A0187
:100F20000196A11DB11D8093270190932801A093E4
:100F30002901B0932A01BF91AF919F918F913F9169
:100F40002F910F900FBE0F901F90189526E8230F3A
:100F50000296A11DB11DD2CF8F929F92AF92BF92E8
:100F6000CF92DF92EF92FF92EBE3F1E013821282D5
:100F700088EE93E0A0E0B0E084839583A683B783F6
:100F80008EE091E09183808385EC90E09587848763
:100F900084EC90E09787868780EC90E0918B808B43
:100FA00081EC90E0938B828B82EC90E0958B848B2C
:100FB00086EC90E0978B868B118E128E138E148E9A
:100FC00086E090E00E94261DFC01118210821382AF
:100FD0001282158214829093F7018093F60184E1C6
:100FE00090E00E94261DFC0180E090E0A0EAB1ECB8
:100FF00080839183A283B38384839583A683B783FD
:101000008DEC882E8CEC982E8CE4A82E8EEBB82ECE
:1010100080869186A286B3869DECC92E9CECD92E43
:10102000ED2C9DEBF92EC486D586E686F786108AD0
:10103000118A128A138AF093F501E093F40184E196
:1010400090E00E94261DFC0180829182A282B382E0
:10105000C482D582E682F782C086D186E286F38694
:101060001486158616861786108A118A128A138AA4
:101070009093F3018093F20184E190E00E94261D99
:10108000FC01C082D182E282F38214821582168230
:10109000178210861186128613862DECC22E2CEC38
:1010A000D22EED2C2DE3F22EC486D586E686F78669
:1010B000108A118A128A138A9093F1018093F001A9
:1010C00084E190E00E94261DFC01108211821282B0
:1010D0001382C482D582E682F782C086D186E286F8
:1010E000F3863DEC832E3CEC932E3CE4A32E3EE3B2
:1010F000B32E84869586A686B786108A118A128AB0
:10110000138A9093EF018093EE0184E190E00E94B6
:10111000261DFC01C082D182E282F3828482958204
:10112000A682B78280E090E0A0EAB1E48087918750
:10113000A287B38784879587A687B787108A118A85
:10114000128A138AF093ED01E093EC0184E190E0C0
:101150000E94261DFC0180E090E0A0E2B2EC8083BA
:101160009183A283B38384839583A683B783812CE1
:10117000912CA12C40ECB42E80869186A286B38659
:10118000C12CD12C50E8E52E5FEBF52EC486D58618
:10119000E686F786108A118A128A138AF093EB0189
:1011A000E093EA0184E190E00E94261DFC01808228
:1011B0009182A282B382C482D582E682F782C086FF
:1011C000D186E286F3861486158616861786108ADF
:1011D000118A128A138A9093E9018093E80184E1CD
:1011E00090E00E94261DFC01C082D182E282F3823F
:1011F0001482158216821782108611861286138633
:10120000C12CD12C60E8E62E6FE3F62EC486D5867D
:10121000E686F786108A118A128A138A9093E7016C
:101220008093E60184E190E00E94261DFC0110827B
:10123000118212821382C482D582E682F782C0862E
:10124000D186E286F386812C912CA12C70E4B72EF6
:1012500084869586A686B786108A118A128A138A92
:101260009093E5018093E40184E190E00E94261DC3
:10127000FC01C082D182E282F38284829582A682BE
:10128000B78280E090E0A0E2B2E480879187A287F5
:10129000B38784879587A687B787108A118A128AB1
:1012A000138AF093E301E093E20184E190E00E946D
:1012B000261DFC0110821182128213821482158273
:1012C000168217821086118612861386812C912C25
:1012D000A8ECAA2EA1E4BA2E84869586A686B786A7
:1012E000108A118A128A138A9093E1018093E00197
:1012F00084E190E00E94261DFC011082118212827E
:10130000138284829582A682B78280869186A28685
:10131000B386C12CD12CB8E4EB2EB2E4FB2EC486EC
:10132000D586E686F786108A118A128A138A9093E8
:10133000DF018093DE0184E190E00E94261DFC0124
:1013400080829182A282B382C482D582E682F782B1
:10135000C086D186E286F386812C912C86E9A82E60
:1013600082E4B82E84869586A686B786108A118A6E
:10137000128A138AF093DD01E093DC0184E190E0AE
:101380000E94261DFC01C082D182E282F382848207
:101390009582A682B78280869186A286B386C12C6A
:1013A000D12C98ECE92E92E4F92EC486D586E686F7
:1013B000F786108A118A128A138AF093DB01E09370
:1013C000DA0184E190E00E94261DFC018082918276
:1013D000A282B382C482D582E682F782C086D18699
:1013E000E286F386C486D586E686F786108A118A59
:1013F000128A138A9093D9018093D801FF90EF90BD
:10140000DF90CF90BF90AF909F908F900895CF9333
:10141000DF93CDB7DEB7C655D1090FB6F894DEBF5E
:101420000FBECDBF789484B5826084BD84B58160E1
:1014300084BD85B5826085BD85B5816085BD80919F
:101440006E00816080936E00109281008091810017
:10145000826080938100809181008160809381000F
:10146000809180008160809380008091B1008460D1
:101470008093B1008091B00081608093B000809132
:101480007A00846080937A0080917A0082608093F1
:101490007A0080917A00816080937A0080917A004E
:1014A000806880937A001092C100E0914B01F09126
:1014B0004C0182E08083E0914701F0914801108265
:1014C000E0914901F0914A018FEC80831092530121
:1014D000E0914F01F091500186E08083E0914D0151
:1014E000F0914E01808180618083E0914D01F09107
:1014F0004E01808188608083E0914D01F0914E0122
:10150000808180688083E0914D01F0914E0180815F
:101510008F7D808388E090E00E94261D8C01EE2460
:10152000E394F12CDC01ED92FC92FC011282138217
:1015300014821582178216822091F4013091F501F0
:101540003EA32DA3B9010E941C058091F201909148
:10155000F3019AA789A7BC01C8010E941C05A091AC
:10156000F001B091F101B8AFAFABBD01C8010E946D
:101570001C05E091EE01F091EF01FEA7EDA7BF0180
:10158000C8010E941C052091EC013091ED013AAB9D
:1015900029ABB901C8010E941C054090F60150908A
:1015A000F701B801C2010E94B30588E090E00E94F3
:1015B000261D8C0182E090E0D8018D939C93F80168
:1015C0001282138214821582178216822091EA01F8
:1015D0003091EB013EAB2DABB901C8010E941C0557
:1015E0008091E8019091E9019AAF89AFBC01C801EF
:1015F0000E941C05A091E601B091E701BEAFADAF1E
:10160000BD01C8010E941C05E091E401F091E501D3
:101610002396FFAFEEAF2397BF01C8010E941C05C0
:101620002091E2013091E30127963FAF2EAF27973B
:10163000B901C8010E941C05B801C2010E94B3058E
:101640008AE090E00E94261D8C01DC01ED92FC9264
:10165000FC0112821382148215821782168282E0A4
:1016600090E00E94261DDC011D921C92F8019187DA
:1016700080872090E0013090E101B101C8010E9413
:101680001C05A090DE01B090DF01B501C8010E94E9
:101690001C052091DC013091DD012B963FAF2EAF70
:1016A0002B97B901C8010E941C058091DA01909125
:1016B000DB012F969FAF8EAF2F97BC01C8010E9410
:1016C0001C05A091D801B091D9016596BFAFAEAF0E
:1016D0006597BD01C8010E941C0584E090E00E944E
:1016E000261D3C01009709F459C0FC0111830083B9
:1016F00013821282D8011696BC916696BFAF669788
:10170000F801F7816796FFAF6797EB2EFF2EE11484
:10171000F104C1F166960FAD669767961FAD6797A6
:101720000115110551F1D8011296CD90DC90139757
:10173000C114D10411F1ED91FC916196FFAFEEAFB0
:101740006197D6018D909C90208131814281538197
:10175000F40160817181828193810E941E1B87FF49
:101760000AC0D8018D929C9261962EAD3FAD6197D3
:10177000F601318320838601D3CFD7011296ED90F5
:10178000FC90C5CFD2011296ED91FC911397309742
:1017900009F0C1C413967C926E92129782E090E099
:1017A0000E94261D8C01FC011182108282E090E0D3
:1017B0000E94261D4C01DC011D921C9282E090E0EB
:1017C0000E94261D3C01FC011182108282E090E003
:1017D0000E94261D7C01DC011D921C9282E090E09B
:1017E0000E94261D61969FAF8EAF6197FC0111820A
:1017F00010828CE090E00E94261D6C010E94E6049D
:101800004DA95EA96DA17EA1C6010E94CF04659677
:101810006EAD7FAD659761968EAD9FAD61970E946D
:10182000F40487E090E00E94261DFC0181E090E036
:10183000918380831282D482C38261962EAD3FADA4
:10184000619736832583BF01C2010E948B058CE01E
:1018500090E00E94261D6C010E94E6044DA95EA93D
:1018600069A57AA5C6010E94CF042F966EAD7FAD03
:101870002F97C7010E94F40487E090E00E94261D84
:10188000FC0182E090E0918380831282D482C38243
:10189000F682E582BF01C2010E948B058CE090E0D8
:1018A0000E94261D6C010E94E6044DA95EA96FA945
:1018B00078ADC6010E94CF042B966EAD7FAD2B97FD
:1018C000C3010E94F40487E090E00E94261DFC0101
:1018D00083E090E0918380831282D482C3827682F7
:1018E0006582BF01C2010E948B058CE090E00E94DE
:1018F000261D6C010E94E6044DA95EA96DA57EA57A
:10190000C6010E94CF042B966EAD7FAD2B97C3010D
:101910000E94F40487E090E00E94261DFC0184E010
:1019200090E0918380831282D482C3827682658222
:10193000BF01C2010E948B058CE090E00E94261D31
:101940006C010E94E6044DA95EA969A97AA9C601A5
:101950000E94CF04B501C4010E94F40487E090E026
:101960000E94261DFC0185E090E091838083128215
:10197000D482C38296828582BF01C2010E948B05F8
:101980008CE090E00E94261D6C010E94E60449ADA7
:101990005AAD6DA17EA1C6010E94CF042F966EADF7
:1019A0007FAD2F97C7010E94F40487E090E00E946A
:1019B000261DFC0186E090E0918380831282D48210
:1019C000C382F682E582BF01C2010E948B058CE0D2
:1019D00090E00E94261D6C010E94E60449AD5AADBC
:1019E00069A57AA5C6010E94CF042F966EAD7FAD82
:1019F0002F97C7010E94F40487E090E00E94261D03
:101A0000FC0187E090E0918380831282D482C382BC
:101A1000F682E582BF01C2010E948B058CE090E056
:101A20000E94261D7C010E94E60449AD5AAD6FA9B3
:101A300078ADC7010E94CF04B501C4010E94F4042F
:101A400087E090E00E94261DFC0188E090E09183F1
:101A500080831282F482E38296828582BF01C20172
:101A60000E948B058CE090E00E94261D7C010E9464
:101A7000E60449AD5AAD6DA57EA5C7010E94CF040D
:101A8000B501C4010E94F40487E090E00E94261D85
:101A9000FC0189E090E0918380831282F482E382EA
:101AA00096828582BF01C2010E948B058CE090E086
:101AB0000E94261D7C010E94E60449AD5AAD69A929
:101AC0007AA9C7010E94CF04B101C8010E94F404A1
:101AD00087E090E00E94261DFC018AE090E091835F
:101AE00080831282F482E38216830583BF01C201E0
:101AF0000E948B058CE090E00E94261D7C010E94D4
:101B0000E6044DAD5EAD6DA17EA1C7010E94CF047C
:101B10002B966EAD7FAD2B97C3010E94F40487E036
:101B200090E00E94261DFC018BE090E09183808371
:101B30001282F482E38276826582BF01C2010E9432
:101B40008B058CE090E00E94261D7C010E94E6043B
:101B50004DAD5EAD69A57AA5C7010E94CF04B50160
:101B6000C4010E94F40487E090E00E94261DFC015D
:101B70008CE090E0918380831282F482E3829682EB
:101B80008582BF01C2010E948B058CE090E00E941B
:101B9000261D7C010E94E6044DAD5EAD6FA978ADB7
:101BA000C7010E94CF04B101C8010E94F40487E07C
:101BB00090E00E94261DFC018DE090E091838083DF
:101BC0001282F482E38216830583BF01C2010E9460
:101BD0008B058CE090E00E94261D7C010E94E604AB
:101BE0004DAD5EAD6DA57EA5C7010E94CF04B101CC
:101BF000C8010E94F40487E090E00E94261DFC01C9
:101C00008EE090E0918380831282F482E3821683D7
:101C10000583BF01C2010E948B058CE090E00E9409
:101C2000261D7C010E94E6044DAD5EAD69A97AA92E
:101C3000C7010E94CF04B101C8010E94F40487E0EB
:101C400090E00E94261DFC018FE090E0918380834C
:101C50001282F482E38216830583BF01C2010E94CF
:101C60008B058CE090E00E94261D7C010E94E6041A
:101C700023964EAD5FAD23976DA17EA1C7010E9453
:101C8000CF042B966EAD7FAD2B97C3010E94F40459
:101C900087E090E00E94261DFC0180E190E09183A6
:101CA00080831282F482E38276826582BF01C20160
:101CB0000E948B058CE090E00E94261D7C010E9412
:101CC000E60423964EAD5FAD239769A57AA5C701BB
:101CD0000E94CF04B501C4010E94F40487E090E0A3
:101CE0000E94261DFC0181E190E091838083128295
:101CF000F482E38296828582BF01C2010E948B0535
:101D00008CE090E00E94261D7C010E94E604239650
:101D10004EAD5FAD23976FA978ADC7010E94CF0488
:101D2000B101C8010E94F40487E090E00E94261DE2
:101D3000FC0182E190E0918380831282F482E3824D
:101D400016830583BF01C2010E948B058CE090E0E1
:101D50000E94261D7C010E94E60423964EAD5FADD5
:101D600023976DA57EA5C7010E94CF04B101C801CC
:101D70000E94F40487E090E00E94261DFC0183E1AC
:101D800090E0918380831282F482E382168305833C
:101D9000BF01C2010E948B058CE090E00E94261DCD
:101DA0007C010E94E60423964EAD5FAD239769A99E
:101DB0007AA9C7010E94CF04B101C8010E94F404AE
:101DC00087E090E00E94261DFC0184E190E0918371
:101DD00080831282F482E38216830583BF01C201ED
:101DE0000E948B058CE090E00E94261D7C010E94E1
:101DF000E60427964EAD5FAD27976DA17EA1C70182
:101E00000E94CF042B966EAD7FAD2B97C3010E942D
:101E1000F40487E090E00E94261DFC0185E190E03B
:101E2000918380831282F482E38276826582BF018D
:101E3000C2010E948B058CE090E00E94261D7C016F
:101E40000E94E60427964EAD5FAD279769A57AA557
:101E5000C7010E94CF04B501C4010E94F40487E0C9
:101E600090E00E94261DFC0186E190E09183808332
:101E70001282F482E38296828582BF01C2010E94AF
:101E80008B058CE090E00E94261D7C010E94E604F8
:101E900027964EAD5FAD27976FA978ADC7010E9419
:101EA000CF04B501C8010E94F40487E090E00E94CD
:101EB000261DFC0187E190E0918380831282F482E9
:101EC000E38216830583BF01C2010E948B058CE06B
:101ED00090E00E94261D7C010E94E60427964EADEC
:101EE0005FAD27976DA57EA5C7010E94CF04B10104
:101EF000C8010E94F40487E090E00E94261DFC01C6
:101F000088E190E0918380831282F482E3821683D9
:101F10000583BF01C2010E948B058CE090E00E9406
:101F2000261D7C010E94E60427964EAD5FAD2797E3
:101F300069A97AA9C7010E94CF04B101C8010E9412
:101F4000F40487E090E00E94261DFC0189E190E006
:101F5000918380831282F482E38216830583BF011A
:101F6000C2010E948B05CE010D9698A38F8FDE01D2
:101F70005396BAA3A9A3FE013796FCA3EBA3C09086
:101F80000001D0900101E0900201F090030120E0F7
:101F900030E0A901C701B6010E941E1B8111C2C019
:101FA00010923701109238011092390110923A01C3
:101FB00010923301109234011092350110923601C3
:101FC000109200011092010110920201109203017F
:101FD00010922F01109230011092310110923201B3
:101FE00010922B0110922C0110922D0110922E01B3
:101FF00040E050E0BA01CE0101960E9450064091A7
:102000002F01509130016091310170913201CE0168
:1020100007960E9450064091370150913801609117
:10202000390170913A01CE010D960E9450064091FF
:102030003301509134016091350170913601CE0128
:1020400049960E945006BE01675E7F4FCE014396BF
:102050000E94D006CE0143960E942C06BE01635F0B
:102060007F4F0E949D060E942C06BE01695F7F4F34
:102070000E949D060E942C06BE016F5F7F4F0E944A
:102080009D060E942C060E947202CE0143960E9479
:10209000ED05CE0149960E94ED05CE010D960E94F8
:1020A000ED05CE0107960E94ED05CE0101960E9436
:1020B000ED050E946B034B015C0188ECC82ED12C0E
:1020C000E12CF12C0E946B03681979098A099B099C
:1020D000683E734081059105A8F3E1E0CE1AD1086E
:1020E000E108F108F8EE8F0EF3E09F1EA11CB11C71
:1020F000C114D104E104F10429F780E090E0892BB8
:1021000009F43DCF0E94C802882309F434CF0E940D
:10211000000031CFFC01828193810097D9F773824F
:1021200062823CCBA701960160913301709134012A
:1021300080913501909136010E943C1C60932F01E3
:102140007093300180933101909332012091F60118
:102150003091F7013AAB29ABD9012D903C90F101B8
:10216000309771F0A081B1812D913C911197213070
:102170003105C1F512966D937D938D939C931597C0
:10218000F1013097A9F0A081B1818D919C911197B7
:10219000029761F540912B0150912C0160912D0126
:1021A00070912E0112964D935D936D937C931597CC
:1021B00091012115310519F1F901A081B18116961E
:1021C0000D90BC91A02D1097A9F08D919C91119725
:1021D000FC01108A118A128A138A12960D90BC9102
:1021E000A02DF1CF0280F381E02DBACF0280F381E0
:1021F000E02DC7CFD90112962D913C91DACFE9A9F4
:10220000FAA90280F381E02DF8AFEFAB9F01211511
:10221000310509F4DEC0F901A081B18116960D9057
:10222000BC91A02D109769F08D919C911197FC01A4
:10223000108A118A128A138A12960D90BC91A02DD1
:10224000F1CFD90112962D913C91E1CFC701B60192
:102250000E941B1D87FD39C0A7019601C301B20171
:102260000E941B1D18168CF52DA13EA14FA158A54B
:10227000C301B2010E943C1C9B01AC0160E070E014
:1022800080E89FE30E94A91C4B015C01A30192011D
:10229000C701B6010E943C1C9B01AC01C501B40101
:1022A0000E94471B20E030E040E85FE30E943D1CB5
:1022B000F801608B718B828B938BE9A5FAA5028064
:1022C000F381E02DFAA7E9A792C0D80118968D9066
:1022D0009D90AD90BC901B97A7019601C301B201E0
:1022E0000E941E1B181694F0A7019601C501B401A7
:1022F0000E941B1D87FD0AC080E090E0A0E8BFE3BC
:10230000F801808B918BA28BB38BD7CFD8011C9611
:102310008D919D910D90BC91A02D8DA79EA7AFA7EB
:10232000B8ABA7019601C501B4010E941E1B87FF2F
:1023300027C02DA53EA54FA558A9C701B6010E94EB
:102340001E1B1816ECF02DA53EA54FA558A9C501DA
:10235000B4010E943C1C9B01AC0160E070E080E88D
:102360009FE30E94A91C2B013C01A5019401C70118
:10237000B6010E943C1C9B01AC01C301B20190CF8D
:102380002DA53EA54FA558A9C701B6010E941B1D4A
:1023900018160CF092CF2DA53EA54FA558A9C50142
:1023A000B4010E941E1B81116AC0A3019201C501E4
:1023B000B4010E941E1B882309F461C02DA13EA117
:1023C0004FA158A5C301B20156C0D10112962D905C
:1023D0003C902114310409F45AC0F1010190F081BC
:1023E000E02DFEABEDAB268137813AA729A789A561
:1023F0009AA5009751F3DC010D911C91EDA9FEA95E
:10240000C280D380E480F580D8018D919D910D909C
:10241000BC91A02D8DA39EA3AFA3B8A7F8014480C3
:102420005580668077809C01AD01C701B6010E948E
:102430001E1B2DA13EA14FA158A587FF07CFC301A9
:10244000B2010E941E1B81111AC0D8011896CD90AE
:10245000DD90ED90FC901B97A7019601C301B2019E
:102460000E941E1B882359F0F80124853585468576
:102470005785C701B6010E941E1B81113DCFD801AF
:1024800050961D921D921D921C92539716CFE9A94A
:10249000FAA904811581772473940115110509F4B3
:1024A000A1C3D801ED90FC90F7018381948100973E
:1024B000B1F1C580D680C114D10489F10E94900386
:1024C0004B015C0120E030E0A9010E941B1D1816A1
:1024D0001CF5D70112967C92D601ED90FC90E11488
:1024E000F104E9F0F701C080D180D60150962D911A
:1024F0003D914D915C915397C501B4010E941B1D04
:1025000018162CF4F601808A918AA28AB38AD70120
:102510001296ED90FC90E3CFF7011282DDCFF80127
:1025200002811381BACF2B8A3C8A4D8A5E8A96013A
:10253000A701C901DA018D879E87AF87B88BF8A103
:10254000FF938F8D8F939AA19F93A9A1AF935F93D0
:102550004F933F932F931F93AF92BF92BDA9BF9309
:102560005F934F933F932F93E9A9EF93FDA5FF93BB
:1025700029A52F933DA13F93A12CB12C30E8C32E68
:102580003FE3D32E8201710120E030E0A901BDA11B
:10259000A9A5FDA5E9A96B2F7A2F8F2F9E2F0E9449
:1025A000DC000D851E852F8538894B895C896D89F6
:1025B0007E89D40118968D919C910E944405D30187
:1025C000ED91FC9160857185828593856F83788715
:1025D00089879A870089118932892389A801A32FC5
:1025E000B22F9D0109831A832B833C83E484F584F5
:1025F0000685178521E030E02C0F3D1F3F932F9378
:102600003CA13F932BA12F93BF93AF935F934F9325
:102610001F930F93FF92EF92BF93AF935F934F93EC
:1026200023812F9322812F9321812F9320812F9318
:10263000A12CB12C650120E030E040E85FE30E946E
:10264000DC000FB6F894DEBF0FBECDBF09811A8142
:102650002B813C814F81588569857A85D4011896F4
:102660008D919C910E944405D301ED91FC91C4840D
:10267000D584E684F7842085318542855385C7015A
:10268000B6010E941E1B882351F000E010E0980163
:10269000B701A601F401808591850E944405D3010C
:1026A00012966D907C90BAC220E030E040E85FE383
:1026B0006C2D7D2D8E2D9F2D0E941E1B81111AC009
:1026C00000E010E020E83FE3B201A101F4018085C1
:1026D00091850E944405D301ED91FC9100891189F7
:1026E000228933894085518562857385F40180850F
:1026F0009185B8CF2B8A3C8A4D8A5E8A9601A701C4
:10270000C901DA018D879E87AF87B88BD8017C918C
:1027100011966C91119712969C91129713968C9129
:10272000B8A1BF93EF8DEF93FAA1FF93A9A1AF9347
:102730005F934F933F932F93D8011F96EC911F9770
:10274000EF931E96EC911E97EF931D96EC911D97BB
:10275000EF931C96EC91EF935F934F933F932F93DE
:102760008F939F936F937F93A12CB12C20E8C22E5F
:102770002FE3D22E8201710120E030E0A901DB01BC
:10278000FC016B2F7A2F8F2F9E2F0E94DC000D856E
:102790001E852F8538894B895C896D897E89F40176
:1027A000808591850ACF0C2D1D2D2E2D3F2DC4C265
:1027B000F4010084F185E02D2F96FFAFEEAF2F9747
:1027C000208031802114310409F404C28101D80130
:1027D000ED90FC901197E114F10409F4F5C1129603
:1027E0008D919D910D90BC91A02D89AB9AABABAB17
:1027F000BCABF7012281338144815581BC01CD01FD
:102800000E941E1B87FFE4C11EA30DA3ADA1BEA1A4
:102810000D90BC91A02DBEA3ADA3109709F4D4C117
:10282000ED91FC91FEA7EDA7309781F3D8011A96A0
:102830000D90BC91A02DBEABADABD80116968D917D
:102840009D910D90BC91A02D89AF9AAFABAFBCAF5D
:10285000ADA1BEA112968D919D910D90BC91A02D20
:1028600021968CAF9DAFAEAFBFAF2197ADA1BEA1FA
:1028700016968D919D910D90BC91A02D25968CAFB3
:102880009DAFAEAFBFAF25979C01AD01668177814B
:10289000808591850E943C1C63966CAF7DAF8EAFA6
:1028A0009FAF639729A93AA94BA95CA9EDA9FEA9F5
:1028B00062817381848195810E943C1C29966CAF52
:1028C0007DAF8EAF9FAF299721962CAD3DAD4EAD1C
:1028D0005FAD2197ADA5BEA512966D917D918D91AD
:1028E0009C9115970E943C1C2B013C0129AD3AADEF
:1028F0004BAD5CADEDA9FEA96681778180859185A0
:102900000E943C1C2D966CAF7DAF8EAF9FAF2D9774
:1029100029962CAD3DAD4EAD5FAD299763966CAD5C
:102920007DAD8EAD9FAD63970E94471B6B017C010F
:102930002D962CAD3DAD4EAD5FAD2D97C301B201CF
:102940000E94471B9B01AC01C701B6010E943C1CC1
:1029500069A77AA78BA79CA720E030E0A9010E9475
:102960001E1B87FF09C089A59AA5ABA5BCA5B058B9
:1029700089A79AA7ABA7BCA72FE632E143E85AE3A1
:1029800069A57AA58BA59CA50E941E1B87FD3ECF3D
:1029900025962CAD3DAD4EAD5FAD259769AD7AADB9
:1029A0008BAD9CAD0E943C1C4B015C0121962CAD73
:1029B0003DAD4EAD5FAD219769A97AA98BA99CA9C0
:1029C0000E943C1C6B017C01A5019401C301B20172
:1029D0000E94471B2B013C01A701960163966CAD39
:1029E0007DAD8EAD9FAD63970E94471B9B01AC01EF
:1029F000C301B2010E943C1C2B013C0120E030E0ED
:102A0000A9010E941E1B87FF04C077FA709477F813
:102A10007094A501940129966CAD7DAD8EAD9FADEE
:102A200029970E94471B4B015C01A70196012D9637
:102A30006CAD7DAD8EAD9FAD2D970E94471B9B0168
:102A4000AC01C501B4010E943C1C6B017C0120E07B
:102A500030E0A9010E941E1B87FF04C0F7FAF09422
:102A6000F7F8F09429A53AA54BA55CA5C301B201DE
:102A70000E94A91C4B015C0120E030E0A9010E94EA
:102A80001E1B87FDC3CE20E030E040E85FE3C501B8
:102A9000B4010E941B1D18160CF4B8CE29A53AA546
:102AA0004BA55CA5C701B6010E94A91C6B017C0166
:102AB00020E030E0A9010E941E1B87FDA7CE20E088
:102AC00030E040E85FE3C701B6010E941B1D181605
:102AD0000CF49CCE8CE090E00E94261D7C010097B7
:102AE00009F494CEEDA5FEA5DC01ED93FC93A501C0
:102AF000940129966CAD7DAD8EAD9FAD29970E9456
:102B0000471B29A93AA94BA95CA90E943D1CD701E2
:102B100012966D937D938D939C931597A5019401C7
:102B20002D966CAD7DAD8EAD9FAD2D970E94471B50
:102B300029AD3AAD4BAD5CAD0E943D1CF7016683FB
:102B40007783808791872DA93EA933872287ADA5FA
:102B5000BEA51B96FC92EE921A97F901F182E082D3
:102B6000D80112968D909D90AD90BC9015971696B9
:102B70004D905D906D907C901997EC901196FC9023
:102B8000C8010E94C21DA501940121966CAD7DADC6
:102B90008EAD9FAD21970E941E1B81110CC0A30119
:102BA000920125966CAD7DAD8EAD9FAD25970E94AF
:102BB0001E1B882319F08701EF2891F62F96AEADE2
:102BC000BFAD2F972D903C90F10122843384FACD34
:102BD0008701FDCDAFA9B8AD12960D90BC91A02D87
:102BE000B8AFAFAB2FA938AD2115310509F4A7C097
:102BF000D9018D909C90F40100851185D8016D91CB
:102C00007C916115710519F0C8010E94F505F80164
:102C100011821082D40116966D907C90611471041B
:102C200009F4C6CDF3010081118120E030E0A90153
:102C3000D80150966D917D918D919C9153970E94F2
:102C40001B1D18160CF02BCDF801C080D180E2803E
:102C5000F380A701960164817581868197810E9426
:102C60001E1B882359F000E010E09801B701A6016F
:102C7000D40118968D919C910E944405F301008126
:102C80001181D80114962D903D904D905C9017972E
:102C90005096CC9050975196DC9051975296EC906C
:102CA00052975396FC905397A201910118966D91FB
:102CB0007D918D919C911B970E941E1B8111F4CCDC
:102CC000F801F081FDA3D8011196BC91B9A7F801D4
:102CD000F281FDA7D8011396BC91B9ABF801F48538
:102CE000FDABD8011D96BC901D971E96AC901E970B
:102CF0001F961C917DA169A59DA589A9272F362F17
:102D0000492F582FBF2F6B2F7B2D8A2D912F0E947B
:102D10001E1B882309F447CD20E030E040E85FE344
:102D20006C2D7D2D8E2D9F2D0E941E1B8111FBCBA6
:102D300000E010E020E83FE3B201A101D7CCE09130
:102D4000F601F091F7010280F381E02D309709F44C
:102D50001CC2A081B1818D919C911197019799F727
:102D60001896ED91FC910190F081E02D19AE1AAE0C
:102D70001BAE1CAE21961CAE1DAE1EAE1FAE219723
:102D8000309709F440C1028513850115110509F436
:102D90003AC1C280D380E480F580D80112968D902C
:102DA0009D90AD90BC901597B681BDA3278129A7B2
:102DB00020843184A5019401C701B6010E941E1B25
:102DC000882309F414C1D8011696BC91BFABF80151
:102DD000F781FDA7D8011896BC91B9ABF801F18530
:102DE000FDAB20E030E0A9016DA179A5C1010E94F1
:102DF0001E1B882359F020E030E0A9016FA97DA5B2
:102E000089A99DA90E941E1B811168C020E030E0A5
:102E1000A9016DA179A5C1010E941B1D18160CF016
:102E20004CC02DA122962FAF229739A526963FAFF1
:102E300026972A962FAE2A972E963FAE2E97A70159
:102E40009601C501B4010E943C1C2B013C01229655
:102E50002FAD229726963FAD26972A964FAD2A97FB
:102E60002E965FAD2E970E94471B20E030E040E099
:102E70005FE30E94471B4B015C012FA93DA549A9B7
:102E80005DA96DA179A5C1010E941E1B20E030E063
:102E900040EC5FE387FD04C020E030E040E450E414
:102EA000C301B2010E94A91C9B01AC01C701B6017C
:102EB0000E943D1C6B017C0152C08FA922968FAFEE
:102EC00022979DA526969FAF2697A9A92A96AFAFD0
:102ED0002A97BDA92E96BFAF2E97B1CF20E030E044
:102EE000A9016DA179A5C1010E941B1D18160CF046
:102EF00082C020E030E0A9016FA97DA589A99DA924
:102F00000E941B1D18160CF076C02FA93DA549A9DB
:102F10005DA96DA179A5C1010E941E1BA7019601A3
:102F2000811141C0C501B4010E943C1C4B015C01F0
:102F300020E030E040E05FE30E94471B9B01AC01D2
:102F4000C701B6010E943D1C6B017C012DA139A572
:102F5000A101C501B4010E94471B4B015C01A701FF
:102F60009601B401C5010E94471B9B01AC0121964B
:102F70006CAD7DAD8EAD9FAD21970E943D1C21961D
:102F80006CAF7DAF8EAF9FAF21979401A50169AD66
:102F90007AAD8BAD9CAD0E943D1C69AF7AAF8BAF13
:102FA0009CAFF801EDCEC501B4010E943C1C2B0181
:102FB0003C012FA93DA549A95DA96DA179A5C10134
:102FC0000E943D1C20E030E040E05FE30E94471B90
:102FD000A30192010E94471B4B015C0120E030E0FD
:102FE00040E05FE3C301B2010E94471B5DCF8DA0AB
:102FF00099A45101B4CFC12CD12C7601812C912CF4
:10300000A12CB12CACCF20E030E0A90169AD7AADA4
:103010008BAD9CAD0E941E1B882309F4B6C029AD60
:103020003AAD4BAD5CAD21966CAD7DAD8EAD9FAD37
:1030300021970E94A91C60933701709338018093F7
:10304000390190933A0140912B0150912C016091EC
:103050002D0170912E01CE0101960E9450064091E3
:103060002F01509130016091310170913201CE01F8
:1030700007960E94500640913701509138016091A7
:10308000390170913A01CE010D960E94500640918F
:103090003301509134016091350170913601CE01B8
:1030A00049960E945006BE01675E7F4FCE0143964F
:1030B0000E94D006CE0143960E942C06BE01635F9B
:1030C0007F4F0E949D060E942C06BE01695F7F4FC4
:1030D0000E949D060E942C06BE016F5F7F4F0E94DA
:1030E0009D060E942C060E947202CE0143960E9409
:1030F000ED05CE0149960E94ED05CE010D960E9488
:10310000ED05CE0107960E94ED05CE0101960E94C5
:10311000ED05C0903301D0903401E0903501F0907E
:10312000360123E733E145E35BE3609137017091BA
:1031300038018091390190913A010E94471B4B015F
:103140005C0129E832ED4EE75FE3C701B6010E945A
:10315000471B9B01AC01C501B4010E943D1C60935B
:103160003301709334018093350190933601A701A8
:1031700096010E943C1C60932B0170932C0180935C
:103180002D0190932E010C94591060E070E0CB015A
:1031900052CFEF920F931F93CF93DF93E80134E068
:1031A00047FD34E1042E000C550B57FF03C0519529
:1031B00041955109E32E022F242FAE010E94E718FA
:1031C000CE01DF91CF911F910F91EF900895A9E06B
:1031D000B0E0EDEEF8E10C940B1C6A01F22EB02E7B
:1031E000102FFBE3AF2EA01608F41BE31F5F012F87
:1031F00027E0AE014F5F5F4F0E94461ABC018981F4
:10320000982F9970913009F43FC09BE2E1FC04C013
:103210009E2D9170E0FC3AC05E2D5071E82FE87051
:1032200083FF46C084E0911101C083E0EF2DE81BCD
:103230008F1508F0E0E0D6018E2F20E2552351F1E2
:10324000992329F0D6019C93C60101966C01960141
:103250002D5F3F4FE2FE24C08EE4D6018C9391E4B3
:1032600011969C93119712968C93D9018E2F90E210
:1032700081111BC0E20FF32FF11D10828EEF9FEF23
:103280002996ECE00C94271C9DE2C6CF90E2C4CFB7
:103290002D9381508111FCCFCE0ED11CE0E0D0CF18
:1032A0008EE6D6018C9391E6DBCF9D938150E0CFE3
:1032B000482F447082FF3DC084E0911101C083E03B
:1032C0008F1510F4EF2DE81BD6018E2F20E2552329
:1032D00009F1992329F0D6019C93C60101966C014E
:1032E00096012D5F3F4FE2FE1BC089E4D6018C930F
:1032F0008EE411968C93119786E412968C93D901E3
:103300008E2F90E2882309F4B5CF9D938150FACF98
:103310002D9381508111FCCFCE0ED11CE0E0D9CF8E
:1033200089E6D6018C938EE611968C93119786E6EA
:10333000E4CF9B0177FF02C030E020E0A1E0B0E0E5
:10334000911102C0B0E0A0E0F9013196AE0FBF1FAD
:103350008B2C912CBB2009F461C05401EFEFAE1A05
:10336000BE0AAA0DBB1DFA161B0619F014F04F2D4C
:103370004A1B511188C0E3FC59C07601A42FB0E26A
:10338000A1114FC0C40ED11C992309F45BC040E0C9
:10339000D6011196F60190836D01552309F448C0BA
:1033A000012F060F9A81582F507184FF03C091336B
:1033B00009F4015010160CF047C0093008F008E07D
:1033C000EEE2FE2E5B01A01AB10885019194819472
:1033D00091082F3F320729F4D601FC92F60131966D
:1033E0006F016217730794F1021713077CF5DB0175
:1033F000A21BB30BAA24A394B12CAC0EBD1EAA0D24
:10340000BB1D11968C9121503109D60111962815BA
:103410003905F4F0F60180836D01DBCFB12CA12CCE
:10342000A0CFF701B1937F01A150AACF9111B0CFE6
:10343000D601942F50E302C05D9391509111FCCFBF
:10344000C40ED11C40E0ACCF01E0BACF80E3DBCFAB
:103450006217730731F4963388F4953311F45523CA
:1034600069F0F6018083FD01842F90E2811108C08C
:10347000A40FB11D1C9290E080E002CF81E3F1CF58
:1034800091938150F3CF911183CF8ACF283008F0E8
:1034900027E03327DA01990F311D87FD91600096EF
:1034A0006105710539F432602E5F3D9330E32A9552
:1034B000E1F708959F3F30F080387105610509F00C
:1034C0003C5F3C5F3D93913008F08068911DDF9335
:1034D000CF931F930F93FF92EF92192F987F96959A
:1034E000E92F96959695E90FFF27EE53FF4F992701
:1034F0003327EE24FF24A701E701059008940794E1
:1035000028F4360FE71EF81E491F511D660F771F5E
:10351000881F991F0694A1F70590079428F4E70ED9
:10352000F81E491F561FC11D770F881F991F661F60
:103530000694A1F70590079428F4F80E491F561F2A
:10354000C71FD11D880F991F661F771F0694A1F70B
:103550000590079420F4490F561FC71FD81F990FD5
:10356000661F771F881F0694A9F78491109517701E
:1035700041F0D695C79557954795F794E7941A95D6
:10358000C1F7E8E6F0E068941590159135916591E2
:10359000959105907FE27395E118F10A430B560B64
:1035A000C90BD009C0F7E10CF11E431F561FC91FFC
:1035B000D01D7EF4703311F48A95E6CFE894015063
:1035C00030F0080F0AF40027021708F4202F239583
:1035D000022F7A3328F079E37D932A95E9F710C01A
:1035E0007D932A9589F60694979567953795179553
:1035F0001794E118F10A430B560BC90BD00998F048
:1036000023957E9173957A3308F070E37C932013B1
:10361000B8F77E9170617D9330F0839571E37D936F
:1036200070E32A95E1F71124EF90FF900F911F911D
:10363000CF91DF91992787FD909508950E94231BD4
:1036400008F481E00895990F0008550FAA0BE0E8EF
:10365000FEEF16161706E807F907C0F01216130654
:10366000E407F50798F0621B730B840B950B39F494
:103670000A2661F0232B242B252B21F408950A26FA
:1036800009F4A140A6958FEF811D811D08950E9428
:103690005A1B0C94CB1B0E94BD1B38F00E94C41B0C
:1036A00020F0952311F00C94B41B0C94BA1B112438
:1036B0000C94FF1B0E94DC1B70F3959FC1F3950FC8
:1036C00050E0551F629FF001729FBB27F00DB11DA6
:1036D000639FAA27F00DB11DAA1F649F6627B00D36
:1036E000A11D661F829F2227B00DA11D621F739F1F
:1036F000B00DA11D621F839FA00D611D221F749F2D
:103700003327A00D611D231F849F600D211D822F73
:10371000762F6A2F11249F5750409AF0F1F088239A
:103720004AF0EE0FFF1FBB1F661F771F881F9150C7
:103730005040A9F79E3F510580F00C94B41B0C94A7
:10374000FF1B5F3FE4F3983ED4F38695779567952A
:10375000B795F795E7959F5FC1F7FE2B880F911DF1
:103760009695879597F9089597F99F6780E870E097
:1037700060E008959FEF80EC089500240A941616E7
:10378000170618060906089500240A94121613064F
:10379000140605060895092E0394000C11F48823DD
:1037A00052F0BB0F40F4BF2B11F460FF04C06F5FF9
:1037B0007F4F8F4F9F4F089557FD9058440F551FCF
:1037C00059F05F3F71F04795880F97FB991F61F0A3
:1037D0009F3F79F087950895121613061406551F1A
:1037E000F2CF4695F1DF08C0161617061806991F86
:1037F000F1CF86957105610508940895E894BB277B
:1038000066277727CB0197F908952F923F924F9221
:103810005F926F927F928F929F92AF92BF92CF9260
:10382000DF92EF92FF920F931F93CF93DF93CDB769
:10383000DEB7CA1BDB0B0FB6F894DEBF0FBECDBFE1
:1038400009942A88398848885F846E847D848C84B2
:103850009B84AA84B984C884DF80EE80FD800C81BB
:103860001B81AA81B981CE0FD11D0FB6F894DEBF9E
:103870000FBECDBFED0108955058BB27AA270E9467
:10388000541C0C94CB1B0E94BD1B38F00E94C41B1F
:1038900020F039F49F3F19F426F40C94BA1B0EF46F
:1038A000E095E7FB0C94B41BE92F0E94DC1B58F356
:1038B000BA17620773078407950720F079F4A6F515
:1038C0000C94FE1B0EF4E0950B2EBA2FA02D0B01CD
:1038D000B90190010C01CA01A0011124FF27591B55
:1038E00099F0593F50F4503E68F11A16F040A22F5B
:1038F000232F342F4427585FF3CF469537952795CC
:10390000A795F0405395C9F77EF41F16BA0B620BCA
:10391000730B840BBAF09150A1F0FF0FBB1F661F11
:10392000771F881FC2F70EC0BA0F621F731F841F54
:1039300048F4879577956795B795F7959E3F08F07A
:10394000B0CF9395880F08F09927EE0F979587953C
:1039500008950E94BD1C0C94CB1B0E94C41B58F000
:103960000E94BD1B40F029F45F3F29F00C94B41B6A
:1039700051110C94FF1B0C94BA1B0E94DC1B68F3C2
:103980009923B1F3552391F3951B550BBB27AA2718
:1039900062177307840738F09F5F5F4F220F331F52
:1039A000441FAA1FA9F335D00E2E3AF0E0E832D01A
:1039B00091505040E695001CCAF72BD0FE2F29D01D
:1039C000660F771F881FBB1F261737074807AB07EF
:1039D000B0E809F0BB0B802DBF01FF2793585F4F64
:1039E0003AF09E3F510578F00C94B41B0C94FF1BE9
:1039F0005F3FE4F3983ED4F3869577956795B79546
:103A0000F7959F5FC9F7880F911D9695879597F950
:103A10000895E1E0660F771F881FBB1F62177307C9
:103A20008407BA0720F0621B730B840BBA0BEE1FDE
:103A300088F7E09508950E94231B08F48FEF0895FE
:103A4000EE0FFF1F0590F491E02D09940F931F9343
:103A5000CF93DF938230910510F482E090E0E09103
:103A6000FA01F091FB0130E020E0B0E0A0E03097F7
:103A700099F42115310509F44AC0281B390B24306B
:103A80003105D8F58A819B816115710589F1FB01AA
:103A900093838283FE0111C0408151810281138191
:103AA00048175907E0F04817590799F4109761F043
:103AB00012960C93129713961C933296CF01DF91B6
:103AC000CF911F910F9108950093FA011093FB017C
:103AD000F4CF2115310551F04217530738F0A901F1
:103AE000DB019A01BD01DF01F801C1CFEF01F9CF80
:103AF0009093FB018093FA01CDCFFE01E20FF31FFB
:103B0000819391932250310939832883D7CF209113
:103B1000F8013091F901232B41F4209106013091F5
:103B200007013093F9012093F801209104013091AD
:103B300005012115310541F42DB73EB7409108012B
:103B400050910901241B350BE091F801F091F90126
:103B5000E217F307A0F42E1B3F0B2817390778F064
:103B6000AC014E5F5F4F2417350748F04E0F5F1FC3
:103B70005093F9014093F801819391939FCFF0E026
:103B8000E0E09CCFCF93DF930097E9F0FC01329700
:103B900013821282A091FA01B091FB01ED0130E095
:103BA00020E01097A1F420813181820F931F209192
:103BB000F8013091F9012817390709F061C0F09335
:103BC000F901E093F801DF91CF910895EA01CE1752
:103BD000DF07E8F54A815B819E0141155105B1F788
:103BE000E901FB83EA8349915991C40FD51FEC1772
:103BF000FD0761F4808191810296840F951FE90190
:103C000099838883828193819B838A83F0E0E0E0BB
:103C100012968D919C9113970097B9F52D913C9137
:103C20001197CD010296820F931F2091F8013091D8
:103C3000F9012817390739F6309751F51092FB0131
:103C40001092FA01B093F901A093F801BCCFD3838D
:103C5000C28340815181840F951FC817D90761F431
:103C60004E5F5F4F88819981480F591F5183408370
:103C70008A819B81938382832115310509F0B0CF1E
:103C8000F093FB01E093FA019ECFFD01DC01C0CF70
:103C900013821282D7CFB0E0A0E0E1E5FEE10C9400
:103CA000071C8C01009751F4CB010E94261D8C014A
:103CB000C801CDB7DEB7E0E10C94231CFC01E60F90
:103CC000F71F9C0122503109E217F30708F49DC049
:103CD000D901CD91DC911197C617D70798F0C5305F
:103CE000D10530F3CE0104978617970708F3C61B5A
:103CF000D70B2297C193D1936D937C93CF010E94F0
:103D0000C21DD6CF5B01AC1ABD0A4C018C0E9D1EA4
:103D1000A091FA01B091FB01512C412CF12CE12C26
:103D2000109731F58091F8019091F9018815990566
:103D300009F05CC04616570608F058C0809104018F
:103D400090910501009741F48DB79EB7409108010D
:103D500050910901841B950BE817F90708F055C02D
:103D6000F093F901E093F801F90171836083A0CF2A
:103D70008D919C91119712966C90129713967C904E
:103D80001397A815B90559F56C0142E0C40ED11C72
:103D9000CA14DB0420F1AC014A195B09DA0112965E
:103DA000159780F06282738251834083D9016D93AD
:103DB0007C93E114F10471F0D7011396FC93EE9318
:103DC000129776CF22968C0F9D1FF90191838083E5
:103DD000F301EFCFF093FB01E093FA0169CF4816AE
:103DE000590608F42C017D01D3019ACFCB010E9422
:103DF000261D7C01009749F0AE01B8010E94081F02
:103E0000C8010E94C21D870153CF10E000E050CFCF
:103E1000FB01DC0102C001900D9241505040D8F7E7
:103E20000895FB01DC0101900D920020E1F7089557
:043E3000F894FFCF34
:103E3400000020410000FC01800000000000FE02A0
:103E440045028B024B03BC029A02AE020D0A003BF0
:023E540000006C
:00000001FF
