:020000040000FA
:100000000C94B2000C94DA000C94DA000C94DA0030
:100010000C94DA000C94DA000C94DA000C94DA00F8
:100020000C94DA000C94DA000C94DA000C94DA00E8
:100030000C94DA000C94DA000C94DA000C94DA00D8
:100040000C94B2070C94DA000C9480070C945A07B5
:100050000C94DA000C94DA000C94DA000C94DA00B8
:100060000C94DA000C94DA0000407A10F35A00A0E5
:10007000724E18090010A5D4E80000E87648170071
:1000800000E40B54020000CA9A3B000000E1F505B1
:10009000000080969800000040420F000000A086FB
:1000A00001000000102700000000E803000000002D
:1000B0006400000000000A000000000001000000D1
:1000C00000002C76D888DC674F0823DFC1DFAE59EB
:1000D000E1B1B796E5E3E453C63AE651997696E87E
:1000E000E6C28426EB898C9B62ED407C6FFCEFBC02
:1000F0009C9F40F2BAA56FA5F490055A2AF75C932D
:100100006B6CF9676DC11BFCE0E40D47FEF520E662
:10011000B500D0ED902E0300943577050080841E45
:10012000080000204E0A000000C80C333333330FA0
:10013000986E12831141EF8D2114893BE65516CF3D
:10014000FEE6DB18D1844B381BF77C1D901DA4BB49
:10015000E424203284725E228100C9F124ECA1E5FE
:100160003D27FC0711241FBECFEFD8E0DEBFCDBF77
:1001700021E0A0E2B1E001C01D92AA3FB207E1F781
:1001800011E0A0E0B1E0ECE4F1E402C005900D92D2
:10019000A032B107D9F710E0C2EBD0E004C021973C
:1001A000FE010E94AC1EC13BD107C9F70E944B0A59
:1001B0000C94A4200C9400004F925F926F927F9257
:1001C0008F929F92AF92BF92CF92DF92EF92FF9267
:1001D0000F931F93CF93DF93CDB7DEB76C970FB616
:1001E000F894DEBF0FBECDBF6D877E878F87988B5B
:1001F000298B3A8B4B8B5C8B2BA93CA94DA95EA913
:100200006BAD7CAD8DAD9EAD0E94C81D6D8B7E8BA0
:100210008F8B988F2D853E854F855889C801B701F2
:100220000E94C81D6D837E838F8398872FA538A970
:1002300049A95AA96FA978AD89AD9AAD0E94C81D88
:10024000698F7A8F8B8F9C8F29893A894B895C893A
:10025000C601B5010E94C81D69877A878B879C8774
:100260002D813E814F8158856D897E898F89988D3A
:100270000E94B91C4B015C0129853A854B855C8540
:10028000698D7A8D8B8D9C8D0E94B91C9B01AC0170
:10029000C501B4010E94C81D2B013C0120E030E0E3
:1002A000A9010E94531C87FF04C077FA709477F865
:1002B00070942FE632E143E85AE3C301B2010E9491
:1002C000531C87FDE0C02BA93CA94DA95EA96989F3
:1002D0007A898B899C890E94C81D4B015C012FA5DE
:1002E00038A949A95AA96D857E858F8598890E946C
:1002F000C81D69837A838B839C83A5019401698DD2
:100300007A8D8B8D9C8D0E94B91C6B017C0129819B
:100310003A814B815C816D897E898F89988D0E949D
:10032000B91C9B01AC01C701B6010E94C81D6B013D
:100330007C0120E030E0A9010E94531C87FF04C02B
:10034000F7FAF094F7F8F094A50194016D817E819D
:100350008F8198850E94B91C4B015C0129813A81EB
:100360004B815C8169857A858B859C850E94B91C4F
:100370009B01AC01C501B4010E94C81D4B015C0189
:1003800020E030E0A9010E94531C87FF04C0B7FAA7
:10039000B094B7F8B094A3019201C701B6010E94CE
:1003A000351E6B017C0120E030E0A9010E94531C46
:1003B00087FD69C020E030E040E85FE3C701B60197
:1003C0000E94A71E18160CF45EC0A3019201C5017D
:1003D000B4010E94351E4B015C0120E030E0A90110
:1003E0000E94531C87FD4FC020E030E040E85FE3EF
:1003F000C501B4010E94A71E18160CF444C0A70141
:1004000096016D817E818F8198850E94B91C2D8512
:100410003E854F8558890E94C91D2196EEADFFADDE
:1004200021976083718382839383A70196016985F5
:100430007A858B859C850E94B91C29893A894B89CC
:100440005C890E94C91D2396EEADFFAD23976083A2
:1004500071838283938381E06C960FB6F894DEBF3C
:100460000FBECDBFDF91CF911F910F91FF90EF9005
:10047000DF90CF90BF90AF909F908F907F906F90C4
:100480005F904F90089580E0E7CFAF92BF92CF92F8
:10049000DF92EF92FF920F931F93CF93DF936C0144
:1004A0007B018B01040F151FEB015E01AE18BF0825
:1004B000C017D10759F06991D601ED91FC910190D7
:1004C000F081E02DC6010995892B79F7C501DF91EF
:1004D000CF911F910F91FF90EF90DF90CF90BF9041
:1004E000AF900895CF93DF93FC01448155816081E3
:1004F000718189E391E00E944502EC0142E050E005
:100500006AE171E089E391E00E9445028C0F9D1F32
:10051000DF91CF910895FC01538D448D252F30E05C
:10052000842F90E0821B930B541710F0CF96089500
:1005300001970895FC01918D828D981761F0A28D2D
:10054000AE0FBF2FB11D5D968C91928D9F5F9F73F3
:10055000928F90E008958FEF9FEF0895FC01918DA9
:10056000828D981731F0828DE80FF11D858D90E016
:1005700008958FEF9FEF08952FB7F894809135017C
:1005800090913601A0913701B09138012FBF80932F
:10059000410190934201A0934301B093440189E348
:1005A00091E00E94AE0297FF26C02FB7F894809189
:1005B000350190913601A0913701B09138012FBFDC
:1005C0004091410150914201609143017091440179
:1005D000841B950BA60BB70B40913D0150913E013A
:1005E00060913F017091400184179507A607B707F6
:1005F000B0F28FEF9FEF0895FC01918D228D892F2E
:1006000090E0805C9F4F821B91098F73992708951A
:1006100089E391E00E94FC0221E0892B09F420E0AB
:10062000822F089580E090E0892B29F00E94080332
:1006300081110C9400000895FC01A48DA80FB92F1E
:10064000B11DA35ABF4F2C91848D90E001968F73FA
:100650009927848FA689B7892C93A089B1898C9119
:10066000837080648C93938D848D981306C0028868
:10067000F389E02D80818F7D80830895EF92FF9232
:100680000F931F93CF93DF93EC0181E0888F9B8DB5
:100690008C8D98131AC0E889F989808185FF15C06F
:1006A0009FB7F894EE89FF896083E889F989808192
:1006B0008370806480839FBF81E090E0DF91CF9161
:1006C0001F910F91FF90EF900895F62E0B8D10E083
:1006D0000F5F1F4F0F731127E02E8C8D8E110CC0F2
:1006E0000FB607FCFACFE889F989808185FFF5CF3D
:1006F000CE010E941C03F1CFEB8DEC0FFD2FF11DFD
:10070000E35AFF4FF0829FB7F8940B8FEA89FB8979
:1007100080818062CFCFCF93DF93EC01888D8823D7
:10072000B9F0AA89BB89E889F9898C9185FD03C054
:10073000808186FD0DC00FB607FCF7CF8C9185FF39
:10074000F2CF808185FFEDCFCE010E941C03E9CF5F
:10075000DF91CF9108953FB7F89480912101909156
:100760002201A0912301B091240126B5A89B05C0C8
:100770002F3F19F00196A11DB11D3FBFBA2FA92F20
:10078000982F8827BC01CD01620F711D811D911D1D
:1007900042E0660F771F881F991F4A95D1F7089589
:1007A0008F929F92AF92BF92CF92DF92EF92FF9281
:1007B0000F931F93CF93DF93EC018A819B8182304B
:1007C000910509F453C03CF40197D9F1E12CF12CC7
:1007D00000E010E03CC08330910509F49EC004970E
:1007E000A9F7888199818130910509F4EFC00297BA
:1007F00069F708851985C8010E94D0036B017C0147
:100800000A84DB85C02D20E030E0A9010E94A71EEC
:10081000181654F0CE010E94D00320E030E0A90168
:100820000E94A71E181694F6CE010E94D0039B01C9
:10083000AC01C701B6010E94A71E18160CF0BDCF6F
:10084000ECC0EC81FD81E088F18802891389B70151
:10085000C801DF91CF911F910F91FF90EF90DF9032
:10086000CF90BF90AF909F908F900895888199818D
:100870008130910539F1029709F0A8CFEC81FD8113
:10088000A088B188C288D388EE81FF81E088F18892
:100890000289138920E030E0A901B501C6010E9458
:1008A000A71E181654F020E030E0A901B701C801D6
:1008B0000E94A71E18160CF089CF9501A601B7015A
:1008C000C80124C0EC81FD81A088B188C288D3888A
:1008D00020E030E0A901B501C6010E94A71E18164C
:1008E0000CF074CFEE81FF81E088F18802891389D2
:1008F00020E030E0A901B701C8010E94A71E181628
:100900000CF064CF9701A801B501C6010E94531CE9
:1009100087FF9DCF750186019ACF888199818130AB
:10092000910551F1029709F051CFEC81FD81E088EA
:10093000F188028913890884D985C02D20E030E030
:10094000A901B701C8010E94A71E18165CF0CE01CC
:100950000E94D00320E030E0A9010E94A71E1816D3
:100960000CF034CFCE010E94D0039701A8010E9461
:10097000531C87FF22CF6BCFEC81FD81E088F1888B
:100980000289138920E030E0A901B701C8010E9463
:10099000A71E18160CF01ACF0884D985C02DCE01D9
:1009A0000E94D0034B015C0120E030E0A9010E94CD
:1009B000A71E18160CF00ACF9701A801C501B401B3
:1009C0000E94A71E18160CF0F8CE41CF0885198595
:1009D000C8010E94D0036B017C0120E030E0A90136
:1009E0000E94A71E18160CF0F1CE0A84DB85C02DDC
:1009F000CE010E94D0034B015C0120E030E0A90150
:100A00000E94A71E18160CF0E1CEA5019401C701A3
:100A1000B6010E94531C87FFD0CEE801CECEFC0168
:100A20006115710589F04115510571F081E090E083
:100A30009183808382E090E09383828375836483D3
:100A40005783468381E0089580E00895FC01118278
:100A500010821382128215821482178216821186E6
:100A600010861386128608950F931F93CF93DF93FA
:100A7000EC018B0184E090E00E94B21E0097D1F05F
:100A8000FC011183008313821282E881F98130977F
:100A900049F49983888381E0DF91CF911F910F9171
:100AA0000895F9012281338121153105D1F793830E
:100AB0008283F1CF80E0F0CF0F931F93CF93DF932A
:100AC000EC018B0184E090E00E94B21E0097D1F00F
:100AD000FC011183008313821282EE81FF81309723
:100AE00049F49F838E8381E0DF91CF911F910F9115
:100AF0000895F9012281338121153105D1F79383BE
:100B00008283F1CF80E0F0CF8F929F92AF92BF921D
:100B1000CF92DF92EF92FF920F931F93CF93DF93C9
:100B2000EC014A015B01680179018CE090E00E94D0
:100B3000B21EFC0180E0309799F01182108282820F
:100B40009382A482B582C682D782E086F18613861C
:100B50001286A881B981109789F4F983E88381E02E
:100B6000DF91CF911F910F91FF90EF90DF90CF9089
:100B7000BF90AF909F908F900895DC011A968D9151
:100B80009C911B970097C9F7B183A0831B96FC9398
:100B9000EE931A97E4CF0F931F93CF93DF93EC015B
:100BA0008B0184E090E00E94B21E0097D1F0FC011E
:100BB0001183008313821282EC81FD81309749F406
:100BC0009D838C8381E0DF91CF911F910F910895D8
:100BD000F9012281338121153105D1F79383828375
:100BE000F1CF80E0F0CF0F931F93CF93DF93EC0111
:100BF0008B0184E090E00E94B21E0097D1F0FC01CE
:100C00001183008313821282E881F981309749F4BD
:100C10009983888381E0DF91CF911F910F9108958F
:100C2000F9012281338121153105D1F79383828324
:100C3000F1CF80E0F0CFCF93DF93EC0188819981F1
:100C4000009711F00E944E1F198218821D821C828B
:100C50001B821A82DF91CF910895FC0180819181DE
:100C6000009711F00C944E1F0895CF93DF93EB0182
:100C70006A857B856115710511F00E943506CE01EC
:100C8000DF91CF910C944E1F0F931F93CF93DF935F
:100C9000EC0188819981009759F02A813B812617C0
:100CA000370730F081E0DF91CF911F910F910895C8
:100CB0008B016F5F7F4F0E94D71F009759F0998378
:100CC00088831B830A832C813D81232B59F7FC01E8
:100CD0001082E8CF80E0E7CF0F931F93CF93DF938D
:100CE000EC010C811D810F5F1F4FB8010E9444066B
:100CF000882391F0288139818C819D816DE171E09B
:100D0000820F931F0E949D201D830C83CE01DF91D3
:100D1000CF911F910F910895CE010E941B06F6CF2F
:100D2000EF92FF920F931F93CF93DF93EC01FB01A0
:100D3000E080F180E114F10411F1048115810115C5
:100D40001105A9F08C819D81080F191FB801CE01F2
:100D50000E944406882399F0288139818C819D81E5
:100D6000B701820F931F0E949D201D830C83CE012B
:100D7000DF91CF911F910F91FF90EF900895CE01D9
:100D80000E941B06F4CFEF92FF920F931F93CF9315
:100D9000DF93EC017B018A01BA010E9444068111B4
:100DA0000BC0CE010E941B06CE01DF91CF911F9197
:100DB0000F91FF90EF9008951D830C83B7018881F8
:100DC00099810E949D20F0CFEF92FF920F931F9385
:100DD000CF93DF93CDB7DEB7A1970FB6F894DEBF00
:100DE0000FBECDBF7C01CB01BA01F7011182108289
:100DF00013821282158214828E010F5F1F4F22E030
:100E000044E00E94C9190097C9F0FC01019000203C
:100E1000E9F73197AF01481B590BBC01C7010E948C
:100E2000C306A1960FB6F894DEBF0FBECDBFDF910B
:100E3000CF911F910F91FF90EF900895C7010E94ED
:100E40001B06EFCFEF92FF920F931F93CF93DF9389
:100E5000CDB7DEB762970FB6F894DEBF0FBECDBF39
:100E60008C01CB01F801118210821382128215824B
:100E700014824AE09E012F5F3F4F7901B9010E9421
:100E8000E719F70101900020E9F73197AF014E19FA
:100E90005F09B701C8010E94C30662960FB6F894B5
:100EA000DEBF0FBECDBFDF91CF911F910F91FF909D
:100EB000EF9008951F920F920FB60F9211242F9367
:100EC0003F934F935F936F937F938F939F93AF93D2
:100ED000BF93EF93FF9389E391E00E941C03FF917E
:100EE000EF91BF91AF919F918F917F916F915F91A2
:100EF0004F913F912F910F900FBE0F901F9018951B
:100F00001F920F920FB60F9211242F938F939F93DE
:100F1000EF93FF93E0914901F0914A018081E091C4
:100F20004F01F091500182FD1BC0908180915201D0
:100F30008F5F8F7320915301821741F0E09152012E
:100F4000F0E0E75CFE4F958F80935201FF91EF91A7
:100F50009F918F912F910F900FBE0F901F9018951A
:100F60008081F4CF1F920F920FB60F9211242F930E
:100F70003F938F939F93AF93BF938091350190914F
:100F80003601A0913701B09138013091200123E062
:100F9000230F2D3758F50196A11DB11D2093200177
:100FA0008093350190933601A0933701B0933801B7
:100FB0008091210190912201A0912301B0912401FF
:100FC0000196A11DB11D8093210190932201A09350
:100FD0002301B0932401BF91AF919F918F913F91D5
:100FE0002F910F900FBE0F901F90189526E8230F9A
:100FF0000296A11DB11DD2CF4F925F926F927F9248
:101000008F929F92AF92BF92CF92DF92EF92FF9218
:10101000E9E3F1E01382128288EE93E0A0E0B0E011
:1010200084839583A683B7838CE091E0918380834A
:1010300085EC90E09587848784EC90E0978786879D
:1010400080EC90E0918B808B81EC90E0938B828B95
:1010500082EC90E0958B848B86EC90E0978B868B6E
:10106000118E128E138E148E86E090E00E94B21EB6
:10107000FC011182108213821282158214829093D5
:10108000F5018093F40184E190E00E94B21EFC011E
:1010900080E090E0A0EAB1EC80839183A283B383E7
:1010A00084839583A683B783412C512C80E8682ED6
:1010B00080EC782E4086518662867386812C912C36
:1010C000A12C90ECB92E84869586A686B786108AC8
:1010D000118A128A138AF093F301E093F20184E1FA
:1010E00090E00E94B21EFC014082518262827382B3
:1010F00084829582A682B78280869186A286B386F4
:101100001486158616861786108A118A128A138A03
:101110009093F1018093F00184E190E00E94B21E6F
:10112000FC0180829182A282B3821482158216828F
:1011300017821086118612861386C12CD12CE12CC1
:1011400020E4F22EC486D586E686F786108A118AB8
:10115000128A138A9093EF018093EE0184E190E06C
:101160000E94B21EFC011082118212821382C4827C
:10117000D582E682F782C086D186E286F38680E059
:1011800090E0A0E8B0E484879587A687B787108AA7
:10119000118A128A138AF093ED01E093EC0184E145
:1011A00090E00E94B21EFC01C082D182E282F382F2
:1011B00080E090E0A0E8B0E484839583A683B783C1
:1011C00080E090E0A0EAB1E480879187A287B387AE
:1011D00084879587A687B787108A118A128A138A0F
:1011E000F093EB01E093EA0184E190E00E94B21EEB
:1011F000FC0180E090E0A0E2B2EC80839183A283C6
:10120000B38384839583A683B783408651866286A1
:10121000738684869586A686B786108A118A128A76
:10122000138AF093E901E093E80184E190E00E94E1
:10123000B21EFC0140825182628273828482958256
:10124000A682B78280869186A286B386148615868A
:1012500016861786108A118A128A138A9093E701DC
:101260008093E60184E190E00E94B21EFC0180823E
:101270009182A282B382148215821682178210860E
:10128000118612861386C486D586E686F786108A6E
:10129000118A128A138A9093E5018093E40184E114
:1012A00090E00E94B21EFC01108211821282138211
:1012B000C482D582E682F782C086D186E286F38632
:1012C00080E090E0A0E8B0E484879587A687B787A0
:1012D000108A118A128A138AF093E301E093E201E3
:1012E00084E190E00E94B21EFC01C082D182E282C1
:1012F000F38280E090E0A0E8B0E484839583A68345
:10130000B78380E090E0A0E2B2E480879187A28773
:10131000B38784879587A687B787108A118A128A30
:10132000138AF093E101E093E00184E190E00E94F0
:10133000B21EFC0110821182128213821482158265
:10134000168217821086118612861386812C912CA4
:1013500038ECA32E31E4B32E84869586A686B78614
:10136000108A118A128A138A9093DF018093DE011A
:1013700084E190E00E94B21EFC0110821182128270
:10138000138284829582A682B78280869186A28605
:10139000B386C12CD12C48E4E42E42E4F42EC4865A
:1013A000D586E686F786108A118A128A138A909368
:1013B000DD018093DC0184E190E00E94B21EFC011B
:1013C00080829182A282B382C482D582E682F78231
:1013D000C086D186E286F386812C912C56E9A52E13
:1013E00052E4B52E84869586A686B786108A118A21
:1013F000128A138A9093DB018093DA0184E190E0F2
:101400000E94B21EFC01C082D182E282F3828482F9
:101410009582A682B78280869186A286B386C12CE9
:10142000D12C68ECE62E62E4F62EC486D586E686DC
:10143000F786108A118A128A138A9093D9018093B1
:10144000D80184E190E00E94B21EFC01808291826A
:10145000A282B382C482D582E682F782C086D18618
:10146000E286F386C486D586E686F786108A118AD8
:10147000128A138A9093D7018093D601FF90EF9040
:10148000DF90CF90BF90AF909F908F907F906F90A4
:101490005F904F900895CF93DF93CDB7DEB7CA55D5
:1014A000D1090FB6F894DEBF0FBECDBF789484B5D6
:1014B000826084BD84B5816084BD85B5826085BD50
:1014C00085B5816085BD80916E00816080936E00DE
:1014D00010928100809181008260809381008091D0
:1014E0008100816080938100809180008160809381
:1014F00080008091B10084608093B1008091B00041
:1015000081608093B00080917A00846080937A003B
:1015100080917A00826080937A0080917A00816065
:1015200080937A0080917A00806880937A0010928C
:10153000C100E0914901F0914A0182E08083E0918D
:101540004501F09146011082E0914701F091480178
:101550008FEC808310925101E0914D01F0914E018A
:1015600086E08083E0914B01F0914C0180818061A5
:101570008083E0914B01F0914C01808188608083F1
:10158000E0914B01F0914C01808180688083E09173
:101590004B01F0914C0180818F7D808388E090E049
:1015A0000E94B21E8C01EE24E394F12CDC01ED923A
:1015B000FC92FC0112821382148215821782168219
:1015C0002091F2013091F3013CAF2BAFB9010E94A1
:1015D0005C058091F0019091F1019CAB8BABBC015B
:1015E000C8010E945C05A091EE01B091EF01BEAB75
:1015F000ADABBD01C8010E945C05E091EC01F0912A
:10160000ED01FAAFE9AFBF01C8010E945C0520916E
:10161000EA013091EB013EAF2DAFB901C8010E9444
:101620005C054090F4015090F501B801C2010E94A0
:10163000F30588E090E00E94B21E8C0182E090E009
:10164000D8018D939C93F801128213821482158223
:10165000178216822091E8013091E90123963FAF6D
:101660002EAF2397B901C8010E945C058091E60165
:101670009091E70127969FAF8EAF2797BC01C801D5
:101680000E945C05A091E401B091E5012B96BFAFEB
:10169000AEAF2B97BD01C8010E945C05E091E2014D
:1016A000F091E3012F96FFAFEEAF2F97BF01C80176
:1016B0000E945C052091E0013091E10163963FAF0B
:1016C0002EAF6397B901C8010E945C05B801C20141
:1016D0000E94F3058AE090E00E94B21E8C01DC01BA
:1016E000ED92FC92FC011282138214821582178201
:1016F000168282E090E00E94B21EDC011D921C92D4
:10170000F801918780872091DE013091DF01659695
:101710003FAF2EAF6597B901C8010E945C052090CC
:10172000DC013090DD01B101C8010E945C058091AF
:10173000DA019091DB019CA78BA7BC01C8010E9434
:101740005C05A091D801B091D901B8ABAFA7BD019C
:10175000C8010E945C05E091D601F091D70169961D
:10176000FFAFEEAF6997BF01C8010E945C0584E03E
:1017700090E00E94B21E3C01009709F452C0DC01C7
:1017800011961C930E9313961C921E921297F801B9
:10179000F6816A96FFAF6A97D8011796BC916B964F
:1017A000BFAF6B97EF2EFB2EE114F10471F16A9637
:1017B0000FAD6A976B961FAD6B970115110509F177
:1017C000F801C280D380C114D104D9F0A080B180C7
:1017D000D6018D909C90F501208131814281538109
:1017E000D4016D917D918D919C910E94531C87FF36
:1017F00006C0F80191828082D601AD92BC9286012A
:10180000DCCFF701E280F380CFCFD2011296ED91C9
:10181000FC911397309709F040C513967C926E9215
:10182000129782E090E00E94B21E7C01FC011182BE
:10183000108282E090E00E94B21E8C01DC011D92B9
:101840001C9282E090E00E94B21E5C01FC011182B9
:10185000108282E090E00E94B21E4C01DC011D92D9
:101860001C9282E090E00E94B21E3C01FC011182B9
:1018700010828CE090E00E94B21E6C010E9426054E
:1018800023964EAD5FAD23976BAD7CADC6010E9434
:101890000F0565966EAD7FAD6597C7010E94340553
:1018A00087E090E00E94B21EFC0181E090E091830D
:1018B00080831282D482C382F682E582BF01C20194
:1018C0000E94CB058CE090E00E94B21E6C010E9449
:1018D000260523964EAD5FAD23976BA97CA9C60163
:1018E0000E940F0565966EAD7FAD6597C7010E949A
:1018F000340587E090E00E94B21EFC0182E090E097
:10190000918380831282D482C382F682E582BF01F2
:10191000C2010E94CB058CE090E00E94B21E6C01D7
:101920000E94260523964EAD5FAD23976DA97EA933
:10193000C6010E940F05B101C8010E94340587E06D
:1019400090E00E94B21EFC0183E090E091838083CE
:101950001282D482C38216830583BF01C2010E9412
:10196000CB058CE090E00E94B21E6C010E9426051F
:1019700023964EAD5FAD239769AD7AADC6010E9447
:101980000F056BA57CA5C5010E94340587E090E09A
:101990000E94B21EFC0184E090E091838083128259
:1019A000D482C382B682A582BF01C2010E94CB0548
:1019B0008CE090E00E94B21E6C010E9426052396E6
:1019C0004EAD5FAD23976DAD7EADC6010E940F0594
:1019D00065966EAD7FAD6597C7010E94340587E0BF
:1019E00090E00E94B21EFC0185E090E0918380832C
:1019F0001282D482C382F682E582BF01C2010E94B4
:101A0000CB058CE090E00E94B21E6C010E9426057E
:101A100027964EAD5FAD27976BAD7CADC6010E949A
:101A20000F0565966EAD7FAD6597C7010E943405C1
:101A300087E090E00E94B21EFC0186E090E0918376
:101A400080831282D482C382F682E582BF01C20102
:101A50000E94CB058CE090E00E94B21E7C010E94A7
:101A6000260527964EAD5FAD27976BA97CA9C701C8
:101A70000E940F05B101C8010E94340587E090E083
:101A80000E94B21EFC0187E090E091838083128265
:101A9000F482E38216830583BF01C2010E94CB0555
:101AA0008CE090E00E94B21E7C010E9426052796E1
:101AB0004EAD5FAD27976DA97EA9C7010E940F05A6
:101AC000B101C8010E94340587E090E00E94B21E77
:101AD000FC0188E090E0918380831282F482E382AB
:101AE00016830583BF01C2010E94CB058CE090E004
:101AF0000E94B21E7C010E94260527964EAD5FAD66
:101B0000279769AD7AADC7010E940F056BA57CA52B
:101B1000C5010E94340587E090E00E94B21EFC01DE
:101B200089E090E0918380831282F482E382B6821E
:101B3000A582BF01C2010E94CB058CE090E00E940B
:101B4000B21E7C010E94260527964EAD5FAD2797F9
:101B50006DAD7EADC7010E940F056FA578A9C401C8
:101B60000E94340587E090E00E94B21EFC018AE0EA
:101B700090E0918380831282F482E3829682858250
:101B8000BF01C2010E94CB058CE090E00E94B21E12
:101B90007C010E9426052B964EAD5FAD2B976BAD59
:101BA0007CADC7010E940F05B101C8010E94340538
:101BB00087E090E00E94B21EFC018BE090E09183F0
:101BC00080831282F482E38216830583BF01C201FF
:101BD0000E94CB058CE090E00E94B21E7C010E9426
:101BE00026052B964EAD5FAD2B976BA97CA9C7013F
:101BF0000E940F05B101C8010E94340587E090E002
:101C00000E94B21EFC018CE090E0918380831282DE
:101C1000F482E38216830583BF01C2010E94CB05D3
:101C20008CE090E00E94B21E7C010E9426052B965B
:101C30004EAD5FAD2B976DA97EA9C7010E940F0520
:101C40006BA57CA5C5010E94340587E090E00E9449
:101C5000B21EFC018DE090E0918380831282F482B9
:101C6000E382B682A582BF01C2010E94CB058CE04F
:101C700090E00E94B21E7C010E9426052B964EAD7C
:101C80005FAD2B9769AD7AADC7010E940F056FA5B7
:101C900078A9C4010E94340587E090E00E94B21E3A
:101CA000FC018EE090E0918380831282F482E382D3
:101CB00096828582BF01C2010E94CB058CE090E034
:101CC0000E94B21E7C010E9426052B964EAD5FAD90
:101CD0002B976DAD7EADC7010E940F056FA578A94A
:101CE000C4010E94340587E090E00E94B21EFC010E
:101CF0008FE090E0918380831282F482E382968267
:101D00008582BF01C2010E94CB058CE090E00E9459
:101D1000B21E7C010E9426052F964EAD5FAD2F9717
:101D20006BAD7CADC7010E940F05B101C8010E94D7
:101D3000340587E090E00E94B21EFC0180E190E053
:101D4000918380831282F482E38216830583BF012C
:101D5000C2010E94CB058CE090E00E94B21E7C0183
:101D60000E9426052F964EAD5FAD2F976BA97CA9DB
:101D7000C7010E940F05B101C8010E94340587E028
:101D800090E00E94B21EFC0181E190E0918380838B
:101D90001282F482E38216830583BF01C2010E948E
:101DA000CB058CE090E00E94B21E8C010E942605BB
:101DB0002F964EAD5FAD2F976DA97EA9C8010E94E9
:101DC0000F056BA57CA5C5010E94340587E090E056
:101DD0000E94B21EFC0182E190E091838083128216
:101DE00014830383B682A582BF01C2010E94CB0582
:101DF0008CE090E00E94B21E8C010E9426052F9676
:101E00004EAD5FAD2F9769AD7AADC8010E940F0549
:101E10006FA578A9C4010E94340587E090E00E9474
:101E2000B21EFC0183E190E09183808312821483CF
:101E3000038396828582BF01C2010E94CB058CE09C
:101E400090E00E94B21E8C010E9426052F964EAD96
:101E50005FAD2F976DAD7EADC8010E940F056996ED
:101E60006EAD7FAD6997C3010E94340587E090E0B5
:101E70000E94B21EFC0184E190E091838083128273
:101E80001483038376826582BF01C2010E94CB0561
:101E90008CE090E00E94B21E8C010E9426056396A1
:101EA0004EAD5FAD63976BAD7CADC8010E940F0571
:101EB0006BA57CA5C5010E94340587E090E00E94D7
:101EC000B21EFC0185E190E091838083128214832D
:101ED0000383B682A582BF01C2010E94CB058CE0BC
:101EE00090E00E94B21E8C010E94260563964EADC2
:101EF0005FAD63976BA97CA9C8010E940F056BA514
:101F00007CA5C5010E94340587E090E00E94B21EC6
:101F1000FC0186E190E09183808312821483038325
:101F2000B682A582BF01C2010E94CB058CE090E081
:101F30000E94B21E8C010E94260563964EAD5FADD5
:101F400063976DA97EA9C8010E940F056FA578A9A6
:101F5000C4010E94340587E090E00E94B21EFC019B
:101F600087E190E0918380831282148303839682B9
:101F70008582BF01C2010E94CB058CE090E00E94E7
:101F8000B21E8C010E94260563964EAD5FAD63972D
:101F900069AD7AADC8010E940F056FA578A9C4018B
:101FA0000E94340587E090E00E94B21EFC0188E1A7
:101FB00090E09183808312821483038396828582CA
:101FC000BF01C2010E94CB058CE090E00E94B21ECE
:101FD0008C010E94260563964EAD5FAD63976DAD93
:101FE0007EADC8010E940F0569966EAD7FAD699701
:101FF000C3010E94340587E090E00E94B21EFC01FC
:1020000089E190E091838083128214830383768236
:102010006582BF01C2010E94CB059E01235F3F4F35
:102020003EA32DA3CE01439698A78FA3DE0117965A
:10203000BAA7A9A789E391E00E94FC021816190625
:102040000CF050C00E94BC02FC0197FD34C18D32DF
:10205000910521F0C0970A9708F026C1C12CD12C18
:10206000760110E0E130F105D9F0ED32F10509F427
:1020700020C1CF01C0970A9798F4AAE0B0E0A70169
:1020800096010E94771D6F01FF0FEE08FF08C60E34
:10209000D71EE81EF91EB0E3CB1AD108E108F108FB
:1020A00089E391E00E949A020E94BC02FC01C09761
:1020B0000A97C0F2E130F105A9F2112341F0F09442
:1020C000E094D094C094C11CD11CE11CF11C8091FF
:1020D0000001909101018C159D0521F0D092010124
:1020E000C0920001609100017091010161157105BC
:1020F00009F0E5C0109231011092320110923301C3
:102100001092340110922D0110922E0110922F0185
:10211000109230011092290110922A0110922B0185
:1021200010922C0110922501109226011092270185
:102130001092280170E060E0CE0101960E94220713
:10214000409125015091260160912701709128014D
:10215000CE0107960E94E406409131015091320170
:102160006091330170913401CE010D960E94E40616
:102170004091290150912A0160912B0170912C010D
:10218000CE0143960E94E40640912D0150912E010C
:1021900060912F0170913001CE014F960E94E406AC
:1021A0001A8E198E1C8E1B8E1E8E1D8E6F8D78A121
:1021B0006115710531F04BA15CA1CE0149960E94D9
:1021C000C306CE0149960E946C06BE016D5E7F4F2C
:1021D0000E9490060E946C06BE01635F7F4F0E94C2
:1021E00090060E946C06BE01695F7F4F0E949006B8
:1021F0000E946C06BE016F5F7F4F0E9490060E9496
:102200006C060E947202CE0149960E942D06CE01F4
:102210004F960E942D06CE0143960E942D06CE01B8
:102220000D960E942D06CE0107960E942D06CE0126
:1022300001960E942D060E94AB034B015C0188ECC5
:10224000C82ED12CE12CF12C0E94AB03681979091E
:102250008A099B09683E734081059105A8F3E1E076
:10226000CE1AD108E108F108F8EE8F0EF3E09F1EB8
:10227000A11CB11CC114D104E104F10429F780E0D0
:1022800090E0892B09F4D6CE0E940803882309F434
:10229000CDCE0E940000CACEFC01828193810097BE
:1022A000D9F773826282BDCA89E391E00E949A02E3
:1022B000C9CE11E0F5CEC12CD12C760108CF072E66
:1022C000000C880B990B0E945A1C9B01AC01609179
:1022D0002D0170912E0180912F01909130010E946B
:1022E000C81D6093290170932A0180932B0190935C
:1022F0002C01E091F401F091F501FEABEDAB2080F3
:102300003180F101309771F0A081B1812D913C9124
:10231000119721303105C1F512966D937D938D9300
:102320009C931597F1013097A9F0A081B1818D910F
:102330009C911197029761F54091250150912601DA
:10234000609127017091280112964D935D936D93D2
:102350007C93159791012115310519F1F901A0819F
:10236000B18116960D90BC91A02D1097A9F08D917A
:102370009C911197FC01108A118A128A138A129675
:102380000D90BC91A02DF1CF0280F381E02DBACF4A
:102390000280F381E02DC7CFD90112962D913C9197
:1023A000DACFEDA9FEA90280F381E02DFCAFEBAFFF
:1023B0009F012115310509F4DDC0F901A081B1812A
:1023C00016960D90BC91A02D109769F08D919C915F
:1023D0001197FC01108A118A128A138A12960D90A5
:1023E000BC91A02DF1CFD90112962D913C91E1CF56
:1023F000C701B6010E94A71E87FD39C0A70196013B
:10240000C301B2010E94A71E18168CF52BA53CA58E
:102410004DA55EA5C301B2010E94C81D9B01AC0180
:1024200060E070E080E89FE30E94351E4B015C0194
:10243000A3019201C701B6010E94C81D9B01AC0116
:10244000C501B4010E94B91C20E030E040E85FE320
:102450000E94C91DF801608B718B828B938BEBA955
:10246000FCA90280F381E02DFCABEBAB91C0D8015D
:1024700018968D909D90AD90BC901B97A7019601EA
:10248000C301B2010E94531C181694F0A5019401D7
:10249000C701B6010E94531C181654F080E090E06A
:1024A000A0E8BFE3F801808B918BA28BB38BD7CFD1
:1024B000D8011C968D919D910D90BC91A02D8FA758
:1024C00098ABA9ABBAABA5019401C701B6010E94B4
:1024D000A71E18163CF5A70196016FA578A989A932
:1024E0009AA90E94A71E87FD1DC02FA538A949A93A
:1024F0005AA9C501B4010E94C81D9B01AC0160E04E
:1025000070E080E89FE30E94351E2B013C01A5018D
:102510009401C701B6010E94C81D9B01AC01C30113
:10252000B20190CFA70196016FA578A989A99AA9B0
:102530000E94531C87FF93CFA50194016FA578A932
:1025400089A99AA90E94531C81116AC0A50194010E
:10255000C301B2010E94531C882309F461C02BA55A
:102560003CA54DA55EA5C301B20156C0D10112968E
:102570002D903C902114310409F45AC0F1010190CE
:10258000F081E02DFAAFE9AF268137813CAB2BAB70
:102590008BA99CA9009751F3DC010D911C91E9AD29
:1025A000FAADC280D380E480F580D8018D919D91F1
:1025B0000D90BC91A02D8BA79CA7ADA7BEA7F8013D
:1025C00044805580668077809C01AD01C701B601CB
:1025D0000E94531C2BA53CA54DA55EA587FF08CFE7
:1025E000C301B2010E94531C81111AC0D801189670
:1025F000CD90DD90ED90FC901B97A7019601C30153
:10260000B2010E94531C882359F0F80124853585B6
:1026100046855785C701B6010E94531C81113ECFE4
:10262000D80150961D921D921D921C92539717CF60
:10263000EDA9FEA904811581772473940115110574
:1026400009F4A9C3D801ED90FC90F701838194812E
:102650000097B1F1C580D680C114D10489F10E94E0
:10266000D0034B015C0120E030E0A9010E94A71ECD
:1026700018161CF5D70112967C92D601ED90FC90AD
:10268000E114F104E9F0F701C080D180D601509641
:102690002D913D914D915C915397C501B4010E94DC
:1026A000A71E18162CF4F601808A918AA28AB38A92
:1026B000D7011296ED90FC90E3CFF7011282DDCFA7
:1026C000F80102811381BACF2B8A3C8A4D8A5E8A37
:1026D0009601A701C901DA018D879E87AF87B88B64
:1026E000FEA1FF938DA18F9398A59F93AFA1AF9368
:1026F0005F934F933F932F931F93AF92BF92B9ADC8
:10270000BF935F934F933F932F93EDA9EF93FBA953
:10271000FF932FA52F933BA53F93A12CB12C30E81D
:10272000C32E3FE3D32E8201710120E030E0A901E6
:10273000BBA5AFA5FBA9EDA96B2F7A2F8F2F9E2FDD
:102740000E94DC000D851E852F8538894B895C89A8
:102750006D897E89D40118968D919C910E94840583
:10276000D301ED91FC9160857185828593856F839E
:10277000788789879A870089118932892389A801F6
:10278000A32FB22F9D0109831A832B833C83E484FA
:10279000F5840685178521E030E02C0F3D1F3F931F
:1027A0002F933AA53F9329A52F93BF93AF935F93A0
:1027B0004F931F930F93FF92EF92BF93AF935F934B
:1027C0004F9323812F9322812F9321812F93208157
:1027D0002F93A12CB12C650120E030E040E85FE3AD
:1027E0000E94DC000FB6F894DEBF0FBECDBF09819A
:1027F0001A812B813C814F81588569857A85D40166
:1028000018968D919C910E948405D301ED91FC91C5
:10281000C484D584E684F784208531854285538538
:10282000C701B6010E94531C882351F000E010E05C
:102830009801B701A601F401808591850E94840565
:10284000D30112966D907C90C2C220E030E040E847
:102850005FE36C2D7D2D8E2D9F2D0E94531C8111C9
:102860001AC000E010E020E83FE3B201A101F4014A
:10287000808591850E948405D301ED91FC910089AA
:102880001189228933894085518562857385F401D8
:1028900080859185B8CF2B8A3C8A4D8A5E8A9601C5
:1028A000A701C901DA018D879E87AF87B88BD80150
:1028B0007C9111966C91119712969C911297139698
:1028C0008C91BEA1BF93EDA1EF93F8A5FF93AFA1AB
:1028D000AF935F934F933F932F93D8011F96EC9143
:1028E0001F97EF931E96EC911E97EF931D96EC9118
:1028F0001D97EF931C96EC91EF935F934F933F934B
:102900002F938F939F936F937F93A12CB12C20E8EB
:10291000C22E2FE3D22E8201710120E030E0A90106
:10292000DB01FC016B2F7A2F8F2F9E2F0E94DC0082
:102930000D851E852F8538894B895C896D897E8937
:10294000F401808591850ACF0C2D1D2D2E2D3F2D54
:10295000CCC2F4010084F185E02D6396FFAFEEAFA9
:102960006397208031802114310409F40CC2810165
:10297000D801ED90FC901197E114F10409F4FDC128
:1029800012968D919D910D90BC91A02D8DAB9EAB1B
:10299000AFABB8AFF7012281338144815581BC01CF
:1029A000CD010E94531C87FFECC11CA70BA7ABA550
:1029B000BCA50D90BC91A02DBCA7ABA7109709F4A6
:1029C000DCC1ED91FC91FCABEBAB309781F3D8010E
:1029D0001A960D90BC91A02DBAAFA9AFD80116964A
:1029E0008D919D910D90BC91A02D21968CAF9DAFA6
:1029F000AEAFBFAF2197ABA5BCA512968D919D91AF
:102A00000D90BC91A02D25968CAF9DAFAEAFBFAF02
:102A10002597ABA5BCA516968D919D910D90BC9167
:102A2000A02D29968CAF9DAFAEAFBFAF29979C016B
:102A3000AD0166817781808591850E94C81D67966A
:102A40006CAF7DAF8EAF9FAF67972DA93EA94FA901
:102A500058ADE9ADFAAD62817381848195810E94A0
:102A6000C81D2D966CAF7DAF8EAF9FAF2D9725966D
:102A70002CAD3DAD4EAD5FAD2597ABA9BCA912966F
:102A80006D917D918D919C9115970E94C81D2B0190
:102A90003C0121962CAD3DAD4EAD5FAD2197E9AD2A
:102AA000FAAD66817781808591850E94C81D619607
:102AB0006CAF7DAF8EAF9FAF61972D962CAD3DADC6
:102AC0004EAD5FAD2D9767966CAD7DAD8EAD9FAD74
:102AD00067970E94B91C6B017C0161962CAD3DADDE
:102AE0004EAD5FAD6197C301B2010E94B91C9B015D
:102AF000AC01C701B6010E94C81D6FA778AB89ABB6
:102B00009AAB20E030E0A9010E94531C87FF09C066
:102B10008FA598A9A9A9BAA9B0588FA798ABA9ABB6
:102B2000BAAB2FE632E143E85AE36FA578A989A949
:102B30009AA90E94531C87FD3ACF29962CAD3DAD32
:102B40004EAD5FAD299721966CAD7DAD8EAD9FAD3D
:102B500021970E94C81D4B015C0125962CAD3DAD0F
:102B60004EAD5FAD25976DA97EA98FA998AD0E9446
:102B7000C81D6B017C01A5019401C301B2010E9433
:102B8000B91C2B013C01A701960167966CAD7DAD88
:102B90008EAD9FAD67970E94B91C9B01AC01C3012C
:102BA000B2010E94C81D2B013C0120E030E0A901C8
:102BB0000E94531C87FF04C077FA709477F87094D2
:102BC000A50194012D966CAD7DAD8EAD9FAD2D9779
:102BD0000E94B91C4B015C01A701960161966CAD86
:102BE0007DAD8EAD9FAD61970E94B91C9B01AC017C
:102BF000C501B4010E94C81D6B017C0120E030E0DA
:102C0000A9010E94531C87FF04C0F7FAF094F7F85B
:102C1000F0942FA538A949A95AA9C301B2010E946D
:102C2000351E4B015C0120E030E0A9010E94531CDD
:102C300087FDBDCE20E030E040E85FE3C501B40190
:102C40000E94A71E18160CF4B2CE2FA538A949A9C8
:102C50005AA9C701B6010E94351E6B017C0120E014
:102C600030E0A9010E94531C87FDA1CE20E030E096
:102C700040E85FE3C701B6010E94A71E18160CF4D6
:102C800096CE8CE090E00E94B21E7C01009709F481
:102C90008ECEEBA9FCA9DC01ED93FC93A501940178
:102CA0002D966CAD7DAD8EAD9FAD2D970E94B91C5C
:102CB0002DA93EA94FA958AD0E94C91DD701129652
:102CC0006D937D938D939C931597A50194016196C7
:102CD0006CAD7DAD8EAD9FAD61970E94B91C219604
:102CE0002CAD3DAD4EAD5FAD21970E94C91DF701E2
:102CF000668377838087918729AD3AAD33872287B2
:102D0000ABA9BCA91B96FC92EE921A97F901F1822D
:102D1000E082D80112968D909D90AD90BC90159751
:102D200016964D905D906D907C901997EC90119651
:102D3000FC90C8010E944E1FA501940125966CAD20
:102D40007DAD8EAD9FAD25970E94531C81110CC0A7
:102D5000A301920129966CAD7DAD8EAD9FAD2997F3
:102D60000E94531C882319F08701EF2891F663967F
:102D7000AEADBFAD63972D903C90F10122843384BA
:102D8000F2CD8701F5CDABADBCAD12960D90BC91E7
:102D9000A02DBCAFABAF2BAD3CAD2115310509F477
:102DA000A7C0D9018D909C90F40100851185D801B0
:102DB0006D917C916115710519F0C8010E9435066D
:102DC000F80111821082D40116966D907C906114E6
:102DD000710409F4BECDF3010081118120E030E0DF
:102DE000A901D80150966D917D918D919C91539739
:102DF0000E94A71E18160CF023CDF801C080D180C8
:102E0000E280F380A70196016481758186819781B4
:102E10000E94531C882359F000E010E09801B7018C
:102E2000A601D40118968D919C910E948405F3010E
:102E300000811181D80114962D903D904D905C90A9
:102E400017975096CC9050975196DC905197529688
:102E5000EC9052975396FC905397A20191011896CB
:102E60006D917D918D919C911B970E94531C8111B6
:102E7000ECCCF801F081FBA7D8011196BC91BFA75B
:102E8000F801F281FBABD8011396BC91BDABF80100
:102E9000F485F9AFD8011D96BC901D971E96AC9095
:102EA0001E971F961C917BA56FA59BA98DA9272F07
:102EB000362F492F582FBF2F6B2F7B2D8A2D912F07
:102EC0000E94531C882309F43FCD20E030E040E805
:102ED0005FE36C2D7D2D8E2D9F2D0E94531C811143
:102EE000F3CB00E010E020E83FE3B201A101CFCC3A
:102EF000E091F401F091F5010280F381E02D30972B
:102F000009F443C2A081B1818D919C9111970197E1
:102F100099F71896ED91FC910190F081E02D2196A2
:102F20001CAE1DAE1EAE1FAE219725961CAE1DAE6B
:102F30001EAE1FAE2597309709F444C10285138554
:102F40000115110509F43EC1C280D380E480F580EB
:102F5000D80112968D909D90AD90BC901597B6813A
:102F6000BBA727812FA720843184A5019401C70125
:102F7000B6010E94531C882309F418C1D801169683
:102F8000BC91BBAFF801F781FBABD8011896BC919F
:102F9000BDABF801F185F9AF20E030E0A9016BA5E8
:102FA0007FA5C1010E94531C882359F020E030E026
:102FB000A9016BAD7BA98DA999AD0E94531C81110C
:102FC00068C020E030E0A9016BA57FA5C1010E9487
:102FD000A71E18160CF04CC02BA526962FAF2697CF
:102FE0003FA52A963FAF2A972E962FAE2E97629630
:102FF0003FAE6297A7019601C501B4010E94C81DAA
:103000002B013C0126962FAD26972A963FAD2A9795
:103010002E964FAD2E9762965FAD62970E94B91CB7
:1030200020E030E040E05FE30E94B91C4B015C010E
:103030002BA53FA5A1016BAD7BA98DA999AD0E94E0
:10304000A71E20E030E040EC5FE3181624F020E0FB
:1030500030E040E450E4C301B2010E94351E9B0100
:10306000AC01C701B6010E94C91D6B017C0152C0B1
:103070008BAD26968FAF26979BA92A969FAF2A974E
:10308000ADA92E96AFAF2E97B9AD6296BFAF62973E
:10309000B1CF20E030E0A9016BA57FA5C1010E945E
:1030A000A71E18160CF086C020E030E0A9016BAD19
:1030B0007BA98DA999AD0E94A71E18160CF07AC0A5
:1030C0002BA53FA5A1016BAD7BA98DA999AD0E9450
:1030D000531CA7019601811145C0C501B4010E948E
:1030E000C81D4B015C0120E030E040E05FE30E943E
:1030F000B91C9B01AC01C701B6010E94C91D6B013F
:103100007C01A50194016BA57FA5C1010E94B91C9A
:103110004B015C01A7019601B401C5010E94B91CD5
:103120009B01AC0125966CAD7DAD8EAD9FAD259715
:103130000E94C91D25966CAF7DAF8EAF9FAF2597BE
:103140009401A50121966CAD7DAD8EAD9FAD21970B
:103150000E94C91D21966CAF7DAF8EAF9FAF2197A6
:10316000F801E9CEC501B4010E94C81D2B013C0144
:103170002BA53FA5A1016BAD7BA98DA999AD0E949F
:10318000C91D20E030E040E05FE30E94B91CA301CC
:1031900092010E94B91C4B015C0120E030E040E04C
:1031A0005FE3C301B2010E94B91C59CF8BA49FA455
:1031B0005101B0CFC12CD12C7601812C912CA12CA6
:1031C000B12CA8CF20E030E0A90121966CAD7DADF7
:1031D0008EAD9FAD21970E94531C882309F4D5C062
:1031E00021962CAD3DAD4EAD5FAD219725966CADD2
:1031F0007DAD8EAD9FAD25970E94351E6093310148
:1032000070933201809333019093340160910001F7
:1032100070910101CE0101960E9422074091250183
:10322000509126016091270170912801CE010796E7
:103230000E94E406409131015091320160913301C6
:1032400070913401CE010D960E94E406409129014F
:1032500050912A0160912B0170912C01CE0143966F
:103260000E94E40640912D0150912E0160912F01A2
:1032700070913001CE014F960E94E4061A8E198E8D
:103280001C8E1B8E1E8E1D8E6F8D78A16115710593
:1032900031F04BA15CA1CE0149960E94C306CE013C
:1032A00049960E946C06BE016D5E7F4F0E9490069B
:1032B0000E946C06BE01635F7F4F0E9490060E94D1
:1032C0006C06BE01695F7F4F0E9490060E946C06EB
:1032D000BE016F5F7F4F0E9490060E946C060E94A5
:1032E0007202CE0149960E942D06CE014F960E9491
:1032F0002D06CE0143960E942D06CE010D960E940A
:103300002D06CE0107960E942D06CE0101960E9441
:103310002D06C0902D01D0902E01E0902F01F0904D
:10332000300123E733E145E35BE3609131017091C4
:10333000320180913301909134010E94B91C4B01FC
:103340005C0129E832ED4EE75FE3C701B6010E9458
:10335000B91C9B01AC01C501B4010E94C91D609359
:103360002D0170932E0180932F0190933001A701BE
:1033700096010E94C81D60932501709326018093D9
:103380002701909328010C941B1160E070E0CB01A1
:1033900035CFEF920F931F93CF93DF93E80134E083
:1033A00047FD34E1042E000C550B57FF03C0519527
:1033B00041955109E32E022F242FAE010E940C1AD1
:1033C000CE01DF91CF911F910F91EF900895BB2710
:1033D0004A3031F4992322F4BDE2909581959F4FB4
:1033E0000C94F319BB27FB015527AA27880F991FB7
:1033F000AA1FA41710F0A41B83955051B9F7A05D24
:10340000AA3308F0A95DA193009779F7B111B193A0
:103410001192CB010C94431CA9E0B0E0E2E1FAE187
:103420000C94881D6A01F22EB02E102FFBE3AF2EF4
:10343000A01608F41BE31F5F012F27E0AE014F5FCA
:103440005F4F0E946B1BBC018981982F997091304E
:1034500009F43FC09BE2E1FC04C09E2D9170E0FCAA
:103460003AC05E2D5071E82FE87083FF46C084E0BB
:10347000911101C083E0EF2DE81B8F1508F0E0E00B
:10348000D6018E2F20E2552351F1992329F0D60140
:103490009C93C60101966C0196012D5F3F4FE2FEA1
:1034A00024C08EE4D6018C9391E411969C931197DD
:1034B00012968C93D9018E2F90E281111BC0E20FDE
:1034C000F32FF11D10828EEF9FEF2996ECE00C9404
:1034D000A41D9DE2C6CF90E2C4CF2D9381508111EF
:1034E000FCCFCE0ED11CE0E0D0CF8EE6D6018C937F
:1034F00091E6DBCF9D938150E0CF482F447082FF4F
:103500003DC084E0911101C083E08F1510F4EF2DD0
:10351000E81BD6018E2F20E2552309F1992329F0CB
:10352000D6019C93C60101966C0196012D5F3F4F19
:10353000E2FE1BC089E4D6018C938EE411968C9335
:10354000119786E412968C93D9018E2F90E28823EE
:1035500009F4B5CF9D938150FACF2D9381508111FD
:10356000FCCFCE0ED11CE0E0D9CF89E6D6018C93FA
:103570008EE611968C93119786E6E4CF9B0177FF38
:1035800002C030E020E0A1E0B0E0911102C0B0E064
:10359000A0E0F9013196AE0FBF1F8B2C912CBB2000
:1035A00009F461C05401EFEFAE1ABE0AAA0DBB1DAB
:1035B000FA161B0619F014F04F2D4A1B511188C042
:1035C000E3FC59C07601A42FB0E2A1114FC0C40E94
:1035D000D11C992309F45BC040E0D6011196F60195
:1035E00090836D01552309F448C0012F060F9A817D
:1035F000582F507184FF03C0913309F40150101605
:103600000CF047C0093008F008E0EEE2FE2E5B0146
:10361000A01AB10885019194819491082F3F320737
:1036200029F4D601FC92F60131966F0162177307F7
:1036300094F1021713077CF5DB01A21BB30BAA243C
:10364000A394B12CAC0EBD1EAA0DBB1D11968C917E
:1036500021503109D601119628153905F4F0F601EB
:1036600080836D01DBCFB12CA12CA0CFF701B193EA
:103670007F01A150AACF9111B0CFD601942F50E372
:1036800002C05D9391509111FCCFC40ED11C40E05B
:10369000ACCF01E0BACF80E3DBCF6217730731F420
:1036A000963388F4953311F4552369F0F60180833D
:1036B000FD01842F90E2811108C0A40FB11D1C925E
:1036C00090E080E002CF81E3F1CF91938150F3CF7E
:1036D000911183CF8ACF283008F027E03327DA0111
:1036E000990F311D87FD916000966105710539F4D0
:1036F00032602E5F3D9330E32A95E1F708959F3FB6
:1037000030F080387105610509F03C5F3C5F3D9306
:10371000913008F08068911DDF93CF931F930F9332
:10372000FF92EF92192F987F9695E92F969596958F
:10373000E90FFF27EE53FF4F99273327EE24FF248D
:10374000A701E70105900894079428F4360FE71EB7
:10375000F81E491F511D660F771F881F991F069479
:10376000A1F70590079428F4E70EF81E491F561F8D
:10377000C11D770F881F991F661F0694A1F705903A
:10378000079428F4F80E491F561FC71FD11D880F34
:10379000991F661F771F0694A1F70590079420F4E0
:1037A000490F561FC71FD81F990F661F771F881F05
:1037B0000694A9F784911095177041F0D695C79596
:1037C00057954795F794E7941A95C1F7E8E6F0E026
:1037D00068941590159135916591959105907FE2CA
:1037E0007395E118F10A430B560BC90BD009C0F7CA
:1037F000E10CF11E431F561FC91FD01D7EF470330C
:1038000011F48A95E6CFE894015030F0080F0AF4DD
:103810000027021708F4202F2395022F7A3328F06F
:1038200079E37D932A95E9F710C07D932A9589F66F
:10383000069497956795379517951794E118F10AAF
:10384000430B560BC90BD00998F023957E917395C5
:103850007A3308F070E37C932013B8F77E9170619F
:103860007D9330F0839571E37D9370E32A95E1F7C2
:103870001124EF90FF900F911F91CF91DF91992725
:1038800087FD90950895DC01FC01672F71917723E6
:10389000E1F7329704C07C916D9370836291AE170B
:1038A000BF07C8F308950E94951C08F481E00895AD
:1038B000E89409C097FB3EF49095809570956195CA
:1038C0007F4F8F4F9F4F9923A9F0F92F96E9BB2780
:1038D0009395F695879577956795B795F111F8CFFC
:1038E000FAF4BB0F11F460FF1BC06F5F7F4F8F4F67
:1038F0009F4F16C0882311F096E911C0772321F05D
:103900009EE8872F762F05C0662371F096E8862FF4
:1039100070E060E02AF09A95660F771F881FDAF74B
:10392000880F9695879597F90895990F0008550F78
:10393000AA0BE0E8FEEF16161706E807F907C0F035
:1039400012161306E407F50798F0621B730B840B3D
:10395000950B39F40A2661F0232B242B252B21F417
:1039600008950A2609F4A140A6958FEF811D811DB7
:1039700008950E94CC1C0C943D1D0E942F1D38F010
:103980000E94361D20F0952311F00C94261D0C94F6
:103990002C1D11240C94711D0E944E1D70F3959FD7
:1039A000C1F3950F50E0551F629FF001729FBB2736
:1039B000F00DB11D639FAA27F00DB11DAA1F649FD2
:1039C0006627B00DA11D661F829F2227B00DA11D85
:1039D000621F739FB00DA11D621F839FA00D611D0B
:1039E000221F749F3327A00D611D231F849F600D2C
:1039F000211D822F762F6A2F11249F5750409AF055
:103A0000F1F088234AF0EE0FFF1FBB1F661F771FE0
:103A1000881F91505040A9F79E3F510580F00C94AB
:103A2000261D0C94711D5F3FE4F3983ED4F38695F8
:103A300077956795B795F795E7959F5FC1F7FE2B4B
:103A4000880F911D9695879597F9089597F99F6727
:103A500080E870E060E008959FEF80EC0895002416
:103A60000A941616170618060906089500240A94E3
:103A700012161306140605060895092E0394000C69
:103A800011F4882352F0BB0F40F4BF2B11F460FFF8
:103A900004C06F5F7F4F8F4F9F4F089557FD905821
:103AA000440F551F59F05F3F71F04795880F97FB02
:103AB000991F61F09F3F79F08795089512161306BC
:103AC0001406551FF2CF4695F1DF08C016161706EB
:103AD0001806991FF1CF8695710561050894089520
:103AE000E894BB2766277727CB0197F908950E94B2
:103AF000B91DA59F900DB49F900DA49F800D911DA1
:103B0000112408952F923F924F925F926F927F926D
:103B10008F929F92AF92BF92CF92DF92EF92FF92DD
:103B20000F931F93CF93DF93CDB7DEB7CA1BDB0B89
:103B30000FB6F894DEBF0FBECDBF09942A8839882E
:103B400048885F846E847D848C849B84AA84B98435
:103B5000C884DF80EE80FD800C811B81AA81B98141
:103B6000CE0FD11D0FB6F894DEBF0FBECDBFED0155
:103B70000895A29FB001B39FC001A39F700D811D46
:103B80001124911DB29F700D811D1124911D089566
:103B90005058BB27AA270E94E01D0C943D1D0E948F
:103BA0002F1D38F00E94361D20F039F49F3F19F484
:103BB00026F40C942C1D0EF4E095E7FB0C94261DC6
:103BC000E92F0E944E1D58F3BA1762077307840746
:103BD000950720F079F4A6F50C94701D0EF4E0958D
:103BE0000B2EBA2FA02D0B01B90190010C01CA01B7
:103BF000A0011124FF27591B99F0593F50F4503E62
:103C000068F11A16F040A22F232F342F4427585F53
:103C1000F3CF469537952795A795F0405395C9F76B
:103C20007EF41F16BA0B620B730B840BBAF0915023
:103C3000A1F0FF0FBB1F661F771F881FC2F70EC0C2
:103C4000BA0F621F731F841F48F487957795679595
:103C5000B795F7959E3F08F0B0CF9395880F08F081
:103C60009927EE0F9795879508950E94491E0C9409
:103C70003D1D0E94361D58F00E942F1D40F029F472
:103C80005F3F29F00C94261D51110C94711D0C946A
:103C90002C1D0E944E1D68F39923B1F3552391F317
:103CA000951B550BBB27AA2762177307840738F0AB
:103CB0009F5F5F4F220F331F441FAA1FA9F335D008
:103CC0000E2E3AF0E0E832D091505040E695001CBC
:103CD000CAF72BD0FE2F29D0660F771F881FBB1F76
:103CE000261737074807AB07B0E809F0BB0B802D54
:103CF000BF01FF2793585F4F3AF09E3F510578F080
:103D00000C94261D0C94711D5F3FE4F3983ED4F390
:103D1000869577956795B795F7959F5FC9F7880F53
:103D2000911D9695879597F90895E1E0660F771FA5
:103D3000881FBB1F621773078407BA0720F0621B36
:103D4000730B840BBA0BEE1F88F7E09508950E9461
:103D5000951C08F48FEF0895EE0FFF1F0590F49166
:103D6000E02D09940F931F93CF93DF938230910539
:103D700010F482E090E0E091F801F091F90130E078
:103D800020E0B0E0A0E0309799F42115310509F466
:103D90004AC0281B390B24303105D8F58A819B8114
:103DA0006115710589F1FB0193838283FE0111C0C6
:103DB000408151810281138148175907E0F048176B
:103DC000590799F4109761F012960C931297139675
:103DD0001C933296CF01DF91CF911F910F910895DF
:103DE0000093F8011093F901F4CF2115310551F03A
:103DF0004217530738F0A901DB019A01BD01DF0129
:103E0000F801C1CFEF01F9CF9093F9018093F80148
:103E1000CDCFFE01E20FF31F819391932250310920
:103E200039832883D7CF2091F6013091F701232BD6
:103E300041F420910401309105013093F701209362
:103E4000F60120910201309103012115310541F461
:103E50002DB73EB74091060150910701241B350B49
:103E6000E091F601F091F701E217F307A0F42E1BA1
:103E70003F0B2817390778F0AC014E5F5F4F2417CE
:103E8000350748F04E0F5F1F5093F7014093F6013E
:103E9000819391939FCFF0E0E0E09CCFCF93DF93AD
:103EA0000097E9F0FC01329713821282A091F80189
:103EB000B091F901ED0130E020E01097A1F42081EC
:103EC0003181820F931F2091F6013091F70128175D
:103ED000390709F061C0F093F701E093F601DF9133
:103EE000CF910895EA01CE17DF07E8F54A815B819B
:103EF0009E0141155105B1F7E901FB83EA83499120
:103F00005991C40FD51FEC17FD0761F48081918191
:103F10000296840F951FE90199838883828193819A
:103F20009B838A83F0E0E0E012968D919C91139739
:103F30000097B9F52D913C911197CD010296820F12
:103F4000931F2091F6013091F7012817390739F6B0
:103F5000309751F51092F9011092F801B093F701E2
:103F6000A093F601BCCFD383C28340815181840FDB
:103F7000951FC817D90761F44E5F5F4F88819981FB
:103F8000480F591F518340838A819B819383828389
:103F90002115310509F0B0CFF093F901E093F80154
:103FA0009ECFFD01DC01C0CF13821282D7CFB0E0DB
:103FB000A0E0EDEDFFE10C94841D8C01009751F41D
:103FC000CB010E94B21E8C01C801CDB7DEB7E0E183
:103FD0000C94A01DFC01E60FF71F9C012250310933
:103FE000E217F30708F49DC0D901CD91DC91119738
:103FF000C617D70798F0C530D10530F3CE01049726
:104000008617970708F3C61BD70B2297C193D19346
:104010006D937C93CF010E944E1FD6CF5B01AC1AEB
:10402000BD0A4C018C0E9D1EA091F801B091F901C2
:10403000512C412CF12CE12C109731F58091F60197
:104040009091F7018815990509F05CC0461657064E
:1040500008F058C08091020190910301009741F44B
:104060008DB79EB74091060150910701841B950BB7
:10407000E817F90708F055C0F093F701E093F6014F
:10408000F90171836083A0CF8D919C911197129655
:104090006C90129713967C901397A815B90559F553
:1040A0006C0142E0C40ED11CCA14DB0420F1AC0147
:1040B0004A195B09DA011296159780F062827382C1
:1040C00051834083D9016D937C93E114F10471F025
:1040D000D7011396FC93EE93129776CF22968C0F0E
:1040E0009D1FF90191838083F301EFCFF093F901D4
:1040F000E093F80169CF4816590608F42C017D01B8
:10410000D3019ACFCB010E94B21E7C01009749F0E7
:10411000AE01B8010E949420C8010E944E1F870181
:1041200053CF10E000E050CFFB01DC0102C0019052
:104130000D9241505040D8F70895FB01DC010190E9
:104140000D920020E1F70895F894FFCF0A000000D7
:10415000FA018000000000003E0345028B028B0341
:0C416000FC029A02AE020D0A003B0000B7
:107E0000112484B714BE81FFF0D085E080938100F7
:107E100082E08093C00088E18093C10086E0809377
:107E2000C20080E18093C4008EE0C9D0259A86E02C
:107E300020E33CEF91E0309385002093840096BBD3
:107E4000B09BFECF1D9AA8958150A9F7CC24DD24C4
:107E500088248394B5E0AB2EA1E19A2EF3E0BF2EE7
:107E6000A2D0813461F49FD0082FAFD0023811F036
:107E7000013811F484E001C083E08DD089C08234E0
:107E800011F484E103C0853419F485E0A6D080C0E4
:107E9000853579F488D0E82EFF2485D0082F10E0AE
:107EA000102F00270E291F29000F111F8ED06801E7
:107EB0006FC0863521F484E090D080E0DECF843638
:107EC00009F040C070D06FD0082F6DD080E0C81688
:107ED00080E7D80618F4F601B7BEE895C0E0D1E017
:107EE00062D089930C17E1F7F0E0CF16F0E7DF06D8
:107EF00018F0F601B7BEE89568D007B600FCFDCFD4
:107F0000A601A0E0B1E02C9130E011968C91119780
:107F100090E0982F8827822B932B1296FA010C0160
:107F200087BEE89511244E5F5F4FF1E0A038BF0790
:107F300051F7F601A7BEE89507B600FCFDCF97BE46
:107F4000E89526C08437B1F42ED02DD0F82E2BD052
:107F50003CD0F601EF2C8F010F5F1F4F84911BD097
:107F6000EA94F801C1F70894C11CD11CFA94CF0C13
:107F7000D11C0EC0853739F428D08EE10CD085E9AC
:107F80000AD08FE07ACF813511F488E018D01DD067
:107F900080E101D065CF982F8091C00085FFFCCF94
:107FA0009093C60008958091C00087FFFCCF809118
:107FB000C00084FD01C0A8958091C6000895E0E648
:107FC000F0E098E1908380830895EDDF803219F02E
:107FD00088E0F5DFFFCF84E1DECF1F93182FE3DFCA
:107FE0001150E9F7F2DF1F91089580E0E8DFEE27F6
:047FF000FF270994CA
:027FFE00040479
:00000001FF
