:100000000C94B2000C94DA000C94DA000C94DA0030
:100010000C94DA000C94DA000C94DA000C94DA00F8
:100020000C94DA000C94DA000C94DA000C94DA00E8
:100030000C94DA000C94DA000C94DA000C94DA00D8
:100040000C9462070C94DA000C9430070C940A07A5
:100050000C94DA000C94DA000C94DA000C94DA00B8
:100060000C94DA000C94DA0000407A10F35A00A0E5
:10007000724E18090010A5D4E80000E87648170071
:1000800000E40B54020000CA9A3B000000E1F505B1
:10009000000080969800000040420F000000A086FB
:1000A00001000000102700000000E803000000002D
:1000B0006400000000000A000000000001000000D1
:1000C00000002C76D888DC674F0823DFC1DFAE59EB
:1000D000E1B1B796E5E3E453C63AE651997696E87E
:1000E000E6C28426EB898C9B62ED407C6FFCEFBC02
:1000F0009C9F40F2BAA56FA5F490055A2AF75C932D
:100100006B6CF9676DC11BFCE0E40D47FEF520E662
:10011000B500D0ED902E0300943577050080841E45
:10012000080000204E0A000000C80C333333330FA0
:10013000986E12831141EF8D2114893BE65516CF3D
:10014000FEE6DB18D1844B381BF77C1D901DA4BB49
:10015000E424203284725E228100C9F124ECA1E5FE
:100160003D27AC0711241FBECFEFD8E0DEBFCDBFC7
:1001700021E0A0E2B1E001C01D92A63FB207E1F785
:1001800011E0A0E0B1E0E6E1FDE302C005900D92D0
:10019000A032B107D9F710E0C2EBD0E004C021973C
:1001A000FE010E94911CC13BD107C9F70E94010AC0
:1001B0000C94891E0C9400004F925F926F927F9274
:1001C0008F929F92AF92BF92CF92DF92EF92FF9267
:1001D0000F931F93CF93DF93CDB7DEB76C970FB616
:1001E000F894DEBF0FBECDBF6D877E878F87988B5B
:1001F000298B3A8B4B8B5C8B2BA93CA94DA95EA913
:100200006BAD7CAD8DAD9EAD0E94AD1B6D8B7E8BBD
:100210008F8B988F2D853E854F855889C801B701F2
:100220000E94AD1B6D837E838F8398872FA538A98D
:1002300049A95AA96FA978AD89AD9AAD0E94AD1BA5
:10024000698F7A8F8B8F9C8F29893A894B895C893A
:10025000C601B5010E94AD1B69877A878B879C8791
:100260002D813E814F8158856D897E898F89988D3A
:100270000E94B81A4B015C0129853A854B855C8543
:10028000698D7A8D8B8D9C8D0E94B81A9B01AC0173
:10029000C501B4010E94AD1B2B013C0120E030E000
:1002A000A9010E94521A87FF04C077FA709477F868
:1002B00070942FE632E143E85AE3C301B2010E9491
:1002C000521A87FDE0C02BA93CA94DA95EA96989F6
:1002D0007A898B899C890E94AD1B4B015C012FA5FB
:1002E00038A949A95AA96D857E858F8598890E946C
:1002F000AD1B69837A838B839C83A5019401698DEF
:100300007A8D8B8D9C8D0E94B81A6B017C0129819E
:100310003A814B815C816D897E898F89988D0E949D
:10032000B81A9B01AC01C701B6010E94AD1B6B015D
:100330007C0120E030E0A9010E94521A87FF04C02E
:10034000F7FAF094F7F8F094A50194016D817E819D
:100350008F8198850E94B81A4B015C0129813A81EE
:100360004B815C8169857A858B859C850E94B81A52
:100370009B01AC01C501B4010E94AD1B4B015C01A6
:1003800020E030E0A9010E94521A87FF04C0B7FAAA
:10039000B094B7F8B094A3019201C701B6010E94CE
:1003A0001A1C6B017C0120E030E0A9010E94521A66
:1003B00087FD69C020E030E040E85FE3C701B60197
:1003C0000E948C1C18160CF45EC0A3019201C5019A
:1003D000B4010E941A1C4B015C0120E030E0A9012D
:1003E0000E94521A87FD4FC020E030E040E85FE3F2
:1003F000C501B4010E948C1C18160CF444C0A7015E
:1004000096016D817E818F8198850E94B81A2D8515
:100410003E854F8558890E94AE1B2196EEADFFADFB
:1004200021976083718382839383A70196016985F5
:100430007A858B859C850E94B81A29893A894B89CF
:100440005C890E94AE1B2396EEADFFAD23976083BF
:1004500071838283938381E06C960FB6F894DEBF3C
:100460000FBECDBFDF91CF911F910F91FF90EF9005
:10047000DF90CF90BF90AF909F908F907F906F90C4
:100480005F904F90089580E0E7CFAF92BF92CF92F8
:10049000DF92EF92FF920F931F93CF93DF936C0144
:1004A0007B018B01040F151FEB015E01AE18BF0825
:1004B000C017D10759F06991D601ED91FC910190D7
:1004C000F081E02DC6010995892B79F7C501DF91EF
:1004D000CF911F910F91FF90EF90DF90CF90BF9041
:1004E000AF900895CF93DF93FC01448155816081E3
:1004F000718185E391E00E944502EC0142E050E009
:100500006AE171E085E391E00E9445028C0F9D1F36
:10051000DF91CF910895FC01538D448D252F30E05C
:10052000842F90E0821B930B541710F0CF96089500
:1005300001970895FC01918D828D981761F0A28D2D
:10054000AE0FBF2FB11D5D968C91928D9F5F9F73F3
:10055000928F90E008958FEF9FEF0895FC01918DA9
:10056000828D981731F0828DE80FF11D858D90E016
:1005700008958FEF9FEF0895FC01918D228D892FB3
:1005800090E0805C9F4F821B91098F73992708959B
:1005900085E391E00E94BC0221E0892B09F420E070
:1005A000822F089580E090E0892B29F00E94C802F4
:1005B00081110C9400000895FC01A48DA80FB92F9F
:1005C000B11DA35ABF4F2C91848D90E001968F737B
:1005D0009927848FA689B7892C93A089B1898C919A
:1005E000837080648C93938D848D981306C00288E9
:1005F000F389E02D80818F7D80830895EF92FF92B3
:100600000F931F93CF93DF93EC0181E0888F9B8D35
:100610008C8D98131AC0E889F989808185FF15C0EF
:100620009FB7F894EE89FF896083E889F989808112
:100630008370806480839FBF81E090E0DF91CF91E1
:100640001F910F91FF90EF900895F62E0B8D10E003
:100650000F5F1F4F0F731127E02E8C8D8E110CC072
:100660000FB607FCFACFE889F989808185FFF5CFBD
:10067000CE010E94DC02F1CFEB8DEC0FFD2FF11DBE
:10068000E35AFF4FF0829FB7F8940B8FEA89FB89FA
:1006900080818062CFCFCF93DF93EC01888D882358
:1006A000B9F0AA89BB89E889F9898C9185FD03C0D5
:1006B000808186FD0DC00FB607FCF7CF8C9185FFBA
:1006C000F2CF808185FFEDCFCE010E94DC02E9CF21
:1006D000DF91CF9108953FB7F894809125019091D3
:1006E0002601A0912701B091280126B5A89B05C03D
:1006F0002F3F19F00196A11DB11D3FBFBA2FA92FA1
:10070000982F8827BC01CD01620F711D811D911D9D
:1007100042E0660F771F881F991F4A95D1F7089509
:100720008F929F92AF92BF92CF92DF92EF92FF9201
:100730000F931F93CF93DF93EC018A819B818230CB
:10074000910509F453C03CF40197D9F1E12CF12C47
:1007500000E010E03CC08330910509F49EC004978E
:10076000A9F7888199818130910509F4EFC002973A
:1007700069F708851985C8010E9490036B017C0107
:100780000A84DB85C02D20E030E0A9010E948C1C8A
:10079000181654F0CE010E94900320E030E0A90129
:1007A0000E948C1C181694F6CE010E9490039B01A7
:1007B000AC01C701B6010E948C1C18160CF0BDCF0D
:1007C000ECC0EC81FD81E088F18802891389B701D2
:1007D000C801DF91CF911F910F91FF90EF90DF90B3
:1007E000CF90BF90AF909F908F900895888199810E
:1007F0008130910539F1029709F0A8CFEC81FD8194
:10080000A088B188C288D388EE81FF81E088F18812
:100810000289138920E030E0A901B501C6010E94D8
:100820008C1C181654F020E030E0A901B701C80173
:100830000E948C1C18160CF089CF9501A601B701F7
:10084000C80124C0EC81FD81A088B188C288D3880A
:1008500020E030E0A901B501C6010E948C1C1816E9
:100860000CF074CFEE81FF81E088F1880289138952
:1008700020E030E0A901B701C8010E948C1C1816C5
:100880000CF064CF9701A801B501C6010E94521A6D
:1008900087FF9DCF750186019ACF8881998181302C
:1008A000910551F1029709F051CFEC81FD81E0886B
:1008B000F188028913890884D985C02D20E030E0B1
:1008C000A901B701C8010E948C1C18165CF0CE016A
:1008D0000E94900320E030E0A9010E948C1C1816B1
:1008E0000CF034CFCE010E9490039701A8010E9422
:1008F000521A87FF22CF6BCFEC81FD81E088F1880F
:100900000289138920E030E0A901B701C8010E94E3
:100910008C1C18160CF01ACF0884D985C02DCE0176
:100920000E9490034B015C0120E030E0A9010E948D
:100930008C1C18160CF00ACF9701A801C501B40150
:100940000E948C1C18160CF0F8CE41CF0885198532
:10095000C8010E9490036B017C0120E030E0A901F6
:100960000E948C1C18160CF0F1CE0A84DB85C02D79
:10097000CE010E9490034B015C0120E030E0A90110
:100980000E948C1C18160CF0E1CEA5019401C70141
:10099000B6010E94521A87FFD0CEE801CECEFC01EC
:1009A0006115710589F04115510571F081E090E004
:1009B0009183808382E090E0938382837583648354
:1009C0005783468381E0089580E00895FC011182F9
:1009D0001082138212821582148217821682118667
:1009E00010861386128608950F931F93CF93DF937B
:1009F000EC018B0184E090E00E94971C0097D1F0FD
:100A0000FC011183008313821282E881F9813097FF
:100A100049F49983888381E0DF91CF911F910F91F1
:100A20000895F9012281338121153105D1F793838E
:100A30008283F1CF80E0F0CF0F931F93CF93DF93AA
:100A4000EC018B0184E090E00E94971C0097D1F0AC
:100A5000FC011183008313821282EE81FF813097A3
:100A600049F49F838E8381E0DF91CF911F910F9195
:100A70000895F9012281338121153105D1F793833E
:100A80008283F1CF80E0F0CF8F929F92AF92BF929E
:100A9000CF92DF92EF92FF920F931F93CF93DF934A
:100AA000EC014A015B01680179018CE090E00E9451
:100AB000971CFC0180E0309799F0118210828282AD
:100AC0009382A482B582C682D782E086F18613869D
:100AD0001286A881B981109789F4F983E88381E0AF
:100AE000DF91CF911F910F91FF90EF90DF90CF900A
:100AF000BF90AF909F908F900895DC011A968D91D2
:100B00009C911B970097C9F7B183A0831B96FC9318
:100B1000EE931A97E4CF0F931F93CF93DF93EC01DB
:100B20008B0184E090E00E94971C0097D1F0FC01BB
:100B30001183008313821282EC81FD81309749F486
:100B40009D838C8381E0DF91CF911F910F91089558
:100B5000F9012281338121153105D1F793838283F5
:100B6000F1CF80E0F0CF0F931F93CF93DF93EC0191
:100B70008B0184E090E00E94971C0097D1F0FC016B
:100B80001183008313821282E881F981309749F43E
:100B90009983888381E0DF91CF911F910F91089510
:100BA000F9012281338121153105D1F793838283A5
:100BB000F1CF80E0F0CFCF93DF93EC018881998172
:100BC000009711F00E94331D198218821D821C8229
:100BD0001B821A82DF91CF910895FC01808191815F
:100BE000009711F00C94331D0895CF93DF93EB0120
:100BF0006A857B856115710511F00E94F505CE01AE
:100C0000DF91CF910C94331D0F931F93CF93DF93FC
:100C1000EC0188819981009759F02A813B81261740
:100C2000370730F081E0DF91CF911F910F91089548
:100C30008B016F5F7F4F0E94BC1D009759F0998315
:100C400088831B830A832C813D81232B59F7FC0168
:100C50001082E8CF80E0E7CF0F931F93CF93DF930D
:100C6000EC010C811D810F5F1F4FB8010E9404062B
:100C7000882391F0288139818C819D816DE171E01B
:100C8000820F931F0E94821E1D830C83CE01DF9171
:100C9000CF911F910F910895CE010E94DB05F6CFF1
:100CA000CF92DF92EF92FF920F931F93CF93DF9338
:100CB000CDB7DEB7A1970FB6F894DEBF0FBECDBF9C
:100CC0007C01CB01BA01F7011182108213821282DA
:100CD000158214828E010F5F1F4F22E044E00E94B4
:100CE000FD176C01009771F0FC0101900020E9F7FD
:100CF00031978F01081B190BB801C7010E94040628
:100D0000811112C0C7010E94DB05A1960FB6F894AD
:100D1000DEBF0FBECDBFDF91CF911F910F91FF902E
:100D2000EF90DF90CF900895F70115830483B6010B
:100D3000808191810E94821EE8CFEF92FF920F93F3
:100D40001F93CF93DF93EC01FB01E080F180E1146E
:100D5000F10411F10481158101151105A9F08C81AF
:100D60009D81080F191FB801CE010E940406882337
:100D700099F0288139818C819D81B701820F931F61
:100D80000E94821E1D830C83CE01DF91CF911F91A3
:100D90000F91FF90EF900895CE010E94DB05F4CFF4
:100DA000EF92FF920F931F93CF93DF93EC01198281
:100DB00018821B821A821D821C828617970719F1DE
:100DC000FB010081118101151105E9F0E480F58036
:100DD000B7010E940406811109C0CE01DF91CF91B5
:100DE0001F910F91FF90EF900C94DB05FD82EC8238
:100DF000B80188819981DF91CF911F910F91FF9068
:100E0000EF900C94821EDF91CF911F910F91FF9074
:100E1000EF9008951F920F920FB60F9211242F9307
:100E20003F934F935F936F937F938F939F93AF9372
:100E3000BF93EF93FF9385E391E00E94DC02FF9163
:100E4000EF91BF91AF919F918F917F916F915F9142
:100E50004F913F912F910F900FBE0F901F901895BB
:100E60001F920F920FB60F9211242F938F939F937F
:100E7000EF93FF93E0914501F09146018081E0916D
:100E80004B01F0914C0182FD1BC0908180914E017D
:100E90008F5F8F7320914F01821741F0E0914E01D7
:100EA000F0E0EB5CFE4F958F80934E01FF91EF9148
:100EB0009F918F912F910F900FBE0F901F901895BB
:100EC0008081F4CF1F920F920FB60F9211242F93AF
:100ED0003F938F939F93AF93BF9380912101909104
:100EE0002201A0912301B09124013091200123E03F
:100EF000230F2D3758F50196A11DB11D2093200118
:100F00008093210190932201A0932301B0932401A7
:100F10008091250190912601A0912701B09128018F
:100F20000196A11DB11D8093250190932601A093E8
:100F30002701B0932801BF91AF919F918F913F916D
:100F40002F910F900FBE0F901F90189526E8230F3A
:100F50000296A11DB11DD2CF4F925F926F927F92E8
:100F60008F929F92AF92BF92CF92DF92EF92FF92B9
:100F7000E5E3F1E01382128288EE93E0A0E0B0E0B6
:100F800084839583A683B7838CE091E091838083EB
:100F900085EC90E09587848784EC90E0978786873E
:100FA00080EC90E0918B808B81EC90E0938B828B36
:100FB00082EC90E0958B848B86EC90E0978B868B0F
:100FC000118E128E138E148E86E090E00E94971C74
:100FD000FC01118210821382128215821482909376
:100FE000F1018093F00184E190E00E94971CFC01E4
:100FF00080E090E0A0EAB1EC80839183A283B38388
:1010000084839583A683B783812C912CA12C80ECBB
:10101000B82E80869186A286B386C12CD12C90E80A
:10102000E92E9FEBF92EC486D586E686F786108AD0
:10103000118A128A138AF093EF01E093EE0184E1A2
:1010400090E00E94971CFC0180829182A282B38270
:10105000C482D582E682F782C086D186E286F38694
:101060001486158616861786108A118A128A138AA4
:101070009093ED018093EC0184E190E00E94971C35
:10108000FC01C082D182E282F38214821582168230
:1010900017821086118612861386C12CD12C20E867
:1010A000E22E2FE3F22EC486D586E686F786108AD6
:1010B000118A128A138A9093EB018093EA0184E1EA
:1010C00090E00E94971CFC01108211821282138210
:1010D000C482D582E682F782C086D186E286F38614
:1010E000C12CD12CE12C30E4F32EC486D586E686C3
:1010F000F786108A118A128A138A9093E9018093E5
:10110000E80184E190E00E94971CFC0180E090E0FF
:10111000A0E0BFE380839183A283B383C482D5829E
:10112000E682F78280E090E0A0EAB1E480879187D0
:10113000A287B38784879587A687B787108A118A85
:10114000128A138AF093E701E093E60184E190E0CC
:101150000E94971CFC0180E090E0A0E2B2EC80834A
:101160009183A283B38384839583A683B783412C21
:10117000512C40E8642E40EC742E408651866286E5
:10118000738684869586A686B786108A118A128A07
:10119000138AF093E501E093E40184E190E00E947A
:1011A000971CFC0140825182628273828482958204
:1011B000A682B78280869186A286B386148615861B
:1011C00016861786108A118A128A138A9093E30171
:1011D0008093E20184E190E00E94971CFC018082F0
:1011E0009182A282B382148215821682178210869F
:1011F000118612861386C486D586E686F786108AFF
:10120000118A128A138A9093E1018093E00184E1AC
:1012100090E00E94971CFC011082118212821382BE
:10122000C482D582E682F782C086D186E286F386C2
:10123000812C912C50E8A52E50E4B52E84869586FD
:10124000A686B786108A118A128A138A9093DF01C4
:101250008093DE0184E190E00E94971CFC01C08233
:10126000D182E282F38284829582A682B78280E074
:1012700090E0A0E2B2E480879187A287B387848759
:101280009587A687B787108A118A128A138AF093E6
:10129000DD01E093DC0184E190E00E94971CFC01F9
:1012A0001082118212821382148215821682178292
:1012B0001086118612861386812C912C68ECA62E3E
:1012C00061E4B62E84869586A686B786108A118A32
:1012D000128A138A9093DB018093DA0184E190E013
:1012E0000E94971CFC011082118212821382848258
:1012F0009582A682B78280869186A286B386C12C0B
:10130000D12C78E4E72E72E4F72EC486D586E686E3
:10131000F786108A118A128A138A9093D9018093D2
:10132000D80184E190E00E94971CFC0180829182A8
:10133000A282B382C482D582E682F782C086D18639
:10134000E286F386812C912CA6E9AA2EA2E4BA2E7D
:1013500084869586A686B786108A118A128A138A91
:101360009093D7018093D60184E190E00E94971C6E
:10137000FC01C082D182E282F38284829582A682BD
:10138000B78280869186A286B386C12CD12CB8EC18
:10139000EB2EB2E4FB2EC486D586E686F786108A4D
:1013A000118A128A138A9093D5018093D40184E123
:1013B00090E00E94971CFC0180829182A282B382FD
:1013C000C482D582E682F782C086D186E286F38621
:1013D000C486D586E686F786108A118A128A138A11
:1013E0009093D3018093D201FF90EF90DF90CF9044
:1013F000BF90AF909F908F907F906F905F904F9035
:101400000895CF93DF93CDB7DEB7CC54D1090FB693
:10141000F894DEBF0FBECDBF789484B5826084BDE2
:1014200084B5816084BD85B5826085BD85B58160E8
:1014300085BD80916E00816080936E001092810066
:101440008091810082608093810080918100816021
:1014500080938100809180008160809380008091E2
:10146000B10084608093B1008091B000816080936E
:10147000B00080917A00846080937A0080917A0035
:10148000826080937A0080917A00816080937A00F4
:1014900080917A00806880937A001092C100E09178
:1014A0004501F091460182E08083E0914101F09195
:1014B00042011082E0914301F09144018FEC80835E
:1014C00010924D01E0914901F0914A0186E080833C
:1014D000E0914701F0914801808180618083E09133
:1014E0004701F0914801808188608083E091470145
:1014F000F0914801808180688083E0914701F091FC
:10150000480180818F7D808388E090E00E94971C55
:101510008C01EE24E394F12CDC01ED92FC92FC01B1
:101520001282138214821582178216822091EE0194
:101530003091EF013AA329A3B9010E941C058091C3
:10154000EC019091ED019EA78DA7BC01C8010E94FE
:101550001C05A091EA01B091EB01BEA3ADA3BD01B2
:10156000C8010E941C05E091E801F091E901F8A78B
:10157000EFA3BF01C8010E941C052091E601309134
:10158000E7013CA72BA7B901C8010E941C054090A8
:10159000F0015090F101B801C2010E94B30588E04A
:1015A00090E00E94971C8C0182E090E0D8018D931E
:1015B0009C93F8011282138214821582178216827C
:1015C0002091E4013091E50138AB2FA7B901C801A2
:1015D0000E941C058091E2019091E3019CAB8BABD2
:1015E000BC01C8010E941C05A091E001B091E1017D
:1015F000B8AFAFABBD01C8010E941C05E091DE0190
:10160000F091DF01FCAFEBAFBF01C8010E941C05E8
:101610002091DC013091DD0121963FAF2EAF219763
:10162000B901C8010E941C05B801C2010E94B3059E
:101630008AE090E00E94971C8C01DC01ED92FC9204
:10164000FC0112821382148215821782168282E0B4
:1016500090E00E94971CDC011D921C92F80191877A
:1016600080872090DA013090DB01B101C8010E942F
:101670001C05C090D801D090D901B601C8010E94C4
:101680001C052091D6013091D7013E8F2D8FB901D5
:10169000C8010E941C058091D4019091D501259626
:1016A0009FAF8EAF2597BC01C8010E941C05A09179
:1016B000D201B091D3012B96BFAFAEAF2B97BD0136
:1016C000C8010E941C0584E090E00E94971C3C0128
:1016D000009709F459C0FC01118300831382128220
:1016E000D8011696BC912C96BFAF2C97F801F781C4
:1016F0002D96FFAF2D97EB2EFF2EE114F104C1F1D3
:101700002C960FAD2C972D961FAD2D970115110519
:1017100051F1D8011296AD90BC901397A114B10469
:1017200011F1ED91FC912796FFAFEEAF2797D50110
:101730008D909C902081318142815381F4016081A0
:101740007181828193810E94521A87FF0AC0D80159
:101750008D929C9227962EAD3FAD2797F501318350
:1017600020838501D3CFD7011296ED90FC90C5CF91
:10177000D2011296ED91FC911397309709F068C44D
:1017800013967C926E92129782E090E00E94971CD2
:101790005C01FC011182108282E090E00E94971CA3
:1017A0003C01DC011D921C9282E090E00E94971C9B
:1017B0004C01FC011182108282E090E00E94971C93
:1017C0008C01DC011D921C9282E090E00E94971C2B
:1017D00027969FAF8EAF2797FC01118210828CE075
:1017E00090E00E94971C7C010E94E6044FA558A936
:1017F00069A17AA1C7010E94CF042B966EAD7FAD7F
:101800002B9727968EAD9FAD27970E94F40487E013
:1018100090E00E94971CFC0181E090E0918380831E
:101820001282F482E38227962EAD3FAD279736834E
:101830002583BF01C2010E948B058CE090E00E94CD
:10184000971C7C010E94E6044FA558A96DA57EA5B2
:10185000C7010E94CF0425966EAD7FAD2597C801C4
:101860000E94F40487E090E00E94971CFC0182E053
:1018700090E0918380831282F482E3821683058351
:10188000BF01C2010E948B058CE090E00E94971C72
:101890007C010E94E6044FA558A96DA17EA1C70155
:1018A0000E94CF046D8D7E8DC4010E94F40487E0F8
:1018B00090E00E94971CFC0183E090E0918380837C
:1018C0001282F482E38296828582BF01C2010E9465
:1018D0008B058CE090E00E94971C7C010E94E6043E
:1018E0004FA558A96FA178A5C7010E94CF046D8D9F
:1018F0007E8DC4010E94F40487E090E00E94971C52
:10190000FC0184E090E0918380831282F482E38280
:1019100096828582BF01C2010E948B058CE090E017
:101920000E94971C7C010E94E6044FA558A96BA554
:101930007CA5C7010E94CF04B601C3010E94F40434
:1019400087E090E00E94971CFC0185E090E0918385
:1019500080831282F482E38276826582BF01C201B3
:101960000E948B058CE090E00E94971C7C010E94F5
:10197000E6044BA95CA969A17AA1C7010E94CF0422
:1019800025966EAD7FAD2597C8010E94F40487E0CF
:1019900090E00E94971CFC0186E090E09183808398
:1019A0001282F482E38216830583BF01C2010E9482
:1019B0008B058CE090E00E94971C7C010E94E6045D
:1019C0004BA95CA96DA57EA5C7010E94CF042596F1
:1019D0006EAD7FAD2597C8010E94F40487E090E0CA
:1019E0000E94971CFC0187E090E091838083128223
:1019F000F482E38216830583BF01C2010E948B0536
:101A00008CE090E00E94971C8C010E94E6044BA998
:101A10005CA96DA17EA1C8010E94CF046D8D7E8D51
:101A2000C4010E94F40487E090E00E94971CFC012E
:101A300088E090E0918380831282148303839682EE
:101A40008582BF01C2010E948B058CE090E00E945C
:101A5000971C8C010E94E6044BA95CA96FA178A594
:101A6000C8010E94CF04B601C3010E94F40487E0BC
:101A700090E00E94971CFC0189E090E091838083B4
:101A800012821483038376826582BF01C2010E94A1
:101A90008B058CE090E00E94971C8C010E94E6046C
:101AA0004BA95CA96BA57CA5C8010E94CF04B60117
:101AB000C3010E94F40487E090E00E94971CFC019F
:101AC0008AE090E09183808312821483038376827C
:101AD0006582BF01C2010E948B058CE090E00E94EC
:101AE000971C8C010E94E6044FA958AD69A17AA108
:101AF000C8010E94CF046D8D7E8DC4010E94F40444
:101B000087E090E00E94971CFC018BE090E09183BD
:101B1000808312821483038396828582BF01C2016F
:101B20000E948B058CE090E00E94971C8C010E9423
:101B3000E6044FA958AD6DA57EA5C8010E94CF044B
:101B40006D8D7E8DC4010E94F40487E090E00E94B8
:101B5000971CFC018CE090E09183808312821483B7
:101B6000038396828582BF01C2010E948B058CE0AF
:101B700090E00E94971C8C010E94E6044FA958AD8A
:101B80006DA17EA1C8010E94CF04B601C3010E94CD
:101B9000F40487E090E00E94971CFC018DE090E047
:101BA0009183808312821483038376826582BF01CE
:101BB000C2010E948B058CE090E00E94971C8C0172
:101BC0000E94E6044FA958AD6FA178A5C8010E94F4
:101BD000CF04B101C5010E94F40487E090E00E94A7
:101BE000971CFC018EE090E0918380831282148325
:101BF0000383B682A582BF01C2010E948B058CE0DF
:101C000090E00E94971C8C010E94E6044FA958ADF9
:101C10006BA57CA5C8010E94CF04B101C5010E943B
:101C2000F40487E090E00E94971CFC018FE090E0B4
:101C300091838083128214830383B682A582BF01BD
:101C4000C2010E948B058CE090E00E94971C8C01E1
:101C50000E94E6044BAD5CAD69A17AA1C8010E9467
:101C6000CF046D8D7E8DC4010E94F40487E090E066
:101C70000E94971CFC0180E190E091838083128296
:101C80001483038396828582BF01C2010E948B0563
:101C90008CE090E00E94971C8C010E94E6044BAD02
:101CA0005CAD6DA57EA5C8010E94CF04B601C3013D
:101CB0000E94F40487E090E00E94971CFC0181E1FF
:101CC00090E09183808312821483038376826582FD
:101CD000BF01C2010E948B058CE090E00E94971C1E
:101CE0008C010E94E6044BAD5CAD6DA17EA1C801E4
:101CF0000E94CF04B101C5010E94F40487E090E086
:101D00000E94971CFC0182E190E091838083128203
:101D100014830383B682A582BF01C2010E948B0592
:101D20008CE090E00E94971C8C010E94E6044BAD71
:101D30005CAD6FA178A5C8010E94CF04B101C501B7
:101D40000E94F40487E090E00E94971CFC0183E16C
:101D500090E091838083128214830383B682A582EC
:101D6000BF01C2010E948B058CE090E00E94971C8D
:101D70008C010E94E6044BAD5CAD6BA57CA5C8014F
:101D80000E94CF04B101C5010E94F40487E090E0F5
:101D90000E94971CFC0184E190E091838083128271
:101DA00014830383B682A582BF01C2010E948B0502
:101DB0008CE090E00E94971C8C010E94E604219622
:101DC0004EAD5FAD219769A17AA1C8010E94CF04F1
:101DD0006D8D7E8DC4010E94F40487E090E00E9426
:101DE000971CFC0185E190E091838083128214832B
:101DF000038396828582BF01C2010E948B058CE01D
:101E000090E00E94971C8C010E94E60421964EAD42
:101E10005FAD21976DA57EA5C8010E94CF04B601D4
:101E2000C3010E94F40487E090E00E94971CFC012B
:101E300086E190E09183808312821483038376820B
:101E40006582BF01C2010E948B058CE090E00E9478
:101E5000971C8C010E94E60421964EAD5FAD219740
:101E60006DA17EA1C8010E94CF04B601C5010E94E8
:101E7000F40487E090E00E94971CFC0187E190E069
:101E800091838083128214830383B682A582BF016B
:101E9000C2010E948B058CE090E00E94971C8C018F
:101EA0000E94E60421964EAD5FAD21976FA178A503
:101EB000C8010E94CF04B101C5010E94F40487E06B
:101EC00090E00E94971CFC0188E190E09183808360
:101ED000128214830383B682A582BF01C2010E94CD
:101EE0008B058CE090E00E94971C8C010E94E60418
:101EF00021964EAD5FAD21976BA57CA5C8010E94D0
:101F0000CF04B101C5010E94F40487E090E00E9473
:101F1000971CFC0189E190E09183808312821483F5
:101F20000383B682A582BF01C2010E948B05CE0148
:101F30000D96988F8F8BDE015396BA8FA98FFE0175
:101F40003796FC8FEB8F6091000170910101611554
:101F5000710509F084C01092310110923201109283
:101F600033011092340110922D0110922E01109223
:101F70002F01109230011092290110922A01109223
:101F80002B0110922C0140E050E0BA01CE010196E5
:101F90000E94500640912D0150912E0160912F0119
:101FA00070913001CE010D960E945006BE01635F14
:101FB0007F4FCE0107960E94D006CE0107960E9461
:101FC0002C06BE016F5F7F4F0E949D060E942C066B
:101FD0000E947202CE0107960E94ED05CE010D9679
:101FE0000E94ED05CE0101960E94ED050E946B0353
:101FF0004B015C0188ECC82ED12CE12CF12C0E9405
:102000006B03681979098A099B09683E7340810549
:102010009105A8F3E1E0CE1AD108E108F108F8EE45
:102020008F0EF3E09F1EA11CB11CC114D104E1046A
:10203000F10429F780E090E0892B09F484CF0E9415
:10204000C802882309F47BCF0E94000078CFFC01EE
:10205000828193810097D9F77382628295CB209118
:10206000F0013091F10138A72FA3D9012D903C90B8
:10207000F1013097F9F000811181D8018D919C9187
:10208000019709F049C0072E000C880B990B0E949C
:10209000591A9B01AC0160912D0170912E01809124
:1020A0002F01909130010E94AD1BF8016283738370
:1020B00084839583F1013097A9F0A081B1818D913E
:1020C0009C911197029761F54091290150912A0145
:1020D00060912B0170912C0112964D935D936D933D
:1020E0007C93159791012115310519F1F901A08112
:1020F000B18116960D90BC91A02D1097A9F08D91ED
:102100009C911197FC01108A118A128A138A1296E7
:102110000D90BC91A02DF1CF0280F381E02DA9CFCD
:102120000280F381E02DC7CFD90112962D913C9109
:10213000DACFEFA1F8A50280F381E02DFEA7EDA78D
:102140009F012115310509F4E1C0F901A081B18198
:1021500016960D90BC91A02D109769F08D919C91D1
:102160001197FC01108A118A128A138A12960D9017
:10217000BC91A02DF1CFD90112962D913C91E1CFC8
:10218000C701B6010E948C1C87FD37C0A7019601CC
:10219000C301B2010E948C1C18167CF5A5019401A4
:1021A000C301B2010E94AD1B9B01AC0160E070E075
:1021B00080E89FE30E941A1C4B015C01A30192017D
:1021C000C701B6010E94AD1B9B01AC01C501B40162
:1021D0000E94B81A20E030E040E85FE30E94AE1BA6
:1021E000F801608B718B828B938BEDA1FEA1028035
:1021F000F381E02DFEA3EDA397C0D80118968D9131
:102200009D910D90BC91A02D8D8F9E8FAF8FB8A307
:10221000A7019601C301B2010E94521A1816A4F038
:10222000A70196016D8D7E8D8F8D98A10E948C1CCB
:1022300087FD0AC080E090E0A0E8BFE3F801808B52
:10224000918BA28BB38BD1CFD8011C968D919D9190
:102250000D90BC91A02D89A39AA3ABA3BCA3A70109
:1022600096016D8D7E8D8F8D98A10E94521A87FFE9
:1022700023C0A701960169A17AA18BA19CA10E940C
:102280008C1C87FD19C029A13AA14BA15CA16D8DC1
:102290007E8D8F8D98A10E94AD1B9B01AC0160E0EB
:1022A00070E080E89FE30E941A1C4B015C012D8DB9
:1022B0003E8D4F8D58A184CFA701960169A17AA1C7
:1022C0008BA19CA10E94521A87FF8FCF2D8D3E8D2E
:1022D0004F8D58A169A17AA18BA19CA10E94521A8D
:1022E000811165C0A30192016D8D7E8D8F8D98A1A6
:1022F0000E94521A882309F45AC0A5019401C3010F
:10230000B20151C0D10112962D903C90211431049C
:1023100009F455C0F1010190F081E02DFCA7EBA775
:10232000268137813EA32DA38DA19EA1009751F355
:10233000DC010D911C91EBA5FCA5C280D380E4804B
:10234000F580D8018D909D90AD90BC901397149618
:102350004D905D906D907C901797A5019401C701F9
:10236000B6010E94521AA501940187FF09CFC3014B
:10237000B2010E94521A81111AC0F801C084D1849E
:10238000E284F384A7019601C301B2010E94521AAC
:10239000882369F0D8011C962D913D914D915C9157
:1023A0001F97C701B6010E94521A811143CFD8016D
:1023B00050961D921D921D921C92539716CFEFA11D
:1023C000F8A504811581772473940115110509F48A
:1023D0008BC3D801ED90FC90F70183819481009725
:1023E000B1F1C580D680C114D10489F10E94900357
:1023F0004B015C0120E030E0A9010E948C1C181602
:102400001CF5D70112967C92D601ED90FC90E11458
:10241000F104E9F0F701C080D180D60150962D91EA
:102420003D914D915C915397C501B4010E948C1C64
:1024300018162CF4F601808A918AA28AB38AD701F1
:102440001296ED90FC90E3CFF7011282DDCFF801F8
:1024500002811381BACF2B8A3C8A4D8A5E8A96010B
:10246000A701C901DA018D879E87AF87B88BF88DE8
:10247000FF938F898F939A8D9F93A98DAF935F93CD
:102480004F933F932F931F93AF92BF92BBA5BF93E0
:102490005F934F933F932F93EFA1EF93FDA1FF9392
:1024A00029A12F933D8D3F93A12CB12C30E8C32E51
:1024B0003FE3D32E8201710120E030E0A901BD8D00
:1024C000A9A1FDA1EFA16B2F7A2F8F2F9E2F0E9424
:1024D000DC000D851E852F8538894B895C896D89C7
:1024E0007E89D40118968D919C910E944405D30158
:1024F000ED91FC9160857185828593856F837887E6
:1025000089879A870089118932892389A801A32F95
:10251000B22F9D0109831A832B833C83E484F584C5
:102520000685178521E030E02C0F3D1F3F932F9348
:102530003C8D3F932B8D2F93BF93AF935F934F931E
:102540001F930F93FF92EF92BF93AF935F934F93BD
:1025500023812F9322812F9321812F9320812F93E9
:10256000A12CB12C650120E030E040E85FE30E943F
:10257000DC000FB6F894DEBF0FBECDBF09811A8113
:102580002B813C814F81588569857A85D4011896C5
:102590008D919C910E944405D301ED91FC91C484DE
:1025A000D584E684F7842085318542855385C7012B
:1025B000B6010E94521A882351F000E010E0980101
:1025C000B701A601F401808591850E944405D301DD
:1025D00012966D907C90A4C220E030E040E85FE36A
:1025E0006C2D7D2D8E2D9F2D0E94521A81111AC0A7
:1025F00000E010E020E83FE3B201A101F401808592
:1026000091850E944405D301ED91FC9100891189C7
:10261000228933894085518562857385F4018085DF
:102620009185B8CF2B8A3C8A4D8A5E8A9601A70194
:10263000C901DA018D879E87AF87B88BD8017C915D
:1026400011966C91119712969C91129713968C91FA
:10265000B88DBF93EF89EF93FA8DFF93A98DAF9358
:102660005F934F933F932F93D8011F96EC911F9741
:10267000EF931E96EC911E97EF931D96EC911D978C
:10268000EF931C96EC91EF935F934F933F932F93AF
:102690008F939F936F937F93A12CB12C20E8C22E30
:1026A0002FE3D22E8201710120E030E0A901DB018D
:1026B000FC016B2F7A2F8F2F9E2F0E94DC000D853F
:1026C0001E852F8538894B895C896D897E89F40147
:1026D000808591850ACF0C2D1D2D2E2D3F2DAEC24C
:1026E000F4010084F185E02D2596FFAFEEAF25972C
:1026F000208031802114310409F4EEC18101D80118
:10270000ED90FC901197E114F10409F4DFC11296E9
:102710008D919D910D90BC91A02D8FA398A7A9A7F5
:10272000BAA7F7012281338144815581BC01CD01D3
:102730000E94521A87FFCEC11E8F0D8FAD8DBE8DA8
:102740000D90BC91A02DBE8FAD8F109709F4BEC126
:10275000ED91FC91FEA3EDA3309781F3D8011A9679
:102760000D90BC91A02DBCA7ABA7D80116968D915A
:102770009D910D90BC91A02D8FA798ABA9ABBAAB42
:10278000AD8DBE8D12968D919D910D90BC91A02D19
:102790008BAB9CABADABBEABAD8DBE8D16968D91AC
:1027A0009D910D90BC91A02D8FAB98AFA9AFBAAF02
:1027B0009C01AD0166817781808591850E94AD1B6A
:1027C00029966CAF7DAF8EAF9FAF29972FA138A50B
:1027D00049A55AA5EBA5FCA56281738184819581E9
:1027E0000E94AD1B6BAF7CAF8DAF9EAF2BA93CA9F8
:1027F0004DA95EA9ADA1BEA112966D917D918D915D
:102800009C9115970E94AD1B2B013C012FA538A967
:1028100049A95AA9EBA5FCA5668177818085918598
:102820000E94AD1B23966CAF7DAF8EAF9FAF2397F9
:102830002BAD3CAD4DAD5EAD29966CAD7DAD8EAD95
:102840009FAD29970E94B81A6B017C0123962CAD8D
:102850003DAD4EAD5FAD2397C301B2010E94B81AE2
:102860009B01AC01C701B6010E94AD1B69A37AA30D
:102870008BA39CA320E030E0A9010E94521A87FF9D
:1028800009C089A19AA1ABA1BCA1B05889A39AA300
:10289000ABA3BCA32FE632E143E85AE369A17AA1D6
:1028A0008BA19CA10E94521A87FD48CF2FA938AD59
:1028B00049AD5AAD6FA578A989A99AA90E94AD1B07
:1028C0004B015C012BA93CA94DA95EA96FA178A57C
:1028D00089A59AA50E94AD1B6B017C01A5019401FD
:1028E000C301B2010E94B81A2B013C01A701960155
:1028F00029966CAD7DAD8EAD9FAD29970E94B81A1B
:102900009B01AC01C301B2010E94AD1B2B013C0134
:1029100020E030E0A9010E94521A87FF04C077FA34
:10292000709477F87094A50194016BAD7CAD8DAD7A
:102930009EAD0E94B81A4B015C01A7019601239637
:102940006CAD7DAD8EAD9FAD23970E94B81A9B01F3
:10295000AC01C501B4010E94AD1B6B017C0120E0FC
:1029600030E0A9010E94521A87FF04C0F7FAF094E0
:10297000F7F8F09429A13AA14BA15CA1C301B201DF
:102980000E941A1C4B015C0120E030E0A9010E946A
:10299000521A87FDD3CE20E030E040E85FE3C50166
:1029A000B4010E948C1C18160CF4C8CE29A13AA1BF
:1029B0004BA15CA1C701B6010E941A1C6B017C01EE
:1029C00020E030E0A9010E94521A87FDB7CE20E036
:1029D00030E040E85FE3C701B6010E948C1C181686
:1029E0000CF4ACCE8CE090E00E94971C7C01009728
:1029F00009F4A4CEEDA1FEA1DC01ED93FC93A501A9
:102A000094016BAD7CAD8DAD9EAD0E94B81A2FA127
:102A100038A549A55AA50E94AE1BD70112966D9301
:102A20007D938D939C931597A501940123966CAD8E
:102A30007DAD8EAD9FAD23970E94B81A2FA538A902
:102A400049A95AA90E94AE1BF70166837783808744
:102A500091872BA53CA533872287ADA1BEA11B96EC
:102A6000FC92EE921A97F901F182E082D801129657
:102A70008D909D90AD90BC90159716964D905D9061
:102A80006D907C901997EC901196FC90C8010E9473
:102A9000331DA50194016BA97CA98DA99EA90E9453
:102AA000521A81110AC0A30192016FA978AD89ADB4
:102AB0009AAD0E94521A882319F08701EF28B1F6C7
:102AC0002596AEADBFAD25972D903C90F1012284A7
:102AD000338410CE870113CEADA5BEA512960D90FE
:102AE000BC91A02DBEA7ADA72DA53EA521153105F2
:102AF00009F4A7C0D9018D909C90F401008511853F
:102B0000D8016D917C916115710519F0C8010E9481
:102B1000F505F80111821082D40116966D907C9013
:102B20006114710409F4DCCDF3010081118120E00E
:102B300030E0A901D80150966D917D918D919C91C5
:102B400053970E948C1C18160CF041CDF801C080E0
:102B5000D180E280F380A70196016481758186812E
:102B600097810E94521A882359F000E010E09801E2
:102B7000B701A601D40118968D919C910E9444053D
:102B8000F30100811181D80114962D903D904D9054
:102B90005C9017975096CC9050975196DC90519737
:102BA0005296EC9052975396FC905397A201910144
:102BB00018966D917D918D919C911B970E94521A50
:102BC00081110ACDF801F081FD8FD8011196BC91D9
:102BD000B9A3F801F281FDA3D8011396BC91BFA35C
:102BE000F801F485FBA7D8011D96BC901D971E9691
:102BF000AC901E971F961C917D8D69A19DA18FA100
:102C0000272F362F492F582FBF2F6B2F7B2D8A2D23
:102C1000912F0E94521A882309F45DCD20E030E004
:102C200040E85FE36C2D7D2D8E2D9F2D0E94521A62
:102C3000811111CC00E010E020E83FE3B201A101D6
:102C4000EDCCE091F001F091F1010280F381E02DF3
:102C5000309709F4CEC1A081B1818D919C911197DB
:102C6000019799F71896ED91FC910190F081E02D74
:102C70001FA618AA19AA1AAA1BAA1CAA1DAA1EAA2C
:102C8000309709F42AC1028513850115110509F44D
:102C900024C1C280D380E480F580D80112968D9043
:102CA0009D90AD90BC901597B681BD8F278129A3CB
:102CB00020843184A5019401C701B6010E94521AF3
:102CC000882309F4FEC0D8011696BC91BDA7F8016F
:102CD000F781FDA3D8011896BC91BFA3F801F18537
:102CE000FBA720E030E0A9016D8D79A1C1010E9410
:102CF000521A882359F020E030E0A9016DA57DA18A
:102D00008FA19BA50E94521A811156C020E030E08D
:102D1000A9016D8D79A1C1010E948C1C18160CF0BF
:102D200040C02D8D2FAB39A13BAF2FAE24963FAEC7
:102D30002497A7019601C501B4010E94AD1B2B0188
:102D40003C012FA93BAD4FAD24965FAD24970E9467
:102D5000B81A20E030E040E05FE30E94B81A4B016F
:102D60005C012DA53DA14FA15BA56D8D79A1C10190
:102D70000E94521A20E030E040EC5FE387FD04C07F
:102D800020E030E040E450E4C301B2010E941A1C8C
:102D90009B01AC01C701B6010E94AE1B6B017C0117
:102DA0004CC08DA58FAB9DA19BAFAFA1AFAFBBA515
:102DB0002496BFAF2497BDCF20E030E0A9016D8DF0
:102DC00079A1C1010E948C1C18160CF07EC020E075
:102DD00030E0A9016DA57DA18FA19BA50E948C1C4F
:102DE00018160CF072C02DA53DA14FA15BA56D8DED
:102DF00079A1C1010E94521AA701960181113DC01B
:102E0000C501B4010E94AD1B4B015C0120E030E024
:102E100040E05FE30E94B81A9B01AC01C701B60114
:102E20000E94AE1B6B017C012D8D39A1A101C50152
:102E3000B4010E94B81A4B015C01A7019601B401CC
:102E4000C5010E94B81A9B01AC016BA97CA98DA990
:102E50009EA90E94AE1B6BAB7CAB8DAB9EAB94016D
:102E6000A5016FA578A989A99AA90E94AE1B6FA791
:102E700078AB89AB9AABF80103CFC501B4010E94CE
:102E8000AD1B2B013C012DA53DA14FA15BA56D8D77
:102E900079A1C1010E94AE1B20E030E040E05FE379
:102EA0000E94B81AA30192010E94B81A4B015C015A
:102EB00020E030E040E05FE3C301B2010E94B81AB5
:102EC00067CF8D8C99A05101B8CFC12CD12C760140
:102ED000812C912CA12CB12CB0CF20E030E0A901A5
:102EE0006FA578A989A99AA90E94521A882309F482
:102EF00080C02FA538A949A95AA96BA97CA98DA979
:102F00009EA90E941A1CAB01BC0140933101509351
:102F100032016093330170933401CE0101960E9417
:102F2000500640912D0150912E0160912F0170911A
:102F30003001CE010D960E945006BE01635F7F4FA7
:102F4000CE0107960E94D006CE0107960E942C065D
:102F5000BE016F5F7F4F0E949D060E942C060E945B
:102F60007202CE0107960E94ED05CE010D960E94D9
:102F7000ED05CE0101960E94ED05C0902D01D09087
:102F80002E01E0902F01F090300123E733E145E37B
:102F90005BE3609131017091320180913301909136
:102FA00034010E94B81A4B015C0129E832ED4EE76A
:102FB0005FE3C701B6010E94B81A9B01AC01C501CD
:102FC000B4010E94AE1B60932D0170932E0180937B
:102FD0002F0190933001A70196010E94AD1B6093D1
:102FE000290170932A0180932B0190932C010C945A
:102FF000F60F40E050E0BA0188CFEF920F931F9395
:10300000CF93DF93E80134E047FD34E1042E000C58
:10301000550B57FF03C0519541955109E32E022FDF
:10302000242FAE010E941B18CE01DF91CF911F917A
:103030000F91EF900895A9E0B0E0E1E2F8E10C947F
:103040007C1B6A01F22EB02E102FFBE3AF2EA016D0
:1030500008F41BE31F5F012F27E0AE014F5F5F4FB6
:103060000E947A19BC018981982F9970913009F4D6
:103070003FC09BE2E1FC04C09E2D9170E0FC3AC091
:103080005E2D5071E82FE87083FF46C084E09111F7
:1030900001C083E0EF2DE81B8F1508F0E0E0D601BA
:1030A0008E2F20E2552351F1992329F0D6019C93CC
:1030B000C60101966C0196012D5F3F4FE2FE24C0D0
:1030C0008EE4D6018C9391E411969C9311971296FD
:1030D0008C93D9018E2F90E281111BC0E20FF32F48
:1030E000F11D10828EEF9FEF2996ECE00C94981B57
:1030F0009DE2C6CF90E2C4CF2D9381508111FCCFC9
:10310000CE0ED11CE0E0D0CF8EE6D6018C9391E6B6
:10311000DBCF9D938150E0CF482F447082FF3DC0AC
:1031200084E0911101C083E08F1510F4EF2DE81BAE
:10313000D6018E2F20E2552309F1992329F0D601DB
:103140009C93C60101966C0196012D5F3F4FE2FEF4
:103150001BC089E4D6018C938EE411968C93119751
:1031600086E412968C93D9018E2F90E2882309F47D
:10317000B5CF9D938150FACF2D9381508111FCCF13
:10318000CE0ED11CE0E0D9CF89E6D6018C938EE635
:1031900011968C93119786E6E4CF9B0177FF02C0CE
:1031A00030E020E0A1E0B0E0911102C0B0E0A0E08A
:1031B000F9013196AE0FBF1F8B2C912CBB2009F467
:1031C00061C05401EFEFAE1ABE0AAA0DBB1DFA167C
:1031D0001B0619F014F04F2D4A1B511188C0E3FC57
:1031E00059C07601A42FB0E2A1114FC0C40ED11C6A
:1031F000992309F45BC040E0D6011196F601908353
:103200006D01552309F448C0012F060F9A81582FEC
:10321000507184FF03C0913309F4015010160CF073
:1032200047C0093008F008E0EEE2FE2E5B01A01A6C
:10323000B10885019194819491082F3F320729F4B8
:10324000D601FC92F60131966F016217730794F173
:10325000021713077CF5DB01A21BB30BAA24A3946E
:10326000B12CAC0EBD1EAA0DBB1D11968C91215028
:103270003109D601119628153905F4F0F60180833D
:103280006D01DBCFB12CA12CA0CFF701B1937F0151
:10329000A150AACF9111B0CFD601942F50E302C014
:1032A0005D9391509111FCCFC40ED11C40E0ACCF86
:1032B00001E0BACF80E3DBCF6217730731F49633B6
:1032C00088F4953311F4552369F0F6018083FD01EC
:1032D000842F90E2811108C0A40FB11D1C9290E0D0
:1032E00080E002CF81E3F1CF91938150F3CF911130
:1032F00083CF8ACF283008F027E03327DA01990FEF
:10330000311D87FD916000966105710539F43260C9
:103310002E5F3D9330E32A95E1F708959F3F30F00B
:1033200080387105610509F03C5F3C5F3D93913049
:1033300008F08068911DDF93CF931F930F93FF9246
:10334000EF92192F987F9695E92F96959695E90F0C
:10335000FF27EE53FF4F99273327EE24FF24A701C1
:10336000E70105900894079428F4360FE71EF81E2D
:10337000491F511D660F771F881F991F0694A1F7DB
:103380000590079428F4E70EF81E491F561FC11D2B
:10339000770F881F991F661F0694A1F70590079461
:1033A00028F4F80E491F561FC71FD11D880F991FFB
:1033B000661F771F0694A1F70590079420F4490F24
:1033C000561FC71FD81F990F661F771F881F0694A7
:1033D000A9F784911095177041F0D695C795579528
:1033E0004795F794E7941A95C1F7E8E6F0E06894FA
:1033F0001590159135916591959105907FE27395A2
:10340000E118F10A430B560BC90BD009C0F7E10CC8
:10341000F11E431F561FC91FD01D7EF4703311F4D7
:103420008A95E6CFE894015030F0080F0AF400279F
:10343000021708F4202F2395022F7A3328F079E31E
:103440007D932A95E9F710C07D932A9589F6069415
:1034500097956795379517951794E118F10A430BDF
:10346000560BC90BD00998F023957E9173957A334A
:1034700008F070E37C932013B8F77E9170617D9320
:1034800030F0839571E37D9370E32A95E1F7112481
:10349000EF90FF900F911F91CF91DF91992787FDBA
:1034A000909508950E94941A08F481E00895E89494
:1034B00009C097FB3EF490958095709561957F4F7C
:1034C0008F4F9F4F9923A9F0F92F96E9BB2793952A
:1034D000F695879577956795B795F111F8CFFAF43A
:1034E000BB0F11F460FF1BC06F5F7F4F8F4F9F4F6B
:1034F00016C0882311F096E911C0772321F09EE8C9
:10350000872F762F05C0662371F096E8862F70E02E
:1035100060E02AF09A95660F771F881FDAF7880F08
:103520009695879597F90895990F0008550FAA0B5E
:10353000E0E8FEEF16161706E807F907C0F01216C6
:103540001306E407F50798F0621B730B840B950BC9
:1035500039F40A2661F0232B242B252B21F408951E
:103560000A2609F4A140A6958FEF811D811D0895BB
:103570000E94CB1A0C943C1B0E942E1B38F00E9418
:10358000351B20F0952311F00C94251B0C942B1B5C
:1035900011240C94701B0E944D1B70F3959FC1F376
:1035A000950F50E0551F629FF001729FBB27F00DF1
:1035B000B11D639FAA27F00DB11DAA1F649F662746
:1035C000B00DA11D661F829F2227B00DA11D621F95
:1035D000739FB00DA11D621F839FA00D611D221F4F
:1035E000749F3327A00D611D231F849F600D211D33
:1035F000822F762F6A2F11249F5750409AF0F1F0B6
:1036000088234AF0EE0FFF1FBB1F661F771F881F1E
:1036100091505040A9F79E3F510580F00C94251B16
:103620000C94701B5F3FE4F3983ED4F38695779536
:103630006795B795F795E7959F5FC1F7FE2B880FC4
:10364000911D9695879597F9089597F99F6780E85A
:1036500070E060E008959FEF80EC089500240A94E4
:103660001616170618060906089500240A9412165D
:103670001306140605060895092E0394000C11F490
:10368000882352F0BB0F40F4BF2B11F460FF04C03D
:103690006F5F7F4F8F4F9F4F089557FD9058440F96
:1036A000551F59F05F3F71F04795880F97FB991FA1
:1036B00061F09F3F79F0879508951216130614065E
:1036C000551FF2CF4695F1DF08C0161617061806EB
:1036D000991FF1CF86957105610508940895E894C6
:1036E000BB2766277727CB0197F908952F923F9242
:1036F0004F925F926F927F928F929F92AF92BF9202
:10370000CF92DF92EF92FF920F931F93CF93DF93AD
:10371000CDB7DEB7CA1BDB0B0FB6F894DEBF0FBE0A
:10372000CDBF09942A88398848885F846E847D8457
:103730008C849B84AA84B984C884DF80EE80FD8059
:103740000C811B81AA81B981CE0FD11D0FB6F894CF
:10375000DEBF0FBECDBFED0108955058BB27AA278D
:103760000E94C51B0C943C1B0E942E1B38F00E942B
:10377000351B20F039F49F3F19F426F40C942B1BD1
:103780000EF4E095E7FB0C94251BE92F0E944D1BDE
:1037900058F3BA17620773078407950720F079F486
:1037A000A6F50C946F1B0EF4E0950B2EBA2FA02DEE
:1037B0000B01B90190010C01CA01A0011124FF27DE
:1037C000591B99F0593F50F4503E68F11A16F040D9
:1037D000A22F232F342F4427585FF3CF46953795D8
:1037E0002795A795F0405395C9F77EF41F16BA0B9D
:1037F000620B730B840BBAF09150A1F0FF0FBB1F4B
:10380000661F771F881FC2F70EC0BA0F621F731F93
:10381000841F48F4879577956795B795F7959E3FF0
:1038200008F0B0CF9395880F08F09927EE0F979581
:10383000879508950E942E1C0C943C1B0E94351BFA
:1038400058F00E942E1B40F029F45F3F29F00C94A1
:10385000251B51110C94701B0C942B1B0E944D1BAB
:1038600068F39923B1F3552391F3951B550BBB27AF
:10387000AA2762177307840738F09F5F5F4F220FF4
:10388000331F441FAA1FA9F335D00E2E3AF0E0E8EB
:1038900032D091505040E695001CCAF72BD0FE2F35
:1038A00029D0660F771F881FBB1F261737074807C9
:1038B000AB07B0E809F0BB0B802DBF01FF27935881
:1038C0005F4F3AF09E3F510578F00C94251B0C9405
:1038D000701B5F3FE4F3983ED4F386957795679528
:1038E000B795F7959F5FC9F7880F911D96958795B6
:1038F00097F90895E1E0660F771F881FBB1F6217D5
:1039000073078407BA0720F0621B730B840BBA0B92
:10391000EE1F88F7E09508950E94941A08F48FEF3F
:103920000895EE0FFF1F0590F491E02D09940F9379
:103930001F93CF93DF938230910510F482E090E0E3
:10394000E091F401F091F50130E020E0B0E0A0E07A
:10395000309799F42115310509F44AC0281B390B19
:1039600024303105D8F58A819B816115710589F173
:10397000FB0193838283FE0111C04081518102814A
:10398000138148175907E0F04817590799F4109721
:1039900061F012960C93129713961C933296CF01F6
:1039A000DF91CF911F910F9108950093F40110932F
:1039B000F501F4CF2115310551F04217530738F0C6
:1039C000A901DB019A01BD01DF01F801C1CFEF01BF
:1039D000F9CF9093F5018093F401CDCFFE01E20F72
:1039E000F31F819391932250310939832883D7CFD4
:1039F0002091F2013091F301232B41F42091040135
:103A0000309105013093F3012093F20120910201DE
:103A1000309103012115310541F42DB73EB7409196
:103A2000060150910701241B350BE091F201F09142
:103A3000F301E217F307A0F42E1B3F0B28173907F9
:103A400078F0AC014E5F5F4F2417350748F04E0FFA
:103A50005F1F5093F3014093F201819391939FCFA5
:103A6000F0E0E0E09CCFCF93DF930097E9F0FC011A
:103A7000329713821282A091F401B091F501ED0109
:103A800030E020E01097A1F420813181820F931F54
:103A90002091F2013091F3012817390709F061C034
:103AA000F093F301E093F201DF91CF910895EA01E1
:103AB000CE17DF07E8F54A815B819E01411551056C
:103AC000B1F7E901FB83EA8349915991C40FD51FEE
:103AD000EC17FD0761F4808191810296840F951F98
:103AE000E90199838883828193819B838A83F0E0B3
:103AF000E0E012968D919C9113970097B9F52D9166
:103B00003C911197CD010296820F931F2091F201F3
:103B10003091F3012817390739F6309751F5109293
:103B2000F5011092F401B093F301A093F201BCCF20
:103B3000D383C28340815181840F951FC817D90751
:103B400061F44E5F5F4F88819981480F591F5183FF
:103B500040838A819B81938382832115310509F0FB
:103B6000B0CFF093F501E093F4019ECFFD01DC01AD
:103B7000C0CF13821282D7CFB0E0A0E0E2ECFDE12B
:103B80000C94781B8C01009751F4CB010E94971C78
:103B90008C01C801CDB7DEB7E0E10C94941BFC01A9
:103BA000E60FF71F9C0122503109E217F30708F4D2
:103BB0009DC0D901CD91DC911197C617D70798F018
:103BC000C530D10530F3CE0104978617970708F367
:103BD000C61BD70B2297C193D1936D937C93CF01D2
:103BE0000E94331DD6CF5B01AC1ABD0A4C018C0E6E
:103BF0009D1EA091F401B091F501512C412CF12CA6
:103C0000E12C109731F58091F2019091F301881524
:103C1000990509F05CC04616570608F058C0809117
:103C2000020190910301009741F48DB79EB7409136
:103C3000060150910701841B950BE817F90708F05E
:103C400055C0F093F301E093F201F90171836083B1
:103C5000A0CF8D919C91119712966C90129713960C
:103C60007C901397A815B90559F56C0142E0C40E74
:103C7000D11CCA14DB0420F1AC014A195B09DA013A
:103C80001296159780F06282738251834083D90126
:103C90006D937C93E114F10471F0D7011396FC93BA
:103CA000EE93129776CF22968C0F9D1FF901918388
:103CB0008083F301EFCFF093F501E093F40169CF36
:103CC0004816590608F42C017D01D3019ACFCB0187
:103CD0000E94971C7C01009749F0AE01B8010E9438
:103CE000791EC8010E94331D870153CF10E000E008
:103CF00050CFFB01DC0102C001900D9241505040B9
:103D0000D8F70895FB01DC0101900D920020E1F746
:063D10000895F894FFCFB6
:103D16000A000000F601800000000000FE024502D5
:103D26008B024B03BC029A02AE020D0A003B000056
:00000001FF
